:100000000C9468120C9490120C9490120C94901210
:100010000C9490120C9490120C9490120C949012D8
:100020000C9490120C9490120C94CB1F0C943A20C8
:100030000C9490120C9490120C9490120C949012B8
:100040000C9490120C9416230C9490120C94901211
:100050000C9490120C9490120C9490120C946C22AC
:100060000C9490120C9490120C9490120C94901288
:100070000C9490120C9490120C9490120C94901278
:100080000C94B6220C9490120C9490120C94901232
:100090000C9490120C9490120C9490120C94901258
:1000A0000C9490120C9490120C94901207634236A8
:1000B000B79BD8A71A39685618AEBAAB558C1D3CF9
:1000C000B7CC5763BD6DEDFD753EF6177231BF00BD
:1000D0000000803F08000000BE922449123EABAAF7
:1000E000AA2ABECDCCCC4C3E00000080BEABAAAA52
:1000F000AA3E00000000BF000000803F000000009A
:1001000000084178D3BB4387D1133D190E3CC3BDD2
:100110004282AD2B3E68EC8276BED98FE1A93E4C7F
:1001200080EFFFBE01C4FF7F3F00000000000040E1
:100130007A10F35A00A0724E18090010A5D4E800F6
:1001400000E87648170000E40B54020000CA9A3B0E
:10015000000000E1F5050000809698000000404294
:100160000F000000A0860100000010270000000022
:10017000E803000000006400000000000A00000026
:1001800000000100000000002C76D888DC674F08D2
:1001900023DFC1DFAE59E1B1B796E5E3E453C63AD8
:1001A000E651997696E8E6C28426EB898C9B62ED4F
:1001B000407C6FFCEFBC9C9F40F2BAA56FA5F49009
:1001C000055A2AF75C936B6CF9676DC11BFCE0E480
:1001D0000D47FEF520E6B500D0ED902E03009435D6
:1001E00077050080841E080000204E0A000000C829
:1001F0000C333333330F986E12831141EF8D21147A
:10020000893BE65516CFFEE6DB18D1844B381BF749
:100210007C1D901DA4BBE424203284725E228100E8
:10022000C9F124ECA1E53D2753656C662065766F26
:100230006C76696E67204149005072656469637429
:1002400069766520414900414920536D61727420EF
:10025000726573706F6E73657300414920436F6EF2
:10026000746578742061776172656E65737300419F
:100270004920636F72652075706772616465004123
:1002800073796E632070726F63657373696E670054
:100290005265717565737420726F7574696E67004D
:1002A0004C6F61642062616C616E63696E670050BF
:1002B000757368206E6F74696669636174696F6EC7
:1002C000730055736572206D6573736167696E673E
:1002D0000003081F051F1F151B1F11111F110E1FE3
:1002E00015111F05011F111D1F041F001F001010F5
:1002F0001F1F041B1F10101F061F1F011F1F111F90
:100300001F05071F311F1F051B17151D011F011F8B
:10031000101F0F100F1F0C1F1B041B071C071915A4
:10032000130C121E1F120C1E12120C121F0C1A1488
:10033000041F052E2A1E1F021C001D00201D001F69
:10034000041A011F001E041E1E021E1E121E3E1253
:100350000C0C123E1E020614120A020F121E101E70
:100360000E100E1E081E1A041A2E281E1A12161F10
:10037000111F001F001D151711151F07041F17154A
:100380001D1F151D01011F1F151F17151F00170029
:10039000001000040E04110A04040A11001C074F87
:1003A0006B003330000000000000000080000000FF
:1003B000000000000000000000000000000000003D
:1003C0001C3E3E7F7F7F3E3E1C0000000000000080
:1003D0000000000000000000000000000080E0803D
:1003E00000000040E0F0E0E06000C0F0F0C01EEF70
:1003F000EFFEF80080B883830000000000000038A2
:100400007CFCF8FC7C3800000000000000000101CA
:10041000030F03010100E0F0F1EFEFEFF3FCFDFD4E
:10042000FCFEFEFDFDFFFFFFFFFFFFFFFEFEFCF0F9
:1004300000808080808100000000000000000080BB
:1004400080C080BCFEFFFFFFFCFFFFFFFFFFF7FB4C
:10045000FBFBF7FFBF7F7F7FBFFFF7FBFBFBF7FFD8
:10046000FFFFFFFFFFFFFFFFFF3F9E80C0C0800038
:100470001E3F7F7F7F7F7F7F7F7FFFFFFFFFFFFF2D
:100480007F7F1F7FFFFFFFFFFFFFFFFFFFFFFFFFDC
:100490007F7FFFFFFFFFFFFF7F3F67FFFFFFFFFF44
:1004A0007F7F1F000000000000000000000000012E
:1004B0000101000000000000010101030303030328
:1004C0000301010000000000000000000000000027
:1004D000000000000000000000000000000080009C
:1004E000000000000000000000000000000000000C
:1004F00000001C3E3E7F7F7F3E3E1C00000000004F
:10050000000000000000000000000000000000806B
:10051000E08000000040E0F0E0E06000C0F0F0C0EB
:100520001EEFEFFEF80080B883830000000000009B
:1005300000387CFCF8FC7C38000000000000000063
:100540000101030F03010100E0F0F1EFEFEFF3FC15
:10055000FDFDFCFEFEFDFDFFFFFFFFFFFFFFFEFEBA
:10056000FCF000808080808100000000000000001E
:10057000008080C080BCFEFFFFFFFCFFFFFFFFFF8D
:10058000FFE3E1E3FFFFBF7F7F7FBFFFF7FBFBFBE5
:10059000F7FFFFFFFFFFFFFFFFFFFF3F9E80C0C091
:1005A00080001E3F7F7F7F7F7F7F7F7FFFFFFFFF7A
:1005B000FFFF7F7F1F7FFFFFFFFFFFFFFFFFFFFFAB
:1005C000FFFF7F7FFFFFFFFFFFFF7F3F67FFFFFF13
:1005D000FFFF7F7F1F000000000000000000000000
:1005E00000010101000000000000010101030303FC
:1005F00003030301010000000000000000000000F0
:10060000000000000000000000000000003E5B4F02
:100610005B3E3E6B4F6B3E1C3E7C3E1C183C7E3C62
:10062000181C577D571C1C5E7F5E1C00183C180070
:10063000FFE7C3E7FF0018241800FFE7DBE7FF3000
:10064000483A060E2629792926407F050507407F6E
:1006500005253F5A3CE73C5A7F3E1C1C08081C1CE1
:100660003E7F14227F22145F5F005F5F06097F01D7
:100670007F006689956A606060606094A2FFA294C2
:1006800008047E040810207E201008082A1C080890
:100690001C2A08081E101010100C1E0C1E0C3038DE
:1006A0003E3830060E3E0E06000000000000005FDF
:1006B00000000007000700147F147F14242A7F2AFB
:1006C00012231308646236495620500008070300BD
:1006D000001C2241000041221C002A1C7F1C2A0809
:1006E000083E08080080703000080808080800006C
:1006F00060600020100804023E5149453E00427FE0
:10070000400072494949462141494D331814127F2E
:100710001027454545393C4A4949314121110907CE
:100720003649494936464949291E0000140000004F
:100730004034000000081422411414141414004121
:1007400022140802015909063E415D594E7C1211DE
:10075000127C7F494949363E414141227F41414116
:100760003E7F494949417F090909013E4141517391
:100770007F0808087F00417F41002040413F017F02
:10078000081422417F404040407F021C027F7F04CA
:1007900008107F3E4141413E7F090909063E415113
:1007A000215E7F09192946264949493203017F0103
:1007B000033F4040403F1F2040201F3F4038403F04
:1007C000631408146303047804036159494D43001A
:1007D0007F4141410204081020004141417F040251
:1007E00001020440404040400003070800205454E8
:1007F00078407F28444438384444442838444428C6
:100800007F385454541800087E090218A4A49C7818
:100810007F0804047800447D40002040403D007F74
:100820001028440000417F40007C047804787C0854
:100830000404783844444438FC1824241818242428
:1008400018FC7C08040408485454542404043F440D
:10085000243C4040207C1C2040201C3C4030403C3C
:1008600044281028444C9090907C4464544C44009C
:100870000836410000007700000041360800020100
:100880000204023C2623263C1EA1A161123A4040EC
:10089000207A38545455592155557941215454786A
:1008A00041215554784020545579400C1E52721203
:1008B000395555555939545454593955545458008B
:1008C00000457C410002457D420001457C40F02905
:1008D0002429F0F0282528F07C5455450020545454
:1008E0007C547C0A097F4932494949323248484898
:1008F00032324A4848303A4141217A3A42402078DF
:10090000009DA0A07D39444444393D4040403D3CD9
:1009100024FF2424487E4943662B2FFC2F2BFF09FC
:1009200029F620C0887E09032054547941000044F0
:100930007D413048484A32384040227A007A0A0ADB
:10094000727D0D19317D2629292F2826292929264E
:1009500030484D4020380808080808080808382F93
:1009600010C8ACBA2F102834FA00007B000008141D
:100970002A142222142A14089500220095AA005550
:1009800000AAAA55AA55AA000000FF00101010FFE7
:1009900000141414FF001010FF00FF1010F010F0EE
:1009A000141414FC001414F700FF0000FF00FF14DF
:1009B00014F404FC141417101F10101F101F14142B
:1009C000141F00101010F0000000001F1010101075
:1009D0001F10101010F010000000FF101010101069
:1009E00010101010FF10000000FF140000FF00FFA7
:1009F00000001F10170000FC04F414141710171443
:100A000014F404F40000FF00F71414141414141464
:100A1000F700F7141414171410101F101F141414D7
:100A2000F4141010F010F000001F101F0000001F41
:100A300014000000FC140000F010F01010FF10FF74
:100A4000141414FF141010101F00000000F010FF09
:100A5000FFFFFFFFF0F0F0F0F0FFFFFF00000000ED
:100A600000FFFF0F0F0F0F0F38444438447C2A2A31
:100A70003E147E02020606027E027E026355494152
:100A8000633844443C04407E201E2006027E02025D
:100A900099A5E7A5991C2A492A1C4C7201724C3071
:100AA0004A4D4D303048784830BC625A463D3E4948
:100AB0004949007E0101017E2A2A2A2A2A44445FEC
:100AC000444440514A444040444A51400000FF01E0
:100AD00003E080FF000008086B6B083612362436EE
:100AE000060F090F06000018180000001010003053
:100AF00040FF0101001F01011E00191D1712003CDB
:100B00003C3C3C00000000000000000024002700E6
:100B10002A002D00300000000000250028002B00D6
:100B20002E00310004080201104080401020408057
:100B30004080080204018040201002011080102033
:100B400040402004040404040304050202020204D9
:100B50000302020202060606060606040402020258
:100B6000040406011501260137014A015D017201E5
:100B700088019F01B801D201EE010B022A024B024B
:100B80006E029302BA02E40210033F037003A4034F
:100B9000DC03170455049704DD0427057505C80513
:100BA00020067D06E0064907B8072D08A9082D098B
:100BB000B9094D0AEA0A900B400CFA0CC00D910ECF
:100BC0006F0F5A1053115B1272139A14D415201719
:100BD0008018F519801B231DDE1EB420A622B52423
:100BE000E4263429A72B402E0031EA330037453A5A
:100BF000BC3D68414C456B49C84D68524F57805CBD
:100C0000006210111213151617181A1C1D1F21232C
:100C10002527292C2E3134373A3E4145494E52572B
:100C20005C62686E757B838B939CA5AFB9C4D0DC86
:100C3000E9F7F0F89C8E8783878E9CF8F00000FE21
:100C4000FF0303030303070EFCF80000FEFF03038A
:100C5000030303070EFCF80000FFFF000000000084
:100C60000000FFFF0000FEFF8383838383C7EE7CC9
:100C7000380000F8FC0E07030303070EFCF8000021
:100C80003F7FE0C08080C0E07F3FFFFF01010101A6
:100C9000010101FFFF0000FFFF0C0C0C0C1C3E7754
:100CA000E3C100007FFFC0C0C0C0C0E0703F1F00B4
:100CB000001F3F70E0C0C0C0E0703F1F00007FFF1A
:100CC000C1C1C1C1C1E3773E1C00001F3F70E0C03D
:100CD000C0C0E0703F1F000000000001FFFF0100E6
:100CE0000000D5F08D14A1C881CFD9F1AF20004FFD
:100CF0004646004F4E004D7573696300546F676739
:100D00006C65004261636B00903C00168000999016
:100D100035001680009B9039001580009B903500AF
:100D200016800099903B001680009B90350015803E
:100D3000009B903C00168000999035001680009B27
:100D40009039001580009B90350016800099903BEB
:100D5000001680009B9035001580009B903C00168B
:100D60008000999035001680009B90390015800016
:100D70009B90350016800099903B001680009B9058
:100D800035001580009B903C00168000999035003E
:100D90001680009B9039001580009B9035001680CE
:100DA0000099903B001680009B9035001580009BB9
:100DB000903C002C8000859032002E800085903978
:100DC000002C8000859032002C800085903B002E06
:100DD0008000859032002C800085903C002C8000A3
:100DE000859032002E8000859039002C80008590FF
:100DF00032002C800085903B002E800085903200D0
:100E00002C800085903C004280006F903200428030
:100E100000709039004280006F9032004280006F75
:100E2000903B00428000709032004280006F903C06
:100E3000004280006F903200428000709039004282
:100E400080006F9032004280006F903B0042800033
:100E5000709032004280006F903C005880005790A4
:100E60002D005880005890390057800058902D0070
:100E700058800057903B0058800058902D005780B4
:100E80000058903C0058800057902D005880005822
:100E900090390057800058902D0058800057903BA3
:100EA0000058800058902D0057800058903C006FEB
:100EB000800042902D00708000429039006F8000C9
:100EC00042902D006F800042903B00708000429065
:100ED0002D006F800042903C006F800042902D00FA
:100EE000708000429039006F800042902D006F802A
:100EF0000042903B0070800042902D006F800042C5
:100F0000903C008580002C902D008580002E90392B
:100F1000008580002C902D008580002C903B008562
:100F200080002E902D008580002C903C0085800054
:100F30002C902D008580002E9039008580002C900B
:100F40002D008580002C903B008580002E902D0088
:100F50008580002C903C009B800015902D009B808C
:100F60000016903E0099800016902D009B80001581
:100F7000903C009B800016902D0099800016903BBD
:100F800000B180902D00B280903900B180902D008A
:100F9000B180903700B280902D00B180F042757919
:100FA0000053657276657273002B00206D617800C6
:100FB000207800C202AF02A00290027F026F025AA4
:100FC0000247023902280242757900557067726142
:100FD000646500304848360F0F064F6666696365E2
:100FE0000030787836090906436170616369747965
:100FF000004275790055706772616465005A81001E
:101000008100810081008100810081810081008157
:1010100000810081008100815A0F0F0F0E4C564C49
:1010200020004275790028300000FEFFFF07070707
:101030000707070707070707070707070707070740
:101040000707070707070707070707FFFFFE000057
:101050000000FFFFFF000000000000000000000093
:101060000000000000000000000000000000000080
:10107000000000FFFFFF00000000FFFFFF00000076
:101080000000000000000000000000000000000060
:101090000000000000000000000000FFFFFF000053
:1010A0000000FFFFFF000000000000000000000043
:1010B0000000000000000000000000000000000030
:1010C000000000FFFFFF00000000FFFFFF00000026
:1010D0000000000000000000000000000000000010
:1010E0000000000000000000000000FFFFFF000003
:1010F00010181F1F1F17070707070707070707070E
:10110000070707070707070707070707070707076F
:101110000707171F1F1F18100000660101000001BC
:1011200001000001010000010100000101000001B7
:101130000100000101000001010000010166000042
:101140000000660000000000000000000000000039
:10115000000000000000000000000000000000008F
:1011600000000000006600000000660000000000B3
:1011700000F8F82828F8D00000F0F00000F0F000A7
:101180000070F08080F0F0000000000000660000B9
:1011900000006600000000000001010101010000E4
:1011A0000000010101010100000002020203010030
:1011B0000000000000660000000066000000000063
:1011C000000000000000000000000000000000001F
:1011D00000000000000000000000000000660000A9
:1011E00000000608080000080800000808000008C1
:1011F00008000008080000080800000808000008AF
:1012000008000008080600004F5645524C4F414464
:1012100000150A150A150A150A150A150A150A15E0
:101220000A150A150A150A150A150A150A150A15C6
:101230000A150A150A150A150A150A150A150A15B6
:101240000A631308646321000F10100F001C0700CD
:101250001F0204021F322A7F2A26903C000E911D95
:10126000002C810077809035000E9111002C8100B8
:1012700078809039000E911D002C81007780903588
:10128000000E9121002C81007780903B000E91246C
:10129000002C810078809035000E9129002C81006F
:1012A0007780903C000E911D002C81007780903556
:1012B000000E9111002C810078809039000E911D54
:1012C000002C810077809035000E9121002C810048
:1012D0007780903B000E9124002C8100788090351F
:1012E000000E9129002C81007780903C000E911D0A
:1012F000002C810077809035000E9111002C810028
:1013000078809039000E911D002C810077809035F7
:10131000000E9121002C81007780903B000E9124DB
:10132000002C810078809035000E9129002C8100DE
:101330007780903C000E911D002C810077809035C5
:10134000000E9111002C810078809039000E911DC3
:10135000002C810077809035000E9121002C8100B7
:101360007780903B000E9124002C8100788090358E
:10137000000E9129002C81007780903C000E911A7C
:10138000002C810077809032000E910E002C81009D
:1013900078809039000E911A002C8100778090326D
:1013A000000E911D002C81007780903B000E912152
:1013B000002C810078809032000E9124002C810056
:1013C0007780903C000E911A002C8100778090323B
:1013D000000E910E002C810078809039000E911A39
:1013E000002C810077809032000E911D002C81002E
:1013F0007780903B000E9121002C81007880903204
:10140000000E9124002C81007780903C000E911AF0
:10141000002C810077809032000E910E002C81000C
:1014200078809039000E911A002C810077809032DC
:10143000000E911D002C81007780903B000E9121C1
:10144000002C810078809032000E9124002C8100C5
:101450007780903C000E911A002C810077809032AA
:10146000000E910E002C810078809039000E911AA8
:10147000002C810077809032000E911D002C81009D
:101480007780903B000E9121002C81007880903273
:10149000000E9124002C81007780903C000E912159
:1014A000002C81007780902D000E9115002C81007A
:1014B00078809039000E9121002C81007780902D4A
:1014C000000E9124002C81007780903B000E912823
:1014D000002C81007880902D000E912D002C810031
:1014E0007780903C000E9121002C81007780902D18
:1014F000000E9115002C810078809039000E91210A
:10150000002C81007780902D000E9124002C81000A
:101510007780903B000E9128002C81007880902DE0
:10152000000E912D002C81007780903C000E9121BF
:10153000002C81007780902D000E9115002C8100E9
:1015400078809039000E9121002C81007780902DB9
:10155000000E9124002C81007780903B000E912892
:10156000002C81007880902D000E912D002C8100A0
:101570007780903C000E9121002C81007780902D87
:10158000000E9115002C810078809039000E912179
:10159000002C81007780902D000E9124002C81007A
:1015A0007780903B000E9128002C81007880902D50
:1015B000000E912D002C81007780903C000E91212F
:1015C000002C81007780902D000E9115002C810059
:1015D00078809039000E9121002C81007780902D29
:1015E000000E9124002C81007780903B000E912802
:1015F000002C81007880902D000E912D002C810010
:101600007780903C000E9121002C81007780902DF6
:10161000000E9115002C810078809039000E9121E8
:10162000002C81007780902D000E9124002C8100E9
:101630007780903B000E9128002C81007880902DBF
:10164000000E912D002C81007780903C000E91219E
:10165000002C81007780902D000E9115002C8100C8
:101660007880903E000E9115002C81007780902D9F
:10167000000E9121002C81007780903C000E911586
:10168000002C81007880902D000E9115002C810097
:101690007780903B000E9121002C81007780902D67
:1016A000000E9115002C810078809039000E912158
:1016B000002C81007780902D000E9115002C810068
:1016C00077809037000E912D002C81007880902D2E
:1016D000000E9121002C81007780903C000E911D1E
:1016E000002C810077809035000E9111002C810034
:1016F00078809039000E911D002C81007780903504
:10170000000E9121002C81007780903B000E9124E7
:10171000002C810078809035000E9129002C8100EA
:101720007780903C000E911D002C810077809035D1
:10173000000E9111002C810078809039000E911DCF
:10174000002C810077809035000E9121002C8100C3
:101750007780903B000E9124002C8100788090359A
:10176000000E9129002C81007780903C000E911D85
:10177000002C810077809035000E9111002C8100A3
:1017800078809039000E911D002C81007780903573
:10179000000E9121002C81007780903B000E912457
:1017A000002C810078809035000E9129002C81005A
:1017B0007780903C000E911D002C81007780903541
:1017C000000E9111002C810078809039000E911D3F
:1017D000002C810077809035000E9121002C810033
:1017E0007780903B000E9124002C8100788090350A
:1017F000000E9129002C81007780903C000E911AF8
:10180000002C810077809032000E910E002C810018
:1018100078809039000E911A002C810077809032E8
:10182000000E911D002C81007780903B000E9121CD
:10183000002C810078809032000E9124002C8100D1
:101840007780903C000E911A002C810077809032B6
:10185000000E910E002C810078809039000E911AB4
:10186000002C810077809032000E911D002C8100A9
:101870007780903B000E9121002C8100788090327F
:10188000000E9124002C81007780903C000E911A6C
:10189000002C810077809032000E910E002C810088
:1018A00078809039000E911A002C81007780903258
:1018B000000E911D002C81007780903B000E91213D
:1018C000002C810078809032000E9124002C810041
:1018D0007780903C000E911A002C81007780903226
:1018E000000E910E002C810078809039000E911A24
:1018F000002C810077809032000E911D002C810019
:101900007780903B000E9121002C810078809032EE
:10191000000E9124002C81007780903C000E9121D4
:10192000002C81007780902D000E9115002C8100F5
:1019300078809039000E9121002C81007780902DC5
:10194000000E9124002C81007780903B000E91289E
:10195000002C81007880902D000E912D002C8100AC
:101960007780903C000E9121002C81007780902D93
:10197000000E9115002C810078809039000E912185
:10198000002C81007780902D000E9124002C810086
:101990007780903B000E9128002C81007880902D5C
:1019A000000E912D002C81007780903C000E91213B
:1019B000002C81007780902D000E9115002C810065
:1019C00078809039000E9121002C81007780902D35
:1019D000000E9124002C81007780903B000E91280E
:1019E000002C81007880902D000E912D002C81001C
:1019F0007780903C000E9121002C81007780902D03
:101A0000000E9115002C810078809039000E9121F4
:101A1000002C81007780902D000E9124002C8100F5
:101A20007780903B000E9128002C81007880902DCB
:101A3000000E912D002C81007780903C000E911FAC
:101A4000002C81007780902B000E9113002C8100D8
:101A500078809039000E911F002C81007780902BA8
:101A6000000E9123002C81007780903B000E912680
:101A7000002C81007880902B000E912B002C81008F
:101A80007780903C000E911F002C81007780902B76
:101A9000000E9113002C810078809039000E911F68
:101AA000002C81007780902B000E9123002C810068
:101AB0007780903B000E9126002C81007880902B3F
:101AC000000E912B002C81007780903C000E911F1E
:101AD000002C81007780902B000E9113002C810048
:101AE0007880903E000E911F002C81007780902B13
:101AF000000E9123002C81007780903C000E9126EF
:101B0000002C81007880902B000E912B002C8100FE
:101B10007780903B000E911F002C81007780902BE6
:101B2000000E9113002C810078809039000E911FD7
:101B3000002C81007780902B000E9123002C8100D7
:101B400077809037000E9126002C81007880902BB2
:101B5000000E912B002C81007780903C000E911D8F
:101B6000002C810077809035000E9111002C8100AF
:101B700078809039000E911D002C8100778090357F
:101B8000000E9121002C81007780903B000E912463
:101B9000002C810078809035000E9129002C810066
:101BA0007780903C000E911D002C8100778090354D
:101BB000000E9111002C810078809039000E911D4B
:101BC000002C810077809035000E9121002C81003F
:101BD0007780903B000E9124002C81007880903516
:101BE000000E9129002C81007780903C000E911D01
:101BF000002C810077809035000E9111002C81001F
:101C000078809039000E911D002C810077809035EE
:101C1000000E9121002C81007780903B000E9124D2
:101C2000002C810078809035000E9129002C8100D5
:101C30007780903C000E911D002C810077809035BC
:101C4000000E9111002C810078809039000E911DBA
:101C5000002C810077809035000E9121002C8100AE
:101C60007780903B000E9124002C81007880903585
:101C7000000E9129002C81007780903C000E911A73
:101C8000002C810077809032000E910E002C810094
:101C900078809039000E911A002C81007780903264
:101CA000000E911D002C81007780903B000E912149
:101CB000002C810078809032000E9124002C81004D
:101CC0007780903C000E911A002C81007780903232
:101CD000000E910E002C810078809039000E911A30
:101CE000002C810077809032000E911D002C810025
:101CF0007780903B000E9121002C810078809032FB
:101D0000000E9124002C81007780903C000E911AE7
:101D1000002C810077809032000E910E002C810003
:101D200078809039000E911A002C810077809032D3
:101D3000000E911D002C81007780903B000E9121B8
:101D4000002C810078809032000E9124002C8100BC
:101D50007780903C000E911A002C810077809032A1
:101D6000000E910E002C810078809039000E911A9F
:101D7000002C810077809032000E911D002C810094
:101D80007780903B000E9121002C8100788090326A
:101D9000000E9124002C81007780903C000E912150
:101DA000002C81007780902D000E9115002C810071
:101DB00078809039000E9121002C81007780902D41
:101DC000000E9124002C81007780903B000E91281A
:101DD000002C81007880902D000E912D002C810028
:101DE0007780903C000E9121002C81007780902D0F
:101DF000000E9115002C810078809039000E912101
:101E0000002C81007780902D000E9124002C810001
:101E10007780903B000E9128002C81007880902DD7
:101E2000000E912D002C81007780903C000E9121B6
:101E3000002C81007780902D000E9115002C8100E0
:101E400078809039000E9121002C81007780902DB0
:101E5000000E9124002C81007780903B000E912889
:101E6000002C81007880902D000E912D002C810097
:101E70007780903C000E9121002C81007780902D7E
:101E8000000E9115002C810078809039000E912170
:101E9000002C81007780902D000E9124002C810071
:101EA0007780903B000E9128002C81007880902D47
:101EB000000E912D002C81007780903C000E912126
:101EC000002C81007780902D000E9115002C810050
:101ED00078809039000E9121002C81007780902D20
:101EE000000E9124002C81007780903B000E9128F9
:101EF000002C81007880902D000E912D002C810007
:101F00007780903C000E9121002C81007780902DED
:101F1000000E9115002C810078809039000E9121DF
:101F2000002C81007780902D000E9124002C8100E0
:101F30007780903B000E9128002C81007880902DB6
:101F4000000E912D002C81007780903C000E912195
:101F5000002C81007780902D000E9115002C8100BF
:101F60007880903E000E9115002C81007780902D96
:101F7000000E9121002C81007780903C000E91157D
:101F8000002C81007880902D000E9115002C81008E
:101F90007780903B000E9121002C81007780902D5E
:101FA000000E9115002C810078809039000E91214F
:101FB000002C81007780902D000E9115002C81005F
:101FC00077809037000E912D002C81007880902D25
:101FD000000E9121002C81007780903C000E911D15
:101FE000002C810077809035000E9111002C81002B
:101FF00078809039000E911D002C810077809035FB
:10200000000E9121002C81007780903B000E9124DE
:10201000002C810078809035000E9129002C8100E1
:102020007780903C000E911D002C810077809035C8
:10203000000E9111002C810078809039000E911DC6
:10204000002C810077809035000E9121002C8100BA
:102050007780903B000E9124002C81007880903591
:10206000000E9129002C81007780903C000E911D7C
:10207000002C810077809035000E9111002C81009A
:1020800078809039000E911D002C8100778090356A
:10209000000E9121002C81007780903B000E91244E
:1020A000002C810078809035000E9129002C810051
:1020B0007780903C000E911D002C81007780903538
:1020C000000E9111002C810078809039000E911D36
:1020D000002C810077809035000E9121002C81002A
:1020E0007780903B000E9124002C81007880903501
:1020F000000E9129002C81007780903C000E911AEF
:10210000002C810077809032000E910E002C81000F
:1021100078809039000E911A002C810077809032DF
:10212000000E911D002C81007780903B000E9121C4
:10213000002C810078809032000E9124002C8100C8
:102140007780903C000E911A002C810077809032AD
:10215000000E910E002C810078809039000E911AAB
:10216000002C810077809032000E911D002C8100A0
:102170007780903B000E9121002C81007880903276
:10218000000E9124002C81007780903C000E911A63
:10219000002C810077809032000E910E002C81007F
:1021A00078809039000E911A002C8100778090324F
:1021B000000E911D002C81007780903B000E912134
:1021C000002C810078809032000E9124002C810038
:1021D0007780903C000E911A002C8100778090321D
:1021E000000E910E002C810078809039000E911A1B
:1021F000002C810077809032000E911D002C810010
:102200007780903B000E9121002C810078809032E5
:10221000000E9124002C81007780903C000E9121CB
:10222000002C81007780902D000E9115002C8100EC
:1022300078809039000E9121002C81007780902DBC
:10224000000E9124002C81007780903B000E912895
:10225000002C81007880902D000E912D002C8100A3
:102260007780903C000E9121002C81007780902D8A
:10227000000E9115002C810078809039000E91217C
:10228000002C81007780902D000E9124002C81007D
:102290007780903B000E9128002C81007880902D53
:1022A000000E912D002C81007780903C000E912132
:1022B000002C81007780902D000E9115002C81005C
:1022C00078809039000E9121002C81007780902D2C
:1022D000000E9124002C81007780903B000E912805
:1022E000002C81007880902D000E912D002C810013
:1022F0007780903C000E9121002C81007780902DFA
:10230000000E9115002C810078809039000E9121EB
:10231000002C81007780902D000E9124002C8100EC
:102320007780903B000E9128002C81007880902DC2
:10233000000E912D002C81007780903C000E9121A1
:10234000002C81007780902D000E9115002C8100CB
:1023500078809039000E9121002C81007780902D9B
:10236000000E9124002C81007780903B000E912874
:10237000002C81007880902D000E912D002C810082
:102380007780903C000E9121002C81007780902D69
:10239000000E9115002C810078809039000E91215B
:1023A000002C81007780902D000E9124002C81005C
:1023B0007780903B000E9128002C81007880902D32
:1023C000000E912D002C81007780903C000E912111
:1023D000002C81007780902D000E9115002C81003B
:1023E0007880903E000E9121002C81007780902D06
:1023F000000E9124002C81007780903C000E9128E3
:10240000002C81007880902D000E912D002C8100F1
:102410007780903B000E9121002C81007780902DD9
:10242000000E9115002C810078809039000E9121CA
:10243000002C81007780902D000E9124002C8100CB
:1024400077809037000E9128002C81007880902DA5
:10245000000E912D002C81007780F0080B00020205
:10246000020000090400000102020000052400101F
:1024700001052401010104240206052406000107C8
:1024800005810310004009040100020A0000000752
:102490000502024000000705830240000004030912
:1024A0000412010002EF02014041233680000101C5
:1024B00002030141726475696E6F204C4C43004108
:1024C000726475626F7900090F060600CB232F2C0A
:1024D00011241FBECFEFDAE0DEBFCDBF13E0A0E0D6
:1024E000B1E0EEE1FAE602C005900D92A031B1072D
:1024F000D9F728E0A0E1B3E001C01D92AF32B207E6
:10250000E1F712E1C7E6D2E104C02197FE010E9483
:102510000A33C636D107C9F70E944C240C94023501
:102520000C9400008091350308956F927F928F92F2
:102530009F92AF92BF92CF92DF92EF92FF920F9352
:102540001F93CF93DF93DC01FA01149131965491DC
:102550003196C12FD0E0222309F1CC24C394D12C91
:10256000852F877011F4D12CC12CE52EE694E694CA
:10257000E694EC0CFD2CF11CEC9EC001ED9E900D40
:10258000FC9E900D1124033011F4880F991F289F91
:102590007001299FF00C1124EE0DFF1D7D01EC0E42
:1025A000FD1E1E141F040CF06BC0A038B1050CF00A
:1025B00067C0CB01850F911D181619060CF060C07D
:1025C000603471050CF05CC0309709F459C0362FA7
:1025D0003770CB0177FD079623E0959587952A956F
:1025E000E1F7282F77FF04C0332311F02FEF280FD6
:1025F000662777276A1B7B0BB7FD02C070E060E09F
:1026000090E89A1B40E8E416F1040CF4912F961B15
:10261000E22E022E000CFF08DE2CD0942F3F0CF08F
:10262000D12C41E0852F877009F440E0B52EB69497
:10263000B694B6944B0DE40EF11C89E0E816F10453
:1026400014F048E0421BB42EBD182D0D40E82403C1
:1026500070011124AE0DBF1DA60FB71F1D9D600D8B
:10266000711D1124AF01460F571FC32E032E000CFE
:10267000DD08033009F4C7C090F4023009F474C0D7
:10268000DF91CF911F910F91FF90EF90DF90CF904E
:10269000BF90AF909F908F907F906F9008950A3F6A
:1026A000A1F1B20E0B3F61F72B1551F3BD01635839
:1026B0007C4F10E000E0091708F09FC0FA01E00F1E
:1026C000F11FE491F0E04F010C2C02C0880C991C22
:1026D0000A94E2F727FD06C0FB018081F82CF094F4
:1026E0008F218083332361F0273054F47B01F0E89D
:1026F000EF0EF11CA92CA094F70180818A21808320
:102700000F5F1F4F6F5F7F4FD6CFB20E2B1509F4AF
:10271000B7CFBD0163587C4F10E000E0091708F007
:1027200066C0FA01E00FF11FE491F0E04F010C2CBC
:1027300002C0880C991C0A94E2F727FD04C0FB0133
:10274000808188298083332351F0273044F47B0132
:10275000F0E8EF0EF11CF7018081892980830F5F7B
:102760001F4F6F5F7F4FDACF6FEF70E0032E02C015
:10277000660F771F0A94E2F760957095972E8B2C61
:10278000820E281509F47CCF8D0103581C4FF12CC3
:10279000E12CE91630F5FA01EE0DFF1DE491F0E0B1
:1027A0003F010C2C02C0660C771C0A94E2F727FD4F
:1027B00005C0F8018081862386298083332359F060
:1027C00027304CF45801F0E8AF0EB11CF5018081C0
:1027D000892187298083FFEFEF1AFF0A0F5F1F4FC0
:1027E000D8CF2F5F4C0F5D1FA058BF4FCACF2F5FB0
:1027F0004C0F5D1FA058BF4F89CF2F5F4C0F5D1F3F
:10280000A058BF4F51CFE92EF12CFA01E60FF71F68
:10281000A358BC4F60E870E06E197F09CE19DF093C
:102820008E01000F111F41E050E07A01032E01C01C
:10283000EE0C0A94EAF7592F4B2D892E932ECF9345
:10284000DF93ED01EF96EF962296A590C590992023
:1028500059F0AE9C5001CE9C600127302CF4F880DA
:10286000D094FD20FB28F99222233AF0FC90C094EA
:10287000FC20FA28FD920C943E1411965A9529F7E3
:102880004A9551F0582D23951124E00FF11DA60F04
:10289000B11DC60FD11DD9CFDF91CF911124F0CE3C
:1028A000480F592F511D1416150684F580389105CF
:1028B0006CF597FF02C090E080E04138510514F0BC
:1028C00040E850E0481BFB01E770FF2721E001C012
:1028D000220FEA95EAF777FF02C0695F7F4FFB019D
:1028E00033E0F595E7953A95E1F7F695FE2FEE275B
:1028F000F795E795E80FF91FE358FC4F415030F08A
:102900008191DF011197822B8C93F8CF08954F921C
:102910005F926F927F928F929F92AF92BF92CF926F
:10292000DF92EF92FF920F931F93CF93DF9330E0EC
:10293000F901E80FF91F1E161F060CF07FC0803842
:1029400091050CF07BC0802E912CF401E60FF71F4F
:102950001E161F060CF072C0603471050CF06EC0BC
:10296000E62FE7707E2EF7E08F0E911CE3E0959442
:102970008794EA95E1F7F3E075956795FA95E1F7A5
:10298000062E000C770BDB01B695BA2FAA27B79558
:10299000A795A80FB91FA358BC4FEA0110E000E0AB
:1029A0007801E60EF71E48E0E416F1040CF046C08C
:1029B000EFEFEE16FE06C4F150E040E05D01F0E8F6
:1029C000AF0EB11C421753077CF5FA01E80FF91F4F
:1029D000E038F1054CF5F7FD24C0FA01EC0FFD1FBE
:1029E000E491F0E02F01072C02C0440C551C0A941E
:1029F000E2F7EFEFEE16FE0691F16D01C40ED51E63
:102A0000F601608064286082772059F0F7E0EF16C5
:102A1000F10439F06501C40ED51EF6016080652809
:102A200060824F5F5F4FCECF0F5F1F4FA058BF4FE9
:102A3000C20FD31F8016910609F0B2CFDF91CF915C
:102A40001F910F91FF90EF90DF90CF90BF90AF90CC
:102A50009F908F907F906F905F904F90089571102E
:102A6000D9CFDFCF0F93682F70E008E025E047EC67
:102A700054E290E080E00E9487140F910895EDE702
:102A8000F3E0A0E0B8E000800EBC8111012C1197AA
:102A9000A0FDFDCF0192B9F70DB40895FC0180911E
:102AA0007C03882311F13FB7F89482E08093E9001A
:102AB0002091F200822F90E01816190614F481E09C
:102AC00090E0882339F0289844E640937B034091B6
:102AD000F1004083222339F02091F200211103C03C
:102AE0002BE62093E8003FBF08958FEF9FEF0895F6
:102AF0002FB7F89483E08093E9009091E800892F44
:102B0000807295FF04C09091F20080E4891B2FBF72
:102B100008958091730381110DC082E080936F034B
:102B200084E080937003109272031092710381E02D
:102B3000809373038FE693E00895CF93DF931F9202
:102B4000CDB7DEB76983DC01ED91FC910280F381A2
:102B5000E02D41E050E0BE016F5F7F4F09950F907F
:102B6000DF91CF91089583E08093E9008091F20096
:102B7000882319F08AE38093E80008950E9478156D
:102B800090E00895CF93DF931F92CDB7DEB7FC019D
:102B90008485958597FD08C02FEF3FEF3587248703
:102BA0000F90DF91CF910895CE0101960E944E15AE
:102BB000019719F4898190E0F3CF8FEF9FEFF0CF69
:102BC0000F931F93CF93DF931F92CDB7DEB78C0186
:102BD000FC018485958597FF0BC0CE0101960E946C
:102BE0004E15019771F4898190E0F80195878487EB
:102BF000F801848595850F90DF91CF911F910F91FA
:102C000008958FEF9FEFF1CFFC018485958597FDA7
:102C10000BC09FB7F89482E08093E9008091F200A6
:102C20009FBF90E0019608959FB7F89482E080934B
:102C3000E9008091F2009FBF90E008954091690300
:102C400050916A032091670330916803421753073C
:102C5000B4F49091E8009570E1F39091E80092FD52
:102C600019C08093F1008091690390916A030196E5
:102C70008F739927892B19F48EEF8093E800809148
:102C8000690390916A03019690936A0380936903A4
:102C900081E0089580E00895DF92EF92FF920F9314
:102CA0001F93CF93DF93D82E8A01EB017B01E40EB3
:102CB000F51ECE15DF0559F0D7FE12C0FE01849136
:102CC0000E941E1621968111F4CF0FEF1FEFC8014D
:102CD000DF91CF911F910F91FF90EF90DF900895BA
:102CE0008881EECF0F931F93CF93DF931F92CDB7C1
:102CF000DEB782E0898342E450E06BE574E280E86D
:102D00000E944C160E948915DC0112960D911C91AF
:102D10000115110589F0D801ED91FC910280F38134
:102D2000E02DBE016F5F7F4FC801099597FD04C07C
:102D3000F80100851185ECCF89810F90DF91CF914B
:102D40001F910F910895615030F02091F100FC0126
:102D500020830196F8CF289884E680937B0308951A
:102D6000FC010E944717319728F068517C4F8F4F24
:102D70009F4FF9CFAB01FC010E94471764177507FD
:102D80008E079F07C8F308958F929F92AF92BF92CC
:102D9000CF92DF92EF92FF920F931F93CF93DF9327
:102DA0006C017B018A0180916F01882309F45AC06C
:102DB00080917C03882309F455C080916E0380FFC5
:102DC00005C08091E00082608093E000E801B12CB2
:102DD0008AEFA82E93E0892E2AE3922E209711F4F1
:102DE000BB20C9F10E947815811108C0AA94AA20BD
:102DF000C9F181E090E00E94B016F0CF8C171D065B
:102E000011F00CF08C2F9FB7F8948092E90020917C
:102E1000E80025FD02C09FBFE1CF282F30E0C21B94
:102E2000D30BF701815020F041914093F100FACF8C
:102E3000E20EF31EBB2021F09092E800B12CEBCF04
:102E40008091E80085FDE7CF9092E800BB24B39421
:102E5000209709F3F3CF5D9884E680936D031016F5
:102E600011063CF081E090E0F6019383828310E04C
:102E700000E0C801DF91CF911F910F91FF90EF907B
:102E8000DF90CF90BF90AF909F908F900895A3E672
:102E9000B3E02FB7F8947D918D919C9166B52FBFCB
:102EA000A89B05C06F3F18F47F5F8F4F9F4F22E0B4
:102EB000660F771F881F991F2A95D1F70895AF9243
:102EC000BF92CF92DF92EF92FF920F931F93CF9317
:102ED000DF936C017B018B01040F151FEB015E0179
:102EE000AE18BF08C017D10759F06991D601ED910E
:102EF000FC910190F081E02DC6010995892B79F7AD
:102F0000C501DF91CF911F910F91FF90EF90DF905E
:102F1000CF90BF90AF900895FC01448155816081AE
:102F200071818FEC97E00C945F17CF92DF92EF9254
:102F3000FF921F93CF93DF93E82FF0E0EA58FE4F04
:102F40001081E62FF0E0603398F5EE5FF34FE491E7
:102F5000CE2FD0E0F12CE12C60E074E284EF90E021
:102F6000A7019E010E94D92F215031094109510921
:102F700091E02115310581E0480751056CF060E9C9
:102F800070ED83E090E0A7019E010E94D92F2150AF
:102F900031094109510993E0113089F0133039F1B9
:102FA000DF91CF911F91FF90EF90DF90CF90089528
:102FB000EE0FFF1FEE5FF44FC591D491CBCF809100
:102FC00034038111EDCF80918100887F892B80931C
:102FD0008100309389002093880010928500109220
:102FE000840080916F00826080936F00D9CF8091C0
:102FF0009100887F892B80939100309399002093D2
:1030000098001092950010929400D0933303C093CF
:10301000320381E08093310380917100826080935C
:103020007100BECFE82FF0E0EA58FE4F808181307A
:1030300019F08330A9F008958091340381110FC0F5
:1030400080916F008D7F80936F0080912303E091CA
:103050002103F09122039081809589238083089534
:1030600010923103809130038111F9CF80912E03AA
:10307000E0912C03F0912D03EECFCF93DF93D1E0BD
:10308000E0915203F0915303AF014F5F5F4F5093B4
:103090005303409352032491822F807FC22FCF701D
:1030A000803821F48C2F0E941218EACF803919F54C
:1030B000E091CD07F091CE0709958D2780932F03DE
:1030C000E0915203F0915303CF0101969093530383
:1030D00080935203649180913C03C81788F6C130F5
:1030E00021F4809120038111CBCF67FDC9CF8C2FB4
:1030F0000E949517C5CF87FD3CC03296F0935303CD
:10310000E0935203FA014491A0913203B09133034A
:10311000322F242F0E945C306C507E4F8F4F9F4F78
:1031200028EE33E040E050E00E943A30209328033C
:103130003093290340932A0350932B038091280353
:1031400090912903A0912A03B0912B03892B8A2BFC
:103150008B2B61F481E090E0A0E0B0E08093280345
:1031600090932903A0932A03B0932B03DF91CF916F
:103170000895803E49F480915403909155039093B3
:103180005303809352037CCF803F09F079CF109294
:103190005603ECCF90913C03923009F471C0292F73
:1031A00030E0F901EA58FE4F4081225E3C4FF901C0
:1031B0008083913031F420911E03281302C0909334
:1031C00020039F5F90933C0390E0FC01ED5BF44F84
:1031D00024918C5D944FFC01849130E0220F331FC9
:1031E000F901EA5EF44F65917491F901E85FF44FDB
:1031F000A591B4919C91982B9C93413019F0433048
:10320000D9F0089590916400977F90936400109294
:1032100080001092810090918100986090938100CD
:10322000909181009160909381007093220360934C
:10323000210380932303089590916500977F9093D5
:10324000650010929000109291009091910098600A
:103250009093910090919100916090939100709360
:103260002D0360932C0380932E0380913C038823CD
:1032700021F06CE380E00E94951780E00C94121816
:10328000089590E00C94B0168FB18095807F669B76
:1032900088601C9B846008953E9A3F9A81E08093E9
:1032A0003503089590914803982329F49091490398
:1032B000982381E009F480E0089580E00C943F15A4
:1032C00080389105B8F460347105A0F490E121E0F4
:1032D00061FD24E060FD220F62FD2295687F969FCC
:1032E000D0011124A80FA358BC4F0C90022A40FF14
:1032F00002260C9208952F923F924F925F926F9206
:103300007F928F929F92AF92BF92CF92DF92EF9275
:10331000FF920F931F93CF93DF937C014B01C42F38
:10332000D0E081E090E06C01CC1ADD0AAA24BB2435
:10333000AC1ABD0AAA0CBB1C66246394712C10E065
:1033400000E0822F8470582E822F8270482E822FA8
:103350008870382E2170222ED7FC06C0219782E07B
:10336000A80EB11CCA0CDB1C0F5F1F4F82E0680E59
:10337000711CC60CD71C552091F041E0BE01680DB0
:10338000791DC701800F911F0E94601941E0B401AF
:10339000600F711FCE018E0D9F1D0E946019442089
:1033A00091F041E0B4016C1B7D0BC701800F911FB0
:1033B0000E94601941E0B401601B710BCE018E0DBB
:1033C0009F1D0E946019332091F041E0B401600F0D
:1033D000711FC7018C1B9D0B0E94601941E0BE014B
:1033E000680D791DC701801B910B0E946019222076
:1033F00091F041E0B401601B710BC7018C1B9D0B68
:103400000E94601941E0B4016C1B7D0BC701801B59
:10341000910B0E9460190C171D070CF49DCFDF91D2
:10342000CF911F910F91FF90EF90DF90CF90BF90C1
:10343000AF909F908F907F906F905F904F903F9054
:103440002F9008952F923F924F925F926F927F92AA
:103450008F929F92AF92BF92CF92DF92EF92FF92A4
:103460000F931F93CF93DF93EC018B017A016901D6
:10347000C61AD70AD7FE03C0D194C194D108470118
:103480008C1A9D0A97FE03C09194819491088C1424
:103490009D0454F49E2D8F2D7901292F382F9C2FB8
:1034A0008D2FE801092F182FEC16FD0654F4902FEC
:1034B000812F8901292F382F9C2F8D2FE701E92E8D
:1034C000F82E17012C1A3D0A2901401A510A57FEFD
:1034D00003C0519441945108310137FE03C08FEF6E
:1034E000681A780A759467948FEF021713070CF423
:1034F00081E0A82E880FBB08EC16FD06A4F041E081
:10350000BE01C8018C149D0414F0B801CE010E94C4
:1035100060196418750877FE04C00A0D1B1D620C43
:10352000731C2196E9CFDF91CF911F910F91FF90EE
:10353000EF90DF90CF90BF90AF909F908F907F9053
:103540006F905F904F903F902F9008958F929F9231
:10355000AF92BF92CF92DF92EF92FF920F931F93A1
:10356000CF93DF936D3089F0C0904603D09047032E
:103570006A30D1F4109245031092440388E0C80EDB
:10358000D11CD0924703C092460381E090E0DF91C6
:10359000CF911F910F91FF90EF90DF90CF90BF9050
:1035A000AF909F908F900895009144031091450330
:1035B000E5E06E9FE0011124C85FD94F4801F12C6E
:1035C000F5E0E12CFF1629F0CE010196FE01E49012
:1035D000EC01B12CA12C4E2D4170B6016A0D7B1D62
:1035E000C4010E946019E694FFEFAF1ABF0A88E099
:1035F000A816B10481F7F394EFEF8E1A9E0AF6E055
:10360000FF12DECF0A5F1F4F109345030093440360
:10361000BCCFDF92EF92FF920F931F93CF93DF9374
:103620007C01D22E8B01040F111DEB0177FF02C02C
:10363000D0E0C0E0C8010134110514F080E490E04E
:10364000C817D9073CF44D2DBE01C7010E9460196F
:103650002196F0CFDF91CF911F910F91FF90EF90C6
:10366000DF9008952F923F924F925F926F927F92D8
:103670008F929F92AF92BF92CF92DF92EF92FF9282
:103680000F931F93CF93DF9300D000D0CDB7DEB759
:103690005C012B012A83242F30E03C832B8381E0C3
:1036A00090E07C01E21AF30A190131942194310867
:1036B000220C331C88248394912CD12CC12C31E012
:1036C000300F3983F7FC0AC0EB81FC813197FC8312
:1036D000EB83F2E02F0E311CE20CF31C2FEFC21A29
:1036E000D20A32E0830E911CE80CF91C4B81440F86
:1036F000B2018B819C81681B790B102F180D320150
:103700006C187D089A81913069F5E9814E0F20E0AF
:10371000C5018C0D9D1D0E94091B20E0412FB301A6
:103720008B819C818A0D9B1D0E94091B8B819C8132
:10373000C816D9063CF20F900F900F900F90DF91B2
:10374000CF911F910F91FF90EF90DF90CF90BF909E
:10375000AF909F908F907F906F905F904F903F9031
:103760002F900895F9814F0F20E0C5018C199D0914
:103770000E94091B20E0412FB301C501EB81FC81B0
:103780008E1B9F0BD1CF5F926F927F928F929F92F1
:10379000AF92BF92CF92DF92EF92FF920F931F935F
:1037A000CF93DF93EC017B01142F722E602E660CF9
:1037B000542E5618802E912C5401A80EB91E603438
:1037C000710520F4452DC5010E9450146701C70CF6
:1037D000D11CB601615071096034710520F4452D8A
:1037E000C5010E9450147618E80CF91C21E0472D01
:1037F000B701CE010E94091BC10FD11D21E0472D49
:10380000B701CE0101970E94091B21E0402FB701AB
:10381000C5010E947B19C819D909219722E0402FC0
:10382000B701CE010E947B19C818D90881E0C81AD7
:10383000D10824E0402FB601CE010E947B1928E078
:10384000402FB601C501DF91CF911F910F91FF90DD
:10385000EF90DF90CF90BF90AF909F908F907F9030
:103860006F905F900C947B192091400384E0289F17
:103870009001112441E090E080E0FC01E20FF31F91
:10388000EF5AFE4F5081511140E00196843091056E
:10389000A1F740933F0308958F929F92AF92BF92FA
:1038A000CF92DF92EF92FF9210924303E1E0F1E0BA
:1038B00081E591E0C12CD12C7601C3942281338122
:1038C000C20ED31EE11CF11C38968E179F07B1F76C
:1038D000C0924E03D0924F03E0925003F0925103F6
:1038E000E1E5F1E025E531E0812C912C54014FE038
:1038F0008191849FC0011124092E000CAA0BBB0BDF
:10390000880E991EAA1EBB1E2E173F0789F78092AC
:103910004A0390924B03A0924C03B0924D03A4E64D
:10392000B0E0A70196010E94F82FA501940121158E
:1039300031054105510521F421E030E040E050E03F
:103940000E943A3030934203209341032F3B3105CC
:10395000A8F081E080934303F694E794D794C7944A
:103960008BE0C816D104E104F10488F4C0924E0340
:10397000D0924F03E0925003F0925103FF90EF90EA
:10398000DF90CF90BF90AF909F908F9008958AE086
:1039900090E0A0E0B0E080934E0390934F03A0939B
:1039A0005003B0935103EACF0F93CF93DF93EC0111
:1039B0009E816A3059F48D818C836985960F9E8330
:1039C00081E090E0DF91CF910F910895262F61E083
:1039D000690F2A3398F4203398F52B3299F140F48B
:1039E0002132A1F198859D5F8C81890F8C83E8CF6E
:1039F0002E3251F12F32B1F723E40FC02B3540F4B2
:103A00002134E0F42C3321F12E3361F721E405C099
:103A10008FE9820F27548A3128F7062E000C770B86
:103A20008C81082E000C990B3F810AEF313009F090
:103A30000BEF41ED52E00E949512D4CF2154EDCF0F
:103A40002C5FEBCF20E4E9CF2FE3E7CF2EE3E5CFE8
:103A500022E4E3CF0F931F93CF93DF938C01D0E049
:103A6000C0E0F801EC0FFD1F6491662341F08FEC7C
:103A700097E00E94D41C892B11F02196F2CFCE0141
:103A8000DF91CF911F910F910895EF92FF920F93C5
:103A90001F93CF93DF9390913B03D1E09111A3C08B
:103AA000282F30E0A9014F5E5C4F7A01FA01D081E6
:103AB000D11199C091E09093590390913A039536B2
:103AC00008F099C09F5F90933A03C82F0DE010E073
:103AD00020E042E366E070E0C8010E94091B0F5F2E
:103AE0001F4F06371105A1F707E210E021E045E07E
:103AF0006BE070E085E790E00E94321B22E045E039
:103B00006BE070E08DE090E00E94321B05E022E364
:103B100043E765E070E088E090E00E94C31BC63098
:103B2000D0F002E020E042EA53E062E170E08AE592
:103B300090E00E94951240913A034B3508F04AE517
:103B400050E04C5E5F4F24E330E064E370E08CE0D3
:103B500090E00E94221A8BE08093D4078093D307D1
:103B600088E08093D507F6E0CF9FC00111248352EF
:103B7000984F0E948C1710E000E020E048E068E3D6
:103B800070E0C8010E94091B0F5F1F4F003811052C
:103B9000A1F708E027E043ED5FE069E370E08AE524
:103BA00090E00E94871484E68093D4078093D30723
:103BB00089E38093D5078FE993E00E942A1D84E072
:103BC0000E9452198823C9F090913A03933358F018
:103BD0001092590391E0F701908310923A0396E90D
:103BE00090933B03D82F8D2FDF91CF911F910F9191
:103BF000FF90EF90089594E666CFD0E0F4CF08955B
:103C000090E080E008958F929F92AF92BF920F93C1
:103C10001F93CF93DF93CDB7DEB7A1970FB6F8947C
:103C2000DEBF0FBECDBF19A2423008F44AE08E01BC
:103C30000F5D1F4F842E912CB12CA12CA501940156
:103C40000E943A30E62FB901CA01EA3044F5E05D3E
:103C5000D801EE938D01232B242B252B79F790E0AF
:103C600080E0109769F0FD0101900020E9F731979D
:103C7000AF014A1B5B0BBD018FEC97E00E945F1701
:103C8000A1960FB6F894DEBF0FBECDBFDF91CF91E6
:103C90001F910F91BF90AF909F908F900895E95C16
:103CA000D7CF0F931F93CF93DF93EC018881998136
:103CB000009759F02A813B812617370730F081E0C1
:103CC000DF91CF911F910F9108958B016F5F7F4F0F
:103CD0000E943534009759F0998388831B830A83A7
:103CE0002C813D81232B59F7FC011082E8CF80E025
:103CF000E7CFCF93DF93EC0188819981009711F092
:103D00000E94AC33198218821D821C821B821A8287
:103D1000DF91CF910895EF92FF920F931F93CF936E
:103D2000DF938C017B01FB0101900020E9F73197C3
:103D3000E61BF70BD1F0DC011496CD91DC91CE0F90
:103D4000DF1FBE010E94511E8823B9F0F8012081B7
:103D5000318184819581B701820F931F0E94FB34CA
:103D6000D8011596DC93CE931497C801DF91CF91BB
:103D70001F910F91FF90EF900895C8010E94791E46
:103D8000F4CFEF92FF920F931F93CF93DF93EC0149
:103D90007B018A01BA010E94511E81110BC0CE0124
:103DA0000E94791ECE01DF91CF911F910F91FF905C
:103DB000EF9008951D830C83B701888199810E943B
:103DC000FB34F0CFEF92FF920F931F93CF93DF93CB
:103DD000CDB7DEB7A1970FB6F894DEBF0FBECDBF4B
:103DE0007C01CB01BA01F701118210821382128289
:103DF000158214828E010F5F1F4F21E043E00E9465
:103E00003E2C0097C9F0FC0101900020E9F73197A2
:103E1000AF01481B590BBC01C7010E94C11EA196EE
:103E20000FB6F894DEBF0FBECDBFDF91CF911F91CB
:103E30000F91FF90EF900895C7010E94791EEFCF78
:103E4000FB01DC0111961C921E9213961C921E928D
:103E5000129715961C921E9214978617970749F091
:103E6000608171816115710521F0448155810C9447
:103E7000C11E0895FC0180819181009711F00C947E
:103E8000AC330895CF92DF92EF92FF92CF93DF93FE
:103E9000CDB7DEB72C970FB6F894DEBF0FBECDBFFF
:103EA0006B017C0128EEC21623E0D206E104F10486
:103EB00080F44AE00E94031E2C960FB6F894DEBFF1
:103EC0000FBECDBFDF91CF91FF90EF90DF90CF90ED
:103ED00008950E94C42E20E4C21622E4D2062FE0E8
:103EE000E206F10420F520E030E04AE754E40E94C5
:103EF0006B30AB01BC01CE0101960E94E21EBE01F7
:103F00006F5F7F4FCE0107960E94201F69EA71E024
:103F1000CE0107960E948B1E0E948C17CE01079639
:103F20000E943A1FCE0101960E943A1FC5CFC114CC
:103F30002AECD2062AE9E2062BE3F206B0F420E0EE
:103F400034E244E759E40E946B30AB01BC01CE017E
:103F500001960E94E21EBE016F5F7F4FCE01079661
:103F60000E94201F6BEA71E0D3CF28E23BE64EE6C9
:103F70005EE40E946B30AB01BC01CE0101960E9451
:103F8000E21EBE016F5F7F4FCE0107960E94201F89
:103F90006DEA71E0BDCF1F920F920FB60F92112400
:103FA0008F939F938091E1009091E100937F909394
:103FB000E10083FF0FC01092E90091E09093EB00C5
:103FC0001092EC0092E39093ED0010927C0398E045
:103FD0009093F00082FF22C093E09093E9009091CB
:103FE000F200992319F09AE39093E80090916D0301
:103FF000992341F090916D03915090936D0391112D
:1040000001C05D9A90917B03992341F090917B03CD
:10401000915090937B03911101C0289A84FF18C09E
:104020008091E2008E7E81608093E2008091E100C9
:104030008F7E8093E10080916E038E7E80618093FD
:104040006E039F918F910F900FBE0F901F90189548
:1040500080FFF7CF8091E2008E7E80618093E20046
:104060008091E1008E7E8093E10080916E038E7ED0
:104070008160E5CF1F920F920FB60F921124CF925D
:10408000DF92EF92FF920F931F932F933F934F93E3
:104090005F936F937F938F939F93AF93BF93EF93B0
:1040A000FF93CF93DF93CDB7DEB76C97DEBFCDBF65
:1040B0001092E9008091E80083FF25C068E0CE01FE
:1040C00045960E94A31682EF8093E8008D8987FFB2
:1040D00039C09091E80090FFFCCF982F907609F0BE
:1040E00034C19E894F89588D2F89F88C911131C028
:1040F000803861F580916C038093F1001092F1009B
:104100008EEF8093E8006C960FB6F894DEBF0FBE7A
:10411000CDBFDF91CF91FF91EF91BF91AF919F9173
:104120008F917F916F915F914F913F912F911F914F
:104130000F91FF90EF90DF90CF900F900FBE0F90F8
:104140001F9018959EEF9093E800C7CF1092F10052
:10415000D5CF913059F48111D3CF4130510581F63B
:1041600080916C038D7F80936C03CACF933049F4A8
:104170008111C6CF4130510519F680916C038260E0
:10418000F2CF953041F48091E80080FFFCCF2068A9
:104190002093E300B5CF963009F0A9C00B8D1C8D9C
:1041A00022E01092E90010926A0310926903F21261
:1041B0002EC010926803109267030E9472161F822D
:1041C00099E09983FA8291E09E8390EA98879AEF2A
:1041D00099872091690330916A03275F3F4F3C83A1
:1041E0002B838D831092E90010926A031092690369
:1041F000109368030093670349E050E0BE016F5FCE
:104200007F4F80E00E944C160E94721679CF109367
:104210006803009367030E948915DC0112960D91D3
:104220001C910115110509F451C1D801ED91FC91C2
:104230000480F581E02DBE016B5E7F4FC8010995BA
:10424000009709F03EC1F80100851185EACFF3E03F
:10425000FF120EC08F89882309F440C0823061F4B8
:1042600040E867E08FEB94E20E948723811148CFFA
:1042700081E28093EB0047CF813029F440E86BE086
:1042800083EB94E2F1CF833099F70E948915DC012A
:104290001296ED90FC908E010F5F1F4F6801E114A4
:1042A000F10479F0D701ED91FC910680F781E02DC2
:1042B000B801C7010995080F111DF701E084F184C9
:1042C000EECFD8011C92F60101900020E9F731975A
:1042D000BF016C197D0940E0C601C6CF6DE974E2EB
:1042E000FB01449150E080E80E944C1609CF9730C2
:1042F00009F4BECF983021F481E08093F10000CF23
:10430000993009F0FDCE837009F0B2CFE9E7F1E012
:1043100081E031E096E32191222371F08093E9005E
:104320003093EB00DF0111972C912093EC009093D8
:10433000ED008F5F873079F78EE78093EA00109267
:10434000EA008F8980937C03DBCE8B8D9C8D10924D
:10435000E90010926A0310926903909368038093B6
:104360006703898D811192C08E899D89913A49F4A4
:10437000813209F07DCF47E050E068E671E080E0EF
:10438000B3CF913209F074CF833269F48F89988D5D
:10439000B0E0A0E08093640190936501A093660172
:1043A000B0936701ADCE803269F48091E80082FF5E
:1043B000FCCF67E088E691E00E94A3168BEF809324
:1043C000E8009ECE823209F09BCE8F8980936F01E8
:1043D000EEEFFFE7859194918B3F9C4D51F1E0E02A
:1043E000F8E08091680190916901A0916A01B09113
:1043F0006B01803B9440A105B105F1F480916F0100
:1044000080FD1AC0EE3F8AE0F80789F587E797E755
:10441000918380838091600080936B0388E19BE0AF
:104420000FB6F894A895809360000FBE909360003B
:1044300067CEEEEFFAE0D5CF80819181873797473D
:1044400009F05ECEA895809160008861809360003D
:1044500080916B0380936000EE3F2AE0F20789F0C1
:104460008091FE0A9091FF0A9183808349CE8081DA
:1044700091818737980751F29093FF0A8093FE0A43
:10448000C5CF1092FF0A1092FE0A3ACE0E948915FB
:10449000DC0112960D911C910115110509F4E8CE6D
:1044A000D801ED91FC910190F081E02DBE016B5E91
:1044B0007F4FC8010995811123CEF8010085118530
:1044C000EBCF181619060CF41BCED2CEF1E0FF127A
:1044D000BECE61EA74E204CF0F920FB68F939F9322
:1044E000EF93FF9380915E038D5F8D3708F08D57BA
:1044F00080935E03EFE5F3E080818E4F80839181AE
:104500009F4F918382818F4F828383818F4F8383DB
:10451000E3E6F3E080818F5F808381818F4F818329
:1045200082818F4F828383818F4F83838FB18F608E
:1045300066991C9B88278F3681F480915D03981BB8
:10454000963068F0E0E0F8E087E78083818388E1D7
:1045500080936000F0936000FFCF90935D03FF9124
:10456000EF919F918F910FBE0F9018951F920F9210
:104570000FB60F9211242F933F934F935F936F9336
:104580007F938F939F93AF93BF93EF93FF9380910C
:104590003103882389F08091300381110DC080910F
:1045A0002F03811109C090912E03E0912C03F0910B
:1045B0002D0380818927808380915603882329F1E8
:1045C0008091280390912903A0912A03B0912B0395
:1045D000892B8A2B8B2BC9F080912803909129037A
:1045E000A0912A03B0912B030197A109B1098093EF
:1045F000280390932903A0932A03B0932B03892BBC
:104600008A2B8B2B11F40E943D18FF91EF91BF91E3
:10461000AF919F918F917F916F915F914F913F915A
:104620002F910F900FBE0F901F9018951F920F9211
:104630000FB60F9211248F939F93AF93BF93EF9375
:10464000FF9380913403882309F454C0809124039C
:1046500090912503A0912603B0912703892B8A2BE3
:104660008B2BA1F190912303E0912103F091220380
:104670008081892780838091240390912503A091D4
:104680002603B0912703181619061A061B069CF478
:104690008091240390912503A0912603B0912703D4
:1046A0000197A109B1098093240390932503A09356
:1046B0002603B0932703FF91EF91BF91AF919F9194
:1046C0008F910F900FBE0F901F901895109230038E
:1046D0001092340380916F008D7F80936F008091E2
:1046E0002303E0912103F091220390818095892397
:1046F0008083E1CF80912F038111DDCF909123033F
:10470000E0912103F091220380818927F1CFEF927C
:10471000FF920F931F93CF93DF93F82E192FE62E5E
:10472000042F81E0860F880F0E941E1683E00E94EE
:104730001E16CF2DD12FEC0EFD2EF11CCE15DF0550
:10474000B9F007FF13C0FE0184910E941E16182FB6
:1047500080E00E941E16812321968111EFCFDF9108
:10476000CF911F910F91FF90EF9008958881EDCF29
:1047700081E0F5CFFC011182108213821282158232
:104780001482FB0101900020E9F73197AF01461B2D
:10479000570B0C94C11EEDE7F7E01382128288EEEE
:1047A00093E0A0E0B0E084839583A683B78383E899
:1047B00091E0918380838FEF9FEF958784876FEAE5
:1047C00071E08DED97E00E94BA2366EC71E083EE14
:1047D00097E00E94BA236CED71E089EE97E00E94A9
:1047E000BA2367EF71E08FEE97E00E94BA236FE083
:1047F00072E085EF97E00E94BA2364E272E08BEFEB
:1048000097E00E94BA2360E372E081E098E00E94A2
:10481000BA2366E472E087E098E00E94BA2369E771
:1048200072E08DE098E00E94BA236BE872E083E1C9
:1048300098E00E94BA236FE972E089E198E00E9453
:10484000BA236EEA72E08FE198E00E94BA2368EE24
:1048500072E085E298E00E94BA2382E992E19093A7
:10486000CE078093CD07E9EDF7E01382128281EA4B
:1048700091E091838083EFECF7E01382128285E967
:1048800091E09183808388E0818781E08087158231
:104890001682148287830895CDB7DEB7A697DEBF50
:1048A000CDBF789483E084BD83E085BD81E08093B3
:1048B0006E00E1E8F0E083E08083E0E881E080835F
:1048C000E1E983E08083E0E981E08083E1EC87E057
:1048D0008083E3EC81E08083E0EC82E08083E2ECA3
:1048E00081E08083EAE787E080838068808310929C
:1048F0007C0310926C0310926E038091D70081604C
:104900008093D70080EA8093D80089B5806189BD03
:1049100089B5826089BD09B400FEFDCF81E090E0D9
:104920000E94B0168091D8008F7C80618093D8005F
:104930008091E000807F8093E0008091E1008E7E96
:104940008093E1008DE08093E200559A209A81ECFB
:1049500080937C0081EF85B987EE84B984E38BB9BD
:1049600084EF8AB9769A6E9880EF81BB10BA80E5A1
:104970008CBD81E08DBD85E00E9441195F9A85E084
:104980000E9441195C98E2EEFCE085918EBD00002A
:104990000DB407FEFDCFEF3EC1F75C9A81E880932E
:1049A000640081E0809365000E945D190E944419B3
:1049B00087FF15C05C9885EA8EBD00000DB407FE28
:1049C000FDCF5C9A2E982F982D988091640080627C
:1049D0008093640081E083BF889513BEFCCF0E9462
:1049E000441982FF37C02D980E9444198478843876
:1049F000A1F42D9A88EC0E9441192F986FEF82E064
:104A000090E00E94C72F84EF91E00E94B0162F9A89
:104A10000E94441984788438D9F30E94441984711F
:104A20008431A1F42D9A88EC0E9441192E9860E0FF
:104A300082E090E00E94C72F84EF91E00E94B016C0
:104A40002E9A0E94441984718431D9F388EC0E9413
:104A50004119C5CF2D9A82E090E00E94BF2F882394
:104A600009F44AC00E944C1981E090E00E94BF2FD7
:104A7000182F147081FF0CC011112E9831EFE32E06
:104A8000FF24FA940E94441986FF3BC02E9A2F9A65
:104A900082E30E9441190E9444198111F9CF80E1FB
:104AA000809300010E944C1C0E944C1985E00E94DA
:104AB000CA188DE00E94CA1888E09DE090935503C3
:104AC0008093540390935303809352030E943D18A4
:104AD00081E080935603CE0101962C01809138032A
:104AE000882309F469C01092380380E090E0892B94
:104AF000A9F30E940000F2CF109235033E983F9830
:104B0000B3CF112331F024E0E216F10411F42E9A10
:104B10002F9881E00E943F1500E128E542E35CE028
:104B2000B70184E190E00E9487140E945D198FE034
:104B30000E9441193FEFE31AF30A49E1E416F10438
:104B400009F0A0CF112311F02F9A2D9880E991E060
:104B50000E94B0162D9A81E090E00E94BF2F80FF46
:104B600097CF8AE090E00E94BF2F9FEF980F9E3F63
:104B700008F08ECF22E330E03093450320934403C6
:104B800028E330E030934703209346030AE010E027
:104B9000682F89ED97E00E94A61A0F5F1F4FC8018A
:104BA0000E94BF2F0031110599F70E945D1988EE10
:104BB00093E00E94B0166CCF90915F03809139030F
:104BC000E92FE81B8E2F20910001E21748F48F5F38
:104BD000821708F08ACF81E083BF889513BE85CF06
:104BE00081E08093380390933903E6E3F3E080811A
:104BF000918101968083918380915C038F5F8830DF
:104C000008F0F4C480935C0380915603811113C0B3
:104C100080916301882379F08AE592E190935503AE
:104C20008093540390935303809352030E943D1842
:104C300081E08093560310915A0380915B038111A8
:104C400031C01F3F79F540914E0350914F03609161
:104C500050037091510380914A0390914B03A091AE
:104C60004C03B0914D03481759076A077B0710F4AE
:104C7000DB01CA01880F991FAA1FBB1F40915E016B
:104C800050915F016091600170916101840F951FE7
:104C9000A61FB71F80935E0190935F01A0936001F0
:104CA000B093610180914903809348030E944419A5
:104CB000809349038091590381110EC000916201D4
:104CC000023009F0A0C488E00E945219882321F024
:104CD000809158038093620190E0EDE7F3E0911139
:104CE0009FEF8FEF91939193919391938150D0F790
:104CF000109247031092460310924503109244030A
:104D00001F3F09F03FC429E030E040E850E069E08F
:104D100070E090E080E00E94221A08E025E045E57E
:104D200052E161E070E081E090E00E94871488E049
:104D30008093D4078093D30711E01093D507609137
:104D40005E0170915F0180916001909161010E940C
:104D5000421F2DE048E452E162E070E080E290E022
:104D60000E9487148FE28093D4078093D307109317
:104D7000D50760914E0370914F038091500390913D
:104D800051030E94421F80914303882321F086E44F
:104D900092E10E942A1D08E025E041E452E161E031
:104DA00070E086E490E00E94871442E361E070E0E6
:104DB0008DE490E00E94501442E367E070E08DE4DF
:104DC00090E00E94501421E047E061E070E08DE443
:104DD00090E00E94091B21E047E061E070E08EE76F
:104DE00090E00E94091BE0904103F090420397017C
:104DF00036952795F0E6EF16F10408F020E308E079
:104E000041E152E162E070E08EE490E00E9487149C
:104E100024E6E216F10408F013C4C70196958795BD
:104E2000835B9F4F27E030E0AC0161E070E00E94BF
:104E3000221A8091620181116DC180915903811103
:104E400069C180E80E945219882339F080915D0180
:104E5000811128C483E080935D0180E10E94521992
:104E6000882339F080915D01833008F41DC41092CD
:104E70005D0184E00E94521910913F03E0904003CD
:104E8000F12C882309F458C0111112C4E0915D017E
:104E9000C701880F991F880F991F8F5A9E4FE80FDF
:104EA000F92FF11D6081643108F00CC4662309F408
:104EB00004C470E090E080E00E94C42E9B01AC012D
:104EC00063E373E383EB9FE30E940C3120E030E067
:104ED0004AE754E40E94012F0E94DD3080905E0179
:104EE00090905F01A0906001B090610186169706D6
:104EF000A806B90608F1A5019401261B370B480B3B
:104F0000590BDA01C90180935E0190935F01A09370
:104F10006001B0936101E0915D01C701880F991FA5
:104F2000880F991F8F5A9E4FE80FF92FF11D80812E
:104F30008F5F80830E944C1C112309F4C3C302E0DD
:104F400021E046E250E16BE070E084E090E00E94F6
:104F50009512C0905D0189E0C89E802D1124805F6C
:104F60000E94321510913F03E0904003D12C84E061
:104F7000E89E70011124111109C0F701EF5AFE4F8C
:104F8000EC0DFD1D8081843108F04EC008E025E065
:104F900045E552E16DE270E085E590E00E948714FE
:104FA00085E58093D4078093D30783E28093D50768
:104FB000F701EF5AFE4FEC0DFD1D8081882309F4A7
:104FC00026C485EF9FE00E942A1D8DE58093D407BB
:104FD0008093D3078DE28093D50760E177E280E08C
:104FE00090E011111FC0F701EF5AFE4FCE0EDF1EE9
:104FF000F6016081662309F40DC470E090E080E062
:105000000E94C42E9B01AC0163E373E383EB9FE337
:105010000E940C3120E030E04AE754E40E94012F66
:105020000E94DD300E94421F21E230E045E550E061
:105030006BE070E085E590E00E94221A21E230E00A
:105040004EE750E061E270E085E590E00E94221AB0
:105050008AE58093D4078093D3078CE08093D507AB
:1050600088EE9FE00E942A1D08E02DE048E452E10E
:1050700067E170E08AE590E00E9487148BE68093F8
:10508000D4078093D30786E18093D50760914A03C4
:1050900070914B0380914C0390914D030E94421FED
:1050A00027E041EE5FE069E370E08DE290E00E946E
:1050B000871487E38093D4078093D30719E3109371
:1050C000D5078AED9FE00E942A1D27E043ED5FE0AF
:1050D00069E370E08AE590E00E94871484E680939B
:1050E000D4078093D3071093D50780914003209174
:1050F0005D01F4E08F9FC00111248F5A9E4F820FF3
:10510000911DFC018081882309F489C38BEC9FE009
:105110000E942A1D80916201813009F090C1809126
:10512000590381112FC280E80E945219882339F057
:1051300080913E03811176C389E080933E0380E134
:105140000E945219882339F080913E03893008F477
:105150006BC310923E0384E00E945219882309F425
:105160006CC000913E03F8E00F9F800111240F5F97
:105170001E4FF80176808781781608F05EC0808027
:105180009180B12CA12C80915E0190915F01A09142
:105190006001B091610188159905AA05BB0508F465
:1051A0004CC088199909AA09BB0980935E019093A4
:1051B0005F01A0936001B093610188E0DE01599620
:1051C00001900D928A95E1F7F801668170E090E018
:1051D00080E00E94C42E9B01AC0160E070E080EC96
:1051E0009FE30E940C316B017C01C501B4010E9458
:1051F000C42EA70196010E94012F0E94DD30F80104
:10520000718360836481758182819381860F971F8A
:10521000938382837394768290E080E00E94C42E10
:1052200020E030E040EC5FE30E94012F0E94DD307F
:10523000F801758364830E944C1C82E10E94321540
:1052400025E1C22ED12CB12CA12C37E0932E4FE3B7
:10525000842E5BE6752EE0903E03C5018E0D911DF8
:105260000A970CF09DC0EA0C01E021E148E7B60185
:105270006950710985E090E00E94C31B6C2C9092EC
:10528000D4079092D30788EF8C0D8093D507F12C2B
:10529000F701EE0FFF1FED54F04F65917491C201BD
:1052A0000E945C2CF20101900020E9F73197AF01D8
:1052B00044195509B2018FEC97E00E945F1793E003
:1052C000EE0CFF1C9A95E1F787010F5F1E4FF80166
:1052D00026802220A1F080EB9FE00E942A1D622DF3
:1052E00070E090E080E04AE00E94031EF8019681A1
:1052F0008781981720F08BEA9FE00E942A1D08E022
:105300002DE048E452E1B60187E090E00E94871466
:105310006A94F7E1F093D407F093D3076092D5072E
:1053200097012F5F3E4F7901F9016281738190E00F
:1053300080E00E94421FF70197818681891780F5DE
:1053400025E045E552E1B6016150710988E390E03E
:105350000E9487148092D4078092D3076092D50769
:10536000F7016081718190E080E00E94421F2DE092
:1053700048E452E1B6018AE590E00E9487147092F9
:10538000D4077092D3076092D50789EA9FE00E9404
:105390002A1DF7016481758190E080E00E94421F20
:1053A000FFEFAF1ABF0A22E1C20ED11C33E0A316F1
:1053B000B10409F050CF10E000E020E048E068E3DD
:1053C00070E0C8010E94091B0F5F1F4F00381105D4
:1053D000A1F708E027E041EE5FE069E370E08DE2CD
:1053E00090E00E94871487E38093D4078093D307CB
:1053F00019E31093D50781EA9FE00E942A1DE091EE
:105400003E0348E0E49FF0011124EF5FFE4F9681D8
:1054100087819817A0F427E043ED5FE069E370E02F
:105420008AE590E00E94871484E68093D4078093F5
:10543000D3071093D5078DE99FE00E942A1D809124
:105440006201823009F09EC080E80E9452198823D0
:1054500039F080913D038111EBC181E080933D03E0
:1054600080E10E945219882339F080913D038823FE
:1054700009F4E0C110923D0384E00E945219882390
:10548000D9F010913D03111117C08091630101E023
:10549000802780936301882309F4D0C188E09DE0D0
:1054A0009093550380935403909353038093520336
:1054B0000E943D180093560380913D039CE0899F14
:1054C000802D1124805F0E94321501E02BE048E717
:1054D0006CE070E085E090E00E94C31B88E0809360
:1054E000D4078093D3071EE01093D50786EF9CE086
:1054F0000E942A1D8AE58093D4078093D3071093D6
:10550000D50780916301882309F4A4C183EF9CE04F
:105510000E942A1D10E000E020E048E068E370E00F
:10552000C8010E94091B0F5F1F4F00381105A1F72A
:1055300008E027E041EE5FE069E370E08DE290E093
:105540000E94871487E38093D4078093D30719E3DD
:105550001093D50783E09DE00E942A1D27E043EDCC
:105560005FE069E370E08AE590E00E94871484E6DA
:105570008093D4078093D3071093D5078CEF9CE0DA
:105580000E942A1D80915903811107C080913B031D
:10559000882319F0815080933B0380915A038F3FF9
:1055A00089F00E94451D882369F010923B038EE12B
:1055B00080933A0380915A038F5F8B3008F04DC17E
:1055C00080935A0380914103909142038A3691055A
:1055D00018F08BE00E94451D80914303882319F049
:1055E0008CE00E94451D0E945D197FCA10925C03E9
:1055F00080915B038F5F843118F480935B0304CB4D
:1056000010925B0301CB0E9444199091570383FFD2
:105610000AC09F5F90935703983709F05DCB0093C2
:10562000580382E057CB9150973738F4802F90E0A1
:1056300001968170992780936201109257034CCB99
:105640003AE6E316F10408F4F4CB06E510E020E0B6
:1056500045E062E070E0C8010E94091B0F5F1F4F28
:1056600005371105A1F702E010E021E041E063E019
:1056700070E084E790E00E94321B22E041E063E0AA
:1056800070E086E590E00E94321B86E58093D407A7
:105690008093D30781E08093D50788E092E10E9450
:1056A0002A1DC7CB8150D7CB8F5F80935D01E1CBA3
:1056B00060E177E280E090E011CC68EE73E080E09A
:1056C00090E00CCC02E020E046E250E16BE070E0BC
:1056D00084E090E00E94951210915B03812F6AE0B4
:1056E0000E94FE3241E0911140E06CE070E084E203
:1056F00090E00E946019812F6CE00E94FE3241E030
:10570000911140E06CE070E086E290E00E94601948
:10571000C701880F991F880F991FAC014F5A5E4F20
:105720001A01E1E16E2E712CFFE0EF2EF12C1CE24C
:105730001093D4071093D307E092D507F101D190CD
:105740001F01D11018C008E02CE14DEF5FE0B70158
:105750008AE090E00E94871482E290E10E942A1D74
:1057600039E0E30EF11C49E0640E711C55E3651647
:105770007104F1F6EECB01E028E04CE1B7018AE0DC
:1057800090E00E94C31B8D2D65E00E94FE32A82E82
:10579000B12C6CE0862E912CD12CC12C08E024E099
:1057A00049E150E1B301C4010E948714FFEFCF1A11
:1057B000DF0A25E0820E911CAC14BD047CF78DE15C
:1057C00090E10E942A1DF101319780811AA219A24D
:1057D0001CA21BA21EA21DA24AE0B20190E00E94E0
:1057E000632CF20101900020E9F73197AF014419D1
:1057F0005509B201CE0181960E94C11ECE0181964B
:105800000E948C17CE0181960E943A1FA9CF81EF8A
:105810009FE0D9CB68EE73E080E090E003CC87ECAA
:105820009FE076CC815089CC8F5F80933E0393CCF0
:10583000815014CE81E080933D031ECE80913C03C5
:10584000181728F4812F0E9412181F5FF7CF1092AB
:10585000560332CE8FEE9CE05BCE8FEFB1CECF936E
:10586000DF93CBE2D8E02697CE010E943A1F87E073
:10587000CD3DD807C1F7DF91CF910895EF920F93F7
:105880001F93CF93DF93E80134E047FD34E1042E0A
:10589000000C550B57FF03C0519541955109E32E5C
:1058A000022F242FAE010E947D2CCE01DF91CF91DB
:1058B0001F910F91EF900895FB01DC0105900D926F
:1058C0000020E1F70895BB27FB015527AA27880F81
:1058D000991FAA1FA41710F0A41B83955051B9F764
:1058E000A05DAA3308F0A95DA193009779F7B111E3
:1058F000B1931192CB010C94B42EA9E0B0E0E3E88F
:10590000FCE20C9409306A01F22EB02E102FFBE35A
:10591000AF2EA01608F41BE31F5F012F27E0AE0196
:105920004F5F5F4F0E94DC2DBC018981982F9970D9
:10593000913009F43FC09BE2E1FC04C09E2D9170C0
:10594000E0FC3AC05E2D5071E82FE87083FF46C03E
:1059500084E0911101C083E0EF2DE81B8F1508F062
:10596000E0E0D6018E2F20E2552351F1992329F052
:10597000D6019C93C60101966C0196012D5F3F4FA5
:10598000E2FE24C08EE4D6018C9391E411969C93A0
:10599000119712968C93D9018E2F90E281111BC022
:1059A000E20FF32FF11D10828EEF9FEF2996ECE0AE
:1059B0000C9425309DE2C6CF90E2C4CF2D93815048
:1059C0008111FCCFCE0ED11CE0E0D0CF8EE6D60107
:1059D0008C9391E6DBCF9D938150E0CF482F4470AC
:1059E00082FF3DC084E0911101C083E08F1510F467
:1059F000EF2DE81BD6018E2F20E2552309F19923C4
:105A000029F0D6019C93C60101966C0196012D5F89
:105A10003F4FE2FE1BC089E4D6018C938EE41196C1
:105A20008C93119786E412968C93D9018E2F90E275
:105A3000882309F4B5CF9D938150FACF2D938150DF
:105A40008111FCCFCE0ED11CE0E0D9CF89E6D60182
:105A50008C938EE611968C93119786E6E4CF9B018A
:105A600077FF02C030E020E0A1E0B0E0911102C079
:105A7000B0E0A0E0F9013196AE0FBF1F8B2C912C46
:105A8000BB2009F461C05401EFEFAE1ABE0AAA0DA3
:105A9000BB1DFA161B0619F014F04F2D4A1B5111AD
:105AA00088C0E3FC59C07601A42FB0E2A1114FC019
:105AB000C40ED11C992309F45BC040E0D6011196B5
:105AC000F60190836D01552309F448C0012F060F9C
:105AD0009A81582F507184FF03C0913309F401500B
