:100000000C9474120C949C120C949C120C949C12E0
:100010000C949C120C949C120C949C120C949C12A8
:100020000C949C120C949C120C94D71F0C94462098
:100030000C949C120C949C120C949C120C949C1288
:100040000C949C120C9422230C949C120C949C12E1
:100050000C949C120C949C120C949C120C9478227C
:100060000C949C120C949C120C949C120C949C1258
:100070000C949C120C949C120C949C120C949C1248
:100080000C94C2220C949C120C949C120C949C1202
:100090000C949C120C949C120C949C120C949C1228
:1000A0000C949C120C949C120C949C120763423684
:1000B000B79BD8A71A39685618AEBAAB558C1D3CF9
:1000C000B7CC5763BD6DEDFD753EF6177231BF00BD
:1000D0000000803F08000000BE922449123EABAAF7
:1000E000AA2ABECDCCCC4C3E00000080BEABAAAA52
:1000F000AA3E00000000BF000000803F000000009A
:1001000000084178D3BB4387D1133D190E3CC3BDD2
:100110004282AD2B3E68EC8276BED98FE1A93E4C7F
:1001200080EFFFBE01C4FF7F3F00000000000040E1
:100130007A10F35A00A0724E18090010A5D4E800F6
:1001400000E87648170000E40B54020000CA9A3B0E
:10015000000000E1F5050000809698000000404294
:100160000F000000A0860100000010270000000022
:10017000E803000000006400000000000A00000026
:1001800000000100000000002C76D888DC674F08D2
:1001900023DFC1DFAE59E1B1B796E5E3E453C63AD8
:1001A000E651997696E8E6C28426EB898C9B62ED4F
:1001B000407C6FFCEFBC9C9F40F2BAA56FA5F49009
:1001C000055A2AF75C936B6CF9676DC11BFCE0E480
:1001D0000D47FEF520E6B500D0ED902E03009435D6
:1001E00077050080841E080000204E0A000000C829
:1001F0000C333333330F986E12831141EF8D21147A
:10020000893BE65516CFFEE6DB18D1844B381BF749
:100210007C1D901DA4BBE424203284725E228100E8
:10022000C9F124ECA1E53D2753656C662065766F26
:100230006C76696E67204149005072656469637429
:1002400069766520414900414920536D61727420EF
:10025000726573706F6E73657300414920436F6EF2
:10026000746578742061776172656E65737300419F
:100270004920636F72652075706772616465004123
:1002800073796E632070726F63657373696E670054
:100290005265717565737420726F7574696E67004D
:1002A0004C6F61642062616C616E63696E670050BF
:1002B000757368206E6F74696669636174696F6EC7
:1002C000730055736572206D6573736167696E673E
:1002D0000003081F051F1F151B1F11111F110E1FE3
:1002E00015111F05011F111D1F041F001F001010F5
:1002F0001F1F041B1F10101F061F1F011F1F111F90
:100300001F05071F311F1F051B17151D011F011F8B
:10031000101F0F100F1F0C1F1B041B071C071915A4
:10032000130C121E1F120C1E12120C121F0C1A1488
:10033000041F052E2A1E1F021C001D00201D001F69
:10034000041A011F001E041E1E021E1E121E3E1253
:100350000C0C123E1E020614120A020F121E101E70
:100360000E100E1E081E1A041A2E281E1A12161F10
:10037000111F001F001D151711151F07041F17154A
:100380001D1F151D01011F1F151F17151F00170029
:10039000001000040E04110A04040A11001C074F87
:1003A0006B003330000000000000000080000000FF
:1003B000000000000000000000000000000000003D
:1003C0001C3E3E7F7F7F3E3E1C0000000000000080
:1003D0000000000000000000000000000080E0803D
:1003E00000000040E0F0E0E06000C0F0F0C01EEF70
:1003F000EFFEF80080B883830000000000000038A2
:100400007CFCF8FC7C3800000000000000000101CA
:10041000030F03010100E0F0F1EFEFEFF3FCFDFD4E
:10042000FCFEFEFDFDFFFFFFFFFFFFFFFEFEFCF0F9
:1004300000808080808100000000000000000080BB
:1004400080C080BCFEFFFFFFFCFFFFFFFFFFF7FB4C
:10045000FBFBF7FFBF7F7F7FBFFFF7FBFBFBF7FFD8
:10046000FFFFFFFFFFFFFFFFFF3F9E80C0C0800038
:100470001E3F7F7F7F7F7F7F7F7FFFFFFFFFFFFF2D
:100480007F7F1F7FFFFFFFFFFFFFFFFFFFFFFFFFDC
:100490007F7FFFFFFFFFFFFF7F3F67FFFFFFFFFF44
:1004A0007F7F1F000000000000000000000000012E
:1004B0000101000000000000010101030303030328
:1004C0000301010000000000000000000000000027
:1004D000000000000000000000000000000080009C
:1004E000000000000000000000000000000000000C
:1004F00000001C3E3E7F7F7F3E3E1C00000000004F
:10050000000000000000000000000000000000806B
:10051000E08000000040E0F0E0E06000C0F0F0C0EB
:100520001EEFEFFEF80080B883830000000000009B
:1005300000387CFCF8FC7C38000000000000000063
:100540000101030F03010100E0F0F1EFEFEFF3FC15
:10055000FDFDFCFEFEFDFDFFFFFFFFFFFFFFFEFEBA
:10056000FCF000808080808100000000000000001E
:10057000008080C080BCFEFFFFFFFCFFFFFFFFFF8D
:10058000FFE3E1E3FFFFBF7F7F7FBFFFF7FBFBFBE5
:10059000F7FFFFFFFFFFFFFFFFFFFF3F9E80C0C091
:1005A00080001E3F7F7F7F7F7F7F7F7FFFFFFFFF7A
:1005B000FFFF7F7F1F7FFFFFFFFFFFFFFFFFFFFFAB
:1005C000FFFF7F7FFFFFFFFFFFFF7F3F67FFFFFF13
:1005D000FFFF7F7F1F000000000000000000000000
:1005E00000010101000000000000010101030303FC
:1005F00003030301010000000000000000000000F0
:10060000000000000000000000000000003E5B4F02
:100610005B3E3E6B4F6B3E1C3E7C3E1C183C7E3C62
:10062000181C577D571C1C5E7F5E1C00183C180070
:10063000FFE7C3E7FF0018241800FFE7DBE7FF3000
:10064000483A060E2629792926407F050507407F6E
:1006500005253F5A3CE73C5A7F3E1C1C08081C1CE1
:100660003E7F14227F22145F5F005F5F06097F01D7
:100670007F006689956A606060606094A2FFA294C2
:1006800008047E040810207E201008082A1C080890
:100690001C2A08081E101010100C1E0C1E0C3038DE
:1006A0003E3830060E3E0E06000000000000005FDF
:1006B00000000007000700147F147F14242A7F2AFB
:1006C00012231308646236495620500008070300BD
:1006D000001C2241000041221C002A1C7F1C2A0809
:1006E000083E08080080703000080808080800006C
:1006F00060600020100804023E5149453E00427FE0
:10070000400072494949462141494D331814127F2E
:100710001027454545393C4A4949314121110907CE
:100720003649494936464949291E0000140000004F
:100730004034000000081422411414141414004121
:1007400022140802015909063E415D594E7C1211DE
:10075000127C7F494949363E414141227F41414116
:100760003E7F494949417F090909013E4141517391
:100770007F0808087F00417F41002040413F017F02
:10078000081422417F404040407F021C027F7F04CA
:1007900008107F3E4141413E7F090909063E415113
:1007A000215E7F09192946264949493203017F0103
:1007B000033F4040403F1F2040201F3F4038403F04
:1007C000631408146303047804036159494D43001A
:1007D0007F4141410204081020004141417F040251
:1007E00001020440404040400003070800205454E8
:1007F00078407F28444438384444442838444428C6
:100800007F385454541800087E090218A4A49C7818
:100810007F0804047800447D40002040403D007F74
:100820001028440000417F40007C047804787C0854
:100830000404783844444438FC1824241818242428
:1008400018FC7C08040408485454542404043F440D
:10085000243C4040207C1C2040201C3C4030403C3C
:1008600044281028444C9090907C4464544C44009C
:100870000836410000007700000041360800020100
:100880000204023C2623263C1EA1A161123A4040EC
:10089000207A38545455592155557941215454786A
:1008A00041215554784020545579400C1E52721203
:1008B000395555555939545454593955545458008B
:1008C00000457C410002457D420001457C40F02905
:1008D0002429F0F0282528F07C5455450020545454
:1008E0007C547C0A097F4932494949323248484898
:1008F00032324A4848303A4141217A3A42402078DF
:10090000009DA0A07D39444444393D4040403D3CD9
:1009100024FF2424487E4943662B2FFC2F2BFF09FC
:1009200029F620C0887E09032054547941000044F0
:100930007D413048484A32384040227A007A0A0ADB
:10094000727D0D19317D2629292F2826292929264E
:1009500030484D4020380808080808080808382F93
:1009600010C8ACBA2F102834FA00007B000008141D
:100970002A142222142A14089500220095AA005550
:1009800000AAAA55AA55AA000000FF00101010FFE7
:1009900000141414FF001010FF00FF1010F010F0EE
:1009A000141414FC001414F700FF0000FF00FF14DF
:1009B00014F404FC141417101F10101F101F14142B
:1009C000141F00101010F0000000001F1010101075
:1009D0001F10101010F010000000FF101010101069
:1009E00010101010FF10000000FF140000FF00FFA7
:1009F00000001F10170000FC04F414141710171443
:100A000014F404F40000FF00F71414141414141464
:100A1000F700F7141414171410101F101F141414D7
:100A2000F4141010F010F000001F101F0000001F41
:100A300014000000FC140000F010F01010FF10FF74
:100A4000141414FF141010101F00000000F010FF09
:100A5000FFFFFFFFF0F0F0F0F0FFFFFF00000000ED
:100A600000FFFF0F0F0F0F0F38444438447C2A2A31
:100A70003E147E02020606027E027E026355494152
:100A8000633844443C04407E201E2006027E02025D
:100A900099A5E7A5991C2A492A1C4C7201724C3071
:100AA0004A4D4D303048784830BC625A463D3E4948
:100AB0004949007E0101017E2A2A2A2A2A44445FEC
:100AC000444440514A444040444A51400000FF01E0
:100AD00003E080FF000008086B6B083612362436EE
:100AE000060F090F06000018180000001010003053
:100AF00040FF0101001F01011E00191D1712003CDB
:100B00003C3C3C00000000000000000024002700E6
:100B10002A002D00300000000000250028002B00D6
:100B20002E00310004080201104080401020408057
:100B30004080080204018040201002011080102033
:100B400040402004040404040304050202020204D9
:100B50000302020202060606060606040402020258
:100B6000040406011501260137014A015D017201E5
:100B700088019F01B801D201EE010B022A024B024B
:100B80006E029302BA02E40210033F037003A4034F
:100B9000DC03170455049704DD0427057505C80513
:100BA00020067D06E0064907B8072D08A9082D098B
:100BB000B9094D0AEA0A900B400CFA0CC00D910ECF
:100BC0006F0F5A1053115B1272139A14D415201719
:100BD0008018F519801B231DDE1EB420A622B52423
:100BE000E4263429A72B402E0031EA330037453A5A
:100BF000BC3D68414C456B49C84D68524F57805CBD
:100C0000006210111213151617181A1C1D1F21232C
:100C10002527292C2E3134373A3E4145494E52572B
:100C20005C62686E757B838B939CA5AFB9C4D0DC86
:100C3000E9F7F0F89C8E8783878E9CF8F00000FE21
:100C4000FF0303030303070EFCF80000FEFF03038A
:100C5000030303070EFCF80000FFFF000000000084
:100C60000000FFFF0000FEFF8383838383C7EE7CC9
:100C7000380000F8FC0E07030303070EFCF8000021
:100C80003F7FE0C08080C0E07F3FFFFF01010101A6
:100C9000010101FFFF0000FFFF0C0C0C0C1C3E7754
:100CA000E3C100007FFFC0C0C0C0C0E0703F1F00B4
:100CB000001F3F70E0C0C0C0E0703F1F00007FFF1A
:100CC000C1C1C1C1C1E3773E1C00001F3F70E0C03D
:100CD000C0C0E0703F1F000000000001FFFF0100E6
:100CE0000000D5F08D14A1C881CFD9F1AF20004FFD
:100CF0004646004F4E004D75736963004F66666946
:100D00006365003C00546F67676C650053657276DD
:100D100065727300903C0016800099903500168033
:100D2000009B9039001580009B903500168000993B
:100D3000903B001680009B9035001580009B903CF6
:100D400000168000999035001680009B90390015A0
:100D500080009B90350016800099903B0016800023
:100D60009B9035001580009B903C00168000999068
:100D700035001680009B9039001580009B9035004F
:100D800016800099903B001680009B9035001580DE
:100D9000009B903C00168000999035001680009BC7
:100DA0009039001580009B90350016800099903B8B
:100DB000001680009B9035001580009B903C002C15
:100DC0008000859032002E8000859039002C8000B4
:100DD000859032002C800085903B002E800085900D
:100DE00032002C800085903C002C800085903200E1
:100DF0002E8000859039002C8000859032002C8058
:100E00000085903B002E8000859032002C8000856C
:100E1000903C004280006F90320042800070903918
:100E2000004280006F9032004280006F903B004291
:100E30008000709032004280006F903C0042800041
:100E40006F903200428000709039004280006F90B5
:100E500032004280006F903B004280007090320070
:100E60004280006F903C0058800057902D005880C1
:100E7000005890390057800058902D005880005736
:100E8000903B0058800058902D0057800058903CAF
:100E90000058800057902D00588000589039005716
:100EA000800058902D0058800057903B00588000DB
:100EB00058902D0057800058903C006F8000429061
:100EC0002D00708000429039006F800042902D000C
:100ED0006F800042903B0070800042902D006F8038
:100EE0000042903C006F800042902D0070800042D4
:100EF0009039006F800042902D006F800042903B3F
:100F00000070800042902D006F800042903C008570
:100F100080002C902D008580002E90390085800067
:100F20002C902D008580002C903B008580002E9019
:100F30002D008580002C903C008580002C902D0099
:100F40008580002E9039008580002C902D008580B2
:100F5000002C903B008580002E902D008580002C79
:100F6000903C009B800015902D009B800016903EC9
:100F70000099800016902D009B800015903C009BEE
:100F8000800016902D0099800016903B00B1809053
:100F90002D00B280903900B180902D00B180903743
:100FA00000B280902D00B180F053657474696E6753
:100FB00073003C0042757900536572766572730068
:100FC0002B00206D617800207800C202AF02A002E1
:100FD00090027F026F025A024702390228024275CC
:100FE00079005570677261646500304848360F0FAC
:100FF000064F6666696365003078783609090643EE
:101000006170616369747900427579005570677227
:10101000616465005A810081008100810081008146
:101020000081810081008100810081008100815A5E
:101030000F0F0F0E4C564C200042757900283000DF
:1010400000FEFFFF07070707070707070707070750
:101050000707070707070707070707070707070720
:101060000707FFFFFE00000000FFFFFF0000000079
:101070000000000000000000000000000000000070
:1010800000000000000000000000FFFFFF00000063
:1010900000FFFFFF00000000000000000000000053
:1010A0000000000000000000000000000000000040
:1010B0000000FFFFFF00000000FFFFFF0000000036
:1010C0000000000000000000000000000000000020
:1010D00000000000000000000000FFFFFF00000013
:1010E00000FFFFFF00000000000000000000000003
:1010F00000000000000000000000000000000000F0
:101100000000FFFFFF000010181F1F1F1707070731
:10111000070707070707070707070707070707075F
:10112000070707070707070707171F1F1F181000E4
:101130000066010100000101000001010000010141
:101140000000010100000101000001010000010197
:1011500000000101660000000066000000000000C1
:10116000000000000000000000000000000000007F
:101170000000000000000000000000006600000009
:101180000066000000000000F8F82828F8D00000F1
:10119000F0F00000F0F0000070F08080F0F000004F
:1011A0000000000066000000006600000000000073
:1011B0000101010101000000000101010101000025
:1011C00000020202030100000000000066000000AF
:1011D00000660000000000000000000000000000A9
:1011E00000000000000000000000000000000000FF
:1011F0000000000066000000000608080000080863
:10120000000008080000080800000808000008089E
:101210000000080800000808000008080600004F49
:101220005645524C4F414400150A150A150A150A35
:10123000150A150A150A150A150A150A150A150AB6
:10124000150A150A150A150A150A150A150A150AA6
:10125000150A150A150A150A631308646321000F9D
:1012600010100F001C07001F0204021F322A7F2AE1
:1012700026903C000E911D002C8100778090350057
:101280000E9111002C810078809039000E911D0084
:101290002C810077809035000E9121002C81007701
:1012A00080903B000E9124002C81007880903500C6
:1012B0000E9129002C81007780903C000E911D003A
:1012C0002C810077809035000E9111002C810078E0
:1012D000809039000E911D002C81007780903500A0
:1012E0000E9121002C81007780903B000E9124000C
:1012F0002C810078809035000E9129002C81007798
:1013000080903C000E911D002C810077809035006C
:101310000E9111002C810078809039000E911D00F3
:101320002C810077809035000E9121002C81007770
:1013300080903B000E9124002C8100788090350035
:101340000E9129002C81007780903C000E911D00A9
:101350002C810077809035000E9111002C8100784F
:10136000809039000E911D002C810077809035000F
:101370000E9121002C81007780903B000E9124007B
:101380002C810078809035000E9129002C81007707
:1013900080903C000E911A002C81007780903200E2
:1013A0000E910E002C810078809039000E911A0069
:1013B0002C810077809032000E911D002C810077E7
:1013C00080903B000E9121002C81007880903200AB
:1013D0000E9124002C81007780903C000E911A0021
:1013E0002C810077809032000E910E002C810078C5
:1013F000809039000E911A002C8100778090320085
:101400000E911D002C81007780903B000E912100F1
:101410002C810078809032000E9124002C8100777E
:1014200080903C000E911A002C8100778090320051
:101430000E910E002C810078809039000E911A00D8
:101440002C810077809032000E911D002C81007756
:1014500080903B000E9121002C810078809032001A
:101460000E9124002C81007780903C000E911A0090
:101470002C810077809032000E910E002C81007834
:10148000809039000E911A002C81007780903200F4
:101490000E911D002C81007780903B000E91210061
:1014A0002C810078809032000E9124002C810077EE
:1014B00080903C000E9121002C81007780902D00BF
:1014C0000E9115002C810078809039000E9121003A
:1014D0002C81007780902D000E9124002C810077C4
:1014E00080903B000E9128002C81007880902D0088
:1014F0000E912D002C81007780903C000E912100F0
:101500002C81007780902D000E9115002C810078A1
:10151000809039000E9121002C81007780902D0061
:101520000E9124002C81007780903B000E912800C2
:101530002C81007880902D000E912D002C81007759
:1015400080903C000E9121002C81007780902D002E
:101550000E9115002C810078809039000E912100A9
:101560002C81007780902D000E9124002C81007733
:1015700080903B000E9128002C81007880902D00F7
:101580000E912D002C81007780903C000E9121005F
:101590002C81007780902D000E9115002C81007811
:1015A000809039000E9121002C81007780902D00D1
:1015B0000E9124002C81007780903B000E91280032
:1015C0002C81007880902D000E912D002C810077C9
:1015D00080903C000E9121002C81007780902D009E
:1015E0000E9115002C810078809039000E91210019
:1015F0002C81007780902D000E9124002C810077A3
:1016000080903B000E9128002C81007880902D0066
:101610000E912D002C81007780903C000E912100CE
:101620002C81007780902D000E9115002C81007880
:10163000809039000E9121002C81007780902D0040
:101640000E9124002C81007780903B000E912800A1
:101650002C81007880902D000E912D002C81007738
:1016600080903C000E9121002C81007780902D000D
:101670000E9115002C81007880903E000E9115008F
:101680002C81007780902D000E9121002C81007715
:1016900080903C000E9115002C81007880902D00E8
:1016A0000E9115002C81007780903B000E91210057
:1016B0002C81007780902D000E9115002C810078F0
:1016C000809039000E9121002C81007780902D00B0
:1016D0000E9115002C810077809037000E912D001F
:1016E0002C81007880902D000E9121002C810077B4
:1016F00080903C000E911D002C8100778090350079
:101700000E9111002C810078809039000E911D00FF
:101710002C810077809035000E9121002C8100777C
:1017200080903B000E9124002C8100788090350041
:101730000E9129002C81007780903C000E911D00B5
:101740002C810077809035000E9111002C8100785B
:10175000809039000E911D002C810077809035001B
:101760000E9121002C81007780903B000E91240087
:101770002C810078809035000E9129002C81007713
:1017800080903C000E911D002C81007780903500E8
:101790000E9111002C810078809039000E911D006F
:1017A0002C810077809035000E9121002C810077EC
:1017B00080903B000E9124002C81007880903500B1
:1017C0000E9129002C81007780903C000E911D0025
:1017D0002C810077809035000E9111002C810078CB
:1017E000809039000E911D002C810077809035008B
:1017F0000E9121002C81007780903B000E912400F7
:101800002C810078809035000E9129002C81007782
:1018100080903C000E911A002C810077809032005D
:101820000E910E002C810078809039000E911A00E4
:101830002C810077809032000E911D002C81007762
:1018400080903B000E9121002C8100788090320026
:101850000E9124002C81007780903C000E911A009C
:101860002C810077809032000E910E002C81007840
:10187000809039000E911A002C8100778090320000
:101880000E911D002C81007780903B000E9121006D
:101890002C810078809032000E9124002C810077FA
:1018A00080903C000E911A002C81007780903200CD
:1018B0000E910E002C810078809039000E911A0054
:1018C0002C810077809032000E911D002C810077D2
:1018D00080903B000E9121002C8100788090320096
:1018E0000E9124002C81007780903C000E911A000C
:1018F0002C810077809032000E910E002C810078B0
:10190000809039000E911A002C810077809032006F
:101910000E911D002C81007780903B000E912100DC
:101920002C810078809032000E9124002C81007769
:1019300080903C000E9121002C81007780902D003A
:101940000E9115002C810078809039000E912100B5
:101950002C81007780902D000E9124002C8100773F
:1019600080903B000E9128002C81007880902D0003
:101970000E912D002C81007780903C000E9121006B
:101980002C81007780902D000E9115002C8100781D
:10199000809039000E9121002C81007780902D00DD
:1019A0000E9124002C81007780903B000E9128003E
:1019B0002C81007880902D000E912D002C810077D5
:1019C00080903C000E9121002C81007780902D00AA
:1019D0000E9115002C810078809039000E91210025
:1019E0002C81007780902D000E9124002C810077AF
:1019F00080903B000E9128002C81007880902D0073
:101A00000E912D002C81007780903C000E912100DA
:101A10002C81007780902D000E9115002C8100788C
:101A2000809039000E9121002C81007780902D004C
:101A30000E9124002C81007780903B000E912800AD
:101A40002C81007880902D000E912D002C81007744
:101A500080903C000E911F002C81007780902B001D
:101A60000E9113002C810078809039000E911F0098
:101A70002C81007780902B000E9123002C81007721
:101A800080903B000E9126002C81007880902B00E6
:101A90000E912B002C81007780903C000E911F004E
:101AA0002C81007780902B000E9113002C81007800
:101AB000809039000E911F002C81007780902B00C0
:101AC0000E9123002C81007780903B000E91260020
:101AD0002C81007880902B000E912B002C810077B8
:101AE00080903C000E911F002C81007780902B008D
:101AF0000E9113002C81007880903E000E911F0003
:101B00002C81007780902B000E9123002C81007790
:101B100080903C000E9126002C81007880902B0054
:101B20000E912B002C81007780903B000E911F00BE
:101B30002C81007780902B000E9113002C8100786F
:101B4000809039000E911F002C81007780902B002F
:101B50000E9123002C810077809037000E91260093
:101B60002C81007880902B000E912B002C81007727
:101B700080903C000E911D002C81007780903500F4
:101B80000E9111002C810078809039000E911D007B
:101B90002C810077809035000E9121002C810077F8
:101BA00080903B000E9124002C81007880903500BD
:101BB0000E9129002C81007780903C000E911D0031
:101BC0002C810077809035000E9111002C810078D7
:101BD000809039000E911D002C8100778090350097
:101BE0000E9121002C81007780903B000E91240003
:101BF0002C810078809035000E9129002C8100778F
:101C000080903C000E911D002C8100778090350063
:101C10000E9111002C810078809039000E911D00EA
:101C20002C810077809035000E9121002C81007767
:101C300080903B000E9124002C810078809035002C
:101C40000E9129002C81007780903C000E911D00A0
:101C50002C810077809035000E9111002C81007846
:101C6000809039000E911D002C8100778090350006
:101C70000E9121002C81007780903B000E91240072
:101C80002C810078809035000E9129002C810077FE
:101C900080903C000E911A002C81007780903200D9
:101CA0000E910E002C810078809039000E911A0060
:101CB0002C810077809032000E911D002C810077DE
:101CC00080903B000E9121002C81007880903200A2
:101CD0000E9124002C81007780903C000E911A0018
:101CE0002C810077809032000E910E002C810078BC
:101CF000809039000E911A002C810077809032007C
:101D00000E911D002C81007780903B000E912100E8
:101D10002C810078809032000E9124002C81007775
:101D200080903C000E911A002C8100778090320048
:101D30000E910E002C810078809039000E911A00CF
:101D40002C810077809032000E911D002C8100774D
:101D500080903B000E9121002C8100788090320011
:101D60000E9124002C81007780903C000E911A0087
:101D70002C810077809032000E910E002C8100782B
:101D8000809039000E911A002C81007780903200EB
:101D90000E911D002C81007780903B000E91210058
:101DA0002C810078809032000E9124002C810077E5
:101DB00080903C000E9121002C81007780902D00B6
:101DC0000E9115002C810078809039000E91210031
:101DD0002C81007780902D000E9124002C810077BB
:101DE00080903B000E9128002C81007880902D007F
:101DF0000E912D002C81007780903C000E912100E7
:101E00002C81007780902D000E9115002C81007898
:101E1000809039000E9121002C81007780902D0058
:101E20000E9124002C81007780903B000E912800B9
:101E30002C81007880902D000E912D002C81007750
:101E400080903C000E9121002C81007780902D0025
:101E50000E9115002C810078809039000E912100A0
:101E60002C81007780902D000E9124002C8100772A
:101E700080903B000E9128002C81007880902D00EE
:101E80000E912D002C81007780903C000E91210056
:101E90002C81007780902D000E9115002C81007808
:101EA000809039000E9121002C81007780902D00C8
:101EB0000E9124002C81007780903B000E91280029
:101EC0002C81007880902D000E912D002C810077C0
:101ED00080903C000E9121002C81007780902D0095
:101EE0000E9115002C810078809039000E91210010
:101EF0002C81007780902D000E9124002C8100779A
:101F000080903B000E9128002C81007880902D005D
:101F10000E912D002C81007780903C000E912100C5
:101F20002C81007780902D000E9115002C81007877
:101F3000809039000E9121002C81007780902D0037
:101F40000E9124002C81007780903B000E91280098
:101F50002C81007880902D000E912D002C8100772F
:101F600080903C000E9121002C81007780902D0004
:101F70000E9115002C81007880903E000E91150086
:101F80002C81007780902D000E9121002C8100770C
:101F900080903C000E9115002C81007880902D00DF
:101FA0000E9115002C81007780903B000E9121004E
:101FB0002C81007780902D000E9115002C810078E7
:101FC000809039000E9121002C81007780902D00A7
:101FD0000E9115002C810077809037000E912D0016
:101FE0002C81007880902D000E9121002C810077AB
:101FF00080903C000E911D002C8100778090350070
:102000000E9111002C810078809039000E911D00F6
:102010002C810077809035000E9121002C81007773
:1020200080903B000E9124002C8100788090350038
:102030000E9129002C81007780903C000E911D00AC
:102040002C810077809035000E9111002C81007852
:10205000809039000E911D002C8100778090350012
:102060000E9121002C81007780903B000E9124007E
:102070002C810078809035000E9129002C8100770A
:1020800080903C000E911D002C81007780903500DF
:102090000E9111002C810078809039000E911D0066
:1020A0002C810077809035000E9121002C810077E3
:1020B00080903B000E9124002C81007880903500A8
:1020C0000E9129002C81007780903C000E911D001C
:1020D0002C810077809035000E9111002C810078C2
:1020E000809039000E911D002C8100778090350082
:1020F0000E9121002C81007780903B000E912400EE
:102100002C810078809035000E9129002C81007779
:1021100080903C000E911A002C8100778090320054
:102120000E910E002C810078809039000E911A00DB
:102130002C810077809032000E911D002C81007759
:1021400080903B000E9121002C810078809032001D
:102150000E9124002C81007780903C000E911A0093
:102160002C810077809032000E910E002C81007837
:10217000809039000E911A002C81007780903200F7
:102180000E911D002C81007780903B000E91210064
:102190002C810078809032000E9124002C810077F1
:1021A00080903C000E911A002C81007780903200C4
:1021B0000E910E002C810078809039000E911A004B
:1021C0002C810077809032000E911D002C810077C9
:1021D00080903B000E9121002C810078809032008D
:1021E0000E9124002C81007780903C000E911A0003
:1021F0002C810077809032000E910E002C810078A7
:10220000809039000E911A002C8100778090320066
:102210000E911D002C81007780903B000E912100D3
:102220002C810078809032000E9124002C81007760
:1022300080903C000E9121002C81007780902D0031
:102240000E9115002C810078809039000E912100AC
:102250002C81007780902D000E9124002C81007736
:1022600080903B000E9128002C81007880902D00FA
:102270000E912D002C81007780903C000E91210062
:102280002C81007780902D000E9115002C81007814
:10229000809039000E9121002C81007780902D00D4
:1022A0000E9124002C81007780903B000E91280035
:1022B0002C81007880902D000E912D002C810077CC
:1022C00080903C000E9121002C81007780902D00A1
:1022D0000E9115002C810078809039000E9121001C
:1022E0002C81007780902D000E9124002C810077A6
:1022F00080903B000E9128002C81007880902D006A
:102300000E912D002C81007780903C000E912100D1
:102310002C81007780902D000E9115002C81007883
:10232000809039000E9121002C81007780902D0043
:102330000E9124002C81007780903B000E912800A4
:102340002C81007880902D000E912D002C8100773B
:1023500080903C000E9121002C81007780902D0010
:102360000E9115002C810078809039000E9121008B
:102370002C81007780902D000E9124002C81007715
:1023800080903B000E9128002C81007880902D00D9
:102390000E912D002C81007780903C000E91210041
:1023A0002C81007780902D000E9115002C810078F3
:1023B000809039000E9121002C81007780902D00B3
:1023C0000E9124002C81007780903B000E91280014
:1023D0002C81007880902D000E912D002C810077AB
:1023E00080903C000E9121002C81007780902D0080
:1023F0000E9115002C81007880903E000E912100F6
:102400002C81007780902D000E9124002C81007784
:1024100080903C000E9128002C81007880902D0047
:102420000E912D002C81007780903B000E912100B1
:102430002C81007780902D000E9115002C81007862
:10244000809039000E9121002C81007780902D0022
:102450000E9124002C810077809037000E91280087
:102460002C81007880902D000E912D002C8100771A
:1024700080F0080B000202020000090400000102C3
:1024800002000005240010010524010101042402BA
:102490000605240600010705810310004009040118
:1024A00000020A0000000705020240000007058341
:1024B000024000000403090412010002EF0201407F
:1024C0004123368000010102030141726475696E87
:1024D0006F204C4C430041726475626F7900090FA4
:1024E00006060000D7235F2C11241FBECFEFDAE0D1
:1024F000DEBFCDBF13E0A0E0B1E0EEE7FAE602C038
:1025000005900D92A031B107D9F728E0A0E1B3E022
:1025100001C01D92AD32B207E1F712E1C3E7D2E18B
:1025200004C02197FE010E943A33C237D107C9F790
:102530000E9458240C9432350C940000809135038D
:1025400008956F927F928F929F92AF92BF92CF9297
:10255000DF92EF92FF920F931F93CF93DF93DC01F3
:10256000FA011491319654913196C12FD0E0222373
:1025700009F1CC24C394D12C852F877011F4D12C70
:10258000C12CE52EE694E694E694EC0CFD2CF11CAF
:10259000EC9EC001ED9E900DFC9E900D1124033029
:1025A00011F4880F991F289F7001299FF00C1124A6
:1025B000EE0DFF1D7D01EC0EFD1E1E141F040CF020
:1025C0006BC0A038B1050CF067C0CB01850F911D21
:1025D000181619060CF060C0603471050CF05CC070
:1025E000309709F459C0362F3770CB0177FD079625
:1025F00023E0959587952A95E1F7282F77FF04C06A
:10260000332311F02FEF280F662777276A1B7B0BE8
:10261000B7FD02C070E060E090E89A1B40E8E41665
:10262000F1040CF4912F961BE22E022E000CFF08F1
:10263000DE2CD0942F3F0CF0D12C41E0852F8770F9
:1026400009F440E0B52EB694B694B6944B0DE40E62
:10265000F11C89E0E816F10414F048E0421BB42EA6
:10266000BD182D0D40E8240370011124AE0DBF1DCF
:10267000A60FB71F1D9D600D711D1124AF01460FE0
:10268000571FC32E032E000CDD08033009F4C7C00A
:1026900090F4023009F474C0DF91CF911F910F9133
:1026A000FF90EF90DF90CF90BF90AF909F908F9072
:1026B0007F906F9008950A3FA1F1B20E0B3F61F732
:1026C0002B1551F3BD0165587C4F10E000E0091750
:1026D00008F09FC0FA01E00FF11FE491F0E04F0114
:1026E0000C2C02C0880C991C0A94E2F727FD06C046
:1026F000FB018081F82CF0948F218083332361F0DB
:10270000273054F47B01F0E8EF0EF11CA92CA094C3
:10271000F70180818A2180830F5F1F4F6F5F7F4F9A
:10272000D6CFB20E2B1509F4B7CFBD0165587C4F3B
:1027300010E000E0091708F066C0FA01E00FF11F91
:10274000E491F0E04F010C2C02C0880C991C0A9413
:10275000E2F727FD04C0FB018081882980833323B1
:1027600051F0273044F47B01F0E8EF0EF11CF70143
:102770008081892980830F5F1F4F6F5F7F4FDACF82
:102780006FEF70E0032E02C0660F771F0A94E2F726
:1027900060957095972E8B2C820E281509F47CCFAE
:1027A0008D0105581C4FF12CE12CE91630F5FA018A
:1027B000EE0DFF1DE491F0E03F010C2C02C0660C11
:1027C000771C0A94E2F727FD05C0F8018081862373
:1027D00086298083332359F027304CF45801F0E8E0
:1027E000AF0EB11CF5018081892187298083FFEF1D
:1027F000EF1AFF0A0F5F1F4FD8CF2F5F4C0F5D1FDF
:10280000A058BF4FCACF2F5F4C0F5D1FA058BF4FBE
:1028100089CF2F5F4C0F5D1FA058BF4F51CFE92EBE
:10282000F12CFA01E60FF71FA558BC4F60E870E0E5
:102830006E197F09CE19DF098E01000F111F41E0CB
:1028400050E07A01032E01C0EE0C0A94EAF7592FEA
:102850004B2D892E932ECF93DF93ED01EF96EF96BC
:102860002296A590C590992059F0AE9C5001CE9C1F
:10287000600127302CF4F880D094FD20FB28F992D9
:1028800022233AF0FC90C094FC20FA28FD920C948C
:102890004A1411965A9529F74A9551F0582D2395C7
:1028A0001124E00FF11DA60FB11DC60FD11DD9CF08
:1028B000DF91CF911124F0CE480F592F511D1416DE
:1028C000150684F5803891056CF597FF02C090E0FD
:1028D00080E04138510514F040E850E0481BFB010E
:1028E000E770FF2721E001C0220FEA95EAF777FFA2
:1028F00002C0695F7F4FFB0133E0F595E7953A959C
:10290000E1F7F695FE2FEE27F795E795E80FF91F0B
:10291000E558FC4F415030F08191DF011197822B37
:102920008C93F8CF08954F925F926F927F928F921F
:102930009F92AF92BF92CF92DF92EF92FF920F934E
:102940001F93CF93DF9330E0F901E80FF91F1E16B4
:102950001F060CF07FC0803891050CF07BC0802EE4
:10296000912CF401E60FF71F1E161F060CF072C023
:10297000603471050CF06EC0E62FE7707E2EF7E034
:102980008F0E911CE3E095948794EA95E1F7F3E0CC
:1029900075956795FA95E1F7062E000C770BDB012C
:1029A000B695BA2FAA27B795A795A80FB91FA5580E
:1029B000BC4FEA0110E000E07801E60EF71E48E0A7
:1029C000E416F1040CF046C0EFEFEE16FE06C4F17B
:1029D00050E040E05D01F0E8AF0EB11C4217530734
:1029E0007CF5FA01E80FF91FE038F1054CF5F7FD29
:1029F00024C0FA01EC0FFD1FE491F0E02F01072C39
:102A000002C0440C551C0A94E2F7EFEFEE16FE06E6
:102A100091F16D01C40ED51EF601608064286082BC
:102A2000772059F0F7E0EF16F10439F06501C40E94
:102A3000D51EF6016080652860824F5F5F4FCECF64
:102A40000F5F1F4FA058BF4FC20FD31F80169106B4
:102A500009F0B2CFDF91CF911F910F91FF90EF90CE
:102A6000DF90CF90BF90AF909F908F907F906F90AE
:102A70005F904F9008957110D9CFDFCF0F93682FDB
:102A800070E008E025E04EED54E290E080E00E9426
:102A900093140F910895EBE7F3E0A0E0B8E0008015
:102AA0000EBC8111012C1197A0FDFDCF0192B9F749
:102AB0000DB40895FC0180917A03882311F13FB78A
:102AC000F89482E08093E9002091F200822F90E058
:102AD0001816190614F481E090E0882339F028983C
:102AE00044E6409379034091F1004083222339F07A
:102AF0002091F200211103C02BE62093E8003FBF94
:102B000008958FEF9FEF08952FB7F89483E0809397
:102B1000E9009091E800892F807295FF04C09091A0
:102B2000F20080E4891B2FBF089580917103811109
:102B30000DC082E080936D0384E080936E03109259
:102B4000700310926F0381E0809371038DE693E030
:102B50000895CF93DF931F92CDB7DEB76983DC0171
:102B6000ED91FC910280F381E02D41E050E0BE0147
:102B70006F5F7F4F09950F90DF91CF91089583E0AC
:102B80008093E9008091F200882319F08AE3809312
:102B9000E80008950E94841590E00895CF93DF9394
:102BA0001F92CDB7DEB7FC018485958597FD08C0DF
:102BB0002FEF3FEF358724870F90DF91CF91089556
:102BC000CE0101960E945A15019719F4898190E06F
:102BD000F3CF8FEF9FEFF0CF0F931F93CF93DF9340
:102BE0001F92CDB7DEB78C01FC018485958597FFD8
:102BF0000BC0CE0101960E945A15019771F489818C
:102C000090E0F80195878487F801848595850F9079
:102C1000DF91CF911F910F9108958FEF9FEFF1CF2B
:102C2000FC018485958597FD0BC09FB7F89482E0E1
:102C30008093E9008091F2009FBF90E00196089593
:102C40009FB7F89482E08093E9008091F2009FBFE3
:102C500090E00895409167035091680320916503C7
:102C60003091660342175307B4F49091E8009570D1
:102C7000E1F39091E80092FD19C08093F1008091FA
:102C800067039091680301968F739927892B19F434
:102C90008EEF8093E800809167039091680301961E
:102CA000909368038093670381E0089580E008951E
:102CB000DF92EF92FF920F931F93CF93DF93D82E63
:102CC0008A01EB017B01E40EF51ECE15DF0559F0FC
:102CD000D7FE12C0FE0184910E942A16219681110E
:102CE000F4CF0FEF1FEFC801DF91CF911F910F912C
:102CF000FF90EF90DF9008958881EECF0F931F93A0
:102D0000CF93DF931F92CDB7DEB782E0898342E491
:102D100050E062E774E280E80E9458160E94951520
:102D2000DC0112960D911C910115110589F0D80155
:102D3000ED91FC910280F381E02DBE016F5F7F4F2A
:102D4000C801099597FD04C0F80100851185ECCFF5
:102D500089810F90DF91CF911F910F91089561505C
:102D600030F02091F100FC0120830196F8CF2898E3
:102D700084E6809379030895FC010E9453173197EC
:102D800028F068517C4F8F4F9F4FF9CFAB01FC016A
:102D90000E945317641775078E079F07C8F308959D
:102DA0008F929F92AF92BF92CF92DF92EF92FF925B
:102DB0000F931F93CF93DF936C017B018A01809166
:102DC0006F01882309F45AC080917A03882309F49B
:102DD00055C080916C0380FF05C08091E000826047
:102DE0008093E000E801B12C8AEFA82E93E0892EB1
:102DF0002AE3922E209711F4BB20C9F10E9484157A
:102E0000811108C0AA94AA20C9F181E090E00E9433
:102E1000BC16F0CF8C171D0611F00CF08C2F9FB74D
:102E2000F8948092E9002091E80025FD02C09FBF40
:102E3000E1CF282F30E0C21BD30BF701815020F0E7
:102E400041914093F100FACFE20EF31EBB2021F036
:102E50009092E800B12CEBCF8091E80085FDE7CFA0
:102E60009092E800BB24B394209709F3F3CF5D98C8
:102E700084E680936B03101611063CF081E090E02D
:102E8000F6019383828310E000E0C801DF91CF91C7
:102E90001F910F91FF90EF90DF90CF90BF90AF9078
:102EA0009F908F900895A1E6B3E02FB7F8947D919D
:102EB0008D919C9166B52FBFA89B05C06F3F18F4FC
:102EC0007F5F8F4F9F4F22E0660F771F881F991FEC
:102ED0002A95D1F70895AF92BF92CF92DF92EF92E9
:102EE000FF920F931F93CF93DF936C017B018B01B4
:102EF000040F151FEB015E01AE18BF08C017D10704
:102F000059F06991D601ED91FC910190F081E02D8D
:102F1000C6010995892B79F7C501DF91CF911F91E2
:102F20000F91FF90EF90DF90CF90BF90AF900895FA
:102F3000FC0144815581608171818DEC97E00C9496
:102F40006B17CF92DF92EF92FF921F93CF93DF9395
:102F5000E82FF0E0EA58FE4F1081E62FF0E06033F2
:102F600098F5EE5FF34FE491CE2FD0E0F12CE12CF9
:102F700060E074E284EF90E0A7019E010E940930B6
:102F8000215031094109510991E02115310581E0B4
:102F9000480751056CF060E970ED83E090E0A7010F
:102FA0009E010E940930215031094109510993E0E5
:102FB000113089F0133039F1DF91CF911F91FF90DB
:102FC000EF90DF90CF900895EE0FFF1FEE5FF44F6C
:102FD000C591D491CBCF809134038111EDCF8091F5
:102FE0008100887F892B8093810030938900209312
:102FF0008800109285001092840080916F0082609A
:1030000080936F00D9CF80919100887F892B809326
:10301000910030939900209398001092950010929F
:103020009400D0933303C093320381E08093310343
:1030300080917100826080937100BECFE82FF0E034
:10304000EA58FE4F8081813019F08330A9F008954D
:103050008091340381110FC080916F008D7F809328
:103060006F0080912303E0912103F091220390816E
:1030700080958923808308951092310380913003D5
:103080008111F9CF80912E03E0912C03F0912D0353
:10309000EECFCF93DF93D1E0E0915303F09154034F
:1030A000AF014F5F5F4F50935403409353032491FC
:1030B000822F807FC22FCF70803821F48C2F0E9406
:1030C0001E18EACF803919F5E091CB07F091CC07B3
:1030D00009958D2780932F03E0915303F0915403BA
:1030E000CF01019690935403809353036491809190
:1030F0003C03C81788F6C13021F480912003811168
:10310000CBCF67FDC9CF8C2F0E94A117C5CF87FDFC
:103110003CC03296F0935403E0935303FA01449178
:10312000A0913203B0913303322F242F0E948C30B0
:103130006C507E4F8F4F9F4F28EE33E040E050E0C1
:103140000E946A30209328033093290340932A0376
:1031500050932B038091280390912903A0912A0377
:10316000B0912B03892B8A2B8B2B61F481E090E0AB
:10317000A0E0B0E08093280390932903A0932A0352
:10318000B0932B03DF91CF910895803E49F4809155
:1031900055039091560390935403809353037CCF2F
:1031A000803F09F079CF10925703ECCF90913C0308
:1031B000923009F471C0292F30E0F901EA58FE4F2E
:1031C0004081225E3C4FF9018083913031F420919F
:1031D0001E03281302C0909320039F5F90933C032B
:1031E00090E0FC01ED5BF44F24918C5D944FFC0169
:1031F000849130E0220F331FF901EA5EF44F6591AC
:103200007491F901E85FF44FA591B4919C91982BCA
:103210009C93413019F04330D9F0089590916400A7
:10322000977F90936400109280001092810090919B
:1032300081009860909381009091810091609093BB
:1032400081007093220360932103809323030895E8
:1032500090916500977F9093650010929000109276
:1032600091009091910098609093910090919100BD
:1032700091609093910070932D0360932C03809341
:103280002E0380913C03882321F06CE380E00E94B0
:10329000A11780E00C941E18089590E00C94BC16C1
:1032A0008FB18095807F669B88601C9B84600895A9
:1032B0003E9A3F9A81E080933503089590914903A7
:1032C000982329F490914A03982381E009F480E03F
:1032D000089580E00C944B1580389105B8F4603463
:1032E0007105A0F490E121E061FD24E060FD220F72
:1032F00062FD2295687F969FD0011124A80FA558E2
:10330000BC4F0C90022A40FF02260C9208952F9287
:103310003F924F925F926F927F928F929F92AF9265
:10332000BF92CF92DF92EF92FF920F931F93CF93B2
:10333000DF937C014B01C42FD0E081E090E06C0171
:10334000CC1ADD0AAA24BB24AC1ABD0AAA0CBB1CE9
:1033500066246394712C10E000E0822F8470582E54
:10336000822F8270482E822F8870382E2170222E54
:10337000D7FC06C0219782E0A80EB11CCA0CDB1C4A
:103380000F5F1F4F82E0680E711CC60CD71C5520C2
:1033900091F041E0BE01680D791DC701800F911FBA
:1033A0000E946C1941E0B401600F711FCE018E0DB7
:1033B0009F1D0E946C19442091F041E0B4016C1BE8
:1033C0007D0BC701800F911F0E946C1941E0B40171
:1033D000601B710BCE018E0D9F1D0E946C19332056
:1033E00091F041E0B401600F711FC7018C1B9D0B70
:1033F0000E946C1941E0BE01680D791DC701801B58
:10340000910B0E946C19222091F041E0B401601BE5
:10341000710BC7018C1B9D0B0E946C1941E0B4011C
:103420006C1B7D0BC701801B910B0E946C190C1744
:103430001D070CF49DCFDF91CF911F910F91FF904D
:10344000EF90DF90CF90BF90AF909F908F907F9044
:103450006F905F904F903F902F9008952F923F92E2
:103460004F925F926F927F928F929F92AF92BF9294
:10347000CF92DF92EF92FF920F931F93CF93DF9340
:10348000EC018B017A016901C61AD70AD7FE03C085
:10349000D194C194D10847018C1A9D0A97FE03C0AC
:1034A0009194819491088C149D0454F49E2D8F2D39
:1034B0007901292F382F9C2F8D2FE801092F182FE4
:1034C000EC16FD0654F4902F812F8901292F382FF7
:1034D0009C2F8D2FE701E92EF82E17012C1A3D0A9B
:1034E0002901401A510A57FE03C0519441945108D2
:1034F000310137FE03C08FEF681A780A759467941C
:103500008FEF021713070CF481E0A82E880FBB0879
:10351000EC16FD06A4F041E0BE01C8018C149D0428
:1035200014F0B801CE010E946C196418750877FE7A
:1035300004C00A0D1B1D620C731C2196E9CFDF919C
:10354000CF911F910F91FF90EF90DF90CF90BF90A0
:10355000AF909F908F907F906F905F904F903F9033
:103560002F9008958F929F92AF92BF92CF92DF9249
:10357000EF92FF920F931F93CF93DF936D3089F0FB
:10358000C0904703D09048036A30D1F410924603AC
:103590001092450388E0C80ED11CD0924803C09217
:1035A000470381E090E0DF91CF911F910F91FF9051
:1035B000EF90DF90CF90BF90AF909F908F90089545
:1035C0000091450310914603E5E06E9FE001112450
:1035D000C85FD94F4801F12CF5E0E12CFF1629F026
:1035E000CE010196FE01E490EC01B12CA12C4E2DF0
:1035F0004170B6016A0D7B1DC4010E946C19E694EE
:10360000FFEFAF1ABF0A88E0A816B10481F7F39460
:10361000EFEF8E1A9E0AF6E0FF12DECF0A5F1F4F11
:103620001093460300934503BCCFDF92EF92FF92C5
:103630000F931F93CF93DF937C01D22E8B01040F46
:10364000111DEB0177FF02C0D0E0C0E0C8010134DA
:10365000110514F080E490E0C817D9073CF44D2D13
:10366000BE01C7010E946C192196F0CFDF91CF9166
:103670001F910F91FF90EF90DF9008952F923F924E
:103680004F925F926F927F928F929F92AF92BF9272
:10369000CF92DF92EF92FF920F931F93CF93DF931E
:1036A00000D000D0CDB7DEB75C012B012A83242FD8
:1036B00030E03C832B8381E090E07C01E21AF30A46
:1036C0001901319421943108220C331C88248394ED
:1036D000912CD12CC12C31E0300F3983F7FC0AC07A
:1036E000EB81FC813197FC83EB83F2E02F0E311CE0
:1036F000E20CF31C2FEFC21AD20A32E0830E911CA7
:10370000E80CF91C4B81440FB2018B819C81681B32
:10371000790B102F180D32016C187D089A819130A9
:1037200069F5E9814E0F20E0C5018C0D9D1D0E94B9
:10373000151B20E0412FB3018B819C818A0D9B1DBD
:103740000E94151B8B819C81C816D9063CF20F90F4
:103750000F900F900F90DF91CF911F910F91FF90DD
:10376000EF90DF90CF90BF90AF909F908F907F9021
:103770006F905F904F903F902F900895F9814F0F79
:1037800020E0C5018C199D090E94151B20E0412FE6
:10379000B301C501EB81FC818E1B9F0BD1CF5F92E2
:1037A0006F927F928F929F92AF92BF92CF92DF9251
:1037B000EF92FF920F931F93CF93DF93EC017B0166
:1037C000142F722E602E660C542E5618802E912CBB
:1037D0005401A80EB91E6034710520F4452DC501B1
:1037E0000E945C146701C70CD11CB60161507109BD
:1037F0006034710520F4452DC5010E945C147618D3
:10380000E80CF91C21E0472DB701CE010E94151BE1
:10381000C10FD11D21E0472DB701CE0101970E94B4
:10382000151B21E0402FB701C5010E948719C81957
:10383000D909219722E0402FB701CE010E948719B4
:10384000C818D90881E0C81AD10824E0402FB60171
:10385000CE010E94871928E0402FB601C501DF91F3
:10386000CF911F910F91FF90EF90DF90CF90BF907D
:10387000AF909F908F907F906F905F900C9487197E
:103880002091400384E0289F9001112441E090E0C2
:1038900080E0FC01E20FF31FEF5AFE4F50815111FF
:1038A00040E0019684309105A1F740933F030895CD
:1038B0008F929F92AF92BF92CF92DF92EF92FF9240
:1038C00010924403E1E0F1E081E591E0C12CD12CBC
:1038D0007601C39422813381C20ED31EE11CF11CF8
:1038E00038968E179F07B1F7C0924F03D0925003BE
:1038F000E0925103F0925203E1E5F1E025E531E079
:10390000812C912C54014FE08191849FC00111249E
:10391000092E000CAA0BBB0B880E991EAA1EBB1EFB
:103920002E173F0789F780924B0390924C03A09289
:103930004D03B0924E03A4E6B0E0A70196010E94A9
:103940002830A5019401211531054105510521F4C7
:1039500021E030E040E050E00E946A3030934303C1
:10396000209342032F3B3105A8F081E0809344036C
:10397000F694E794D794C7948BE0C816D104E10479
:10398000F10488F4C0924F03D0925003E0925103A7
:10399000F0925203FF90EF90DF90CF90BF90AF90E6
:1039A0009F908F9008958AE090E0A0E0B0E080932F
:1039B0004F0390935003A0935103B0935203EACF67
:1039C0000F93CF93DF93EC019E816A3059F48D8180
:1039D0008C836985960F9E8381E090E0DF91CF9183
:1039E0000F910895262F61E0690F2A3398F4203350
:1039F00098F52B3299F140F42132A1F198859D5F21
:103A00008C81890F8C83E8CF2E3251F12F32B1F7A0
:103A100023E40FC02B3540F42134E0F42C3321F1A2
:103A20002E3361F721E405C08FE9820F27548A31D4
:103A300028F7062E000C770B8C81082E000C990BB2
:103A40003F810AEF313009F00BEF41ED52E00E9467
:103A5000A112D4CF2154EDCF2C5FEBCF20E4E9CFDE
:103A60002FE3E7CF2EE3E5CF22E4E3CF0F931F93BD
:103A7000CF93DF938C01D0E0C0E0F801EC0FFD1F85
:103A80006491662341F08DEC97E00E94E01C892B45
:103A900011F02196F2CFCE01DF91CF911F910F91BE
:103AA0000895EF92FF920F931F93CF93DF9390911E
:103AB0003B03D1E09111A3C0282F30E0A9014F5E54
:103AC0005C4F7A01FA01D081D11199C091E09093B5
:103AD000410390913A03953608F099C09F5F909307
:103AE0003A03C82F0DE010E020E042E366E070E00A
:103AF000C8010E94151B0F5F1F4F06371105A1F764
:103B000007E210E021E045E06BE070E085E790E03F
:103B10000E943E1B22E045E06BE070E08DE090E00B
:103B20000E943E1B05E022E343E765E070E088E089
:103B300090E00E94CF1BC630D0F002E020E042EAC5
:103B400053E062E170E08AE590E00E94A1124091AA
:103B50003A034B3508F04AE550E04C5E5F4F24E3F2
:103B600030E064E370E08CE090E00E942E1A8BE07D
:103B70008093D2078093D10788E08093D307F6E043
:103B8000CF9FC00111248552984F0E94981710E0D2
:103B900000E020E048E068E370E0C8010E94151BE7
:103BA0000F5F1F4F00381105A1F708E027E04AEE2C
:103BB0005FE069E370E08AE590E00E94931484E698
:103BC0008093D2078093D10789E38093D3078FE94D
:103BD00093E00E94361D84E00E945E198823C9F09C
:103BE00090913A03933358F01092410391E0F7011A
:103BF000908310923A0396E990933B03D82F8D2F30
:103C0000DF91CF911F910F91FF90EF90089594E66F
:103C100066CFD0E0F4CF089590E080E008958F92D1
:103C20009F92AF92BF920F931F93CF93DF93CDB725
:103C3000DEB7A1970FB6F894DEBF0FBECDBF19A2B5
:103C4000423008F44AE08E010F5D1F4F842E912C04
:103C5000B12CA12CA50194010E946A30E62FB90174
:103C6000CA01EA3044F5E05DD801EE938D01232BC3
:103C7000242B252B79F790E080E0109769F0FD0167
:103C800001900020E9F73197AF014A1B5B0BBD01A2
:103C90008DEC97E00E946B17A1960FB6F894DEBFEB
:103CA0000FBECDBFDF91CF911F910F91BF90AF900D
:103CB0009F908F900895E95CD7CF0F931F93CF9378
:103CC000DF93EC0188819981009759F02A813B812B
:103CD0002617370730F081E0DF91CF911F910F91C8
:103CE00008958B016F5F7F4F0E946534009759F0F4
:103CF000998388831B830A832C813D81232B59F769
:103D0000FC011082E8CF80E0E7CFCF93DF93EC0196
:103D100088819981009711F00E94DC331982188202
:103D20001D821C821B821A82DF91CF910895EF922F
:103D3000FF920F931F93CF93DF938C017B01FB01C5
:103D400001900020E9F73197E61BF70BD1F0DC0179
:103D50001496CD91DC91CE0FDF1FBE010E945D1E37
:103D60008823B9F0F8012081318184819581B701E0
:103D7000820F931F0E942B35D8011596DC93CE93AA
:103D80001497C801DF91CF911F910F91FF90EF9091
:103D90000895C8010E94851EF4CFEF92FF920F9301
:103DA0001F93CF93DF93EC017B018A01BA010E943C
:103DB0005D1E81110BC0CE010E94851ECE01DF91D8
:103DC000CF911F910F91FF90EF9008951D830C8369
:103DD000B701888199810E942B35F0CFEF92FF9235
:103DE0000F931F93CF93DF93CDB7DEB7A1970FB695
:103DF000F894DEBF0FBECDBF7C01CB01BA01F70145
:103E00001182108213821282158214828E010F5F3A
:103E10001F4F21E043E00E946E2C0097C9F0FC0187
:103E200001900020E9F73197AF01481B590BBC0105
:103E3000C7010E94CD1EA1960FB6F894DEBF0FBE3B
:103E4000CDBFDF91CF911F910F91FF90EF9008951B
:103E5000C7010E94851EEFCFFB01DC0111961C9269
:103E60001E9213961C921E92129715961C921E92E9
:103E700014978617970749F0608171816115710564
:103E800021F0448155810C94CD1E0895FC01808160
:103E90009181009711F00C94DC330895CF92DF925A
:103EA000EF92FF92CF93DF93CDB7DEB72C970FB68B
:103EB000F894DEBF0FBECDBF6B017C0128EEC216A9
:103EC00023E0D206E104F10480F44AE00E940F1ED0
:103ED0002C960FB6F894DEBF0FBECDBFDF91CF9109
:103EE000FF90EF90DF90CF9008950E94F42E20E491
:103EF000C21622E4D2062FE0E206F10420F520E00B
:103F000030E04AE754E40E949B30AB01BC01CE0193
:103F100001960E94EE1EBE016F5F7F4FCE01079695
:103F20000E942C1F69EA71E0CE0107960E94971E3D
:103F30000E949817CE0107960E94461FCE01019657
:103F40000E94461FC5CFC1142AECD2062AE9E20618
:103F50002BE3F206B0F420E034E244E759E40E9497
:103F60009B30AB01BC01CE0101960E94EE1EBE014A
:103F70006F5F7F4FCE0107960E942C1F6BEA71E0A6
:103F8000D3CF28E23BE64EE65EE40E949B30AB01D5
:103F9000BC01CE0101960E94EE1EBE016F5F7F4FF5
:103FA000CE0107960E942C1F6DEA71E0BDCF1F92D3
:103FB0000F920FB60F9211248F939F938091E1007F
:103FC0009091E100937F9093E10083FF0FC01092E6
:103FD000E90091E09093EB001092EC0092E3909353
:103FE000ED0010927A0398E09093F00082FF22C0D7
:103FF00093E09093E9009091F200992319F09AE3ED
:104000009093E80090916B03992341F090916B039A
:10401000915090936B03911101C05D9A9091790337
:10402000992341F0909179039150909379039111E4
:1040300001C0289A84FF18C08091E2008E7E8160C2
:104040008093E2008091E1008F7E8093E100809177
:104050006C038E7E806180936C039F918F910F9093
:104060000FBE0F901F90189580FFF7CF8091E20050
:104070008E7E80618093E2008091E1008E7E80934D
:10408000E10080916C038E7E8160E5CF1F920F92DC
:104090000FB60F921124CF92DF92EF92FF920F93FF
:1040A0001F932F933F934F935F936F937F938F93C0
:1040B0009F93AF93BF93EF93FF93CF93DF93CDB7CE
:1040C000DEB76C97DEBFCDBF1092E9008091E800AB
:1040D00083FF25C068E0CE0145960E94AF1682EFAF
:1040E0008093E8008D8987FF39C09091E80090FFA8
:1040F000FCCF982F907609F034C19E894F89588D56
:104100002F89F88C911131C0803861F580916A0354
:104110008093F1001092F1008EEF8093E8006C968E
:104120000FB6F894DEBF0FBECDBFDF91CF91FF91E8
:10413000EF91BF91AF919F918F917F916F915F911F
:104140004F913F912F911F910F91FF90EF90DF9032
:10415000CF900F900FBE0F901F9018959EEF9093E9
:10416000E800C7CF1092F100D5CF913059F48111FA
:10417000D3CF4130510581F680916A038D7F8093C2
:104180006A03CACF933049F48111C6CF413051053B
:1041900019F680916A038260F2CF953041F48091E4
:1041A000E80080FFFCCF20682093E300B5CF963075
:1041B00009F0A9C00B8D1C8D22E01092E90010922D
:1041C000680310926703F2122EC0109266031092D9
:1041D00065030E947E161F8299E09983FA8291E01E
:1041E0009E8390EA98879AEF998720916703309190
:1041F0006803275F3F4F3C832B838D831092E90038
:10420000109268031092670310936603009365038E
:1042100049E050E0BE016F5F7F4F80E00E9458167A
:104220000E947E1679CF10936603009365030E9467
:104230009515DC0112960D911C910115110509F4DB
:1042400051C1D801ED91FC910480F581E02DBE01B2
:104250006B5E7F4FC8010995009709F03EC1F801D8
:1042600000851185EACFF3E0FF120EC08F89882305
:1042700009F440C0823061F440E867E086ED94E2E2
:104280000E949323811148CF81E28093EB0047CFB6
:10429000813029F440E86BE08AEC94E2F1CF83307E
:1042A00099F70E949515DC011296ED90FC908E0115
:1042B0000F5F1F4F6801E114F10479F0D701ED9110
:1042C000FC910680F781E02DB801C7010995080F20
:1042D000111DF701E084F184EECFD8011C92F601A4
:1042E00001900020E9F73197BF016C197D0940E08A
:1042F000C601C6CF64EB74E2FB01449150E080E854
:104300000E94581609CF973009F4BECF983021F497
:1043100081E08093F10000CF993009F0FDCE8370E9
:1043200009F0B2CFE9E7F1E081E031E096E32191D5
:10433000222371F08093E9003093EB00DF011197A5
:104340002C912093EC009093ED008F5F873079F7EC
:104350008EE78093EA001092EA008F8980937A03B7
:10436000DBCE8B8D9C8D1092E90010926803109229
:1043700067039093660380936503898D811192C0D2
:104380008E899D89913A49F4813209F07DCF47E0C9
:1043900050E068E671E080E0B3CF913209F074CF6D
:1043A000833269F48F89988DB0E0A0E08093640136
:1043B00090936501A0936601B0936701ADCE803202
:1043C00069F48091E80082FFFCCF67E088E691E025
:1043D0000E94AF168BEF8093E8009ECE823209F0E8
:1043E0009BCE8F8980936F01EEEFFFE785919491CB
:1043F0008B3F9C4D51F1E0E0F8E080916801909195
:104400006901A0916A01B0916B01803B9440A105C4
:10441000B105F1F480916F0180FD1AC0EE3F8AE092
:10442000F80789F587E797E791838083809160009B
:104430008093690388E19BE00FB6F894A895809378
:1044400060000FBE9093600067CEEEEFFAE0D5CF2C
:10445000808191818737974709F05ECEA89580913A
:1044600060008861809360008091690380936000A0
:10447000EE3F2AE0F20789F08091FE0A9091FF0A50
:104480009183808349CE808191818737980751F24B
:104490009093FF0A8093FE0AC5CF1092FF0A1092F4
:1044A000FE0A3ACE0E949515DC0112960D911C91E0
:1044B0000115110509F4E8CED801ED91FC910190A8
:1044C000F081E02DBE016B5E7F4FC801099581111F
:1044D00023CEF80100851185EBCF181619060CF4D0
:1044E0001BCED2CEF1E0FF12BECE68EB74E204CF59
:1044F0000F920FB68F939F93EF93FF9380915C037E
:104500008D5F8D3708F08D5780935C03EDE5F3E008
:1045100080818E4F808391819F4F918382818F4FC5
:10452000828383818F4F8383E1E6F3E080818F5F15
:10453000808381818F4F818382818F4F82838381AA
:104540008F4F83838FB18F6066991C9B88278F362E
:1045500081F480915B03981B963068F0E0E0F8E00E
:1045600087E78083818388E180936000F093600017
:10457000FFCF90935B03FF91EF919F918F910FBEBF
:104580000F9018951F920F920FB60F9211242F9330
:104590003F934F935F936F937F938F939F93AF93CB
:1045A000BF93EF93FF9380913103882389F080912B
:1045B000300381110DC080912F03811109C09091AA
:1045C0002E03E0912C03F0912D03808189278083B5
:1045D00080915703882329F1809128039091290322
:1045E000A0912A03B0912B03892B8A2B8B2BC9F026
:1045F0008091280390912903A0912A03B0912B0365
:104600000197A109B1098093280390932903A093EE
:104610002A03B0932B03892B8A2B8B2B11F40E9436
:104620004918FF91EF91BF91AF919F918F917F9129
:104630006F915F914F913F912F910F900FBE0F900F
:104640001F9018951F920F920FB60F9211248F93FF
:104650009F93AF93BF93EF93FF938091340388238D
:1046600009F454C08091240390912503A09126035E
:10467000B0912703892B8A2B8B2BA1F190912303D7
:10468000E0912103F091220380818927808380912A
:10469000240390912503A0912603B09127031816B7
:1046A00019061A061B069CF4809124039091250399
:1046B000A0912603B09127030197A109B109809326
:1046C000240390932503A0932603B0932703FF911F
:1046D000EF91BF91AF919F918F910F900FBE0F906F
:1046E0001F901895109230031092340380916F0040
:1046F0008D7F80936F0080912303E0912103F091DF
:1047000022039081809589238083E1CF80912F03BC
:104710008111DDCF90912303E0912103F0912203D9
:1047200080818927F1CFEF92FF920F931F93CF9350
:10473000DF93F82E192FE62E042F81E0860F880FC5
:104740000E942A1683E00E942A16CF2DD12FEC0E4C
:10475000FD2EF11CCE15DF05B9F007FF13C0FE01D9
:1047600084910E942A16182F80E00E942A16812325
:1047700021968111EFCFDF91CF911F910F91FF9083
:10478000EF9008958881EDCF81E0F5CFFC01118293
:1047900010821382128215821482FB010190002084
:1047A000E9F73197AF01461B570B0C94CD1EEBE791
:1047B000F7E01382128288EE93E0A0E0B0E08483F9
:1047C0009583A683B78383E891E0918380838FEFFD
:1047D0009FEF958784876FEA71E08BED97E00E94E9
:1047E000C62366EC71E081EE97E00E94C6236CED73
:1047F00071E087EE97E00E94C62367EF71E08DEECF
:1048000097E00E94C6236FE072E083EF97E00E947A
:10481000C62364E272E089EF97E00E94C62360E35A
:1048200072E08FEF97E00E94C62366E472E085E0B5
:1048300098E00E94C62369E772E08BE098E00E944E
:10484000C6236BE872E081E198E00E94C6236FE91D
:1048500072E087E198E00E94C6236EEA72E08DE183
:1048600098E00E94C62368EE72E083E298E00E941E
:10487000C6238EE992E19093CC078093CB07E7EDB6
:10488000F7E01382128281EA91E091838083EDEC5C
:10489000F7E01382128285E991E09183808388E0BA
:1048A000818781E08087158216821482878308952C
:1048B000CDB7DEB7A697DEBFCDBF789483E084BDC9
:1048C00083E085BD81E080936E00E1E8F0E083E065
:1048D0008083E0E881E08083E1E983E08083E0E9B0
:1048E00081E08083E1EC87E08083E3EC81E08083FA
:1048F000E0EC82E08083E2EC81E08083EAE787E01D
:1049000080838068808310927A0310926A031092E9
:104910006C038091D70081608093D70080EA8093F8
:10492000D80089B5806189BD89B5826089BD09B427
:1049300000FEFDCF81E090E00E94BC168091D8007F
:104940008F7C80618093D8008091E000807F80938D
:10495000E0008091E1008E7E8093E1008DE0809305
:10496000E200559A209A81EC80937C0081EF85B912
:1049700087EE84B984E38BB984EF8AB9769A6E980E
:1049800080EF81BB10BA80E58CBD81E08DBD85E0F4
:104990000E944D195F9A85E00E944D195C98E2EEE5
:1049A000FCE085918EBD00000DB407FEFDCFEF3E0B
:1049B000C1F75C9A81E88093640081E08093650090
:1049C0000E9469190E94501987FF15C05C9885EAFA
:1049D0008EBD00000DB407FEFDCF5C9A2E982F9877
:1049E0002D988091640080628093640081E083BF91
:1049F000889513BEFCCF0E94501982FF37C02D98B6
:104A00000E94501984788438A1F42D9A88EC0E9471
:104A10004D192F986FEF82E090E00E94F72F84EFFE
:104A200091E00E94BC162F9A0E9450198478843815
:104A3000D9F30E94501984718431A1F42D9A88EC25
:104A40000E944D192E9860E082E090E00E94F72FBE
:104A500084EF91E00E94BC162E9A0E945019847136
:104A60008431D9F388EC0E944D19C5CF2D9A82E08C
:104A700090E00E94EF2F882309F44AC00E94581941
:104A800081E090E00E94EF2F182F147081FF0CC07E
:104A900011112E9831EFE32EFF24FA940E94501941
:104AA00086FF3BC02E9A2F9A82E30E944D190E94E6
:104AB00050198111F9CF80E1809300010E94581CA8
:104AC0000E94581985E00E94D6188DE00E94D618E1
:104AD00084E19DE090935603809355039093540393
:104AE000809353030E94491881E080935703CE01BD
:104AF00001962C0180913803882309F469C0109233
:104B0000380380E090E0892BA9F30E940000F2CFE7
:104B1000109235033E983F98B3CF112331F024E033
:104B2000E216F10411F42E9A2F9881E00E944B15A1
:104B300000E128E542E35CE0B70184E190E00E94F7
:104B400093140E9469198FE00E944D193FEFE31AF8
:104B5000F30A49E1E416F10409F0A0CF112311F0A2
:104B60002F9A2D9880E991E00E94BC162D9A81E041
:104B700090E00E94EF2F80FF97CF8AE090E00E94A4
:104B8000EF2F9FEF980F9E3F08F08ECF22E330E08B
:104B9000309346032093450328E330E030934803E5
:104BA000209347030AE010E0682F87ED97E00E940A
:104BB000B21A0F5F1F4FC8010E94EF2F003111057D
:104BC00099F70E94691988EE93E00E94BC166CCF99
:104BD00090915D0380913903E92FE81B8E2F20917E
:104BE0000001E21748F48F5F821708F08ACF81E056
:104BF00083BF889513BE85CF81E08093380390935F
:104C00003903E6E3F3E0808191810196808391830B
:104C100080915A038F5F883008F02BC580935A0328
:104C200080915703811113C080916301882379F02B
:104C300081E792E190935603809355039093540338
:104C4000809353030E94491881E080935703109189
:104C5000580380915903811131C01F3F79F540916C
:104C60004F03509150036091510370915203809112
:104C70004B0390914C03A0914D03B0914E03481704
:104C800059076A077B0710F4DB01CA01880F991FD7
:104C9000AA1FBB1F40915E0150915F0160916001AE
:104CA00070916101840F951FA61FB71F80935E014D
:104CB00090935F01A0936001B0936101F0904A036B
:104CC000F09249030E945019082F80934A0388E00C
:104CD0000E945E19882341F0809162018F5F8230CB
:104CE00008F0D4C48093620180916201882351F05E
:104CF000F5FE08C005FD06C0813009F0CAC482E097
:104D00008093620190E0EBE7F3E091119FEF8FEF6A
:104D100091939193919391938150D0F7109248037E
:104D20001092470310924603109245031F3F09F06B
:104D30006CC429E030E040E850E069E070E090E0C9
:104D400080E00E942E1A08E025E04CE652E161E086
:104D500070E081E090E00E94931488E08093D20795
:104D60008093D10711E01093D30760915E01709199
:104D70005F0180916001909161010E944E1F2DE0C2
:104D80004FE552E162E070E080E290E00E9493140F
:104D90008FE28093D2078093D1071093D30760915D
:104DA0004F037091500380915103909152030E94E0
:104DB0004E1F80914403882321F08DE592E10E94EB
:104DC000361D08E025E048E552E161E070E086E448
:104DD00090E00E94931442E361E070E08DE490E083
:104DE0000E945C1442E367E070E08DE490E00E9472
:104DF0005C1421E047E061E070E08DE490E00E9407
:104E0000151B21E047E061E070E08EE790E00E9432
:104E1000151BE0904203F0904303970136952795C8
:104E2000F0E6EF16F10408F020E308E048E252E172
:104E300062E070E08EE490E00E94931424E6E216B3
:104E4000F10408F028C4C70196958795835B9F4FAE
:104E500027E030E0AC0161E070E00E942E1A809102
:104E6000620181116DC180914103811169C180E8A6
:104E70000E945E19882339F080915D0181113DC443
:104E800083E080935D0180E10E945E19882339F000
:104E900080915D01833008F432C410925D0184E09A
:104EA0000E945E1910913F03E0904003F12C88238B
:104EB00009F458C0111127C4E0915D01C701880FA2
:104EC000991F880F991F8F5A9E4FE80FF92FF11DD8
:104ED0006081643108F021C4662309F419C470E0CC
:104EE00090E080E00E94F42E9B01AC0163E373E349
:104EF00083EB9FE30E943C3120E030E04AE754E43A
:104F00000E94312F0E940D3180905E0190905F01D0
:104F1000A0906001B090610186169706A806B906B8
:104F200008F1A5019401261B370B480B590BDA0138
:104F3000C90180935E0190935F01A0936001B093DB
:104F40006101E0915D01C701880F991F880F991FCA
:104F50008F5A9E4FE80FF92FF11D80818F5F80835C
:104F60000E94581C112309F4D8C302E021E04DE34C
:104F700050E16BE070E084E090E00E94A112C090EC
:104F80005D0189E0C89E802D1124805F0E943E153E
:104F900010913F03E0904003D12C84E0E89E700123
:104FA0001124111109C0F701EF5AFE4FEC0DFD1D40
:104FB0008081843108F04EC008E025E04CE652E1E3
:104FC0006DE270E085E590E00E94931485E58093A2
:104FD000D2078093D10783E28093D307F701EF5A7A
:104FE000FE4FEC0DFD1D8081882309F43BC48CE04D
:104FF00090E10E94361D8DE58093D2078093D10702
:105000008DE28093D30760E177E280E090E01111B8
:105010001FC0F701EF5AFE4FCE0EDF1EF601608172
:10502000662309F422C470E090E080E00E94F42E30
:105030009B01AC0163E373E383EB9FE30E943C318C
:1050400020E030E04AE754E40E94312F0E940D3105
:105050000E944E1F21E230E045E550E06BE070E039
:1050600085E590E00E942E1A21E230E04EE750E004
:1050700061E270E085E590E00E942E1A8AE5809357
:10508000D2078093D1078CE08093D3078FEF9FE006
:105090000E94361D08E02DE04FE552E167E170E027
:1050A0008AE590E00E9493148BE68093D207809368
:1050B000D10786E18093D30760914B0370914C0335
:1050C00080914D0390914E030E944E1F27E048EFC0
:1050D0005FE069E370E08DE290E00E94931487E363
:1050E0008093D2078093D10719E31093D30781EF00
:1050F0009FE00E94361D27E04AEE5FE069E370E022
:105100008AE590E00E94931484E68093D20780930E
:10511000D1071093D3078091400320915D01F4E003
:105120008F9FC00111248F5A9E4F820F911DFC0149
:105130008081882309F49EC382EE9FE00E94361D81
:1051400080916201813009F0A7C1809141038111F2
:10515000A3C180E80E945E19882339F080913E0344
:1051600081118BC384E080933E0380E10E945E192D
:10517000882339F080913E03843008F480C3109274
:105180003E0384E00E945E19882309F46CC00091FC
:105190003E03F8E00F9F800111240F5F1E4FF801BE
:1051A00076808781781608F05EC080809180B12C6F
:1051B000A12C80915E0190915F01A0916001B0915E
:1051C000610188159905AA05BB0508F44CC088192A
:1051D0009909AA09BB0980935E0190935F01A0938E
:1051E0006001B093610188E0DE01599601900D9253
:1051F0008A95E1F7F801668170E090E080E00E9416
:10520000F42E9B01AC0160E070E080EC9FE30E9413
:105210003C316B017C01C501B4010E94F42EA70151
:1052200096010E94312F0E940D31F8017183608335
:105230006481758182819381860F971F9383828316
:105240007394768290E080E00E94F42E20E030E0BB
:1052500040EC5FE30E94312F0E940D31F80175830D
:1052600064830E94581C82E10E943E1525E1C22EF3
:10527000D12CB12CA12C37E0932E4FE3842E5BE68A
:10528000752EE0903E03C5018E0D911D05970CF023
:105290009DC0EA0C01E021E148E7B60169507109BF
:1052A00085E090E00E94CF1B6C2C9092D2079092E8
:1052B000D10788EF8C0D8093D307F12CF701EE0F07
:1052C000FF1FE653F04F65917491C2010E948C2C30
:1052D000F20101900020E9F73197AF014419550917
:1052E000B2018DEC97E00E946B1793E0EE0CFF1C6F
:1052F0009A95E1F787010F5F1E4FF8012680222063
:10530000A1F087EC9FE00E94361D622D70E090E0D6
:1053100080E04AE00E940F1EF8019681878198176D
:1053200020F082EC9FE00E94361D08E02DE04FE562
:1053300052E1B60187E090E00E9493146A94F7E18D
:10534000F093D207F093D1076092D30797012F5FB4
:105350003E4F7901F9016281738190E080E00E9403
:105360004E1FF70197818681891780F525E04CE66D
:1053700052E1B6016150710988E390E00E949314F4
:105380008092D2078092D1076092D307F7016081A3
:10539000718190E080E00E944E1F2DE04FE552E1C8
:1053A000B6018AE590E00E9493147092D207709241
:1053B000D1076092D30780EC9FE00E94361DF70171
:1053C0006481758190E080E00E944E1FFFEFAF1A6C
:1053D000BF0A22E1C20ED11C33E0A316B10409F0CA
:1053E00050CF10E000E020E048E068E370E0C80142
:1053F0000E94151B0F5F1F4F00381105A1F708E031
:1054000027E048EF5FE069E370E08DE290E00E9402
:10541000931487E38093D2078093D10719E3109305
:10542000D30788EB9FE00E94361DE0913E0348E0E1
:10543000E49FF0011124EF5FFE4F9681878198175A
:10544000A0F427E04AEE5FE069E370E08AE590E0CF
:105450000E94931484E68093D2078093D10710931F
:10546000D30784EB9FE00E94361D82E08093D20731
:105470008093D10719E31093D30782EB9FE00E943A
:10548000361D88E08093D2078093D1071093D3070D
:1054900089EA9FE00E94361D80916201823009F006
:1054A000B4C080E80E945E19882339F080913D03E2
:1054B0008111E9C181E080933D0380E10E945E1982
:1054C000882339F080913D03882309F4DEC11092CE
:1054D0003D0384E00E945E198823D9F010913D03BA
:1054E000111117C08091630101E08027809363014F
:1054F000882309F4CEC184E19DE090935603809304
:10550000550390935403809353030E9449180093CA
:10551000570380913D039CE0899F802D1124805F7B
:105520000E943E1501E02BE048E76CE070E085E06A
:1055300090E00E94CF1B88E08093D2078093D10730
:105540001EE01093D30786EF9CE00E94361D8AE58B
:105550008093D2078093D1071093D3078091630182
:10556000882309F4A2C183EF9CE00E94361D10E05D
:1055700000E020E048E068E370E0C8010E94151BED
:105580000F5F1F4F00381105A1F708E027E048EF33
:105590005FE069E370E08DE290E00E94931487E39E
:1055A0008093D2078093D10719E31093D3078CE03F
:1055B0009DE00E94361D27E04AEE5FE069E370E05F
:1055C0008AE590E00E94931484E68093D20780934A
:1055D000D1071093D30785E09DE00E94361D82E03D
:1055E0008093D2078093D1071093D30783E09DE087
:1055F0000E94361D88E08093D2078093D1071093D4
:10560000D3078CEF9CE00E94361D809141038111ED
:1056100007C080913B03882319F0815080933B039E
:10562000809158038F3F89F00E94511D882369F0B3
:1056300010923B038EE180933A03809158038F5F71
:105640008B3008F035C180935803809142039091CC
:1056500043038A36910518F08BE00E94511D80911A
:105660004403882319F08CE00E94511D0E9469199F
:1056700048CA10925A03809159038F5F843118F4FD
:1056800080935903CDCA10925903CACA109262017D
:105690002BCB81E035CB3AE6E316F10408F4DFCBFF
:1056A00006E510E020E045E062E070E0C8010E94FD
:1056B000151B0F5F1F4F05371105A1F702E010E022
:1056C00021E041E063E070E084E790E00E943E1B4F
:1056D00022E041E063E070E086E590E00E943E1B3E
:1056E00086E58093D2078093D10781E08093D3072A
:1056F0008FE192E10E94361DB2CB8150C2CB8F5F09
:1057000080935D01CCCB60E177E280E090E0FCCB60
:1057100068EE73E080E090E0F7CB02E020E04DE33C
:1057200050E16BE070E084E090E00E94A1121091E3
:105730005903812F6AE00E942E3341E0911140E02D
:105740006CE070E084E290E00E946C19812F6CE0C4
:105750000E942E3341E0911140E06CE070E086E25F
:1057600090E00E946C19C701880F991F880F991F3C
:10577000AC014F5A5E4F1A01E1E16E2E712CFFE031
:10578000EF2EF12C1CE21093D2071093D107E09278
:10579000D307F101D1901F01D11018C008E02CE10E
:1057A00044E150E1B7018AE090E00E94931489E35C
:1057B00090E10E94361D39E0E30EF11C49E0640ED1
:1057C000711C55E365167104F1F6D9CB01E028E0B0
:1057D0004CE1B7018AE090E00E94CF1B8D2D65E07F
:1057E0000E942E33A82EB12C6CE0862E912CD12C49
:1057F000C12C08E024E040E350E1B301C4010E9461
:105800009314FFEFCF1ADF0A25E0820E911CAC142F
:10581000BD047CF784E390E10E94361DF1013197CD
:1058200080811AA219A21CA21BA21EA21DA24AE0DC
:10583000B20190E00E94932CF20101900020E9F760
:105840003197AF0144195509B201CE0181960E94EA
:10585000CD1ECE0181960E949817CE0181960E949E
:10586000461FA9CF88E090E1C4CB68EE73E080E0EA
:1058700090E0EECB8EED9FE061CC815074CC8F5FD9
:1058800080933E037ECC815016CE81E080933D0311
:1058900020CE80913C03181728F4812F0E941E18F7
:1058A0001F5FF7CF1092570334CE8FEE9CE05DCE92
:1058B0008FEF8093580381E080936201C6CECF932F
:1058C000DF93C9E2D8E02697CE010E94461F87E009
:1058D000CB3DD807C1F7DF91CF910895EF920F9399
:1058E0001F93CF93DF93E80134E047FD34E1042EAA
:1058F000000C550B57FF03C0519541955109E32EFC
:10590000022F242FAE010E94AD2CCE01DF91CF914A
:105910001F910F91EF900895FB01DC0105900D920E
:105920000020E1F70895BB27FB015527AA27880F20
:10593000991FAA1FA41710F0A41B83955051B9F703
:10594000A05DAA3308F0A95DA193009779F7B11182
:10595000B1931192CB010C94E42EA9E0B0E0E3EBFB
:10596000FCE20C9439306A01F22EB02E102FFBE3CA
:10597000AF2EA01608F41BE31F5F012F27E0AE0136
:105980004F5F5F4F0E940C2EBC018981982F997048
:10599000913009F43FC09BE2E1FC04C09E2D917060
:1059A000E0FC3AC05E2D5071E82FE87083FF46C0DE
:1059B00084E0911101C083E0EF2DE81B8F1508F002
:1059C000E0E0D6018E2F20E2552351F1992329F0F2
:1059D000D6019C93C60101966C0196012D5F3F4F45
:1059E000E2FE24C08EE4D6018C9391E411969C9340
:1059F000119712968C93D9018E2F90E281111BC0C2
:105A0000E20FF32FF11D10828EEF9FEF2996ECE04D
:105A10000C9455309DE2C6CF90E2C4CF2D938150B7
:105A20008111FCCFCE0ED11CE0E0D0CF8EE6D601A6
:105A30008C9391E6DBCF9D938150E0CF482F44704B
:105A400082FF3DC084E0911101C083E08F1510F406
:105A5000EF2DE81BD6018E2F20E2552309F1992363
:105A600029F0D6019C93C60101966C0196012D5F29
:105A70003F4FE2FE1BC089E4D6018C938EE4119661
:105A80008C93119786E412968C93D9018E2F90E215
:105A9000882309F4B5CF9D938150FACF2D9381507F
:105AA0008111FCCFCE0ED11CE0E0D9CF89E6D60122
:105AB0008C938EE611968C93119786E6E4CF9B012A
:105AC00077FF02C030E020E0A1E0B0E0911102C019
:105AD000B0E0A0E0F9013196AE0FBF1F8B2C912CE6
