:100000000C940A120C9432120C9432120C94321288
:100010000C9432120C9432120C9432120C94321250
:100020000C9432120C9432120C94C41F0C94332092
:100030000C9432120C9432120C9432120C94321230
:100040000C9432120C940F230C9432120C94321232
:100050000C9432120C9432120C9432120C946522CD
:100060000C9432120C9432120C9432120C94321200
:100070000C9432120C9432120C9432120C943212F0
:100080000C94AF220C9432120C9432120C94321253
:100090000C9432120C9432120C9432120C943212D0
:1000A0000C9432120C9432120C94321207634236C2
:1000B000B79BD8A71A39685618AEBAAB558C1D3CF9
:1000C000B7CC5763BD6DEDFD753EF6177231BF00BD
:1000D0000000803F08000000BE922449123EABAAF7
:1000E000AA2ABECDCCCC4C3E00000080BEABAAAA52
:1000F000AA3E00000000BF000000803F000000009A
:1001000000084178D3BB4387D1133D190E3CC3BDD2
:100110004282AD2B3E68EC8276BED98FE1A93E4C7F
:1001200080EFFFBE01C4FF7F3F00000000000040E1
:100130007A10F35A00A0724E18090010A5D4E800F6
:1001400000E87648170000E40B54020000CA9A3B0E
:10015000000000E1F5050000809698000000404294
:100160000F000000A0860100000010270000000022
:10017000E803000000006400000000000A00000026
:1001800000000100000000002C76D888DC674F08D2
:1001900023DFC1DFAE59E1B1B796E5E3E453C63AD8
:1001A000E651997696E8E6C28426EB898C9B62ED4F
:1001B000407C6FFCEFBC9C9F40F2BAA56FA5F49009
:1001C000055A2AF75C936B6CF9676DC11BFCE0E480
:1001D0000D47FEF520E6B500D0ED902E03009435D6
:1001E00077050080841E080000204E0A000000C829
:1001F0000C333333330F986E12831141EF8D21147A
:10020000893BE65516CFFEE6DB18D1844B381BF749
:100210007C1D901DA4BBE424203284725E228100E8
:10022000C9F124ECA1E53D2703081F051F1F151B7D
:100230001F11111F110E1F15111F05011F111D1F69
:10024000041F001F0010101F1F041B1F10101F068B
:100250001F1F011F1F111F1F05071F311F1F051B18
:1002600017151D011F011F101F0F100F1F0C1F1B43
:10027000041B071C071915130C121E1F120C1E124B
:10028000120C121F0C1A14041F052E2A1E1F021C0A
:10029000001D00201D001F041A011F001E041E1E49
:1002A000021E1E121E3E120C0C123E1E02061412DC
:1002B0000A020F121E101E0E100E1E081E1A041A1D
:1002C0002E281E1A12161F111F001F001D151711B0
:1002D000151F07041F17151D1F151D01011F1F15D1
:1002E0001F17151F001700001000040E04110A0448
:1002F000040A11001C074F6B00333000000000009F
:10030000000000800000000000000000000000006D
:10031000000000000000001C3E3E7F7F7F3E3E1C30
:1003200000000000000000000000000000000000CD
:100330000000000080E08000000040E0F0E0E060AD
:1003400000C0F0F0C01EEFEFFEF80080B88383001D
:10035000000000000000387CFCF8FC7C3800000045
:1003600000000000000101030F03010100E0F0F1B3
:10037000EFEFEFF3FCFDFDFCFEFEFDFDFFFFFFFFD9
:10038000FFFFFFFEFEFCF000808080808100000007
:100390000000000000008080C080BCFEFFFFFFFC6A
:1003A000FFFFFFFFFFF7FBFBFBF7FFBF7F7F7FBF79
:1003B000FFF7FBFBFBF7FFFFFFFFFFFFFFFFFFFF69
:1003C0003F9E80C0C080001E3F7F7F7F7F7F7F7FFA
:1003D0007FFFFFFFFFFFFF7F7F1F7FFFFFFFFFFF0D
:1003E000FFFFFFFFFFFFFF7F7FFFFFFFFFFFFF7F9D
:1003F0003F67FFFFFFFFFF7F7F1F0000000000003F
:1004000000000000000001010100000000000001E8
:1004100001010303030303030101000000000000C6
:1004200000000000000000000000000000000000CC
:10043000000000000080000000000000000000003C
:100440000000000000000000001C3E3E7F7F7F3E59
:100450003E1C000000000000000000000000000042
:1004600000000000000080E08000000040E0F0E0BC
:10047000E06000C0F0F0C01EEFEFFEF80080B8832F
:100480008300000000000000387CFCF8FC7C380091
:10049000000000000000000101030F03010100E063
:1004A000F0F1EFEFEFF3FCFDFDFCFEFEFDFDFFFFC5
:1004B000FFFFFFFFFFFEFEFCF000808080808100D8
:1004C00000000000000000008080C080BCFEFFFF34
:1004D000FFFCFFFFFFFFFFFFE3E1E3FFFFBF7F7FC5
:1004E0007FBFFFF7FBFBFBF7FFFFFFFFFFFFFFFFF8
:1004F000FFFF3F9E80C0C080001E3F7F7F7F7F7FC9
:100500007F7F7FFFFFFFFFFFFF7F7F1F7FFFFFFFDB
:10051000FFFFFFFFFFFFFFFFFF7F7FFFFFFFFFFFEB
:10052000FF7F3F67FFFFFFFFFF7F7F1F000000008F
:1005300000000000000000000101010000000000B8
:100540000001010103030303030301010000000094
:10055000000000000000000000000000000000009B
:10056000000000003E5B4F5B3E3E6B4F6B3E1C3E0F
:100570007C3E1C183C7E3C181C577D571C1C5E7F23
:100580005E1C00183C1800FFE7C3E7FF00182418A2
:1005900000FFE7DBE7FF30483A060E2629792926D7
:1005A000407F050507407F05253F5A3CE73C5A7FC1
:1005B0003E1C1C08081C1C3E7F14227F22145F5F17
:1005C000005F5F06097F017F006689956A60606051
:1005D000606094A2FFA29408047E040810207E208C
:1005E0001008082A1C08081C2A08081E10101010E1
:1005F0000C1E0C1E0C30383E3830060E3E0E060027
:100600000000000000005F00000007000700147FEA
:10061000147F14242A7F2A12231308646236495651
:1006200020500008070300001C2241000041221C4A
:10063000002A1C7F1C2A08083E0808008070300031
:100640000808080808000060600020100804023E46
:100650005149453E00427F40007249494946214187
:10066000494D331814127F1027454545393C4A49F6
:100670004931412111090736494949364649492935
:100680001E00001400000040340000000814224145
:100690001414141414004122140802015909063ECE
:1006A000415D594E7C1211127C7F494949363E41C9
:1006B0004141227F4141413E7F494949417F0909EA
:1006C00009013E414151737F0808087F00417F4185
:1006D000002040413F017F081422417F40404040BC
:1006E0007F021C027F7F0408107F3E4141413E7F14
:1006F000090909063E4151215E7F0919294626490B
:1007000049493203017F01033F4040403F1F2040E1
:10071000201F3F4038403F631408146303047804EB
:10072000036159494D43007F4141410204081020B3
:10073000004141417F04020102044040404040002A
:100740000307080020545478407F28444438384434
:10075000444428384444287F385454541800087EB0
:10076000090218A4A49C787F0804047800447D4002
:10077000002040403D007F1028440000417F4000A1
:100780007C047804787C080404783844444438FCB9
:100790001824241818242418FC7C0804040848543D
:1007A00054542404043F44243C4040207C1C2040FA
:1007B000201C3C4030403C44281028444C909090F1
:1007C0007C4464544C44000836410000007700002B
:1007D000004136080002010204023C2623263C1E8A
:1007E000A1A161123A4040207A38545455592155FC
:1007F000557941215454784121555478402054551D
:1008000079400C1E52721239555555593954545469
:100810005939555454580000457C410002457D42E9
:100820000001457C40F0292429F0F0282528F07C9F
:10083000545545002054547C547C0A097F49324960
:100840004949323248484832324A4848303A4141B0
:10085000217A3A42402078009DA0A07D394444444A
:10086000393D4040403D3C24FF2424487E494366B6
:100870002B2FFC2F2BFF0929F620C0887E0903208F
:10088000545479410000447D413048484A32384050
:1008900040227A007A0A0A727D0D19317D262929B3
:1008A0002F28262929292630484D402038080808B5
:1008B0000808080808382F10C8ACBA2F102834FAD6
:1008C00000007B000008142A142222142A14089520
:1008D00000220095AA005500AAAA55AA55AA000010
:1008E00000FF00101010FF00141414FF001010FF80
:1008F00000FF1010F010F0141414FC001414F70092
:10090000FF0000FF00FF1414F404FC141417101F60
:1009100010101F101F1414141F00101010F00000EE
:1009200000001F101010101F10101010F010000009
:1009300000FF101010101010101010FF1000000019
:10094000FF140000FF00FF00001F10170000FC0450
:10095000F414141710171414F404F40000FF00F733
:1009600014141414141414F700F714141417141096
:10097000101F101F141414F4141010F010F00000C5
:100980001F101F0000001F14000000FC140000F0E6
:1009900010F01010FF10FF141414FF141010101F8B
:1009A00000000000F010FFFFFFFFFFF0F0F0F0F09C
:1009B000FFFFFF0000000000FFFF0F0F0F0F0F38B9
:1009C000444438447C2A2A3E147E02020606027EF3
:1009D000027E0263554941633844443C04407E2012
:1009E0001E2006027E020299A5E7A5991C2A492A23
:1009F0001C4C7201724C304A4D4D303048784830B2
:100A0000BC625A463D3E494949007E0101017E2AA9
:100A10002A2A2A2A44445F444440514A44404044DC
:100A20004A51400000FF0103E080FF000008086B0E
:100A30006B083612362436060F090F060000181808
:100A40000000001010003040FF0101001F01011ED6
:100A500000191D1712003C3C3C3C00000000000047
:100A6000000000240027002A002D003000000000B4
:100A700000250028002B002E003100040802011080
:100A800040804010204080408008020401804020C7
:100A900010020110801020404020040404040403CC
:100AA000040502020202040302020202060606060E
:100AB0000606040402020204040601150126013799
:100AC000014A015D01720188019F01B801D201EE66
:100AD000010B022A024B026E029302BA02E40210D8
:100AE000033F037003A403DC03170455049704DDDC
:100AF0000427057505C80520067D06E0064907B8E8
:100B0000072D08A9082D09B9094D0AEA0A900B40DA
:100B10000CFA0CC00D910E6F0F5A1053115B12722C
:100B2000139A14D41520178018F519801B231DDE85
:100B30001EB420A622B524E4263429A72B402E007B
:100B400031EA330037453ABC3D68414C456B49C8F2
:100B50004D68524F57805C00621011121315161722
:100B6000181A1C1D1F21232527292C2E3134373A12
:100B70003E4145494E52575C62686E757B838B934C
:100B80009CA5AFB9C4D0DCE9F7F0F89C8E878387C9
:100B90008E9CF8F00000FEFF0303030303070EFC26
:100BA000F80000FEFF0303030303070EFCF8000038
:100BB000FFFF00000000000000FFFF0000FEFF83B9
:100BC00083838383C7EE7C380000F8FC0E070303A1
:100BD00003070EFCF800003F7FE0C08080C0E07F8C
:100BE0003FFFFF01010101010101FFFF0000FFFFC5
:100BF0000C0C0C0C1C3E77E3C100007FFFC0C0C092
:100C0000C0C0E0703F1F00001F3F70E0C0C0C0E0E8
:100C1000703F1F00007FFFC1C1C1C1C1E3773E1C0F
:100C200000001F3F70E0C0C0C0E0703F1F00000028
:100C3000000001FFFF01000000D5F08D14A1C88164
:100C4000CFD9F1AF20004F4646004F4E004D75738F
:100C5000696300546F67676C65004261636B009065
:100C60003C00168000999035001680009B9039005A
:100C70001580009B90350016800099903B001680EF
:100C8000009B9035001580009B903C0016800099D9
:100C90009035001680009B9039001580009B9035A0
:100CA0000016800099903B001680009B903500153F
:100CB00080009B903C0016800099903500168000C3
:100CC0009B9039001580009B90350016800099900C
:100CD0003B001680009B9035001580009B903C00E7
:100CE000168000999035001680009B903900158081
:100CF000009B90350016800099903B001680009B69
:100D00009035001580009B903C002C80008590322F
:100D1000002E8000859039002C8000859032002CB8
:100D2000800085903B002E8000859032002C800052
:100D300085903C002C8000859032002E80008590AC
:100D400039002C8000859032002C800085903B007B
:100D50002E8000859032002C800085903C004280DF
:100D6000006F903200428000709039004280006F26
:100D70009032004280006F903B00428000709032C1
:100D8000004280006F903C004280006F9032004231
:100D90008000709039004280006F903200428000E5
:100DA0006F903B00428000709032004280006F9054
:100DB0003C0058800057902D005880005890390012
:100DC00057800058902D0058800057903B00588065
:100DD0000058902D0057800058903C0058800057D4
:100DE000902D005880005890390057800058902D61
:100DF0000058800057903B0058800058902D0057B5
:100E0000800058903C006F800042902D0070800060
:100E1000429039006F800042902D006F8000429018
:100E20003B0070800042902D006F800042903C009B
:100E30006F800042902D00708000429039006F80DA
:100E40000042902D006F800042903B007080004275
:100E5000902D006F800042903C008580002C902DEA
:100E6000008580002E9039008580002C902D008513
:100E700080002C903B008580002E902D0085800006
:100E80002C903C008580002C902D008580002E90B9
:100E900039008580002C902D008580002C903B002F
:100EA0008580002E902D008580002C903C009B803A
:100EB0000015902D009B800016903E009980001632
:100EC000902D009B800015903C009B800016902D7B
:100ED0000099800016903B00B180902D00B2809068
:100EE0003900B180902D00B180903700B280902DF4
:100EF00000B180F0427579005365727665727300B7
:100F00002B00206D617800207800427579005570C3
:100F1000677261646500304848360F0F064F666699
:100F2000696365003078783609090643617061634A
:100F30006974790042757900557067726164650063
:100F40005A8100810081008100810081008181003F
:100F500081008100810081008100815A0F0F0F0EF6
:100F60004C564C20004275790028300000FEFFFFEF
:100F70000707070707070707070707070707070701
:100F80000707070707070707070707070707FFFF01
:100F9000FE00000000FFFFFF000000000000000056
:100FA0000000000000000000000000000000000041
:100FB000000000000000FFFFFF00000000FFFFFF37
:100FC0000000000000000000000000000000000021
:100FD0000000000000000000000000000000FFFF13
:100FE000FF00000000FFFFFF000000000000000005
:100FF00000000000000000000000000000000000F1
:10100000000000000000FFFFFF00000000FFFFFFE6
:1010100000000000000000000000000000000000D0
:101020000000000000000000000000000000FFFFC2
:10103000FF000010181F1F1F1707070707070707E4
:101040000707070707070707070707070707070730
:101050000707070707171F1F1F1810000066010169
:101060000000010100000101000001010000010178
:101070000000010100000101000001010000010168
:101080006600000000660000000000000000000094
:101090000000000000000000000000000000000050
:1010A0000000000000000000660000000066000074
:1010B00000000000F8F82828F8D00000F0F0000048
:1010C000F0F0000070F08080F0F000000000000000
:1010D0006600000000660000000000000101010140
:1010E00001000000000101010101000000020202F4
:1010F0000301000000000000660000000066000020
:1011000000000000000000000000000000000000DF
:1011100000000000000000000000000000000000CF
:101120006600000000060808000008080000080823
:10113000000008080000080800000808000008086F
:1011400000000808000008080600004F5645524CF1
:101150004F414400150A150A150A150A150A150A01
:10116000150A150A150A150A150A150A150A150A87
:10117000150A150A150A150A150A150A150A150A77
:10118000150A150A631308646321000F10100F007D
:101190001C07001F0204021F322A7F2A26903C00EF
:1011A0000E911D002C810077809035000E9111006A
:1011B0002C810078809039000E911D002C810077E1
:1011C000809035000E9121002C81007780903B00AB
:1011D0000E9124002C810078809035000E9129001A
:1011E0002C81007780903C000E911D002C810077AF
:1011F000809035000E9111002C810078809039008C
:101200000E911D002C810077809035000E912100F9
:101210002C81007780903B000E9124002C81007877
:10122000809035000E9129002C81007780903C0041
:101230000E911D002C810077809035000E911100D9
:101240002C810078809039000E911D002C81007750
:10125000809035000E9121002C81007780903B001A
:101260000E9124002C810078809035000E91290089
:101270002C81007780903C000E911D002C8100771E
:10128000809035000E9111002C81007880903900FB
:101290000E911D002C810077809035000E91210069
:1012A0002C81007780903B000E9124002C810078E7
:1012B000809035000E9129002C81007780903C00B1
:1012C0000E911A002C810077809032000E910E0052
:1012D0002C810078809039000E911A002C810077C3
:1012E000809032000E911D002C81007780903B0091
:1012F0000E9121002C810078809032000E91240004
:101300002C81007780903C000E911A002C81007790
:10131000809032000E910E002C8100788090390070
:101320000E911A002C810077809032000E911D00E2
:101330002C81007780903B000E9121002C81007859
:10134000809032000E9124002C81007780903C0028
:101350000E911A002C810077809032000E910E00C1
:101360002C810078809039000E911A002C81007732
:10137000809032000E911D002C81007780903B0000
:101380000E9121002C810078809032000E91240073
:101390002C81007780903C000E911A002C81007700
:1013A000809032000E910E002C81007880903900E0
:1013B0000E911A002C810077809032000E911D0052
:1013C0002C81007780903B000E9121002C810078C9
:1013D000809032000E9124002C81007780903C0098
:1013E0000E9121002C81007780902D000E91150028
:1013F0002C810078809039000E9121002C8100779B
:1014000080902D000E9124002C81007780903B006D
:101410000E9128002C81007880902D000E912D00D7
:101420002C81007780903C000E9121002C81007768
:1014300080902D000E9115002C810078809039004D
:101440000E9121002C81007780902D000E912400B8
:101450002C81007780903B000E9128002C81007831
:1014600080902D000E912D002C81007780903C0003
:101470000E9121002C81007780902D000E91150097
:101480002C810078809039000E9121002C8100770A
:1014900080902D000E9124002C81007780903B00DD
:1014A0000E9128002C81007880902D000E912D0047
:1014B0002C81007780903C000E9121002C810077D8
:1014C00080902D000E9115002C81007880903900BD
:1014D0000E9121002C81007780902D000E91240028
:1014E0002C81007780903B000E9128002C810078A1
:1014F00080902D000E912D002C81007780903C0073
:101500000E9121002C81007780902D000E91150006
:101510002C810078809039000E9121002C81007779
:1015200080902D000E9124002C81007780903B004C
:101530000E9128002C81007880902D000E912D00B6
:101540002C81007780903C000E9121002C81007747
:1015500080902D000E9115002C810078809039002C
:101560000E9121002C81007780902D000E91240097
:101570002C81007780903B000E9128002C81007810
:1015800080902D000E912D002C81007780903C00E2
:101590000E9121002C81007780902D000E91150076
:1015A0002C81007880903E000E9115002C810077F0
:1015B00080902D000E9121002C81007780903C00BE
:1015C0000E9115002C81007880902D000E91150051
:1015D0002C81007780903B000E9121002C810077B8
:1015E00080902D000E9115002C810078809039009C
:1015F0000E9121002C81007780902D000E91150016
:101600002C810077809037000E912D002C8100787E
:1016100080902D000E9121002C81007780903C005D
:101620000E911D002C810077809035000E911100E5
:101630002C810078809039000E911D002C8100775C
:10164000809035000E9121002C81007780903B0026
:101650000E9124002C810078809035000E91290095
:101660002C81007780903C000E911D002C8100772A
:10167000809035000E9111002C8100788090390007
:101680000E911D002C810077809035000E91210075
:101690002C81007780903B000E9124002C810078F3
:1016A000809035000E9129002C81007780903C00BD
:1016B0000E911D002C810077809035000E91110055
:1016C0002C810078809039000E911D002C810077CC
:1016D000809035000E9121002C81007780903B0096
:1016E0000E9124002C810078809035000E91290005
:1016F0002C81007780903C000E911D002C8100779A
:10170000809035000E9111002C8100788090390076
:101710000E911D002C810077809035000E912100E4
:101720002C81007780903B000E9124002C81007862
:10173000809035000E9129002C81007780903C002C
:101740000E911A002C810077809032000E910E00CD
:101750002C810078809039000E911A002C8100773E
:10176000809032000E911D002C81007780903B000C
:101770000E9121002C810078809032000E9124007F
:101780002C81007780903C000E911A002C8100770C
:10179000809032000E910E002C81007880903900EC
:1017A0000E911A002C810077809032000E911D005E
:1017B0002C81007780903B000E9121002C810078D5
:1017C000809032000E9124002C81007780903C00A4
:1017D0000E911A002C810077809032000E910E003D
:1017E0002C810078809039000E911A002C810077AE
:1017F000809032000E911D002C81007780903B007C
:101800000E9121002C810078809032000E912400EE
:101810002C81007780903C000E911A002C8100777B
:10182000809032000E910E002C810078809039005B
:101830000E911A002C810077809032000E911D00CD
:101840002C81007780903B000E9121002C81007844
:10185000809032000E9124002C81007780903C0013
:101860000E9121002C81007780902D000E911500A3
:101870002C810078809039000E9121002C81007716
:1018800080902D000E9124002C81007780903B00E9
:101890000E9128002C81007880902D000E912D0053
:1018A0002C81007780903C000E9121002C810077E4
:1018B00080902D000E9115002C81007880903900C9
:1018C0000E9121002C81007780902D000E91240034
:1018D0002C81007780903B000E9128002C810078AD
:1018E00080902D000E912D002C81007780903C007F
:1018F0000E9121002C81007780902D000E91150013
:101900002C810078809039000E9121002C81007785
:1019100080902D000E9124002C81007780903B0058
:101920000E9128002C81007880902D000E912D00C2
:101930002C81007780903C000E9121002C81007753
:1019400080902D000E9115002C8100788090390038
:101950000E9121002C81007780902D000E912400A3
:101960002C81007780903B000E9128002C8100781C
:1019700080902D000E912D002C81007780903C00EE
:101980000E911F002C81007780902B000E91130088
:101990002C810078809039000E911F002C810077F7
:1019A00080902B000E9123002C81007780903B00CB
:1019B0000E9126002C81007880902B000E912B0038
:1019C0002C81007780903C000E911F002C810077C5
:1019D00080902B000E9113002C81007880903900AC
:1019E0000E911F002C81007780902B000E91230018
:1019F0002C81007780903B000E9126002C8100788E
:101A000080902B000E912B002C81007780903C0061
:101A10000E911F002C81007780902B000E911300F7
:101A20002C81007880903E000E911F002C81007761
:101A300080902B000E9123002C81007780903C0039
:101A40000E9126002C81007880902B000E912B00A7
:101A50002C81007780903B000E911F002C81007735
:101A600080902B000E9113002C810078809039001B
:101A70000E911F002C81007780902B000E91230087
:101A80002C810077809037000E9126002C81007801
:101A900080902B000E912B002C81007780903C00D1
:101AA0000E911D002C810077809035000E91110061
:101AB0002C810078809039000E911D002C810077D8
:101AC000809035000E9121002C81007780903B00A2
:101AD0000E9124002C810078809035000E91290011
:101AE0002C81007780903C000E911D002C810077A6
:101AF000809035000E9111002C8100788090390083
:101B00000E911D002C810077809035000E912100F0
:101B10002C81007780903B000E9124002C8100786E
:101B2000809035000E9129002C81007780903C0038
:101B30000E911D002C810077809035000E911100D0
:101B40002C810078809039000E911D002C81007747
:101B5000809035000E9121002C81007780903B0011
:101B60000E9124002C810078809035000E91290080
:101B70002C81007780903C000E911D002C81007715
:101B8000809035000E9111002C81007880903900F2
:101B90000E911D002C810077809035000E91210060
:101BA0002C81007780903B000E9124002C810078DE
:101BB000809035000E9129002C81007780903C00A8
:101BC0000E911A002C810077809032000E910E0049
:101BD0002C810078809039000E911A002C810077BA
:101BE000809032000E911D002C81007780903B0088
:101BF0000E9121002C810078809032000E912400FB
:101C00002C81007780903C000E911A002C81007787
:101C1000809032000E910E002C8100788090390067
:101C20000E911A002C810077809032000E911D00D9
:101C30002C81007780903B000E9121002C81007850
:101C4000809032000E9124002C81007780903C001F
:101C50000E911A002C810077809032000E910E00B8
:101C60002C810078809039000E911A002C81007729
:101C7000809032000E911D002C81007780903B00F7
:101C80000E9121002C810078809032000E9124006A
:101C90002C81007780903C000E911A002C810077F7
:101CA000809032000E910E002C81007880903900D7
:101CB0000E911A002C810077809032000E911D0049
:101CC0002C81007780903B000E9121002C810078C0
:101CD000809032000E9124002C81007780903C008F
:101CE0000E9121002C81007780902D000E9115001F
:101CF0002C810078809039000E9121002C81007792
:101D000080902D000E9124002C81007780903B0064
:101D10000E9128002C81007880902D000E912D00CE
:101D20002C81007780903C000E9121002C8100775F
:101D300080902D000E9115002C8100788090390044
:101D40000E9121002C81007780902D000E912400AF
:101D50002C81007780903B000E9128002C81007828
:101D600080902D000E912D002C81007780903C00FA
:101D70000E9121002C81007780902D000E9115008E
:101D80002C810078809039000E9121002C81007701
:101D900080902D000E9124002C81007780903B00D4
:101DA0000E9128002C81007880902D000E912D003E
:101DB0002C81007780903C000E9121002C810077CF
:101DC00080902D000E9115002C81007880903900B4
:101DD0000E9121002C81007780902D000E9124001F
:101DE0002C81007780903B000E9128002C81007898
:101DF00080902D000E912D002C81007780903C006A
:101E00000E9121002C81007780902D000E911500FD
:101E10002C810078809039000E9121002C81007770
:101E200080902D000E9124002C81007780903B0043
:101E30000E9128002C81007880902D000E912D00AD
:101E40002C81007780903C000E9121002C8100773E
:101E500080902D000E9115002C8100788090390023
:101E60000E9121002C81007780902D000E9124008E
:101E70002C81007780903B000E9128002C81007807
:101E800080902D000E912D002C81007780903C00D9
:101E90000E9121002C81007780902D000E9115006D
:101EA0002C81007880903E000E9115002C810077E7
:101EB00080902D000E9121002C81007780903C00B5
:101EC0000E9115002C81007880902D000E91150048
:101ED0002C81007780903B000E9121002C810077AF
:101EE00080902D000E9115002C8100788090390093
:101EF0000E9121002C81007780902D000E9115000D
:101F00002C810077809037000E912D002C81007875
:101F100080902D000E9121002C81007780903C0054
:101F20000E911D002C810077809035000E911100DC
:101F30002C810078809039000E911D002C81007753
:101F4000809035000E9121002C81007780903B001D
:101F50000E9124002C810078809035000E9129008C
:101F60002C81007780903C000E911D002C81007721
:101F7000809035000E9111002C81007880903900FE
:101F80000E911D002C810077809035000E9121006C
:101F90002C81007780903B000E9124002C810078EA
:101FA000809035000E9129002C81007780903C00B4
:101FB0000E911D002C810077809035000E9111004C
:101FC0002C810078809039000E911D002C810077C3
:101FD000809035000E9121002C81007780903B008D
:101FE0000E9124002C810078809035000E912900FC
:101FF0002C81007780903C000E911D002C81007791
:10200000809035000E9111002C810078809039006D
:102010000E911D002C810077809035000E912100DB
:102020002C81007780903B000E9124002C81007859
:10203000809035000E9129002C81007780903C0023
:102040000E911A002C810077809032000E910E00C4
:102050002C810078809039000E911A002C81007735
:10206000809032000E911D002C81007780903B0003
:102070000E9121002C810078809032000E91240076
:102080002C81007780903C000E911A002C81007703
:10209000809032000E910E002C81007880903900E3
:1020A0000E911A002C810077809032000E911D0055
:1020B0002C81007780903B000E9121002C810078CC
:1020C000809032000E9124002C81007780903C009B
:1020D0000E911A002C810077809032000E910E0034
:1020E0002C810078809039000E911A002C810077A5
:1020F000809032000E911D002C81007780903B0073
:102100000E9121002C810078809032000E912400E5
:102110002C81007780903C000E911A002C81007772
:10212000809032000E910E002C8100788090390052
:102130000E911A002C810077809032000E911D00C4
:102140002C81007780903B000E9121002C8100783B
:10215000809032000E9124002C81007780903C000A
:102160000E9121002C81007780902D000E9115009A
:102170002C810078809039000E9121002C8100770D
:1021800080902D000E9124002C81007780903B00E0
:102190000E9128002C81007880902D000E912D004A
:1021A0002C81007780903C000E9121002C810077DB
:1021B00080902D000E9115002C81007880903900C0
:1021C0000E9121002C81007780902D000E9124002B
:1021D0002C81007780903B000E9128002C810078A4
:1021E00080902D000E912D002C81007780903C0076
:1021F0000E9121002C81007780902D000E9115000A
:102200002C810078809039000E9121002C8100777C
:1022100080902D000E9124002C81007780903B004F
:102220000E9128002C81007880902D000E912D00B9
:102230002C81007780903C000E9121002C8100774A
:1022400080902D000E9115002C810078809039002F
:102250000E9121002C81007780902D000E9124009A
:102260002C81007780903B000E9128002C81007813
:1022700080902D000E912D002C81007780903C00E5
:102280000E9121002C81007780902D000E91150079
:102290002C810078809039000E9121002C810077EC
:1022A00080902D000E9124002C81007780903B00BF
:1022B0000E9128002C81007880902D000E912D0029
:1022C0002C81007780903C000E9121002C810077BA
:1022D00080902D000E9115002C810078809039009F
:1022E0000E9121002C81007780902D000E9124000A
:1022F0002C81007780903B000E9128002C81007883
:1023000080902D000E912D002C81007780903C0054
:102310000E9121002C81007780902D000E911500E8
:102320002C81007880903E000E9121002C81007756
:1023300080902D000E9124002C81007780903C002D
:102340000E9128002C81007880902D000E912D0098
:102350002C81007780903B000E9121002C8100772A
:1023600080902D000E9115002C810078809039000E
:102370000E9121002C81007780902D000E91240079
:102380002C810077809037000E9128002C810078F6
:1023900080902D000E912D002C81007780F0080B8D
:1023A0000002020200000904000001020200000510
:1023B000240010010524010101042402060524065D
:1023C00000010705810310004009040100020A0012
:1023D00000000705020240000007058302400000DC
:1023E0000403090412010002EF0201404123368078
:1023F00000010102030141726475696E6F204C4C4B
:10240000430041726475626F7900090F060600008F
:10241000C4237A2C11241FBECFEFDAE0DEBFCDBF7C
:1024200012E0A0E0B1E0E0E0FBE602C005900D9212
:10243000AE3DB107D9F728E0AEEDB2E001C01D9284
:10244000A732B207E1F712E1C9E0D2E104C0219757
:10245000FE010E947B33C830D107C9F70E94852452
:102460000C9473350C9400008091030308956F92CF
:102470007F928F929F92AF92BF92CF92DF92EF9214
:10248000FF920F931F93CF93DF93DC01FA01149116
:10249000319654913196C12FD0E0222309F1CC24FA
:1024A000C394D12C852F877011F4D12CC12CE52E2B
:1024B000E694E694E694EC0CFD2CF11CEC9EC00135
:1024C000ED9E900DFC9E900D1124033011F4880FA9
:1024D000991F289F7001299FF00C1124EE0DFF1DFC
:1024E0007D01EC0EFD1E1E141F040CF06BC0A03805
:1024F000B1050CF067C0CB01850F911D18161906A8
:102500000CF060C0603471050CF05CC0309709F4C9
:1025100059C0362F3770CB0177FD079623E095958C
:1025200087952A95E1F7282F77FF04C0332311F010
:102530002FEF280F662777276A1B7B0BB7FD02C09A
:1025400070E060E090E89A1B40E8E416F1040CF4B7
:10255000912F961BE22E022E000CFF08DE2CD09449
:102560002F3F0CF0D12C41E0852F877009F440E01B
:10257000B52EB694B694B6944B0DE40EF11C89E0DA
:10258000E816F10414F048E0421BB42EBD182D0DDE
:1025900040E8240370011124AE0DBF1DA60FB71F24
:1025A0001D9D600D711D1124AF01460F571FC32ED5
:1025B000032E000CDD08033009F4C7C090F402308C
:1025C00009F474C0DF91CF911F910F91FF90EF90AC
:1025D000DF90CF90BF90AF909F908F907F906F9043
:1025E00008950A3FA1F1B20E0B3F61F72B1551F38D
:1025F000BD01655B7C4F10E000E0091708F09FC04B
:10260000FA01E00FF11FE491F0E04F010C2C02C041
:10261000880C991C0A94E2F727FD06C0FB01808113
:10262000F82CF0948F218083332361F0273054F409
:102630007B01F0E8EF0EF11CA92CA094F70180813A
:102640008A2180830F5F1F4F6F5F7F4FD6CFB20EFF
:102650002B1509F4B7CFBD01655B7C4F10E000E09E
:10266000091708F066C0FA01E00FF11FE491F0E0ED
:102670004F010C2C02C0880C991C0A94E2F727FD2C
:1026800004C0FB01808188298083332351F02730E7
:1026900044F47B01F0E8EF0EF11CF70180818929F9
:1026A00080830F5F1F4F6F5F7F4FDACF6FEF70E058
:1026B000032E02C0660F771F0A94E2F760957095AB
:1026C000972E8B2C820E281509F47CCF8D01055B8B
:1026D0001C4FF12CE12CE91630F5FA01EE0DFF1D2F
:1026E000E491F0E03F010C2C02C0660C771C0A94C8
:1026F000E2F727FD05C0F8018081862386298083C3
:10270000332359F027304CF45801F0E8AF0EB11CD8
:10271000F5018081892187298083FFEFEF1AFF0A65
:102720000F5F1F4FD8CF2F5F4C0F5D1FA058BF4FBB
:10273000CACF2F5F4C0F5D1FA058BF4F89CF2F5FAF
:102740004C0F5D1FA058BF4F51CFE92EF12CFA015D
:10275000E60FF71FA55BBC4F60E870E06E197F09BC
:10276000CE19DF098E01000F111F41E050E07A0100
:10277000032E01C0EE0C0A94EAF7592F4B2D892E37
:10278000932ECF93DF93ED01EF96EF962296A590CF
:10279000C590992059F0AE9C5001CE9C6001273025
:1027A0002CF4F880D094FD20FB28F99222233AF0F3
:1027B000FC90C094FC20FA28FD920C94E013119632
:1027C0005A9529F74A9551F0582D23951124E00F79
:1027D000F11DA60FB11DC60FD11DD9CFDF91CF912D
:1027E0001124F0CE480F592F511D1416150684F5EB
:1027F000803891056CF597FF02C090E080E0413889
:10280000510514F040E850E0481BFB01E770FF273A
:1028100021E001C0220FEA95EAF777FF02C0695F65
:102820007F4FFB0133E0F595E7953A95E1F7F69593
:10283000FE2FEE27F795E795E80FF91FE55BFC4FB4
:10284000415030F08191DF011197822B8C93F8CFAA
:1028500008954F925F926F927F928F929F92AF9264
:10286000BF92CF92DF92EF92FF920F931F93CF937D
:10287000DF9330E0F901E80FF91F1E161F060CF078
:102880007FC0803891050CF07BC0802E912CF40124
:10289000E60FF71F1E161F060CF072C0603471059C
:1028A0000CF06EC0E62FE7707E2EF7E08F0E911CC5
:1028B000E3E095948794EA95E1F7F3E075956795E1
:1028C000FA95E1F7062E000C770BDB01B695BA2FCF
:1028D000AA27B795A795A80FB91FA55BBC4FEA011A
:1028E00010E000E07801E60EF71E48E0E416F1047F
:1028F0000CF046C0EFEFEE16FE06C4F150E040E0EB
:102900005D01F0E8AF0EB11C421753077CF5FA01E8
:10291000E80FF91FE038F1054CF5F7FD24C0FA0186
:10292000EC0FFD1FE491F0E02F01072C02C0440CD6
:10293000551C0A94E2F7EFEFEE16FE0691F16D01D9
:10294000C40ED51EF601608064286082772059F09D
:10295000F7E0EF16F10439F06501C40ED51EF6015B
:102960006080652860824F5F5F4FCECF0F5F1F4F43
:10297000A058BF4FC20FD31F8016910609F0B2CFE7
:10298000DF91CF911F910F91FF90EF90DF90CF904B
:10299000BF90AF909F908F907F906F905F904F907F
:1029A00008957110D9CFDFCF0F93682F70E008E042
:1029B00025E04AE054E290E080E00E9429140F9163
:1029C0000895EBE4F3E0A0E0B8E000800EBC8111D4
:1029D000012C1197A0FDFDCF0192B9F70DB4089518
:1029E000FC0180914A03882311F13FB7F89482E0FB
:1029F0008093E9002091F200822F90E018161906CA
:102A000014F481E090E0882339F0289844E640935C
:102A100049034091F1004083222339F02091F200D4
:102A2000211103C02BE62093E8003FBF08958FEFEC
:102A30009FEF08952FB7F89483E08093E900909179
:102A4000E800892F807295FF04C09091F20080E425
:102A5000891B2FBF08958091410381110DC082E031
:102A600080933D0384E080933E03109240031092D4
:102A70003F0381E0809341038DE393E00895CF937A
:102A8000DF931F92CDB7DEB76983DC01ED91FC9136
:102A90000280F381E02D41E050E0BE016F5F7F4F87
:102AA00009950F90DF91CF91089583E08093E9001D
:102AB0008091F200882319F08AE38093E80008955A
:102AC0000E941A1590E00895CF93DF931F92CDB71F
:102AD000DEB7FC018485958597FD08C02FEF3FEF99
:102AE000358724870F90DF91CF910895CE0101960D
:102AF0000E94F014019719F4898190E0F3CF8FEFD1
:102B00009FEFF0CF0F931F93CF93DF931F92CDB71B
:102B1000DEB78C01FC018485958597FF0BC0CE0143
:102B200001960E94F014019771F4898190E0F801F8
:102B300095878487F801848595850F90DF91CF91E3
:102B40001F910F9108958FEF9FEFF1CFFC018485C6
:102B5000958597FD0BC09FB7F89482E08093E900BC
:102B60008091F2009FBF90E0019608959FB7F8947E
:102B700082E08093E9008091F2009FBF90E0089589
:102B8000409137035091380320913503309136033B
:102B900042175307B4F49091E8009570E1F39091D7
:102BA000E80092FD19C08093F10080913703909165
:102BB000380301968F739927892B19F48EEF809330
:102BC000E800809137039091380301969093380381
:102BD0008093370381E0089580E00895DF92EF92BB
:102BE000FF920F931F93CF93DF93D82E8A01EB01AF
:102BF0007B01E40EF51ECE15DF0559F0D7FE12C09D
:102C0000FE0184910E94C01521968111F4CF0FEF2F
:102C10001FEFC801DF91CF911F910F91FF90EF90AF
:102C2000DF9008958881EECF0F931F93CF93DF93AA
:102C30001F92CDB7DEB782E0898342E450E06EE9AF
:102C400073E280E80E94EE150E942B15DC011296BB
:102C50000D911C910115110589F0D801ED91FC91A0
:102C60000280F381E02DBE016F5F7F4FC80109959F
:102C700097FD04C0F80100851185ECCF89810F9084
:102C8000DF91CF911F910F910895615030F0209105
:102C9000F100FC0120830196F8CF289884E6809308
:102CA00049030895FC010E94E916319728F0685104
:102CB0007C4F8F4F9F4FF9CFAB01FC010E94E9166B
:102CC000641775078E079F07C8F308958F929F9228
:102CD000AF92BF92CF92DF92EF92FF920F931F932A
:102CE000CF93DF936C017B018A0180911F018823C0
:102CF00009F45AC080914A03882309F455C0809191
:102D00003C0380FF05C08091E00082608093E0007A
:102D1000E801B12C8AEFA82E93E0892E2AE3922EA7
:102D2000209711F4BB20C9F10E941A15811108C027
:102D3000AA94AA20C9F181E090E00E945216F0CF37
:102D40008C171D0611F00CF08C2F9FB7F894809211
:102D5000E9002091E80025FD02C09FBFE1CF282FA8
:102D600030E0C21BD30BF701815020F0419140931A
:102D7000F100FACFE20EF31EBB2021F09092E800A2
:102D8000B12CEBCF8091E80085FDE7CF9092E80071
:102D9000BB24B394209709F3F3CF5D9884E6809326
:102DA0003B03101611063CF081E090E0F60193839E
:102DB000828310E000E0C801DF91CF911F910F9155
:102DC000FF90EF90DF90CF90BF90AF909F908F904B
:102DD0000895A1E3B3E02FB7F8947D918D919C9174
:102DE00066B52FBFA89B05C06F3F18F47F5F8F4F5C
:102DF0009F4F22E0660F771F881F991F2A95D1F7F2
:102E00000895AF92BF92CF92DF92EF92FF920F930D
:102E10001F93CF93DF936C017B018B01040F151F70
:102E2000EB015E01AE18BF08C017D10759F06991D8
:102E3000D601ED91FC910190F081E02DC60109953C
:102E4000892B79F7C501DF91CF911F910F91FF90E9
:102E5000EF90DF90CF90BF90AF900895FC01448138
:102E60005581608171818DE997E00C940117CF92B3
:102E7000DF92EF92FF921F93CF93DF93E82FF0E062
:102E8000EA5DFE4F1081E62FF0E0603398F5E75AD7
:102E9000F44FE491CE2FD0E0F12CE12C60E074E20D
:102EA00084EF90E0A7019E010E944A302150310931
:102EB0004109510991E02115310581E0480751058B
:102EC0006CF060E970ED83E090E0A7019E010E9444
:102ED0004A30215031094109510993E0113089F0FC
:102EE000133039F1DF91CF911F91FF90EF90DF9078
:102EF000CF900895EE0FFF1FE75AF54FC591D4917B
:102F0000CBCF809102038111EDCF80918100887F2A
:102F1000892B809381003093890020938800109240
:102F200085001092840080916F00826080936F0012
:102F3000D9CF80919100887F892B80939100309325
:102F40009900209398001092950010929400D093CD
:102F50000103C093000381E08093FF028091710020
:102F6000826080937100BECFE82FF0E0EA5DFE4FF3
:102F70008081813019F08330A9F008958091020397
:102F800081110FC080916F008D7F80936F008091C1
:102F9000F102E091EF02F091F00290818095892397
:102FA000808308951092FF028091FE028111F9CF73
:102FB0008091FC02E091FA02F091FB02EECFCF93F8
:102FC000DF93D1E0E0912003F0912103AF014F5F47
:102FD0005F4F50932103409320032491822F807FE1
:102FE000C22FCF70803821F48C2F0E94B417EACF03
:102FF000803919F5E0919B07F0919C0709958D2781
:103000008093FD02E0912003F0912103CF0101960E
:103010009093210380932003649180910A03C81741
:1030200088F6C13021F48091EE028111CBCF67FD8B
:10303000C9CF8C2F0E943717C5CF87FD3CC0329671
:10304000F0932103E0932003FA014491A09100033F
:10305000B0910103322F242F0E94CD306C507E4F4F
:103060008F4F9F4F28EE33E040E050E00E94AB309E
:103070002093F6023093F7024093F8025093F9023E
:103080008091F6029091F702A091F802B091F902B6
:10309000892B8A2B8B2B61F481E090E0A0E0B0E0DB
:1030A0008093F6029093F702A093F802B093F9028E
:1030B000DF91CF910895803E49F480912203909151
:1030C000230390932103809320037CCF803F09F05A
:1030D00079CF10922403ECCF90910A03923009F437
:1030E00071C0292F30E0F901EA5DFE4F4081245183
:1030F0003D4FF9018083913031F42091EC02281387
:1031000002C09093EE029F5F90930A0390E0FC014F
:10311000E656F54F24918558954FFC01849130E097
:10312000220F331FF901E359F54F65917491F901AD
:10313000E15AF54FA591B4919C91982B9C93413005
:1031400019F04330D9F0089590916400977F9093DF
:10315000640010928000109281009091810098602C
:103160009093810090918100916090938100709381
:10317000F0026093EF028093F10208959091650050
:10318000977F90936500109290001092910090911B
:10319000910098609093910090919100916090932C
:1031A00091007093FB026093FA028093FC0280917D
:1031B0000A03882321F06CE380E00E94371780E047
:1031C0000C94B417089590E00C9452168FB180952A
:1031D000807F669B88601C9B846008953E9A3F9A1E
:1031E00081E080930303089590911603982329F4B6
:1031F00090911703982381E009F480E0089580E01E
:103200000C94E11480389105B8F460347105A0F491
:1032100090E121E061FD24E060FD220F62FD229536
:10322000687F969FD0011124A80FA55BBC4F0C901E
:10323000022A40FF02260C9208952F923F924F924D
:103240005F926F927F928F929F92AF92BF92CF9236
:10325000DF92EF92FF920F931F93CF93DF937C0146
:103260004B01C42FD0E081E090E06C01CC1ADD0A64
:10327000AA24BB24AC1ABD0AAA0CBB1C6624639406
:10328000712C10E000E0822F8470582E822F827003
:10329000482E822F8870382E2170222ED7FC06C02F
:1032A000219782E0A80EB11CCA0CDB1C0F5F1F4FD8
:1032B00082E0680E711CC60CD71C552091F041E0CD
:1032C000BE01680D791DC701800F911F0E94021970
:1032D00041E0B401600F711FCE018E0D9F1D0E9451
:1032E0000219442091F041E0B4016C1B7D0BC70131
:1032F000800F911F0E94021941E0B401601B710B05
:10330000CE018E0D9F1D0E940219332091F041E0E5
:10331000B401600F711FC7018C1B9D0B0E94021925
:1033200041E0BE01680D791DC701801B910B0E9411
:103330000219222091F041E0B401601B710BC7011A
:103340008C1B9D0B0E94021941E0B4016C1B7D0B8C
:10335000C701801B910B0E9402190C171D070CF46A
:103360009DCFDF91CF911F910F91FF90EF90DF9054
:10337000CF90BF90AF909F908F907F906F905F9015
:103380004F903F902F9008952F923F924F925F92CF
:103390006F927F928F929F92AF92BF92CF92DF9265
:1033A000EF92FF920F931F93CF93DF93EC018B016A
:1033B0007A016901C61AD70AD7FE03C0D194C19415
:1033C000D10847018C1A9D0A97FE03C091948194FD
:1033D00091088C149D0454F49E2D8F2D7901292F72
:1033E000382F9C2F8D2FE801092F182FEC16FD0682
:1033F00054F4902F812F8901292F382F9C2F8D2F46
:10340000E701E92EF82E17012C1A3D0A2901401A6E
:10341000510A57FE03C0519441945108310137FEBF
:1034200003C08FEF681A780A759467948FEF0217BC
:1034300013070CF481E0A82E880FBB08EC16FD06DC
:10344000A4F041E0BE01C8018C149D0414F0B80141
:10345000CE010E9402196418750877FE04C00A0D97
:103460001B1D620C731C2196E9CFDF91CF911F9138
:103470000F91FF90EF90DF90CF90BF90AF909F9013
:103480008F907F906F905F904F903F902F90089516
:103490008F929F92AF92BF92CF92DF92EF92FF9264
:1034A0000F931F93CF93DF936D3089F0C090140377
:1034B000D09015036A30D1F41092130310921203C6
:1034C00088E0C80ED11CD0921503C092140381E08D
:1034D00090E0DF91CF911F910F91FF90EF90DF90DF
:1034E000CF90BF90AF909F908F900895009112035E
:1034F00010911303E5E06E9FE0011124C15ADA4FE9
:103500004801F12CF5E0E12CFF1629F0CE010196DF
:10351000FE01E490EC01B12CA12C4E2D4170B601BE
:103520006A0D7B1DC4010E940219E694FFEFAF1AD9
:10353000BF0A88E0A816B10481F7F394EFEF8E1A62
:103540009E0AF6E0FF12DECF0A5F1F4F10931303AF
:1035500000931203BCCFDF92EF92FF920F931F9361
:10356000CF93DF937C01D22E8B01040F111DEB0151
:1035700077FF02C0D0E0C0E0C8010134110514F0AB
:1035800080E490E0C817D9073CF44D2DBE01C70177
:103590000E9402192196F0CFDF91CF911F910F91D8
:1035A000FF90EF90DF9008952F923F924F925F929D
:1035B0006F927F928F929F92AF92BF92CF92DF9243
:1035C000EF92FF920F931F93CF93DF9300D000D021
:1035D000CDB7DEB75C012B012A83242F30E03C837A
:1035E0002B8381E090E07C01E21AF30A1901319407
:1035F00021943108220C331C88248394912CD12CE3
:10360000C12C31E0300F3983F7FC0AC0EB81FC811B
:103610003197FC83EB83F2E02F0E311CE20CF31C9C
:103620002FEFC21AD20A32E0830E911CE80CF91C6B
:103630004B81440FB2018B819C81681B790B102F49
:10364000180D32016C187D089A81913069F5E98175
:103650004E0F20E0C5018C0D9D1D0E94AB1A20E08D
:10366000412FB3018B819C818A0D9B1D0E94AB1A57
:103670008B819C81C816D9063CF20F900F900F9059
:103680000F90DF91CF911F910F91FF90EF90DF90FE
:10369000CF90BF90AF909F908F907F906F905F90F2
:1036A0004F903F902F900895F9814F0F20E0C50172
:1036B0008C199D090E94AB1A20E0412FB301C5016E
:1036C000EB81FC818E1B9F0BD1CF5F926F927F921B
:1036D0008F929F92AF92BF92CF92DF92EF92FF9222
:1036E0000F931F93CF93DF93EC017B01142F722E66
:1036F000602E660C542E5618802E912C5401A80E64
:10370000B91E6034710520F4452DC5010E94F213E5
:103710006701C70CD11CB601615071096034710595
:1037200020F4452DC5010E94F2137618E80CF91C0F
:1037300021E0472DB701CE010E94AB1AC10FD11D68
:1037400021E0472DB701CE0101970E94AB1A21E07D
:10375000402FB701C5010E941D19C819D909219729
:1037600022E0402FB701CE010E941D19C818D908C8
:1037700081E0C81AD10824E0402FB601CE010E9492
:103780001D1928E0402FB601C501DF91CF911F918F
:103790000F91FF90EF90DF90CF90BF90AF909F90F0
:1037A0008F907F906F905F900C941D1920910E0365
:1037B00084E0289F9001112441E090E080E0FC012A
:1037C000E20FF31FEF5FFE4F5081511140E0019671
:1037D00084309105A1F740930D0308958F929F9235
:1037E000AF92BF92CF92DF92EF92FF9210921103AD
:1037F000C0900108D0900208F12CE12C8FEFC81A7C
:10380000D80AE80AF80A80910F0890911008C80EAB
:10381000D91EE11CF11C80911D0890911E08C80E54
:10382000D91EE11CF11CC0921C03D0921D03E09232
:103830001E03F0921F03E1E0F1E025E031E0812C6E
:10384000912C54014FE08191849FC0011124092ED5
:10385000000CAA0BBB0B880E991EAA1EBB1E2E17AE
:103860003F0789F78092180390921903A0921A03D8
:10387000B0921B03A4E6B0E0A70196010E94693054
:10388000A5019401211531054105510521F421E0DF
:1038900030E040E050E00E94AB30309310032093C2
:1038A0000F032F3B3105F0F081E08093110321E0FD
:1038B00030E040E050E084EFC81681E0D806E10433
:1038C000F10440F0C701B60124EF31E040E050E0E0
:1038D0000E94AB3020931C0330931D0340931E03C2
:1038E00050931F03FF90EF90DF90CF90BF90AF9069
:1038F0009F908F9008950F93CF93DF93EC019E815B
:103900006A3059F48D818C836985960F9E8381E09E
:1039100090E0DF91CF910F910895262F61E0690F1C
:103920002A3398F4203398F52B3299F140F4213260
:10393000A1F198859D5F8C81890F8C83E8CF2E3211
:1039400051F12F32B1F723E40FC02B3540F421346D
:10395000E0F42C3321F12E3361F721E405C08FE927
:10396000820F27548A3128F7062E000C770B8C81A2
:10397000082E000C990B3F810AEF313009F00BEF54
:1039800048E252E00E943712D4CF2154EDCF2C5F91
:10399000EBCF20E4E9CF2FE3E7CF2EE3E5CF22E41E
:1039A000E3CF0F931F93CF93DF938C01D0E0C0E060
:1039B000F801EC0FFD1F6491662341F08DE997E05B
:1039C0000E947B1C892B11F02196F2CFCE01DF9152
:1039D000CF911F910F910895EF92FF920F931F9334
:1039E000CF93DF9390910903D1E09111A3C0282FC9
:1039F00030E0A90141525D4F7A01FA01D081D11125
:103A000099C091E09093270390910803953608F0B0
:103A100099C09F5F90930803C82F0DE010E020E04D
:103A200042E366E070E0C8010E94AB1A0F5F1F4FCF
:103A300006371105A1F707E210E021E045E06BE051
:103A400070E085E790E00E94D41A22E045E06BE048
:103A500070E08DE090E00E94D41A05E022E343E795
:103A600065E070E088E090E00E94651BC630D0F011
:103A700002E020E049EF52E062E170E08AE590E088
:103A80000E943712409108034B3508F04AE550E098
:103A90004C5E5F4F24E330E064E370E08CE090E044
:103AA0000E94C4198BE08093A2078093A10788E04D
:103AB0008093A307F6E0CF9FC00111248555984F4E
:103AC0000E942E1710E000E020E048E068E370E07C
:103AD000C8010E94AB1A0F5F1F4F00381105A1F7F4
:103AE00008E027E046E15FE069E370E08AE590E006
:103AF0000E94291484E68093A2078093A10789E39A
:103B00008093A30786EF92E00E94D11C84E00E947C
:103B1000F4188823C9F090910803933358F0109259
:103B2000270391E0F70190831092080396E99093A0
:103B30000903D82F8D2FDF91CF911F910F91FF9007
:103B4000EF90089594E666CFD0E0F4CF089590E02A
:103B500080E008958F929F92AF92BF920F931F9330
:103B6000CF93DF93CDB7DEB7A1970FB6F894DEBF42
:103B70000FBECDBF19A2423008F44AE08E010F5D9E
:103B80001F4F842E912CB12CA12CA50194010E94D1
:103B9000AB30E62FB901CA01EA3044F5E05DD80147
:103BA000EE938D01232B242B252B79F790E080E0D9
:103BB000109769F0FD0101900020E9F73197AF01FE
:103BC0004A1B5B0BBD018DE997E00E940117A1968E
:103BD0000FB6F894DEBF0FBECDBFDF91CF911F911E
:103BE0000F91BF90AF909F908F900895E95CD7CFD1
:103BF00080910D03811126C080910E0320910D014B
:103C000034E0839FC00111248F5F9E4F820F911D6E
:103C1000FC0160816623D9F070E090E080E00E94B2
:103C2000352F9B01AC0163E373E383EB9FE30E94B9
:103C30007D3120E030E04AE754E40E94722F0E9478
:103C40004E31089560E177E280E090E0089568EEFB
:103C500073E080E090E008950F931F93CF93DF937C
:103C6000EC0188819981009759F02A813B812617C0
:103C7000370730F081E0DF91CF911F910F910895C8
:103C80008B016F5F7F4F0E94A634009759F0998394
:103C900088831B830A832C813D81232B59F7FC01E8
:103CA0001082E8CF80E0E7CFCF93DF93EC018881EB
:103CB0009981009711F00E941D34198218821D828B
:103CC0001C821B821A82DF91CF910895EF92FF929E
:103CD0000F931F93CF93DF938C017B01FB01019026
:103CE0000020E9F73197E61BF70BD1F0DC011496C1
:103CF000CD91DC91CE0FDF1FBE010E942C1E8823C8
:103D0000B9F0F8012081318184819581B701820F5A
:103D1000931F0E946C35D8011596DC93CE931497AF
:103D2000C801DF91CF911F910F91FF90EF900895FF
:103D3000C8010E94541EF4CFEF92FF920F931F937D
:103D4000CF93DF93EC017B018A01BA010E942C1E04
:103D500081110BC0CE010E94541ECE01DF91CF9184
:103D60001F910F91FF90EF9008951D830C83B70171
:103D7000888199810E946C35F0CFFB010190002071
:103D8000E9F73197AF01461B570B0C949C1EEF923D
:103D9000FF920F931F93CF93DF93CDB7DEB7A19719
:103DA0000FB6F894DEBF0FBECDBF7C01CB01BA01C8
:103DB000F7011182108213821282158214828E0101
:103DC0000F5F1F4F21E043E00E94942C009789F081
:103DD000BC01C7010E94BD1EA1960FB6F894DEBFBC
:103DE0000FBECDBFDF91CF911F910F91FF90EF904C
:103DF0000895C7010E94541EEFCFFB01DC0111960C
:103E00001C921E9213961C921E92129715961C924B
:103E10001E9214978617970749F06081718161158A
:103E2000710521F0448155810C949C1E0895FC017C
:103E300080819181009711F00C941D340895CF92E8
:103E4000DF92EF92FF920F931F93CF93DF93CDB743
:103E5000DEB7A7970FB6F894DEBF0FBECDBF8C01BB
:103E60006A017B0128EEC21623E0D206E104F104C8
:103E700028F5FC01118210821382128215821482AD
:103E80002AE0AE014F5F5F4FCB01B6010E94B22C1A
:103E9000BE016F5F7F4FC8010E94BD1EC801A7967B
:103EA0000FB6F894DEBF0FBECDBFDF91CF911F914B
:103EB0000F91FF90EF90DF90CF900895CB01BA0162
:103EC0000E94352FF0E4CF16F2E4DF06FFE0EF06A4
:103ED000F10430F520E030E04AE754E40E94DC30A1
:103EE000AB01BC01CE0101960E94C71EBE016F5FEF
:103EF0007F4FCE0182960E94FD1E69E571E0CE01E2
:103F000082960E94661EBC01C8010E94FD1ECE0161
:103F100082960E94171FCE0101960E94171FBECFE6
:103F2000C1142AECD2062AE9E2062BE3F206B0F429
:103F300020E034E244E759E40E94DC30AB01BC01EC
:103F4000CE0101960E94C71EBE016F5F7F4FCE015A
:103F500082960E94FD1E6BE571E0D1CF28E23BE620
:103F60004EE65EE40E94DC30AB01BC01CE0101965E
:103F70000E94C71EBE016F5F7F4FCE0182960E94D6
:103F8000FD1E6DE571E0BBCF1F920F920FB60F9231
:103F900011248F939F938091E1009091E100937F92
:103FA0009093E10083FF0FC01092E90091E090939D
:103FB000EB001092EC0092E39093ED0010924A0314
:103FC00098E09093F00082FF22C093E09093E90084
:103FD0009091F200992319F09AE39093E800909160
:103FE0003B03992341F090913B03915090933B0305
:103FF000911101C05D9A90914903992341F09091EC
:104000004903915090934903911101C0289A84FF6C
:1040100018C08091E2008E7E81608093E2008091E2
:10402000E1008F7E8093E10080913C038E7E806171
:1040300080933C039F918F910F900FBE0F901F9024
:10404000189580FFF7CF8091E2008E7E806180938B
:10405000E2008091E1008E7E8093E10080913C033C
:104060008E7E8160E5CF1F920F920FB60F921124C2
:10407000CF92DF92EF92FF920F931F932F933F9374
:104080004F935F936F937F938F939F93AF93BF9360
:10409000EF93FF93CF93DF93CDB7DEB76C97DEBF7F
:1040A000CDBF1092E9008091E80083FF25C068E051
:1040B000CE0145960E94451682EF8093E8008D89D7
:1040C00087FF39C09091E80090FFFCCF982F907641
:1040D00009F034C19E894F89588D2F89F88C911130
:1040E00031C0803861F580913A038093F1001092DD
:1040F000F1008EEF8093E8006C960FB6F894DEBF67
:104100000FBECDBFDF91CF91FF91EF91BF91AF91E6
:104110009F918F917F916F915F914F913F912F91DF
:104120001F910F91FF90EF90DF90CF900F900FBEF7
:104130000F901F9018959EEF9093E800C7CF1092B4
:10414000F100D5CF913059F48111D3CF41305105D1
:1041500081F680913A038D7F80933A03CACF9330E2
:1041600049F48111C6CF4130510519F680913A03C7
:104170008260F2CF953041F48091E80080FFFCCF5F
:1041800020682093E300B5CF963009F0A9C00B8DCD
:104190001C8D22E01092E900109238031092370330
:1041A000F2122EC010923603109235030E9414169C
:1041B0001F8299E09983FA8291E09E8390EA988722
:1041C0009AEF99872091370330913803275F3F4F4B
:1041D0003C832B838D831092E90010923803109258
:1041E0003703109336030093350349E050E0BE01D6
:1041F0006F5F7F4F80E00E94EE150E94141679CF0A
:1042000010933603009335030E942B15DC011296A0
:104210000D911C910115110509F451C1D801ED91C1
:10422000FC910480F581E02DBE016B5E7F4FC801DB
:104230000995009709F03EC1F80100851185EACF84
:10424000F3E0FF120EC08F89882309F440C082304A
:1042500061F440E867E082E094E20E9480238111EB
:1042600048CF81E28093EB0047CF813029F440E8CA
:104270006BE086EF93E2F1CF833099F70E942B1524
:10428000DC011296ED90FC908E010F5F1F4F6801CC
:10429000E114F10479F0D701ED91FC910680F781EA
:1042A000E02DB801C7010995080F111DF701E08441
:1042B000F184EECFD8011C92F60101900020E9F7BD
:1042C0003197BF016C197D0940E0C601C6CF60EE91
:1042D00073E2FB01449150E080E80E94EE1509CFA3
:1042E000973009F4BECF983021F481E08093F1003B
:1042F00000CF993009F0FDCE837009F0B2CFE9E22A
:10430000F1E081E031E096E32191222371F0809386
:10431000E9003093EB00DF0111972C912093EC0022
:104320009093ED008F5F873079F78EE78093EA00F6
:104330001092EA008F8980934A03DBCE8B8D9C8D8F
:104340001092E900109238031092370390933603CD
:1043500080933503898D811192C08E899D89913A10
:1043600049F4813209F07DCF47E050E068E171E027
:1043700080E0B3CF913209F074CF833269F48F8932
:10438000988DB0E0A0E08093140190931501A09364
:104390001601B0931701ADCE803269F48091E80028
:1043A00082FFFCCF67E088E191E00E9445168BEF29
:1043B0008093E8009ECE823209F09BCE8F89809355
:1043C0001F01EEEFFFE7859194918B3F9C4D51F1DA
:1043D000E0E0F8E08091180190911901A0911A0194
:1043E000B0911B01803B9440A105B105F1F480918F
:1043F0001F0180FD1AC0EE3F8AE0F80789F587E7C4
:1044000097E791838083809160008093390388E1EE
:104410009BE00FB6F894A895809360000FBE909330
:10442000600067CEEEEFFAE0D5CF808191818737CB
:10443000974709F05ECEA8958091600088618093CF
:1044400060008091390380936000EE3F2AE0F2071C
:1044500089F08091FE0A9091FF0A9183808349CE72
:10446000808191818737980751F29093FF0A80935A
:10447000FE0AC5CF1092FF0A1092FE0A3ACE0E94A1
:104480002B15DC0112960D911C910115110509F4F3
:10449000E8CED801ED91FC910190F081E02DBE01B4
:1044A0006B5E7F4FC8010995811123CEF80100850D
:1044B0001185EBCF181619060CF41BCED2CEF1E005
:1044C000FF12BECE64EE73E204CF0F920FB68F934D
:1044D0009F93EF93FF9380912C038D5F8D3708F0AE
:1044E0008D5780932C03EDE2F3E080818E4F808323
:1044F00091819F4F918382818F4F828383818F4FE0
:104500008383E1E3F3E080818F5F808381818F4F3C
:10451000818382818F4F828383818F4F83838FB189
:104520008F6066991C9B88278F3681F480912B03BE
:10453000981B963068F0E0E0F8E087E7808381839D
:1045400088E180936000F0936000FFCF90932B038D
:10455000FF91EF919F918F910FBE0F9018951F9231
:104560000F920FB60F9211242F933F934F935F93A7
:104570006F937F938F939F93AF93BF93EF93FF932B
:104580008091FF02882389F08091FE0281110DC085
:104590008091FD02811109C09091FC02E091FA0224
:1045A000F091FB02808189278083809124038823F6
:1045B00029F18091F6029091F702A091F802B09152
:1045C000F902892B8A2B8B2BC9F08091F6029091EE
:1045D000F702A091F802B091F9020197A109B1097F
:1045E0008093F6029093F702A093F802B093F90239
:1045F000892B8A2B8B2B11F40E94DF17FF91EF91EF
:10460000BF91AF919F918F917F916F915F914F91EA
:104610003F912F910F900FBE0F901F9018951F92F2
:104620000F920FB60F9211248F939F93AF93BF9366
:10463000EF93FF9380910203882309F454C0809183
:10464000F2029091F302A091F402B091F502892B4D
:104650008A2B8B2BA1F19091F102E091EF02F09166
:10466000F0028081892780838091F2029091F30289
:10467000A091F402B091F502181619061A061B064D
:104680009CF48091F2029091F302A091F402B09117
:10469000F5020197A109B1098093F2029093F30208
:1046A000A093F402B093F502FF91EF91BF91AF9107
:1046B0009F918F910F900FBE0F901F9018951092A1
:1046C000FE021092020380916F008D7F80936F0035
:1046D0008091F102E091EF02F091F00290818095DB
:1046E00089238083E1CF8091FD028111DDCF9091FC
:1046F000F102E091EF02F091F00280818927F1CF81
:10470000EF92FF920F931F93CF93DF93F82E192F01
:10471000E62E042F81E0860F880F0E94C01583E0EB
:104720000E94C015CF2DD12FEC0EFD2EF11CCE1501
:10473000DF05B9F007FF13C0FE0184910E94C01588
:10474000182F80E00E94C015812321968111EFCFA0
:10475000DF91CF911F910F91FF90EF900895888185
:10476000EDCF81E0F5CFFC0111821082138212821D
:1047700015821482FB0101900020E9F73197AF0107
:10478000461B570B0C949C1E1F93CF93DF93EBE4B7
:10479000F7E01382128288EE93E0A0E0B0E0848319
:1047A0009583A683B78383E391E0918380838FEF22
:1047B0009FEF958784876FE571E089EF97E00E940E
:1047C000B323C9EFD7E084E690E09F838E831986F8
:1047D000188685E090E09B878A871C868AE08D8713
:1047E0006EE671E087E098E00E94B32388EC90E0E9
:1047F0009D8B8C8B1F8A1E8A8AE090E0998F888F10
:104800001A8E14E61B8F66E771E085E198E00E943E
:10481000B32384EF91E09BA38AA31DA21CA284E191
:1048200090E09FA38EA318A619A76CE771E08BEA0E
:1048300097E00E94B32363E971E081EB97E00E9467
:10484000B32369EA71E087EB97E00E94B32364EC3D
:1048500071E08DEB97E00E94B3236CED71E083EC87
:1048600097E00E94B32361EF71E089EC97E00E942A
:10487000B3236DEF71E08FEC97E00E94B32363E107
:1048800072E085ED97E00E94B32366E472E08BED61
:1048900097E00E94B32368E572E081EE97E00E9402
:1048A000B3236CE672E087EE97E00E94B3236BE7D8
:1048B00072E08DEE97E00E94B32365EB72E083EF28
:1048C00097E00E94B32384E392E190939C07809346
:1048D0009B07E7EAF7E01382128281E591E091837A
:1048E0008083EDE9F7E01382128285E491E0918301
:1048F000808388E0818781E0808715821682148218
:104900008783DF91CF911F910895CDB7DEB766976A
:10491000DEBFCDBF789483E084BD83E085BD81E0B8
:1049200080936E00E1E8F0E083E08083E0E881E0DE
:104930008083E1E983E08083E0E981E08083E1EC4A
:1049400087E08083E3EC81E08083E0EC82E0808399
:10495000E2EC81E08083EAE787E0808380688083FF
:1049600010924A0310923A0310923C038091D700B0
:1049700081608093D70080EA8093D80089B58061F8
:1049800089BD89B5826089BD09B400FEFDCF81E093
:1049900090E00E9452168091D8008F7C80618093B5
:1049A000D8008091E000807F8093E0008091E1005A
:1049B0008E7E8093E1008DE08093E200559A209AEC
:1049C00081EC80937C0081EF85B987EE84B984E324
:1049D0008BB984EF8AB9769A6E9880EF81BB10BA52
:1049E00080E58CBD81E08DBD85E00E94E3185F9A73
:1049F00085E00E94E3185C98E9E3FCE085918EBDB8
:104A000000000DB407FEFDCFE634C1F75C9A81E8E3
:104A10008093640081E0809365000E94FF180E94EB
:104A2000E61887FF15C05C9885EA8EBD00000DB4BE
:104A300007FEFDCF5C9A2E982F982D9880916400E8
:104A400080628093640081E083BF889513BEFCCFB1
:104A50000E94E61882FF37C02D980E94E6188478DD
:104A60008438A1F42D9A88EC0E94E3182F986FEFF8
:104A700082E090E00E94383084EF91E00E9452166C
:104A80002F9A0E94E61884788438D9F30E94E61899
:104A900084718431A1F42D9A88EC0E94E3182E9839
:104AA00060E082E090E00E94383084EF91E00E9464
:104AB00052162E9A0E94E61884718431D9F388EC3C
:104AC0000E94E318C5CF2D9A82E090E00E9430301A
:104AD000882309F44FC00E94EE1881E090E00E9404
:104AE0003030182F147081FF0CC011112E9821EF57
:104AF000E22EFF24FA940E94E61886FF40C02E9A08
:104B00002F9A82E30E94E3180E94E6188111F9CFE0
:104B100080E1809300010E94EE1B0E94EE1885E068
:104B20000E946C188DE00E946C188FE59CE09093B9
:104B300023038093220390932103809320030E94F8
:104B4000DF1781E0809324039FE5292E9CE0392E16
:104B50008DE9482E81E1582E80910603882309F4BF
:104B600069C01092060380E090E0892BA9F30E94AF
:104B70000000EECF109203033E983F98AECF112372
:104B800031F024E0E216F10411F42E9A2F9881E01E
:104B90000E94E11400E128E549E85BE0B70184E107
:104BA00090E00E9429140E94FF188FE00E94E318F1
:104BB0003FEFE31AF30A49E1E416F10409F09BCF51
:104BC000112311F02F9A2D9880E991E00E9452163E
:104BD0002D9A81E090E00E94303080FF92CF8AE0F1
:104BE00090E00E9430309FEF980F9E3F08F089CFF1
:104BF00022E330E0309313032093120328E330E0E4
:104C000030931503209314030AE010E0682F87EA1D
:104C100097E00E94481A0F5F1F4FC8010E94303072
:104C20000031110599F70E94FF1888EE93E00E9469
:104C3000521667CF90912D0380910703592F581B6F
:104C4000852F20910001521748F48F5F821708F0DA
:104C50008ACF81E083BF889513BE85CF81E08093A2
:104C6000060390930703E4E0F3E0808191810196CD
:104C70008083918380912A038F5F883008F010C56C
:104C800080932A0380912403811111C08091130124
:104C9000882369F05092230340922203509221030B
:104CA000409220030E94DF1781E08093240310913B
:104CB000280380912903811131C01F3F79F540916C
:104CC0001C0350911D0360911E0370911F0380917E
:104CD000180390911903A0911A03B0911B03481770
:104CE00059076A077B0710F4DB01CA01880F991F77
:104CF000AA1FBB1F40910E0150910F01609110013E
:104D000070911101840F951FA61FB71F80930E018C
:104D100090930F01A0931001B0931101809117039C
:104D2000809316030E94E61880931703809127034F
:104D300081110EC000911201023009F0BEC488E05A
:104D40000E94F418882321F0809126038093120199
:104D500090E0EBE4F3E091119FEF8FEF919391934B
:104D6000919391938150D0F71092150310921403F0
:104D700010921303109212031F3F09F05DC429E043
:104D800030E040E850E069E070E090E080E00E94B0
:104D9000C41908E025E048E951E161E070E081E0F4
:104DA00090E00E94291488E08093A2078093A107D5
:104DB00011E01093A30740910E0150910F016091F3
:104DC000100170911101CE0101960E941F1FCE01AA
:104DD00001960E942E17CE0101960E94171F2DE00A
:104DE0004BE851E162E070E080E290E00E9429141B
:104DF0008FE28093A2078093A1071093A3074091AD
:104E00001C0350911D0360911E0370911F03CE017E
:104E100001960E941F1FCE0101960E942E17CE01FF
:104E200001960E94171F80911103882321F089E8C1
:104E300091E10E94D11C08E025E044E851E161E0E5
:104E400070E086E490E00E94291442E361E070E0A3
:104E50008DE490E00E94F21342E367E070E08DE49D
:104E600090E00E94F21321E047E061E070E08DE401
:104E700090E00E94AB1A21E047E061E070E08EE72D
:104E800090E00E94AB1AE0900F03F090100397019E
:104E90003695279580E6E816F10408F020E308E04F
:104EA00044E551E162E070E08EE490E00E94291454
:104EB00094E6E916F10408F01DC4C701969587959C
:104EC000835B9F4F27E030E0AC0161E070E00E941F
:104ED000C4198091120181114AC180912703811167
:104EE00046C180E80E94F418882339F080910D01B2
:104EF000811132C483E080930D0180E10E94F41897
:104F0000882339F080910D01833008F427C4109272
:104F10000D0184E00E94F41810910D03E0900E033F
:104F2000F12C882309F442C0111110C0E0910D0149
:104F3000C701880F991F880F991F8F5F9E4FE80F39
:104F4000F92FF11D8081843108F00CC40E94F81DF6
:104F500080900E0190900F01A0901001B09011016F
:104F600086169706A806B90608F1A5019401261B26
:104F7000370B480B590BDA01C90180930E0190934E
:104F80000F01A0931001B0931101E0910D01C70131
:104F9000880F991F880F991F8F5F9E4FE80FF92F79
:104FA000F11D80818F5F80830E94EE1B112309F425
:104FB000D9C302E021E049E65FE06BE070E084E005
:104FC00090E00E943712C0900D0189E0C89E802DAC
:104FD0001124805F0E94D414E0900E03D12C8091A4
:104FE0000D0324E0E29E70011124811108C0F70135
:104FF000EF5FFE4FEC0DFD1D80818431C0F508E0B0
:1050000025E048E951E16DE270E085E590E00E941D
:10501000291485E58093A2078093A10783E28093FA
:10502000A307A7014F5F5E4FC40ED51EF601808116
:10503000882309F43CC488E39FE00E94D11C8DE5DD
:105040008093A2078093A1078DE28093A3070E941B
:10505000F81DAB01BC01CE0101960E941F1FCE01BD
:1050600001960E942E17CE0101960E94171F21E281
:1050700030E045E550E06BE070E085E590E00E94AF
:10508000C41921E230E04EE750E061E270E085E5CE
:1050900090E00E94C4198AE58093A2078093A1073B
:1050A0008CE08093A3078BE29FE00E94D11C08E074
:1050B0002DE04BE851E167E170E08AE590E00E9465
:1050C00029148BE68093A2078093A10786E1809341
:1050D000A307409118035091190360911A0370912E
:1050E0001B03CE0101960E941F1FCE0101960E9454
:1050F0002E17CE0101960E94171F27E044E25FE0C1
:1051000069E370E08DE290E00E94291487E38093C8
:10511000A2078093A10719E31093A3078DE19FE0F5
:105120000E94D11C27E046E15FE069E370E08AE578
:1051300090E00E94291484E68093A2078093A1073F
:105140001093A30780910E0320910D01F4E08F9F2F
:10515000C00111248F5F9E4F820F911DFC01808141
:10516000882309F4A7C38EE09FE00E94D11C8091A0
:105170001201813009F0BFC18091270381115CC207
:1051800080E80E94F418882339F080910C03811183
:1051900094C382E080930C0380E10E94F41888237A
:1051A00039F080910C03823008F489C310920C030B
:1051B00084E00E94F418882309F480C060910C03F5
:1051C0002EE0269F800111240750184FF801948586
:1051D0008585981708F072C0C680D780F12CE12C25
:1051E00080910E0190910F01A0911001B0911101D9
:1051F0008C159D05AE05BF0508F460C08C199D098E
:10520000AE09BF0980930E0190930F01A093100186
:10521000B0931101B801CE0101960E94FD1EF80164
:10522000E680F780F886EF82808591859A87898766
:10523000828593859C878B8764856D8785858E871E
:1052400070E090E080E00E94352F9B01AC0160E0AF
:1052500070E080EC9FE30E947D314B015C01B7015F
:1052600090E080E00E94352FA50194010E94722FEA
:105270000E944E31F80177836683CE0101960E9429
:10528000171FF8016285738580859185860F971FAA
:105290009187808784858F5F848790E080E00E947B
:1052A000352F20E030E040EC5FE30E94722F0E9437
:1052B0004E31F801738762870E94EE1B82E10E94E3
:1052C000D41484E1E82EF12CD12CC12C9EE0792E4F
:1052D00027E0922E3BE6832E80910C038C0D9D2DB2
:1052E000911D833091050CF0B7C0789E8001799EA6
:1052F000100D11240750184FB801CE0101960E94DD
:10530000FD1EF8018681978198878F83808591851E
:105310009A878987828593859C878B8784858D87EB
:1053200085858E8701E021E148E7B7016850710962
:1053300085E090E00E94651B9092A2079092A107E1
:1053400089EF8E0D8093A307CE0101960E942E1740
:105350008D85882399F087E09FE00E94D11C6D85A0
:1053600070E090E080E04AE00E94AA1D9D858E8555
:10537000981720F082E09FE00E94D11C5701FFEFB8
:10538000AF1ABF0A08E02DE04BE851E1B50187E014
:1053900090E00E94291427E12093A2072093A107FF
:1053A000E092A30749855A8570E060E0CE010F9630
:1053B0000E941F1FCE010F960E942E17CE010F963E
:1053C0000E94171F9E858D85891708F041C039E41A
:1053D0003093A2073093A107E092A30725E048E9A4
:1053E00051E1B70188E390E00E9429144F8158856C
:1053F00070E060E0CE010F960E941F1FCE010F9655
:105400000E942E17CE010F960E94171F2DE04BE829
:1054100051E1B5018AE590E00E9429148092A2072B
:105420008092A107E092A30780E09FE00E94D11C38
:105430004B855C8570E060E0CE010F960E941F1FD7
:10544000CE010F960E942E17CE010F960E94171FB5
:10545000CE0101960E94171F4FEFC41AD40A52E1E1
:10546000E50EF11C83E0C816D10409F035CF10E039
:1054700000E020E048E068E370E0C8010E94AB1A59
:105480000F5F1F4F00381105A1F708E027E044E245
:105490005FE069E370E08DE290E00E94291487E309
:1054A0008093A2078093A10719E31093A30788EFC5
:1054B0009EE00E94D11CE0910C039EE0E99FF00168
:1054C0001124E750F84F948585859817A0F427E0BC
:1054D00046E15FE069E370E08AE590E00E9429140C
:1054E00084E68093A2078093A1071093A30784EF1B
:1054F0009EE00E94D11C80911201823009F09CC074
:1055000080E80E94F418882339F080910B03811100
:10551000DAC181E080930B0380E10E94F4188823B4
:1055200039F080910B03882309F4CFC110920B034B
:1055300084E00E94F4188823C9F010910B03111124
:1055400015C08091130101E0802780931301882307
:1055500009F4BFC130922303209222033092210329
:10556000209220030E94DF170093240380910B03F5
:105570009CE0899F802D1124805F0E94D41401E05B
:105580002BE048E76CE070E085E090E00E94651B4E
:1055900088E08093A2078093A1071EE01093A307E1
:1055A0008DE49CE00E94D11C8AE58093A207809341
:1055B000A1071093A30780911301882309F495C1D3
:1055C0008AE49CE00E94D11C10E000E020E048E06A
:1055D00068E370E0C8010E94AB1A0F5F1F4F0038EC
:1055E0001105A1F708E027E044E25FE069E370E01D
:1055F0008DE290E00E94291487E38093A2078093B4
:10560000A10719E31093A3078AE59CE00E94D11C2F
:1056100027E046E15FE069E370E08AE590E00E9400
:10562000291484E68093A2078093A1071093A3070F
:1056300083E59CE00E94D11C80912703811107C063
:1056400080910903882319F0815080930903809188
:1056500028038F3F89F00E94EC1C882369F0109288
:1056600009038EE180930803809128038F5F8B30BC
:1056700008F03EC18093280380910F03909110039E
:105680008A36910518F08BE00E94EC1C8091110382
:10569000882319F08CE00E94EC1C0E94FF1863CA5A
:1056A00010922A03809129038F5F843118F480932C
:1056B0002903E8CA10922903E5CA0E94E6189091CE
:1056C000250383FF0AC09F5F90932503983709F055
:1056D0003FCB0093260382E039CB9150973738F4C3
:1056E000802F90E00196817099278093120110928B
:1056F00025032ECBEAE6EE16F10408F4EACB06E524
:1057000010E020E045E062E070E0C8010E94AB1AC2
:105710000F5F1F4F05371105A1F702E010E021E0F0
:1057200041E063E070E084E790E00E94D41A22E058
:1057300041E063E070E086E590E00E94D41A86E5DF
:105740008093A2078093A10781E08093A3078BE455
:1057500091E10E94D11CBDCB8150CDCB8F5F809356
:105760000D01D7CB02E020E049E65FE06BE070E09E
:1057700084E090E00E94371210912903812F6AE0A3
:105780000E946F3341E0911140E06CE070E084E2F0
:1057900090E00E940219812F6CE00E946F3341E07B
:1057A000911140E06CE070E086E290E00E94021906
:1057B000C701880F991F880F991FAC014F5F5E4F7B
:1057C0004A0161E1C62ED12C7FE0E72EF12C1CE2CC
:1057D0001093A2071093A107E092A307F401B190E0
:1057E0004F01B11018C008E02CE140E45FE0B701C0
:1057F0008AE090E00E94291485E69FE00E94D11C77
:1058000099E0E90EF11CE9E0CE0ED11CF5E3CF16CC
:10581000D104F1F6D8CB01E028E04CE1B7018AE0F1
:1058200090E00E94651B8B2D65E00E946F33282F4E
:1058300030E03E8B2D8BB12CA12C4CE0642E712CD2
:1058400008E024E04CE55FE0B601C3010E942914A2
:105850003FEFA31AB30A45E0640E711C8D899E893F
:105860008A159B056CF780E69FE00E94D11CF4012D
:1058700031978081188A1F861A8A198A1C8A1B8A86
:105880004AE0BE016F5F7F4F90E00E94D42CBE01C2
:105890006F5F7F4FCE010F960E94BD1ECE010F9607
:1058A0000E942E17CE010F960E94171FA9CF84E3E6
:1058B0009FE0C3CB8AE09FE058CC81506BCC8F5FD8
:1058C00080930C0375CC815025CE81E080930B032F
:1058D0002FCE80910A03181728F4812F0E94B41745
:1058E0001F5FF7CF1092240341CE86E49CE06ACE7E
:1058F0008FEFC0CECF93DF93C9EFD7E02697CE01CD
:105900000E94171F87E0CB3AD807C1F785E198E0DE
:105910000E94171F87E098E00E94171F89EF97E009
:10592000DF91CF910C94171FEF920F931F93CF939A
:10593000DF93E80134E047FD34E1042E000C550B01
:1059400057FF03C0519541955109E32E022F242F93
:10595000AE010E94EE2CCE01DF91CF911F910F91ED
:10596000EF900895BB27FA01A62F621771058105F4
:105970009105330B30FB66F0AA27660F771F881F4F
:10598000991FAA1FA21710F0A21B63953850A9F700
:10599000A05DAA3308F0A95DA19336F7B111B193C8
:1059A0001082CA010C94252FBB27FB015527AA277B
:1059B000880F991FAA1FA41710F0A41B839550519C
:1059C000B9F7A05DAA3308F0A95DA193009779F714
:1059D000B111B1931192CB010C94252FA9E0B0E045
:1059E000E4EFFCE20C947A306A01F22EB02E102F14
:1059F000FBE3AF2EA01608F41BE31F5F012F27E087
:105A0000AE014F5F5F4F0E944D2EBC018981982FE0
:105A10009970913009F43FC09BE2E1FC04C09E2DD7
:105A20009170E0FC3AC05E2D5071E82FE87083FF62
:105A300046C084E0911101C083E0EF2DE81B8F1573
:105A400008F0E0E0D6018E2F20E2552351F1992392
:105A500029F0D6019C93C60101966C0196012D5F39
:105A60003F4FE2FE24C08EE4D6018C9391E4119660
:105A70009C93119712968C93D9018E2F90E28111ED
:105A80001BC0E20FF32FF11D10828EEF9FEF2996BE
:105A9000ECE00C9496309DE2C6CF90E2C4CF2D93FB
:105AA00081508111FCCFCE0ED11CE0E0D0CF8EE62C
:105AB000D6018C9391E6DBCF9D938150E0CF482FA8
:105AC000447082FF3DC084E0911101C083E08F15D6
:105AD00010F4EF2DE81BD6018E2F20E2552309F19B
