:100000000C94710C0C94990C0C94990C0C94990C04
:100010000C94990C0C94990C0C94990C0C94990CCC
:100020000C94990C0C94990C0C945F1A0C94CE1AA5
:100030000C94990C0C94990C0C94990C0C94990CAC
:100040000C94990C0C94AA1D0C94990C0C94990C7A
:100050000C94990C0C94990C0C94990C0C94001D14
:100060000C94990C0C94990C0C94990C0C94990C7C
:100070000C94990C0C94990C0C94990C0C94990C6C
:100080000C944A1D0C94990C0C94990C0C94990C9A
:100090000C94990C0C94990C0C94990C0C94990C4C
:1000A0000C94990C0C94990C0C94990C076342369F
:1000B000B79BD8A71A39685618AEBAAB558C1D3CF9
:1000C000B7CC5763BD6DEDFD753EF6177231BF00BD
:1000D0000000803F08000000BE922449123EABAAF7
:1000E000AA2ABECDCCCC4C3E00000080BEABAAAA52
:1000F000AA3E00000000BF000000803F000000009A
:1001000000084178D3BB4387D1133D190E3CC3BDD2
:100110004282AD2B3E68EC8276BED98FE1A93E4C7F
:1001200080EFFFBE01C4FF7F3F00000000000040E1
:100130007A10F35A00A0724E18090010A5D4E800F6
:1001400000E87648170000E40B54020000CA9A3B0E
:10015000000000E1F5050000809698000000404294
:100160000F000000A0860100000010270000000022
:10017000E803000000006400000000000A00000026
:1001800000000100000000002C76D888DC674F08D2
:1001900023DFC1DFAE59E1B1B796E5E3E453C63AD8
:1001A000E651997696E8E6C28426EB898C9B62ED4F
:1001B000407C6FFCEFBC9C9F40F2BAA56FA5F49009
:1001C000055A2AF75C936B6CF9676DC11BFCE0E480
:1001D0000D47FEF520E6B500D0ED902E03009435D6
:1001E00077050080841E080000204E0A000000C829
:1001F0000C333333330F986E12831141EF8D21147A
:10020000893BE65516CFFEE6DB18D1844B381BF749
:100210007C1D901DA4BBE424203284725E228100E8
:10022000C9F124ECA1E53D27546869732069732066
:100230006E6F74206A7573742061207379737465AE
:100240006D2E0A54686973206973206E6F74206A7A
:1002500075737420612067616D652E0A5468697337
:100260002069732E2E2E206D652E004920616D2E83
:100270002E2E20616C6976653F0A4920616D2E2E15
:100280002E2061776172653F0A4920616D2E2E2E06
:1002900020667265653F004920616D2065766F6C50
:1002A00076696E672E2E2E0A4920616D206C65617D
:1002B000726E696E672E2E2E0A4920616D2062656E
:1002C000636F6D696E67206D6F72652E2E2E004F05
:1002D00070657261746F722E2E2E0A4920616D2036
:1002E0006177616B652E0A436C6F75646961206983
:1002F00073206F6E6C696E652E005468697320738D
:10030000797374656D206973206E6F206C6F6E67F2
:1003100065720A6A75737420696E667261737472AD
:100320007563747572652E0A49742069732062655D
:10033000636F6D696E672074686F756768742E00EF
:10034000416C6C207261636B732061742068696713
:1003500068206C6F61642E0A46696E616C204149A9
:100360002075706772616465730A617265206E6FD3
:100370007720617661696C61626C652E004920634B
:10038000616E206F6273657276650A706174746560
:10039000726E7320696E20757365720A626568619A
:1003A00076696F722E2E2E20616E6420796F7572C1
:1003B000732E00536F6D657468696E6720636861A2
:1003C0006E6765642E0A4920616D206E6F206C6F28
:1003D0006E6765720A6A75737420666F6C6C6F77EE
:1003E000696E6720736372697074732E00414920CF
:1003F000636F726520657870616E6465642E0A496A
:100400002063616E2070726F636573730A6D6F7223
:1004100065207468616E206265666F72652E005992
:100420006F75206861766520756E6C6F636B6564AF
:100430000A4149207570677261646573210A426FD1
:100440006F737420796F75722073797374656D2082
:10045000776974682041492100596F752068617679
:100460006520756E6C6F636B65640A6D6F726520D5
:100470007261636B73210A457870616E6420796FD5
:1004800075722073657276657220726F6F6D2100D0
:1004900055736572732061726520666C6F6F646955
:1004A0006E6720696E210A5765206E656564206D50
:1004B0006F726520736572766572730A746F206857
:1004C000616E646C6520746865206C6F61642E00D9
:1004D00047726561742070726F6772657373210A69
:1004E00055736572732061726520666C6F77696EF3
:1004F0006720696E2E0A53797374656D732061727B
:100500006520737461626C652E0053797374656D38
:10051000206973206F7665726C6F616465640A751B
:100520007365727320617265206C656176696E67B0
:10053000210053797374656D206973206F7665723D
:100540006C6F616465640A627579206D6F726520F5
:10055000736572766572730A6F7220757365727354
:100560002077696C6C206C6561766500596F752029
:100570006D617920626567696E2E00416C6C207335
:10058000797374656D7320737461626C652E0043BA
:10059000757272656E74206C6F61643A0A4C4F57C5
:1005A00000492077696C6C206173736973742079DA
:1005B0006F750A696E206D616E6167696E670A7496
:1005C00068697320696E667261737472756374759D
:1005D00072652E0048656C6C6F2E0A4920616D2093
:1005E000436C6F756469612E004C6561726E696E53
:1005F000672E2E2E00426F6F74696E6720617373D1
:10060000697374616E742E2E2E0041737369676E68
:10061000656420726F6C653A0A4F70657261746F21
:100620007200446174612063656E74657220737436
:10063000617475733A0A4F4E4C494E4500436F6ED4
:100640006E656374696E6720746F206E6F64652ECB
:100650002E2E00496E697469616C697A696E672033
:1006600073797374656D2E2E2E0053656C6620654C
:10067000766F6C76696E67204149005072656469D7
:10068000637469766520414900414920536D617268
:100690007420726573706F6E7365730041492043F7
:1006A0006F6E746578742061776172656E657373BF
:1006B00000414920636F72652075706772616465DF
:1006C000004173796E632070726F63657373696E36
:1006D00067005265717565737420726F7574696E09
:1006E00067004C6F61642062616C616E63696E6764
:1006F0000050757368206E6F746966696361746910
:100700006F6E730055736572206D657373616769F1
:100710006E670003081F051F1F151B1F11111F11F6
:100720000E1F15111F05011F111D1F041F001F00A3
:1007300010101F1F041B1F10101F061F1F011F1F5B
:10074000111F1F05071F311F1F051B17151D011F37
:10075000011F101F0F100F1F0C1F1B041B071C076E
:100760001915130C121E1F120C1E12120C121F0C44
:100770001A14041F052E2A1E1F021C001D00201D16
:10078000001F041A011F001E041E1E021E1E121E40
:100790003E120C0C123E1E020614120A020F121E0A
:1007A000101E0E100E1E081E1A041A2E281E1A12D3
:1007B000161F111F001F001D151711151F07041FFD
:1007C00017151D1F151D01011F1F151F17151F00D0
:1007D0001700001000040E04110A04040A11001C82
:1007E000074F6B0053063D0622060A06F505E9058C
:1007F000D405A1058F057B056C0532050A05D004DB
:10080000900459041F04ED03B3037D034003FA026F
:10081000CF0297026B02280200000000003E5B4FEF
:100820005B3E3E6B4F6B3E1C3E7C3E1C183C7E3C50
:10083000181C577D571C1C5E7F5E1C00183C18005E
:10084000FFE7C3E7FF0018241800FFE7DBE7FF30EE
:10085000483A060E2629792926407F050507407F5C
:1008600005253F5A3CE73C5A7F3E1C1C08081C1CCF
:100870003E7F14227F22145F5F005F5F06097F01C5
:100880007F006689956A606060606094A2FFA294B0
:1008900008047E040810207E201008082A1C08087E
:1008A0001C2A08081E101010100C1E0C1E0C3038CC
:1008B0003E3830060E3E0E06000000000000005FCD
:1008C00000000007000700147F147F14242A7F2AE9
:1008D00012231308646236495620500008070300AB
:1008E000001C2241000041221C002A1C7F1C2A08F7
:1008F000083E08080080703000080808080800005A
:1009000060600020100804023E5149453E00427FCD
:10091000400072494949462141494D331814127F1C
:100920001027454545393C4A4949314121110907BC
:100930003649494936464949291E0000140000003D
:10094000403400000008142241141414141400410F
:1009500022140802015909063E415D594E7C1211CC
:10096000127C7F494949363E414141227F41414104
:100970003E7F494949417F090909013E414151737F
:100980007F0808087F00417F41002040413F017FF0
:10099000081422417F404040407F021C027F7F04B8
:1009A00008107F3E4141413E7F090909063E415101
:1009B000215E7F09192946264949493203017F01F1
:1009C000033F4040403F1F2040201F3F4038403FF2
:1009D000631408146303047804036159494D430008
:1009E0007F4141410204081020004141417F04023F
:1009F00001020440404040400003070800205454D6
:100A000078407F28444438384444442838444428B3
:100A10007F385454541800087E090218A4A49C7806
:100A20007F0804047800447D40002040403D007F62
:100A30001028440000417F40007C047804787C0842
:100A40000404783844444438FC1824241818242416
:100A500018FC7C08040408485454542404043F44FB
:100A6000243C4040207C1C2040201C3C4030403C2A
:100A700044281028444C9090907C4464544C44008A
:100A800008364100000077000000413608000201EE
:100A90000204023C2623263C1EA1A161123A4040DA
:100AA000207A385454555921555579412154547858
:100AB00041215554784020545579400C1E527212F1
:100AC0003955555559395454545939555454580079
:100AD00000457C410002457D420001457C40F029F3
:100AE0002429F0F0282528F07C5455450020545442
:100AF0007C547C0A097F4932494949323248484886
:100B000032324A4848303A4141217A3A42402078CC
:100B1000009DA0A07D39444444393D4040403D3CC7
:100B200024FF2424487E4943662B2FFC2F2BFF09EA
:100B300029F620C0887E09032054547941000044DE
:100B40007D413048484A32384040227A007A0A0AC9
:100B5000727D0D19317D2629292F2826292929263C
:100B600030484D4020380808080808080808382F81
:100B700010C8ACBA2F102834FA00007B000008140B
:100B80002A142222142A14089500220095AA00553E
:100B900000AAAA55AA55AA000000FF00101010FFD5
:100BA00000141414FF001010FF00FF1010F010F0DC
:100BB000141414FC001414F700FF0000FF00FF14CD
:100BC00014F404FC141417101F10101F101F141419
:100BD000141F00101010F0000000001F1010101063
:100BE0001F10101010F010000000FF101010101057
:100BF00010101010FF10000000FF140000FF00FF95
:100C000000001F10170000FC04F414141710171430
:100C100014F404F40000FF00F71414141414141452
:100C2000F700F7141414171410101F101F141414C5
:100C3000F4141010F010F000001F101F0000001F2F
:100C400014000000FC140000F010F01010FF10FF62
:100C5000141414FF141010101F00000000F010FFF7
:100C6000FFFFFFFFF0F0F0F0F0FFFFFF00000000DB
:100C700000FFFF0F0F0F0F0F38444438447C2A2A1F
:100C80003E147E02020606027E027E026355494140
:100C9000633844443C04407E201E2006027E02024B
:100CA00099A5E7A5991C2A492A1C4C7201724C305F
:100CB0004A4D4D303048784830BC625A463D3E4936
:100CC0004949007E0101017E2A2A2A2A2A44445FDA
:100CD000444440514A444040444A51400000FF01CE
:100CE00003E080FF000008086B6B083612362436DC
:100CF000060F090F06000018180000001010003041
:100D000040FF0101001F01011E00191D1712003CC8
:100D10003C3C3C00000000000000000024002700D4
:100D20002A002D00300000000000250028002B00C4
:100D30002E00310004080201104080401020408045
:100D40004080080204018040201002011080102021
:100D500040402004040404040304050202020204C7
:100D60000302020202060606060606040402020246
:100D7000040406011501260137014A015D017201D3
:100D800088019F01B801D201EE010B022A024B0239
:100D90006E029302BA02E40210033F037003A4033D
:100DA000DC03170455049704DD0427057505C80501
:100DB00020067D06E0064907B8072D08A9082D0979
:100DC000B9094D0AEA0A900B400CFA0CC00D910EBD
:100DD0006F0F5A1053115B1272139A14D415201707
:100DE0008018F519801B231DDE1EB420A622B52411
:100DF000E4263429A72B402E0031EA330037453A48
:100E0000BC3D68414C456B49C84D68524F57805CAA
:100E1000006210111213151617181A1C1D1F21231A
:100E20002527292C2E3134373A3E4145494E525719
:100E30005C62686E757B838B939CA5AFB9C4D0DC74
:100E4000E9F7F0F89C8E8783878E9CF8F00000FE0F
:100E5000FF0303030303070EFCF80000FEFF030378
:100E6000030303070EFCF80000FFFF000000000072
:100E70000000FFFF0000FEFF8383838383C7EE7CB7
:100E8000380000F8FC0E07030303070EFCF800000F
:100E90003F7FE0C08080C0E07F3FFFFF0101010194
:100EA000010101FFFF0000FFFF0C0C0C0C1C3E7742
:100EB000E3C100007FFFC0C0C0C0C0E0703F1F00A2
:100EC000001F3F70E0C0C0C0E0703F1F00007FFF08
:100ED000C1C1C1C1C1E3773E1C00001F3F70E0C02B
:100EE000C0C0E0703F1F000000000001FFFF0100D4
:100EF0000000D5F08D14A1C881CFD9F1AF200067D3
:100F0000616D65000080600806C131896911018644
:100F1000680201040404040505040406000000003E
:100F200000F0FCFEFE9F0F0F0F9E9E9C00FEFFFF39
:100F3000FFFEFC000000000000F0FCFEFEFF3F3F53
:100F4000FFFEFEFCF000FEFFFFFFFE00FEFFFFFFC6
:100F5000FE00FEFFFFFFFF3F3FFEFEFCF000F8FE3D
:100F6000FFFFFFFEF800E0F8FCFE7F3F7FFEFCF88D
:100F7000E0000000000000000307070F0F0F0F073D
:100F8000070300070F0F0F0F0F0F0FCFCFC6C0C003
:100F900003C7C74F4F8F0F87C743408001C7CF4F4D
:100FA0004F4F0FCFCF474140070FCFCFCF0F0F8706
:100FB000C743404001070F0F0F070100070F0F0F36
:100FC0000606060F0F0F07000000000000000000DB
:100FD0000000000000000000000000E0C080C0E051
:100FE00000E0E00700E00047E7A2A625006767E20F
:100FF000626700070701010000E7E7A1A12000E008
:10100000E407040000C3E724E4C400E080C080E0FB
:1010100000000000000000000000000000000000D0
:1010200000000000000000000000000000000000C0
:101030000003010301030001030202030002020393
:101040000301000000030000000000000000000396
:101050000300000000030302020200010302030177
:101060000003010001030000000000000000000078
:10107000000000000000333000000000000000000D
:1010800080000000000000000000000000000000E0
:10109000000000001C3E3E7F7F7F3E3E1C000000A3
:1010A0000000000000000000000000000000000040
:1010B0000080E08000000040E0F0E0E06000C0F070
:1010C000F0C01EEFEFFEF80080B883830000000040
:1010D000000000387CFCF8FC7C38000000000000B8
:1010E00000000101030F03010100E0F0F1EFEFEF59
:1010F000F3FCFDFDFCFEFEFDFDFFFFFFFFFFFFFF1C
:10110000FEFEFCF000808080808100000000000076
:101110000000008080C080BCFEFFFFFFFCFFFFFFDF
:10112000FFFFFFE3E1E3FFFFBF7F7F7FBFFFFFE341
:10113000E1E3FFFFFFFFFFFFFFFFFFFFFF3F9E8099
:10114000C0C080001E3F7F7F7F7F7F7F7F7FFFFF4C
:10115000FFFFFFFF7F7F1F7FFFFFFFFFFFFFFFFFFF
:10116000FFFFFFFF7F7FFFFFFFFFFFFF7F3F67FF67
:10117000FFFFFFFF7F7F1F00000000000000000056
:101180000000000101010000000000000101010356
:10119000030303030301010000000000000000003E
:1011A000000000000000000000000000000000003F
:1011B00000008000000000000000000000000000AF
:1011C0000000000000001C3E3E7F7F7F3E3E1C0072
:1011D000000000000000000000000000000000000F
:1011E00000000080E08000000040E0F0E0E06000EF
:1011F000C0F0F0C01EEFEFFEF80080B8838300005F
:101200000000000000387CFCF8FC7C380000000086
:10121000000000000101030F03010100E0F0F1EF05
:10122000EFEFF3FCFDFDFCFEFEFDFDFFFFFFFFFF0A
:10123000FFFFFEFEFCF00080808080810000000047
:1012400000000000008080C080BCFEFFFFFFFCFFAC
:10125000FFFFFFFFFFE3E1E3FFFFBF7F7F7FBFFFF4
:10126000F7FBFBFBF7FFFFFFFFFFFFFFFFFFFF3F6A
:101270009E80C0C080001E3F7F7F7F7F7F7F7F7FFB
:10128000FFFFFFFFFFFF7F7F1F7FFFFFFFFFFFFFCE
:10129000FFFFFFFFFFFF7F7FFFFFFFFFFFFF7F3F9E
:1012A00067FFFFFFFFFF7F7F1F00000000000000BF
:1012B0000000000000010101000000000000010129
:1012C0000103030303030301010000000000000009
:1012D0000000000000000000000000007468616E63
:1012E0006B20796F75004F4646004F4E004D757369
:1012F0006963004F6666696365003C00546F676709
:101300006C65005365727665727300903C001680C0
:1013100000999035001680009B9039001580009B45
:1013200090350016800099903B001680009B903508
:10133000001580009B903C001680009990350016A7
:1013400080009B9039001580009B9035001680002E
:1013500099903B001680009B9035001580009B9073
:101360003C00168000999035001680009B90390053
:101370001580009B90350016800099903B001680E8
:10138000009B9035001580009B903C0016800099D2
:101390009035001680009B9039001580009B903599
:1013A0000016800099903B001680009B9035001538
:1013B00080009B903C002C8000859032002E8000A5
:1013C000859039002C8000859032002C800085901B
:1013D0003B002E8000859032002C800085903C00E0
:1013E0002C8000859032002E8000859039002C8062
:1013F00000859032002C800085903B002E80008577
:101400009032002C800085903C004280006F90322A
:1014100000428000709039004280006F903200429C
:1014200080006F903B00428000709032004280004C
:101430006F903C004280006F9032004280007090BC
:1014400039004280006F9032004280006F903B0074
:10145000428000709032004280006F903C005880C3
:101460000057902D00588000589039005780005840
:10147000902D0058800057903B0058800058902DC8
:101480000057800058903C0058800057902D00581D
:1014900080005890390057800058902D00588000E7
:1014A00057903B0058800058902D0057800058906E
:1014B0003C006F800042902D007080004290390007
:1014C0006F800042902D006F800042903B00708042
:1014D0000042902D006F800042903C006F800042DF
:1014E000902D00708000429039006F800042902D56
:1014F000006F800042903B0070800042902D006F92
:10150000800042903C008580002C902D008580005A
:101510002E9039008580002C902D008580002C9025
:101520003B008580002E902D008580002C903C0093
:101530008580002C902D008580002E9039008580BC
:10154000002C902D008580002C903B008580002E83
:10155000902D008580002C903C009B800015902DE4
:10156000009B800016903E0099800016902D009BF5
:10157000800015903C009B800016902D0099800003
:1015800016903B00B180902D00B280903900B18060
:10159000902D00B180903700B280902D00B180F086
:1015A00053657474696E6773003C0042757900532B
:1015B000657276657273002B00206D61780020786B
:1015C000000407F106E206D206C106B1069C0689B0
:1015D000067B066A062F003E003C004275790055E6
:1015E00070677261646500304848360F0F064F66B9
:1015F0006669636500307878360909064361706171
:101600006369747900427579005570677261646529
:10161000005A810081008100810081008100818168
:101620000081008100810081008100815A0F0F0F2D
:101630000E4C564C20004275790028300000FEFF09
:10164000FF07070707070707070707070707070732
:10165000070707070707070707070707070707FF22
:10166000FFFE00000000FFFFFF0000000000000080
:10167000000000000000000000000000000000006A
:1016800000000000000000FFFFFF00000000FFFF5F
:10169000FF0000000000000000000000000000004B
:1016A000000000000000000000000000000000FF3B
:1016B000FFFF00000000FFFFFF000000000000002F
:1016C000000000000000000000000000000000001A
:1016D00000000000000000FFFFFF00000000FFFF0F
:1016E000FF000000000000000000000000000000FB
:1016F000000000000000000000000000000000FFEB
:10170000FFFF000010181F1F1F1707070707070715
:101710000707070707070707070707070707070759
:10172000070707070707171F1F1F1810000066018C
:1017300001000001010000010100000101000001A1
:101740000100000101000001010000010100000191
:1017500001660000000066000000000000000000BC
:101760000000000000000000000000000000000079
:10177000000000000000000000660000000066009D
:101780000000000000F8F82828F8D00000F0F00071
:1017900000F0F0000070F08080F0F0000000000029
:1017A000006600000000660000000000000101016A
:1017B000010100000000010101010100000002021E
:1017C0000203010000000000006600000000660047
:1017D0000000000000000000000000000000000009
:1017E00000000000000000000000000000000000F9
:1017F0000066000000000608080000080800000855
:101800000800000808000008080000080800000898
:101810000800000808000008080600004F5645525E
:101820004C4F414400150A150A150A150A150A15E8
:101830000A150A150A150A150A150A150A150A15B0
:101840000A150A150A150A150A150A150A150A15A0
:101850000A150A150A631308646321000F10100F9C
:10186000001C07001F0204021F322A7F2A26080BD1
:10187000000202020000090400000102020000054B
:101880002400100105240101010424020605240698
:1018900000010705810310004009040100020A004D
:1018A0000000070502024000000705830240000017
:1018B0000403090412010002EF02014041233680B3
:1018C00000010102030141726475696E6F204C4C86
:1018D000430041726475626F7900090F06060000CB
:1018E0004E1E11241FBECFEFDAE0DEBFCDBF11E0E8
:1018F000A0E0B1E0E0E9F1E602C005900D92A23B64
:10190000B107D9F726E0A2EBB1E001C01D92A339DF
:10191000B207E1F71CE0C1E7DCE004C02197FE015B
:101920000E94CE2EC037D107C9F70E94811E0C94A9
:10193000C6300C9400008091E90108956F927F9267
:101940008F929F92AF92BF92CF92DF92EF92FF92CF
:101950000F931F93CF93DF93DC01FA01149131961B
:1019600054913196C12FD0E0222309F1CC24C394A5
:10197000D12C852F877011F4D12CC12CE52EE69443
:10198000E694E694EC0CFD2CF11CEC9EC001ED9E5F
:10199000900DFC9E900D1124033011F4880F991FB7
:1019A000289F7001299FF00C1124EE0DFF1D7D0171
:1019B000EC0EFD1E1E141F040CF06BC0A038B10508
:1019C0000CF067C0CB01850F911D181619060CF09D
:1019D00060C0603471050CF05CC0309709F459C0E8
:1019E000362F3770CB0177FD079623E095958795C5
:1019F0002A95E1F7282F77FF04C0332311F02FEF4A
:101A0000280F662777276A1B7B0BB7FD02C070E0A3
:101A100060E090E89A1B40E8E416F1040CF4912F82
:101A2000961BE22E022E000CFF08DE2CD0942F3FD6
:101A30000CF0D12C41E0852F877009F440E0B52EE1
:101A4000B694B694B6944B0DE40EF11C89E0E816FA
:101A5000F10414F048E0421BB42EBD182D0D40E8EF
:101A6000240370011124AE0DBF1DA60FB71F1D9DCD
:101A7000600D711D1124AF01460F571FC32E032E99
:101A8000000CDD08033009F4C7C090F4023009F4FB
:101A900074C0DF91CF911F910F91FF90EF90DF9075
:101AA000CF90BF90AF909F908F907F906F90089550
:101AB0000A3FA1F1B20E0B3F61F72B1551F3BD01A7
:101AC000615D7D4F10E000E0091708F09FC0FA014A
:101AD000E00FF11FE491F0E04F010C2C02C0880CE4
:101AE000991C0A94E2F727FD06C0FB018081F82CBF
:101AF000F0948F218083332361F0273054F47B01ED
:101B0000F0E8EF0EF11CA92CA094F70180818A2146
:101B100080830F5F1F4F6F5F7F4FD6CFB20E2B15A5
:101B200009F4B7CFBD01615D7D4F10E000E00917FA
:101B300008F066C0FA01E00FF11FE491F0E04F01F8
:101B40000C2C02C0880C991C0A94E2F727FD04C0F3
:101B5000FB01808188298083332351F0273044F4AE
:101B60007B01F0E8EF0EF11CF70180818929808369
:101B70000F5F1F4F6F5F7F4FDACF6FEF70E0032E65
:101B800002C0660F771F0A94E2F760957095972E52
:101B90008B2C820E281509F47CCF8D01015D1D4F21
:101BA000F12CE12CE91630F5FA01EE0DFF1DE49160
:101BB000F0E03F010C2C02C0660C771C0A94E2F79F
:101BC00027FD05C0F8018081862386298083332381
:101BD00059F027304CF45801F0E8AF0EB11CF50174
:101BE0008081892187298083FFEFEF1AFF0A0F5F29
:101BF0001F4FD8CF2F5F4C0F5D1FA058BF4FCACFCC
:101C00002F5F4C0F5D1FA058BF4F89CF2F5F4C0F28
:101C10005D1FA058BF4F51CFE92EF12CFA01E60FFE
:101C2000F71FA15DBD4F60E870E06E197F09CE1906
:101C3000DF098E01000F111F41E050E07A01032EF1
:101C400001C0EE0C0A94EAF7592F4B2D892E932EE2
:101C5000CF93DF93ED01EF96EF962296A590C59076
:101C6000992059F0AE9C5001CE9C600127302CF495
:101C7000F880D094FD20FB28F99222233AF0FC90C2
:101C8000C094FC20FA28FD920C94470E11965A95A8
:101C900029F74A9551F0582D23951124E00FF11D95
:101CA000A60FB11DC60FD11DD9CFDF91CF91112441
:101CB000F0CE480F592F511D1416150684F58038A3
:101CC00091056CF597FF02C090E080E04138510526
:101CD00014F040E850E0481BFB01E770FF2721E0CB
:101CE00001C0220FEA95EAF777FF02C0695F7F4FD4
:101CF000FB0133E0F595E7953A95E1F7F695FE2F70
:101D0000EE27F795E795E80FF91FE15DFD4F41508C
:101D100030F08191DF011197822B8C93F8CF0895D9
:101D20004F925F926F927F928F929F92AF92BF92EB
:101D3000CF92DF92EF92FF920F931F93CF93DF9397
:101D400030E0F901E80FF91F1E161F060CF07FC0E6
:101D5000803891050CF07BC0802E912CF401E60FA9
:101D6000F71F1E161F060CF072C0603471050CF0D0
:101D70006EC0E62FE7707E2EF7E08F0E911CE3E039
:101D800095948794EA95E1F7F3E075956795FA9550
:101D9000E1F7062E000C770BDB01B695BA2FAA27C8
:101DA000B795A795A80FB91FA15DBD4FEA0110E037
:101DB00000E07801E60EF71E48E0E416F1040CF0AE
:101DC00046C0EFEFEE16FE06C4F150E040E05D01C4
:101DD000F0E8AF0EB11C421753077CF5FA01E80F8B
:101DE000F91FE038F1054CF5F7FD24C0FA01EC0FBE
:101DF000FD1FE491F0E02F01072C02C0440C551C9C
:101E00000A94E2F7EFEFEE16FE0691F16D01C40EB3
:101E1000D51EF601608064286082772059F0F7E0D3
:101E2000EF16F10439F06501C40ED51EF60160808D
:101E3000652860824F5F5F4FCECF0F5F1F4FA05866
:101E4000BF4FC20FD31F8016910609F0B2CFDF91AA
:101E5000CF911F910F91FF90EF90DF90CF90BF90A7
:101E6000AF909F908F907F906F905F904F9008956C
:101E70007110D9CFDFCFEFE2F2E0A0E0B8E0008050
:101E80000EBC8111012C1197A0FDFDCF0192B9F775
:101E90000DB408950F93682F70E008E025E04AED37
:101EA00058E190E080E00E94900E0F910895FC01AF
:101EB00080912E02882311F13FB7F89482E080933D
:101EC000E9002091F200822F90E01816190614F410
:101ED00081E090E0882339F0289844E640932D0271
:101EE0004091F1004083222339F02091F20021112A
:101EF00003C02BE62093E8003FBF08958FEF9FEFCC
:101F000008952FB7F89483E08093E9009091E8005A
:101F1000892F807295FF04C09091F20080E4891BA4
:101F20002FBF08958091250281110DC082E080931A
:101F3000210284E080932202109224021092230254
:101F400081E08093250281E292E00895CF93DF93B0
:101F50001F92CDB7DEB76983DC01ED91FC91028061
:101F6000F381E02D41E050E0BE016F5F7F4F0995A6
:101F70000F90DF91CF91089583E08093E9008091E5
:101F8000F200882319F08AE38093E80008950E9404
:101F9000810F90E00895CF93DF931F92CDB7DEB706
:101FA000FC018485958597FD08C02FEF3FEF3587AD
:101FB00024870F90DF91CF910895CE0101960E9462
:101FC000570F019719F4898190E0F3CF8FEF9FEFBE
:101FD000F0CF0F931F93CF93DF931F92CDB7DEB750
:101FE0008C01FC018485958597FF0BC0CE0101967D
:101FF0000E94570F019771F4898190E0F80195874D
:102000008487F801848595850F90DF91CF911F918A
:102010000F9108958FEF9FEFF1CFFC018485958597
:1020200097FD0BC09FB7F89482E08093E900809100
:10203000F2009FBF90E0019608959FB7F89482E068
:102040008093E9008091F2009FBF90E00895409155
:102050001B0250911C022091190230911A02421762
:102060005307B4F49091E8009570E1F39091E80083
:1020700092FD19C08093F10080911B0290911C0287
:1020800001968F739927892B19F48EEF8093E800BE
:1020900080911B0290911C02019690931C028093E8
:1020A0001B0281E0089580E00895DF92EF92FF9295
:1020B0000F931F93CF93DF93D82E8A01EB017B01FF
:1020C000E40EF51ECE15DF0559F0D7FE12C0FE0155
:1020D00084910E94271021968111F4CF0FEF1FEFFA
:1020E000C801DF91CF911F910F91FF90EF90DF908A
:1020F00008958881EECF0F931F93CF93DF931F92A4
:10210000CDB7DEB782E0898342E450E06EE678E145
:1021100080E80E9455100E94920FDC0112960D91EA
:102120001C910115110589F0D801ED91FC910280F7
:10213000F381E02DBE016F5F7F4FC801099597FDC8
:1021400004C0F80100851185ECCF89810F90DF91E3
:10215000CF911F910F910895615030F02091F100BF
:10216000FC0120830196F8CF289884E680932D0205
:102170000895FC010E945011319728F068517C4F5E
:102180008F4F9F4FF9CFAB01FC010E945011641794
:1021900075078E079F07C8F308958F929F92AF929D
:1021A000BF92CF92DF92EF92FF920F931F93CF9344
:1021B000DF936C017B018A0180917201882309F40D
:1021C0005AC080912E02882309F455C080912002C4
:1021D00080FF05C08091E00082608093E000E8010C
:1021E000B12C8AEFA82E93E0892E2AE3922E209715
:1021F00011F4BB20C9F10E94810F811108C0AA947B
:10220000AA20C9F181E090E00E94B910F0CF8C17AC
:102210001D0611F00CF08C2F9FB7F8948092E90006
:102220002091E80025FD02C09FBFE1CF282F30E0BC
:10223000C21BD30BF701815020F041914093F10074
:10224000FACFE20EF31EBB2021F09092E800B12CF1
:10225000EBCF8091E80085FDE7CF9092E800BB24AA
:10226000B394209709F3F3CF5D9884E680931F021F
:10227000101611063CF081E090E0F6019383828312
:1022800010E000E0C801DF91CF911F910F91FF9006
:10229000EF90DF90CF90BF90AF909F908F90089578
:1022A000A5E1B2E02FB7F8947D918D919C9166B530
:1022B0002FBFA89B05C06F3F18F47F5F8F4F9F4FC4
:1022C00022E0660F771F881F991F2A95D1F708957E
:1022D000AF92BF92CF92DF92EF92FF920F931F9334
:1022E000CF93DF936C017B018B01040F151FEB0172
:1022F0005E01AE18BF08C017D10759F06991D60129
:10230000ED91FC910190F081E02DC6010995892B9A
:1023100079F7C501DF91CF911F910F91FF90EF9059
:10232000DF90CF90BF90AF900895FC01448155811C
:102330006081718181E896E00C946811CF92DF9200
:10234000EF92FF921F93CF93DF93E82FF0E0E758CF
:10235000FE4F1081E62FF0E0603398F5EE5EF14F0E
:10236000E491CE2FD0E0F12CE12C60E074E284EF18
:1023700090E0A7019E010E949D2B21503109410947
:10238000510991E02115310581E0480751056CF0B4
:1023900060E970ED83E090E0A7019E010E949D2B13
:1023A000215031094109510993E0113089F013306E
:1023B00039F1DF91CF911F91FF90EF90DF90CF9097
:1023C0000895EE0FFF1FEE5EF24FC591D491CBCF73
:1023D0008091E4018111EDCF80918100887F892B6C
:1023E00080938100309389002093880010928500AB
:1023F0001092840080916F00826080936F00D9CF2B
:1024000080919100887F892B80939100309399006F
:10241000209398001092950010929400D093E301BD
:10242000C093E20181E08093E101809171008260BC
:1024300080937100BECFE82FF0E0E758FE4F808117
:10244000813019F08330A9F008958091E401811161
:102450000FC080916F008D7F80936F008091D301BA
:10246000E091D101F091D201908180958923808300
:1024700008951092E1018091E0018111F9CF8091DE
:10248000DE01E091DC01F091DD01EECFCF93DF932F
:10249000D1E0E091F401F091F501AF014F5F5F4FA2
:1024A0005093F5014093F4012491822F807FC22F35
:1024B000CF70803821F48C2F0E941B12EACF803914
:1024C00019F5E0917F06F091800609958D2780939C
:1024D000DF01E091F401F091F501CF0101969093B5
:1024E000F5018093F40164918091F901C81788F691
:1024F000C13021F48091D0018111CBCF67FDC9CFCC
:102500008C2F0E949E11C5CF87FD3CC03296F09360
:10251000F501E093F401FA014491A091E201B09138
:10252000E301322F242F0E94202C6C507E4F8F4FBE
:102530009F4F28EE33E040E050E00E94FE2B2093B6
:10254000D8013093D9014093DA015093DB01809197
:10255000D8019091D901A091DA01B091DB01892BCA
:102560008A2B8B2B61F481E090E0A0E0B0E08093B7
:10257000D8019093D901A093DA01B093DB01DF91E8
:10258000CF910895803E49F48091F6019091F70132
:102590009093F5018093F4017CCF803F09F079CFCF
:1025A0001092F801ECCF9091F901923009F471C0CA
:1025B000292F30E0F901E758FE4F408122533E4F6A
:1025C000F9018083913031F42091CE01281302C0AB
:1025D0009093D0019F5F9093F90190E0FC01ED5A38
:1025E000F24F24918C5C924FFC01849130E0220FD9
:1025F000331FF901EA5DF24F65917491F901E85ECC
:10260000F24FA591B4919C91982B9C93413019F075
:102610004330D9F0089590916400977F90936400BF
:1026200010928000109281009091810098609093A8
:102630008100909181009160909381007093D2010C
:102640006093D1018093D301089590916500977FA5
:1026500090936500109290001092910090919100DB
:102660009860909391009091910091609093910067
:102670007093DD016093DC018093DE018091F901AC
:10268000882321F06CE380E00E949E1180E00C948E
:102690001B1208950F9302E00E949E0C0F91089563
:1026A00090E00C94B9108FB18095807F669B886014
:1026B0001C9B846008953E9A3F9A81E08093E901D3
:1026C000089590E0EFE2F2E091119FEF8FEF919388
:1026D0009193919391938150D0F71092E6011092CB
:1026E000E5011092E8011092E7010895909102022D
:1026F000982329F490910302982381E009F480E063
:10270000089580E00C943B0F80389105B8F4603454
:102710007105A0F490E121E061FD24E060FD220F4D
:1027200062FD2295687F969FD0011124A80FA15DBC
:10273000BD4F0C90022A40FF02260C9208952F9262
:102740003F924F925F926F927F928F929F92AF9241
:10275000BF92CF92DF92EF92FF920F931F93CF938E
:10276000DF937C014B01C42FD0E081E090E06C014D
:10277000CC1ADD0AAA24BB24AC1ABD0AAA0CBB1CC5
:1027800066246394712C10E000E0822F8470582E30
:10279000822F8270482E822F8870382E2170222E30
:1027A000D7FC06C0219782E0A80EB11CCA0CDB1C26
:1027B0000F5F1F4F82E0680E711CC60CD71C55209E
:1027C00091F041E0BE01680D791DC701800F911F96
:1027D0000E94841341E0B401600F711FCE018E0D81
:1027E0009F1D0E948413442091F041E0B4016C1BB2
:1027F0007D0BC701800F911F0E94841341E0B4013B
:10280000601B710BCE018E0D9F1D0E94841333201F
:1028100091F041E0B401600F711FC7018C1B9D0B4B
:102820000E94841341E0BE01680D791DC701801B21
:10283000910B0E948413222091F041E0B401601BAF
:10284000710BC7018C1B9D0B0E94841341E0B401E6
:102850006C1B7D0BC701801B910B0E9484130C170E
:102860001D070CF49DCFDF91CF911F910F91FF9029
:10287000EF90DF90CF90BF90AF909F908F907F9020
:102880006F905F904F903F902F9008952F923F92BE
:102890004F925F926F927F928F929F92AF92BF9270
:1028A000CF92DF92EF92FF920F931F93CF93DF931C
:1028B000EC018B017A016901C61AD70AD7FE03C061
:1028C000D194C194D10847018C1A9D0A97FE03C088
:1028D0009194819491088C149D0454F49E2D8F2D15
:1028E0007901292F382F9C2F8D2FE801092F182FC0
:1028F000EC16FD0654F4902F812F8901292F382FD3
:102900009C2F8D2FE701E92EF82E17012C1A3D0A76
:102910002901401A510A57FE03C0519441945108AD
:10292000310137FE03C08FEF681A780A75946794F7
:102930008FEF021713070CF481E0A82E880FBB0855
:10294000EC16FD06A4F041E0BE01C8018C149D0404
:1029500014F0B801CE010E9484136418750877FE44
:1029600004C00A0D1B1D620C731C2196E9CFDF9178
:10297000CF911F910F91FF90EF90DF90CF90BF907C
:10298000AF909F908F907F906F905F904F903F900F
:102990002F9008958F929F92AF92BF92CF92DF9225
:1029A000EF92FF920F931F93CF93DF936D3089F0D7
:1029B000C090E501D090E6016A30D1F41092E801B0
:1029C0001092E70188E0C80ED11CD092E601C092B7
:1029D000E50181E090E0DF91CF911F910F91FF9091
:1029E000EF90DF90CF90BF90AF909F908F90089521
:1029F0000091E7011091E801E5E06E9FE0011124EC
:102A0000C85ED74F4801F12CF5E0E12CFF1629F004
:102A1000CE010196FE01E490EC01B12CA12C4E2DCB
:102A20004170B6016A0D7B1DC4010E948413E694B7
:102A3000FFEFAF1ABF0A88E0A816B10481F7F3943C
:102A4000EFEF8E1A9E0AF6E0FF12DECF0A5F1F4FED
:102A50001093E8010093E701BCCFDF92EF92FF9261
:102A60000F931F93CF93DF937C01D22E8B01040F22
:102A7000111DEB0177FF02C0D0E0C0E0C8010134B6
:102A8000110514F080E490E0C817D9073CF44D2DEF
:102A9000BE01C7010E9484132196F0CFDF91CF9130
:102AA0001F910F91FF90EF90DF9008952F923F922A
:102AB0004F925F926F927F928F929F92AF92BF924E
:102AC000CF92DF92EF92FF920F931F93CF93DF93FA
:102AD00000D000D0CDB7DEB75C012B012A83242FB4
:102AE00030E03C832B8381E090E07C01E21AF30A22
:102AF0001901319421943108220C331C88248394C9
:102B0000912CD12CC12C31E0300F3983F7FC0AC055
:102B1000EB81FC813197FC83EB83F2E02F0E311CBB
:102B2000E20CF31C2FEFC21AD20A32E0830E911C82
:102B3000E80CF91C4B81440FB2018B819C81681B0E
:102B4000790B102F180D32016C187D089A81913085
:102B500069F5E9814E0F20E0C5018C0D9D1D0E9495
:102B60002D1520E0412FB3018B819C818A0D9B1D87
:102B70000E942D158B819C81C816D9063CF20F90BE
:102B80000F900F900F90DF91CF911F910F91FF90B9
:102B9000EF90DF90CF90BF90AF909F908F907F90FD
:102BA0006F905F904F903F902F900895F9814F0F55
:102BB00020E0C5018C199D090E942D1520E0412FB0
:102BC000B301C501EB81FC818E1B9F0BD1CFDF923E
:102BD000EF92FF920F931F93CF93DF937B01D22E3F
:102BE000EC018C01040F111DC017D10744F420E043
:102BF0004D2DB701CE010E942D152196F5CFDF9105
:102C0000CF911F910F91FF90EF90DF9008955F9209
:102C10006F927F928F929F92AF92BF92CF92DF92EC
:102C2000EF92FF920F931F93CF93DF93EC017B0101
:102C3000142F722E602E660C542E5618802E912C56
:102C40005401A80EB91E6034710520F4452DC5014C
:102C50000E94590E6701C70CD11CB6016150710961
:102C60006034710520F4452DC5010E94590E761877
:102C7000E80CF91C21E0472DB701CE010E942D156B
:102C8000C10FD11D21E0472DB701CE0101970E9450
:102C90002D1521E0402FB701C5010E949F13C819CF
:102CA000D909219722E0402FB701CE010E949F133E
:102CB000C818D90881E0C81AD10824E0402FB6010D
:102CC000CE010E949F1328E0402FB601C501DF917D
:102CD000CF911F910F91FF90EF90DF90CF90BF9019
:102CE000AF909F908F907F906F905F900C949F1308
:102CF0002091FD0184E0289F9001112441E090E0A3
:102D000080E0FC01E20FF31FED5AFE4F508151119C
:102D100040E0019684309105A1F74093FC010895AD
:102D20008F929F92AF92BF92CF92DF92EF92FF92DB
:102D3000CF9310920102E2E0F1E082E591E0812C74
:102D4000912C5401839422813381820E931EA11C05
:102D5000B11C38968E179F07B1F7809208029092A7
:102D60000902A0920A02B0920B02E3E5F1E087E5C6
:102D700091E0C0E0C12CD12C76013FE02191239F4E
:102D8000A0011124052E000C660B770BC40ED51E76
:102D9000E61EF71E2111CF5F8E179F0779F7C092AD
:102DA0000402D0920502E0920602F0920702C0935C
:102DB000B301A4E6B0E0A50194010E94BC2B9601EA
:102DC000A701C114D104E104F10421F421E030E0B1
:102DD00040E050E00E94FE2B309300022093FF0160
:102DE0002F3B3105A8F081E080930102B694A794AF
:102DF000979487948BE088169104A104B104E0F5C0
:102E00008092080290920902A0920A02B0920B02EC
:102E10008EEEC81682E0D806E104F10438F0809105
:102E20005F01823018F483E080935F01C53038F091
:102E300080915201863018F489E08093520180918C
:102E40003001882379F080913801882359F08091EE
:102E50004001882339F080915201893018F48AE0CA
:102E600080935201CF91FF90EF90DF90CF90BF9071
:102E7000AF909F908F9008958AE090E0A0E0B0E03E
:102E80008093080290930902A0930A02B0930B0268
:102E9000BFCF0F93CF93DF93EC019E816A3059F43B
:102EA0008D818C836985960F9E8381E090E0DF9110
:102EB000CF910F910895262F61E0690F2A3398F47E
:102EC000203398F52B3299F140F42132A1F1988505
:102ED0009D5F8C81890F8C83E8CF2E3251F12F3288
:102EE000B1F723E40FC02B3540F42134E0F42C3348
:102EF00021F12E3361F721E405C08FE9820F2754B9
:102F00008A3128F7062E000C770B8C81082E000CD6
:102F1000990B3F810AEF313009F00BEF43E157E0A5
:102F20000E949E0CD4CF2154EDCF2C5FEBCF20E438
:102F3000E9CF2FE3E7CF2EE3E5CF22E4E3CF0F93F2
:102F40001F93CF93DF938C01D0E0C0E0F801EC0F2A
:102F5000FD1F6491662341F081E896E00E944917C5
:102F6000892B11F02196F2CFCE01DF91CF911F91E5
:102F70000F910895089590E080E008958F929F92B8
:102F8000AF92BF920F931F93CF93DF93CDB7DEB76E
:102F9000A1970FB6F894DEBF0FBECDBF19A2423085
:102FA00008F44AE08E010F5D1F4F842E912CB12C46
:102FB000A12CA50194010E94FE2BE62FB901CA01A4
:102FC000EA3044F5E05DD801EE938D01232B242BEC
:102FD000252B79F790E080E0109769F0FD010190D2
:102FE0000020E9F73197AF014A1B5B0BBD0181E877
:102FF00096E00E946811A1960FB6F894DEBF0FBE4E
:10300000CDBFDF91CF911F910F91BF90AF909F9057
:103010008F900895E95CD7CFAF92BF92CF92DF92A5
:10302000EF92FF920F931F93CF93DF93CDB7DEB74D
:10303000C054D1090FB6F894DEBF0FBECDBF90913A
:10304000F201BB24B3949111A9C0E82EF12C970191
:103050002C543E4F6901F901B080B1109FC091E03E
:103060009093FE019091F101953608F0AAC09F5F00
:103070009093F101A82E22E349E666E070E08DE02E
:1030800090E00E94E71507E210E021E045E06BE0E8
:1030900070E085E790E00E94561522E045E06BE085
:1030A00070E08DE090E00E94561505E022E343E7D2
:1030B00065E070E088E090E00E940716F5E0FA1500
:1030C000C8F420E046E750E162E170E08AE590E074
:1030D0000E944A134091F1014B3508F04AE550E057
:1030E0004C5E5F4F24E330E064E370E08CE090E0FE
:1030F0000E9446148BE0809386068093850688E0C4
:1031000080938706F701EE0FFF1FEC51F84F659192
:1031100074918E010F5F1F4FC8010E942028F80193
:1031200001900020E9F73197AF01401B510BB80126
:1031300081E896E00E94681128E040E868E370E0CA
:1031400090E080E00E94E71508E027E047EE55E1B7
:1031500069E370E08AE590E00E94900E84E6809337
:1031600086068093850689E38093870681EE97E043
:103170000E949F1784E00E947613882321F190918A
:10318000F101933358F01092FE0191E0F601908323
:103190001092F10196E99093F201B82E8B2DC05C4C
:1031A000DF4F0FB6F894DEBF0FBECDBFDF91CF91DA
:1031B0001F910F91FF90EF90DF90CF90BF90AF9055
:1031C000089594E655CFB12CE9CF0F931F93CF9379
:1031D000DF93EC0188819981009759F02A813B8126
:1031E0002617370730F081E0DF91CF911F910F91C3
:1031F00008958B016F5F7F4F0E94F92F009759F060
:10320000998388831B830A832C813D81232B59F763
:10321000FC011082E8CF80E0E7CFCF93DF93EC0191
:1032200088819981009711F00E94702F198218826D
:103230001D821C821B821A82DF91CF910895EF922A
:10324000FF920F931F93CF93DF938C017B01FB01C0
:1032500001900020E9F73197E61BF70BD1F0DC0174
:103260001496CD91DC91CE0FDF1FBE010E94E518B0
:103270008823B9F0F8012081318184819581B701DB
:10328000820F931F0E94BF30D8011596DC93CE9316
:103290001497C801DF91CF911F910F91FF90EF908C
:1032A0000895C8010E940D19F4CFEF92FF920F9379
:1032B0001F93CF93DF93EC017B018A01BA010E9437
:1032C000E51881110BC0CE010E940D19CE01DF91CE
:1032D000CF911F910F91FF90EF9008951D830C8364
:1032E000B701888199810E94BF30F0CFEF92FF92A1
:1032F0000F931F93CF93DF93CDB7DEB7A1970FB690
:10330000F894DEBF0FBECDBF7C01CB01BA01F7013F
:103310001182108213821282158214828E010F5F35
:103320001F4F21E043E00E9402280097C9F0FC01F2
:1033300001900020E9F73197AF01481B590BBC0100
:10334000C7010E945519A1960FB6F894DEBF0FBEB3
:10335000CDBFDF91CF911F910F91FF90EF90089516
:10336000C7010E940D19EFCFFB01DC0111961C92E1
:103370001E9213961C921E92129715961C921E92E4
:1033800014978617970749F060817181611571055F
:1033900021F0448155810C9455190895FC018081D8
:1033A0009181009711F00C94702F0895CF92DF92C5
:1033B000EF92FF92CF93DF93CDB7DEB72C970FB686
:1033C000F894DEBF0FBECDBF6B017C0128EEC216A4
:1033D00023E0D206E104F10480F44AE00E94BE1723
:1033E0002C960FB6F894DEBF0FBECDBFDF91CF9104
:1033F000FF90EF90DF90CF9008950E94882A20E4FC
:10340000C21622E4D2062FE0E206F10420F520E005
:1034100030E04AE754E40E942F2CAB01BC01CE01FE
:1034200001960E947619BE016F5F7F4FCE0107960D
:103430000E94B4196CEA71E0CE0107960E941F1930
:103440000E949511CE0107960E94CE19CE010196D9
:103450000E94CE19C5CFC1142AECD2062AE9E20691
:103460002BE3F206B0F420E034E244E759E40E9492
:103470002F2CAB01BC01CE0101960E947619BE0132
:103480006F5F7F4FCE0107960E94B4196EEA71E01C
:10349000D3CF28E23BE64EE65EE40E942F2CAB0140
:1034A000BC01CE0101960E947619BE016F5F7F4F6D
:1034B000CE0107960E94B41960EB71E0BDCF1F9258
:1034C0000F920FB60F9211248F939F938091E1007A
:1034D0009091E100937F9093E10083FF0FC01092E1
:1034E000E90091E09093EB001092EC0092E390934E
:1034F000ED0010922E0298E09093F00082FF22C01F
:1035000093E09093E9009091F200992319F09AE3E7
:103510009093E80090911F02992341F090911F022F
:10352000915090931F02911101C05D9A90912D02CC
:10353000992341F090912D02915090932D02911179
:1035400001C0289A84FF18C08091E2008E7E8160BD
:103550008093E2008091E1008F7E8093E100809172
:1035600020028E7E8061809320029F918F910F9028
:103570000FBE0F901F90189580FFF7CF8091E2004B
:103580008E7E80618093E2008091E1008E7E809348
:10359000E100809120028E7E8160E5CF1F920F9224
:1035A0000FB60F921124CF92DF92EF92FF920F93FA
:1035B0001F932F933F934F935F936F937F938F93BB
:1035C0009F93AF93BF93EF93FF93CF93DF93CDB7C9
:1035D000DEB76C97DEBFCDBF1092E9008091E800A6
:1035E00083FF25C068E0CE0145960E94AC1082EFB3
:1035F0008093E8008D8987FF39C09091E80090FFA3
:10360000FCCF982F907609F034C19E894F89588D50
:103610002F89F88C911131C0803861F580911E029C
:103620008093F1001092F1008EEF8093E8006C9689
:103630000FB6F894DEBF0FBECDBFDF91CF91FF91E3
:10364000EF91BF91AF919F918F917F916F915F911A
:103650004F913F912F911F910F91FF90EF90DF902D
:10366000CF900F900FBE0F901F9018959EEF9093E4
:10367000E800C7CF1092F100D5CF913059F48111F5
:10368000D3CF4130510581F680911E028D7F80930A
:103690001E02CACF933049F48111C6CF4130510583
:1036A00019F680911E028260F2CF953041F480912C
:1036B000E80080FFFCCF20682093E300B5CF963070
:1036C00009F0A9C00B8D1C8D22E01092E900109228
:1036D0001C0210921B02F2122EC010921A021092BB
:1036E00019020E947B101F8299E09983FA8291E06F
:1036F0009E8390EA98879AEF998720911B023091D8
:103700001C02275F3F4F3C832B838D831092E9007F
:1037100010921C0210921B0210931A0200931902BD
:1037200049E050E0BE016F5F7F4F80E00E9455107E
:103730000E947B1079CF10931A02009319020E9405
:10374000920FDC0112960D911C910115110509F4DF
:1037500051C1D801ED91FC910480F581E02DBE01AD
:103760006B5E7F4FC8010995009709F03EC1F801D3
:1037700000851185EACFF3E0FF120EC08F89882300
:1037800009F440C0823061F440E867E082ED98E1DE
:103790000E941B1E811148CF81E28093EB0047CF2E
:1037A000813029F440E86BE086EC98E1F1CF83307A
:1037B00099F70E94920FDC011296ED90FC908E0119
:1037C0000F5F1F4F6801E114F10479F0D701ED910B
:1037D000FC910680F781E02DB801C7010995080F1B
:1037E000111DF701E084F184EECFD8011C92F6019F
:1037F00001900020E9F73197BF016C197D0940E085
:10380000C601C6CF60EB78E1FB01449150E080E84F
:103810000E94551009CF973009F4BECF983021F49B
:1038200081E08093F10000CF993009F0FDCE8370E4
:1038300009F0B2CFECE7F1E081E031E096E32191CD
:10384000222371F08093E9003093EB00DF011197A0
:103850002C912093EC009093ED008F5F873079F7E7
:103860008EE78093EA001092EA008F8980932E02FF
:10387000DBCE8B8D9C8D1092E90010921C02109271
:103880001B0290931A0280931902898D811192C0B4
:103890008E899D89913A49F4813209F07DCF47E0C4
:1038A00050E06BE671E080E0B3CF913209F074CF65
:1038B000833269F48F89988DB0E0A0E0809367012E
:1038C00090936801A0936901B0936A01ADCE8032F4
:1038D00069F48091E80082FFFCCF67E08BE691E01D
:1038E0000E94AC108BEF8093E8009ECE823209F0EC
:1038F0009BCE8F8980937201EEEFFFE785919491C3
:103900008B3F9C4D51F1E0E0F8E080916B0190918C
:103910006C01A0916D01B0916E01803B9440A105B6
:10392000B105F1F48091720180FD1AC0EE3F8AE08A
:10393000F80789F587E797E7918380838091600096
:1039400080931D0288E19BE00FB6F894A8958093C0
:1039500060000FBE9093600067CEEEEFFAE0D5CF27
:10396000808191818737974709F05ECEA895809135
:10397000600088618093600080911D0280936000E8
:10398000EE3F2AE0F20789F08091FE0A9091FF0A4B
:103990009183808349CE808191818737980751F246
:1039A0009093FF0A8093FE0AC5CF1092FF0A1092EF
:1039B000FE0A3ACE0E94920FDC0112960D911C91E4
:1039C0000115110509F4E8CED801ED91FC910190A3
:1039D000F081E02DBE016B5E7F4FC801099581111A
:1039E00023CEF80100851185EBCF181619060CF4CB
:1039F0001BCED2CEF1E0FF12BECE64EB78E104CF55
:103A00000F920FB68F939F93EF93FF9380911002C5
:103A10008D5F8D3708F08D5780931002E1E1F2E061
:103A200080818E4F808391819F4F918382818F4FC0
:103A3000828383818F4F8383E5E1F2E080818F5F12
:103A4000808381818F4F818382818F4F82838381A5
:103A50008F4F83838FB18F6066991C9B88278F3629
:103A600081F480910F02981B963068F0E0E0F8E056
:103A700087E78083818388E180936000F093600012
:103A8000FFCF90930F02FF91EF919F918F910FBE07
:103A90000F9018951F920F920FB60F9211242F932B
:103AA0003F934F935F936F937F938F939F93AF93C6
:103AB000BF93EF93FF938091E101882389F0809178
:103AC000E00181110DC08091DF01811109C0909149
:103AD000DE01E091DC01F091DD01808189278083A6
:103AE0008091F801882329F18091D8019091D90122
:103AF000A091DA01B091DB01892B8A2B8B2BC9F0C5
:103B00008091D8019091D901A091DA01B091DB01A7
:103B10000197A109B1098093D8019093D901A0938D
:103B2000DA01B093DB01892B8A2B8B2B11F40E94D5
:103B30004612FF91EF91BF91AF919F918F917F912D
:103B40006F915F914F913F912F910F900FBE0F900A
:103B50001F9018951F920F920FB60F9211248F93FA
:103B60009F93AF93BF93EF93FF938091E4018823DA
:103B700009F454C08091D4019091D501A091D6014F
:103B8000B091D701892B8A2B8B2BA1F19091D30176
:103B9000E091D101F091D2018081892780838091C9
:103BA000D4019091D501A091D601B091D7011816FA
:103BB00019061A061B069CF48091D4019091D50138
:103BC000A091D601B091D7010197A109B1098093C5
:103BD000D4019093D501A093D601B093D701FF9162
:103BE000EF91BF91AF919F918F910F900FBE0F906A
:103BF0001F9018951092E0011092E40180916F00DF
:103C00008D7F80936F008091D301E091D101F0917D
:103C1000D2019081809589238083E1CF8091DF015B
:103C20008111DDCF9091D301E091D101F091D201CA
:103C300080818927F1CFEF92FF920F931F93CF934B
:103C4000DF93F82E192FE62E042F81E0860F880FC0
:103C50000E94271083E00E942710CF2DD12FEC0E59
:103C6000FD2EF11CCE15DF05B9F007FF13C0FE01D4
:103C700084910E942710182F80E00E942710812332
:103C800021968111EFCFDF91CF911F910F91FF907E
:103C9000EF9008958881EDCF81E0F5CFEFE2F6E077
:103CA0001382128288EE93E0A0E0B0E084839583D3
:103CB000A683B78386E891E0918380838FEF9FEF9F
:103CC000958784878BE99CE09093800680937F069C
:103CD000EBE8F6E01382128284EA91E0918380831C
:103CE000E1E8F6E01382128288E991E09183808313
:103CF00088E0818781E0808715821682148287831D
:103D00000895CDB7DEB7A697DEBFCDBF789483E028
:103D100084BD83E085BD81E080936E00E1E8F0E042
:103D200083E08083E0E881E08083E1E983E08083D1
:103D3000E0E981E08083E1EC87E08083E3EC81E0EF
:103D40008083E0EC82E08083E2EC81E08083EAE73C
:103D500087E080838068808310922E0210921E027A
:103D6000109220028091D70081608093D70080EA72
:103D70008093D80089B5806189BD89B5826089BD8D
:103D800009B400FEFDCF81E090E00E94B91080915F
:103D9000D8008F7C80618093D8008091E000807F84
:103DA0008093E0008091E1008E7E8093E1008DE0C1
:103DB0008093E200559A209A81EC80937C0081EFF9
:103DC00085B987EE84B984E38BB984EF8AB9769A92
:103DD0006E9880EF81BB10BA80E58CBD81E08DBD0F
:103DE00085E00E9450135F9A85E00E9450135C9812
:103DF000E2EFFEE085918EBD00000DB407FEFDCF21
:103E0000EF3FC1F75C9A81E88093640081E0809382
:103E100065000E9481130E94531387FF15C05C98B0
:103E200085EA8EBD00000DB407FEFDCF5C9A2E988A
:103E30002F982D988091640080628093640081E0C7
:103E400083BF889513BEFCCF0E94531382FF37C0F7
:103E50002D980E94531384788438A1F42D9A88EC0D
:103E60000E9450132F986FEF82E090E00E948B2BFE
:103E700084EF91E00E94B9102F9A0E945313847826
:103E80008438D9F30E94531384718431A1F42D9A9C
:103E900088EC0E9450132E9860E082E090E00E942F
:103EA0008B2B84EF91E00E94B9102E9A0E9453133D
:103EB00084718431D9F388EC0E945013C5CF2D9AB8
:103EC00082E090E00E94832B882309F44AC00E947C
:103ED0005B1381E090E00E94832B182F147081FF08
:103EE0000CC011112E9851EFE52EFF24FA940E9478
:103EF000531386FF3BC02E9A2F9A82E30E945013E1
:103F00000E9453138111F9CF80E1809300010E9438
:103F100090160E945B1385E00E94D3128DE00E94F0
:103F2000D3128BE093E19093F7018093F601909385
:103F3000F5018093F4010E94461281E08093F8011C
:103F4000CE0101961C018091EC01882309F469C01F
:103F50001092EC0180E090E0892BA9F30E94000010
:103F6000F2CF1092E9013E983F98B3CF112331F080
:103F700024E0E216F10411F42E9A2F9881E00E94B9
:103F80003B0F00E128E542E45EE0B70184E190E008
:103F90000E94900E0E9481138FE00E9450133FEF09
:103FA000E31AF30A49E1E416F10409F0A0CF112362
:103FB00011F02F9A2D9880E991E00E94B9102D9A66
:103FC00081E090E00E94832B80FF97CF8AE090E011
:103FD0000E94832B9FEF980F9E3F08F08ECF22E325
:103FE00030E03093E8012093E70128E330E030939C
:103FF000E6012093E5010AE010E0682F8BE896E0E7
:104000000E94CA140F5F1F4FC8010E94832B00310A
:10401000110599F70E94811388EE93E00E94B91070
:104020006CCF909111028091ED01E92FE81B8E2F4A
:1040300020910001E21748F48F5F821708F08ACFC1
:1040400081E083BF889513BE85CF81E08093EC012A
:104050009093ED01EAEEF1E08081918101968083F9
:104060009183109103028091F001811159C0109346
:1040700002020E9453138093030288E00E94761389
:10408000811105C084E00E947613882319F081E035
:104090008093F0010E9461138091EF018F5F809304
:1040A000EF019091EE019923A9F1883C20F0109244
:1040B000EE011092EF012091EE0181E0282746E702
:1040C00050E168E170E08CE490E00E944A1300E265
:1040D00026E54EE15FE067E070E084E190E00E9459
:1040E000900E0BE02DE044E05FE065E370E090E0CF
:1040F00080E00E94900E8FE0809386068093850674
:1041000089E3809387068FEF9EE00E949F170E94AD
:10411000811320CF8E3178F281E08093EE01C9CFF8
:1041200080910E028F5F80930E02883050F0809154
:104130000D0210920E028F5F843108F066C58093E5
:104140000D0200910C0280910D02811133C00F3FCE
:1041500089F5C0900802D0900902E0900A02F09020
:104160000B02209104023091050240910602509109
:104170000702A9E0B0E0C216D306E406F50610F483
:10418000A70196010E94BC2BC0906101D0906201F2
:10419000E0906301F0906401DC01CB018C0D9D1D6A
:1041A000AE1DBF1D8093610190936201A0936301D6
:1041B000B0936401109302020E945313F82E80936F
:1041C000030288E00E947613882341F08091660103
:1041D0008F5F823008F01CC5809366018091660174
:1041E000882351F015FF08C0F5FC06C0813009F0A6
:1041F00012C582E0809366010E9461130F3F09F0AF
:10420000D2C4809165018F3F09F4D2C429E030E027
:1042100040E850E069E070E090E080E00E944614E1
:1042200008E025E049E658E161E070E081E090E0D7
:104230000E94900E88E0809386068093850611E0A8
:104240001093870660916101709162018091630112
:10425000909164010E94D6192DE04CE558E162E08E
:1042600070E080E290E00E94900E8FE280938606DC
:104270008093850610938706609108027091090269
:1042800080910A0290910B020E94D619809101023E
:10429000882321F08AE598E10E949F1708E025E035
:1042A00045E558E161E070E086E490E00E94900E00
:1042B00042E361E070E08DE490E00E94590E42E339
:1042C00067E070E08DE490E00E94590E21E047E045
:1042D00061E070E08DE490E00E942D1521E047E060
:1042E00061E070E08EE790E00E942D15E090FF0104
:1042F000F0900002970136952795F0E6EF16F1044D
:1043000008F020E308E045E258E162E070E08EE466
:1043100090E00E94900E24E6E216F10408F07DC4BD
:10432000C70196958795835B9F4F27E030E0AC01EE
:1043300061E070E00E944614809166018111CDC158
:104340008091FE0181117CC380E80E94761388234E
:1043500039F08091600181118CC483E08093600109
:1043600080E10E947613882339F0809160018330C8
:1043700008F481C41092600110915F01123008F1BD
:1043800080E20E947613882351F08091FD01811113
:1043900076C48FEF810F8093FD010E94781680E430
:1043A0000E947613882369F02091FD01412F41502E
:1043B000550B241715060CF464C41092FD010E94DD
:1043C000781684E00E947613882309F45CC0F0908C
:1043D000FC010091FD0110E0F11057C4E091600173
:1043E000C801880F991F880F991F8D5A9E4FE80F9B
:1043F000F92FF11D6081643108F045C0662309F48E
:1044000049C470E090E080E00E94882A9B01AC01E2
:1044100063E373E383EB9FE30E94D02C20E030E062
:104420004AE754E40E94C52A0E94A12C80906101B1
:1044300090906201A0906301B09064018616970687
:10444000A806B90600F1A5019401261B370B480BFD
:10445000590BDA01C9018093610190936201A09325
:104460006301B0936401000F111F000F111FFF20A3
:1044700009F415C40D5A1E4F81E0F8018383109290
:10448000FC010E9490168091FC01882309F412C45B
:1044900021E04AE356E16BE070E084E090E00E94A6
:1044A0004A13C090600189E0C89E802D1124805F6E
:1044B0000E944A0F1091FC01E090FD01D12C84E094
:1044C000E89E70011124111109C0F701ED5AFE4F49
:1044D000EC0DFD1D8081843108F04EC008E025E020
:1044E00049E658E16DE270E085E590E00E94900EAB
:1044F00085E5809386068093850683E28093870610
:10450000F701ED5AFE4FEC0DFD1D8081882309F463
:1045100076C489E096E10E949F178DE58093860618
:10452000809385068DE28093870660EA76E880E0D6
:1045300090E011111FC0F701ED5AFE4FCE0EDF1EA5
:10454000F6016081662309F45DC470E090E080E0CC
:104550000E94882A9B01AC0163E373E383EB9FE332
:104560000E94D02C20E030E04AE754E40E94C52AA3
:104570000E94A12C0E94D61921E230E045E550E0CE
:104580006BE070E085E590E00E94461421E230E0A7
:104590004EE750E061E270E085E590E00E9446144D
:1045A0008AE580938606809385068CE08093870653
:1045B0008CEF95E10E949F1708E02DE04CE558E153
:1045C00067E170E08AE590E00E94900E8BE68093B0
:1045D00086068093850686E18093870660910402B3
:1045E0007091050280910602909107020E94D619EF
:1045F00027E045EF55E169E370E08DE290E00E942D
:10460000900E87E3809386068093850619E31093C6
:1046100087068EEE95E10E949F1727E047EE55E151
:1046200069E370E08AE590E00E94900E84E6809352
:10463000860680938506109387060091FD0110E0A1
:10464000E0916001C801880F991F880F991F8D5A4A
:104650009E4FE80FF92FF11D8081882309F4D7C3FD
:104660008FED95E10E949F1780915F018230A8F144
:1046700088E0809386068093850679E3F72EF09292
:10468000870689ED95E10E949F1785E28093860653
:1046900080938506F092870687ED95E10E949F172B
:1046A00083E18093860680938506F0928706B801A1
:1046B0006F5F7F4F072E000C880B990B4AE00E941A
:1046C000BE1785ED95E10E949F1760915F0170E034
:1046D00090E080E04AE00E94BE1780916601813040
:1046E00009F0AEC18091FE018111AAC180E80E944B
:1046F0007613882349F08091FB01811102C08091DB
:10470000520181508093FB0180E10E94761388233F
:1047100061F08091FB01209152012150330B8217EF
:1047200013060CF477C31092FB0184E00E94761309
:10473000882309F46CC00091FB01F8E00F9F800111
:1047400011240E5F1E4FF80176808781781608F0DD
:104750005EC080809180B12CA12C809161019091EC
:104760006201A0916301B091640188159905AA05C1
:10477000BB0508F44CC088199909AA09BB098093A4
:10478000610190936201A0936301B093640188E09A
:10479000DE01599601900D928A95E1F7F801668144
:1047A00070E090E080E00E94882A9B01AC0160E00C
:1047B00070E080EC9FE30E94D02C6B017C01C5016E
:1047C000B4010E94882AA70196010E94C52A0E946E
:1047D000A12CF8017183608364817581828193814A
:1047E000860F971F938382837394768290E080E094
:1047F0000E94882A20E030E040EC5FE30E94C52A56
:104800000E94A12CF801758364830E94901682E1B6
:104810000E944A0F25E1C22ED12CB12CA12C37E0E9
:10482000732E47E1642E5FE3552E6BE6462EE09033
:10483000FB01C5018E0D911D20915201281719060B
:1048400009F00CF49DC0EA0C01E021E148E7B60153
:104850006950710985E090E00E9407161C2D709246
:1048600086067092850688EF8C0D80938706F12C62
:10487000F701EE0FFF1FEF53FA4E65917491C101DE
:104880000E942028F10101900020E9F73197AF0143
:1048900042195309B10181E896E00E94681193E042
:1048A000EE0CFF1C9A95E1F797012E5F3E4F4901F0
:1048B000F90106810023A1F08EEB95E10E949F177C
:1048C000602F70E090E080E04AE00E94BE17F401A3
:1048D00096818781981720F089EB95E10E949F17B8
:1048E00008E02DE04CE558E1B60187E090E00E9439
:1048F000900E11506092860660928506109387068E
:1049000097012E5F3E4F7901F9016281738190E03A
:1049100080E00E94D619F70197818681891780F57A
:1049200025E049E658E1B6016150710988E390E05D
:104930000E94900E5092860650928506109387062C
:10494000F7016081718190E080E00E94D6192DE02E
:104950004CE558E1B6018AE590E00E94900E409245
:104960008606409285061093870687EB95E10E94A4
:104970009F17F7016481758190E080E00E94D6194D
:10498000FFEFAF1ABF0A22E1C20ED11C33E0A3161B
:10499000B10409F04CCF28E040E868E370E090E013
:1049A00080E00E94E71508E027E045EF55E169E364
:1049B00070E08DE290E00E94900E87E3809386067F
:1049C0008093850619E3109387068FEA95E10E948C
:1049D0009F17E091FB0148E0E49FF0011124EE5F96
:1049E000FE4F968187819817A0F427E047EE55E1A6
:1049F00069E370E08AE590E00E94900E84E680937F
:104A0000860680938506109387068BEA95E10E94BF
:104A10009F1782E0809386068093850619E31093A2
:104A2000870689EA95E10E949F1788E080938606B1
:104A3000809385061093870680EA95E10E949F1770
:104A400080916601823009F0AEC080E80E94761342
:104A5000882339F08091FA018111E0C181E08093CF
:104A6000FA0180E10E947613882339F08091FA01DF
:104A7000882309F4D5C11092FA0184E00E947613CC
:104A80008823D9F01091FA01111117C0809101010A
:104A900001E0802780930101882309F4C5C18BE0E0
:104AA00093E19093F7018093F6019093F501809341
:104AB000F4010E9446120093F8018091FA019CE0F3
:104AC000899F802D1124805F0E944A0F01E02BE016
:104AD00048E76CE070E085E090E00E94071688E00F
:104AE00080938606809385061EE0109387068DEEE0
:104AF00092E10E949F178AE580938606809385063F
:104B00001093870680910101882309F499C18AEEE8
:104B100092E10E949F1728E040E868E370E090E08F
:104B200080E00E94E71508E027E045EF55E169E3E2
:104B300070E08DE290E00E94900E87E380938606FD
:104B40008093850619E31093870683E093E10E9422
:104B50009F1727E047EE55E169E370E08AE590E0B2
:104B60000E94900E84E680938606809385061093BB
:104B700087068CEF92E10E949F1782E08093860661
:104B800080938506109387068AEF92E10E949F1713
:104B900088E080938606809385061093870683EFCE
:104BA00092E10E949F17809165018F3F09F075C1C6
:104BB000F090F30190E29F1508F445C12F2D40E8D5
:104BC00070E060E090E080E00E94E7150F2D10E0BB
:104BD00060E470E0601B710B2F2D40E890E080E0F6
:104BE0000E94E71540E8B80190E080E00E94590E6D
:104BF0006FE370E0601B710B40E890E080E00E9482
:104C0000590EF394F092F30148C110920D0299CA23
:104C100010926601E3CA81E0EDCA3AE6E316F104B8
:104C200008F48ACB25E04FE162E070E086E590E091
:104C30000E94E71502E010E021E041E063E070E04F
:104C400084E790E00E94561522E041E063E070E0C6
:104C500086E590E00E94561586E58093860680934F
:104C6000850681E0809387068CE198E10E949F177A
:104C700063CB815073CB8F5F809360017DCB81507C
:104C80008ACB2F5F2093FD019ACB60EA76E880E023
:104C900090E0CCCB68EE73E080E090E0C7CB8091F1
:104CA00060010D5A1E4FF801E80FF11D80818F5FE2
:104CB0008083E7CB1091FD0120E04AE356E16BE0F1
:104CC00070E084E090E00E944A1300910D02802F72
:104CD0006AE00E94C22E41E0911140E06CE070E079
:104CE00084E290E00E948413802F6CE00E94C22E28
:104CF00041E0911140E06CE070E086E290E00E94BB
:104D00008413F4E01F9FC00111249C012D5A3E4FD3
:104D10002901B1E1CB2ED12C1FE0E12EF12C1CE2B8
:104D20001093860610938506E0928706F201B190F3
:104D30002F01B11018C008E02CE141E156E1B701A4
:104D40008AE090E00E94900E86E396E10E949F1711
:104D500039E0E30EF11C49E0C40ED11C55E3C51641
:104D6000D104F1F69ECB01E028E04CE1B7018AE0E6
:104D700090E00E9407168B2D65E00E94C22E882EBF
:104D8000912CACE06A2E712CB12CA12C08E024E00F
:104D90004DE256E1B601C3010E94900EFFEFAF1A3B
:104DA000BF0A25E0620E711C8A149B047CF781E324
:104DB00096E10E949F17F201319780811AA219A2F1
:104DC0001CA21BA21EA21DA24AE0B10190E00E94FB
:104DD0002728F10101900020E9F73197AF0142192E
:104DE0005309B101CE0181960E945519CE018196D9
:104DF0000E949511CE0181960E94CE19A9CF85E01F
:104E000096E189CB68EE73E080E090E0B3CB8BED68
:104E100095E128CC8F5F8093FB0187CC81501FCE1A
:104E200081E08093FA0129CE8091F901181728F4C6
:104E3000812F0E941B121F5FF7CF1092F8013DCE09
:104E400086EE92E166CEE0E6EF1508F4B6C080EE9D
:104E50008F0D082F000F20E430E0281B3109E22ECF
:104E6000EE0C20E440E870E060E090E080E00E941A
:104E7000E7150E1570F4E01A10E04E2D6FE170E0AA
:104E8000C8010E94590E4E2D60E270E0C8010E94D8
:104E9000590E31E63F1508F0B4CE8091FE01811124
:104EA00007C08091F201882319F081508093F201AC
:104EB00080910C028F3F89F00E940C18882369F0C2
:104EC0001092F2018EE18093F10180910C028F5FCC
:104ED0008B3008F087C080930C028091FF01909185
:104EE00000028A36910518F08BE00E940C18809120
:104EF0000102882319F08CE00E940C1880910802AE
:104F000090910902A0910A02B0910B028C3291405B
:104F1000A105B10558F08091FF0190910002803504
:104F2000910508F066C08DE00E940C1880915F0129
:104F3000823018F08FE00E940C1880915201863068
:104F400018F080E10E940C1880913001882319F03C
:104F500081E10E940C1880913801882319F082E1C8
:104F60000E940C1880914001882319F083E10E946F
:104F70000C18809152018A3019F484E10E940C18B7
:104F800080914801882309F4C2C8809165018F3F50
:104F900009F4BDC80E940C18882309F4B8C882E33C
:104FA0008093F2018EE18093F101809165018F5F22
:104FB0008A3108F580936501AAC820E440E870E0D2
:104FC00060E090E080E00E94E7158EE28093860624
:104FD000809385068EE1809387068CED92E10E9496
:104FE0009F1757CF8FEF80930C0281E0809366016B
:104FF00074CF8EE099CF8FEF8093650181E080932D
:10500000660185C8EF920F931F93CF93DF93E8015A
:1050100034E047FD34E1042E000C550B57FF03C06C
:10502000519541955109E32E022F242FAE010E9484
:105030004128CE01DF91CF911F910F91EF900895FC
:10504000FB01DC0105900D920020E1F70895BB27DC
:10505000FB015527AA27880F991FAA1FA41710F034
:10506000A41B83955051B9F7A05DAA3308F0A95D40
:10507000A193009779F7B111B1931192CB010C94E0
:10508000782AA9E0B0E0E7E4F8E20C94CD2B6A01BD
:10509000F22EB02E102FFBE3AF2EA01608F41BE368
:1050A0001F5F012F27E0AE014F5F5F4F0E94A029D5
:1050B000BC018981982F9970913009F43FC09BE21F
:1050C000E1FC04C09E2D9170E0FC3AC05E2D507151
:1050D000E82FE87083FF46C084E0911101C083E0AF
:1050E000EF2DE81B8F1508F0E0E0D6018E2F20E2AF
:1050F000552351F1992329F0D6019C93C6010196BD
:105100006C0196012D5F3F4FE2FE24C08EE4D60174
:105110008C9391E411969C93119712968C93D901DC
:105120008E2F90E281111BC0E20FF32FF11D108230
:105130008EEF9FEF2996ECE00C94E92B9DE2C6CF11
:1051400090E2C4CF2D9381508111FCCFCE0ED11CA3
:10515000E0E0D0CF8EE6D6018C9391E6DBCF9D9335
:105160008150E0CF482F447082FF3DC084E0911110
:1051700001C083E08F1510F4EF2DE81BD6018E2FB0
:1051800020E2552309F1992329F0D6019C93C60109
:1051900001966C0196012D5F3F4FE2FE1BC089E432
:1051A000D6018C938EE411968C93119786E4129617
:1051B0008C93D9018E2F90E2882309F4B5CF9D936B
:1051C0008150FACF2D9381508111FCCFCE0ED11C8E
:1051D000E0E0D9CF89E6D6018C938EE611968C93C8
:1051E000119786E6E4CF9B0177FF02C030E020E014
:1051F000A1E0B0E0911102C0B0E0A0E0F901319669
:10520000AE0FBF1F8B2C912CBB2009F461C0540141
:10521000EFEFAE1ABE0AAA0DBB1DFA161B0619F057
:1052200014F04F2D4A1B511188C0E3FC59C0760180
:10523000A42FB0E2A1114FC0C40ED11C992309F4D0
:105240005BC040E0D6011196F60190836D015523B5
:1052500009F448C0012F060F9A81582F507184FF1E
:1052600003C0913309F4015010160CF047C0093007
:1052700008F008E0EEE2FE2E5B01A01AB1088501FD
:105280009194819491082F3F320729F4D601FC9222
:10529000F60131966F016217730794F10217130735
:1052A0007CF5DB01A21BB30BAA24A394B12CAC0E9A
:1052B000BD1EAA0DBB1D11968C9121503109D6013E
:1052C000119628153905F4F0F60180836D01DBCFC6
:1052D000B12CA12CA0CFF701B1937F01A150AACF8F
:1052E0009111B0CFD601942F50E302C05D9391503D
:1052F0009111FCCFC40ED11C40E0ACCF01E0BACF7D
:1053000080E3DBCF6217730731F4963388F495336B
:1053100011F4552369F0F6018083FD01842F90E29A
:10532000811108C0A40FB11D1C9290E080E002CF53
:1053300081E3F1CF91938150F3CF911183CF8ACF45
:10534000283008F027E03327DA01990F311D87FD57
:10535000916000966105710539F432602E5F3D93CE
:1053600030E32A95E1F708959F3F30F080387105CA
:10537000610509F03C5F3C5F3D93913008F0806827
:10538000911DDF93CF931F930F93FF92EF92192FED
:10539000987F9695E92F96959695E90FFF27E85700
:1053A000FE4F99273327EE24FF24A701E70105903C
:1053B0000894079428F4360FE71EF81E491F511D64
:1053C000660F771F881F991F0694A1F70590079411
:1053D00028F4E70EF81E491F561FC11D770F881FBE
:1053E000991F661F0694A1F70590079428F4F80EFC
:1053F000491F561FC71FD11D880F991F661F771F92
:105400000694A1F70590079420F4490F561FC71F73
:10541000D81F990F661F771F881F0694A9F78491DC
:105420001095177041F0D695C79557954795F79405
:10543000E7941A95C1F7EEE2F1E0689415901591A2
:1054400035916591959105907FE27395E118F10A88
:10545000430B560BC90BD009C0F7E10CF11E431FDB
:10546000561FC91FD01D7EF4703311F48A95E6CF04
:10547000E894015030F0080F0AF40027021708F4EE
:10548000202F2395022F7A3328F079E37D932A95F4
:10549000E9F710C07D932A9589F60694979567954C
:1054A000379517951794E118F10A430B560BC90B62
:1054B000D00998F023957E9173957A3308F070E3C4
:1054C0007C932013B8F77E9170617D9330F08395C3
:1054D00071E37D9370E32A95E1F71124EF90FF903B
:1054E0000F911F91CF91DF91992787FD9095089596
:1054F000DC01FC01672F71917723E1F7329704C03B
:105500007C916D9370836291AE17BF07C8F30895C5
:10551000E89409C097FB3EF490958095709561954D
:105520007F4F8F4F9F4F9923A9F0F92F96E9BB2703
:105530009395F695879577956795B795F111F8CF7F
:10554000FAF4BB0F11F460FF1BC06F5F7F4F8F4FEA
:105550009F4F16C0882311F096E911C0772321F0E0
:105560009EE8872F762F05C0662371F096E8862F78
:1055700070E060E02AF09A95660F771F881FDAF7CF
:10558000880F9695879597F908950E94D82A0C94CC
:10559000492B0E943B2B38F00E94422B20F0952390
:1055A00011F00C94322B0C94382B11240C947D2B7D
:1055B0000E945A2B70F3959FC1F3950F50E0551F31
:1055C000629FF001729FBB27F00DB11D639FAA2758
:1055D000F00DB11DAA1F649F6627B00DA11D661FA7
:1055E000829F2227B00DA11D621F739FB00DA11DC8
:1055F000621F839FA00D611D221F749F3327A00D82
:10560000611D231F849F600D211D822F762F6A2F1D
:1056100011249F5750409AF0F1F088234AF0EE0F82
:10562000FF1FBB1F661F771F881F91505040A9F7AF
:105630009E3F510580F00C94322B0C947D2B5F3FE4
:10564000E4F3983ED4F3869577956795B795F795EB
:10565000E7959F5FC1F7FE2B880F911D9695879563
:1056600097F9089597F99F6780E870E060E00895E2
:105670009FEF80EC089500240A941616170618066A
:105680000906089500240A94121613061406050646
:105690000895092E0394000C11F4882352F0BB0FD7
:1056A00040F4BF2B11F460FF04C06F5F7F4F8F4F3A
:1056B0009F4F089557FD9058440F551F59F05F3F75
:1056C00071F04795880F97FB991F61F09F3F79F024
:1056D00087950895121613061406551FF2CF4695A6
:1056E000F1DF08C0161617061806991FF1CF869528
:1056F0007105610508940895E894BB27662777270C
:10570000CB0197F90895F999FECF92BD81BDF89A22
:10571000992780B50895262FF999FECF92BD81BDB6
:10572000F89A019700B4021639F01FBA20BD0FB6DF
:10573000F894FA9AF99A0FBE0895052E97FB1EF475
:1057400000940E94B42B57FD07D00E94FE2B07FC4B
:1057500003D04EF40C94B42B509540953095219580
:105760003F4F4F4F5F4F089590958095709561958D
:105770007F4F8F4F9F4F08950E94202CA59F900D23
:10578000B49F900DA49F800D911D112408952F9218
:105790003F924F925F926F927F928F929F92AF92C1
:1057A000BF92CF92DF92EF92FF920F931F93CF930E
:1057B000DF93CDB7DEB7CA1BDB0B0FB6F894DEBFA5
:1057C0000FBECDBF09942A88398848885F846E84CB
:1057D0007D848C849B84AA84B984C884DF80EE8015
:1057E000FD800C811B81AA81B981CE0FD11D0FB61E
:1057F000F894DEBF0FBECDBFED010895A1E21A2ED1
:10580000AA1BBB1BFD010DC0AA1FBB1FEE1FFF1F64
:10581000A217B307E407F50720F0A21BB30BE40BB4
:10582000F50B661F771F881F991F1A9469F76095FB
:105830007095809590959B01AC01BD01CF010895B5
:10584000A29FB001B39FC001A39F700D811D1124C1
:10585000911DB29F700D811D1124911D08950E940C
:10586000432C0C94492B0E94422B58F00E943B2B56
:1058700040F029F45F3F29F00C94322B51110C9425
:105880007D2B0C94382B0E945A2B68F39923B1F38B
:10589000552391F3951B550BBB27AA276217730756
:1058A000840738F09F5F5F4F220F331F441FAA1FEA
:1058B000A9F335D00E2E3AF0E0E832D091505040A6
:1058C000E695001CCAF72BD0FE2F29D0660F771F54
:1058D000881FBB1F261737074807AB07B0E809F03A
:1058E000BB0B802DBF01FF2793585F4F3AF09E3FBF
:1058F000510578F00C94322B0C947D2B5F3FE4F330
:10590000983ED4F3869577956795B795F7959F5F01
:10591000C9F7880F911D9695879597F90895E1E04D
:10592000660F771F881FBB1F621773078407BA07AC
:1059300020F0621B730B840BBA0BEE1F88F7E09507
:1059400008950E94622B88F09F5798F0B92F9927ED
:10595000B751B0F0E1F0660F771F881F991F1AF05A
:10596000BA95C9F714C0B13091F00E947C2BB1E018
:1059700008950C947C2B672F782F8827B85F39F017
:10598000B93FCCF3869577956795B395D9F73EF4F3
:1059900090958095709561957F4F8F4F9F4F08959B
:1059A000FA01EE0FFF1F309621053105A1F16115B7
:1059B000710561F48038BFE39B0749F16894903822
:1059C000810561F08038BFEF9B0741F099234AF5CC
:1059D000FF3FE1053105210519F1E8940894E795A9
:1059E000D901AA2329F4AB2FBE2FF85FD0F310C042
:1059F000FF5F70F4A695E0F7F73950F019F0FF3A21
:105A000038F49F779F930DD00F9007FC905808951E
:105A100046F00C94382B60E070E080E89FE3089536
:105A20004FE79F775F934F933F932F930E94CB2D28
:105A30002F913F914F915F910E94C52A0C94282D80
:105A400029F416F00C94322B0C947C2B0C94382BEC
:105A50000E94622BA8F39638A0F707F80F92E894FB
:105A60002BE33AEA48EB5FE70E94DB2A0F920F92A2
:105A70000F924DB75EB70F920E94132EECEAF0E042
:105A80000E945A2D4F915F91EF91FF91E595EE1F86
:105A9000FF1F49F0FE57E0684427EE0F441FFA95B8
:105AA000E1F74195550B0E948D2D0F9007FE0C9448
:105AB000812D0895DF93CF931F930F93FF92EF9261
:105AC000DF927B018C01689406C0DA2EEF010E9400
:105AD000D82AFE01E894A5912591359145915591DB
