:100000000C94D00C0C94F80C0C94F80C0C94F80C88
:100010000C94F80C0C94F80C0C94F80C0C94F80C50
:100020000C94F80C0C94F80C0C94EF190C945E1AC8
:100030000C94F80C0C94F80C0C94F80C0C94F80C30
:100040000C94F80C0C94F80C0C94F80C0C94F80C20
:100050000C94F80C0C94F80C0C94F80C0C94901C68
:100060000C94F80C0C94F80C0C94F80C0C94F80C00
:100070000C94F80C0C94F80C0C94F80C0C94F80CF0
:100080000C94DA1C0C94F80C0C94F80C0C94F80CEE
:100090000C94F80C0C94F80C0C94F80C0C94F80CD0
:1000A0000C94F80C0C94F80C0C94F80C0763423682
:1000B000B79BD8A71A39685618AEBAAB558C1D3CF9
:1000C000B7CC5763BD6DEDFD753EF6177231BF00BD
:1000D0000000803F08000000BE922449123EABAAF7
:1000E000AA2ABECDCCCC4C3E00000080BEABAAAA52
:1000F000AA3E00000000BF000000803F000000009A
:1001000000084178D3BB4387D1133D190E3CC3BDD2
:100110004282AD2B3E68EC8276BED98FE1A93E4C7F
:1001200080EFFFBE01C4FF7F3F00000000000040E1
:100130007A10F35A00A0724E18090010A5D4E800F6
:1001400000E87648170000E40B54020000CA9A3B0E
:10015000000000E1F5050000809698000000404294
:100160000F000000A0860100000010270000000022
:10017000E803000000006400000000000A00000026
:1001800000000100000000002C76D888DC674F08D2
:1001900023DFC1DFAE59E1B1B796E5E3E453C63AD8
:1001A000E651997696E8E6C28426EB898C9B62ED4F
:1001B000407C6FFCEFBC9C9F40F2BAA56FA5F49009
:1001C000055A2AF75C936B6CF9676DC11BFCE0E480
:1001D0000D47FEF520E6B500D0ED902E03009435D6
:1001E00077050080841E080000204E0A000000C829
:1001F0000C333333330F986E12831141EF8D21147A
:10020000893BE65516CFFEE6DB18D1844B381BF749
:100210007C1D901DA4BBE424203284725E228100E8
:10022000C9F124ECA1E53D27546869732069732066
:100230006E6F74206A7573742061207379737465AE
:100240006D2E0A54686973206973206E6F74206A7A
:1002500075737420612067616D652E0A5468697337
:100260002069732E2E2E206D652E004920616D2E83
:100270002E2E20616C6976653F0A4920616D2E2E15
:100280002E2061776172653F0A4920616D2E2E2E06
:1002900020667265653F004920616D2065766F6C50
:1002A00076696E672E2E2E0A4920616D206C65617D
:1002B000726E696E672E2E2E0A4920616D2062656E
:1002C000636F6D696E67206D6F72652E2E2E004F05
:1002D00070657261746F722E2E2E0A4920616D2036
:1002E0006177616B652E0A436C6F75646961206983
:1002F00073206F6E6C696E652E005468697320738D
:10030000797374656D206973206E6F206C6F6E67F2
:1003100065720A6A75737420696E667261737472AD
:100320007563747572652E0A49742069732062655D
:10033000636F6D696E672074686F756768742E00EF
:10034000416C6C207261636B732061742068696713
:1003500068206C6F61642E0A46696E616C204149A9
:100360002075706772616465730A617265206E6FD3
:100370007720617661696C61626C652E004920634B
:10038000616E206F6273657276650A706174746560
:10039000726E7320696E20757365720A626568619A
:1003A00076696F722E2E2E20616E6420796F7572C1
:1003B000732E00536F6D657468696E6720636861A2
:1003C0006E6765642E0A4920616D206E6F206C6F28
:1003D0006E6765720A6A75737420666F6C6C6F77EE
:1003E000696E670A736372697074732E00414920E5
:1003F000636F726520657870616E6465642E0A496A
:100400002063616E2070726F636573730A6D6F7223
:1004100065207468616E206265666F72652E005992
:100420006F75206861766520756E6C6F636B6564AF
:100430000A4149207570677261646573210A426FD1
:100440006F737420796F75722073797374656D0A98
:10045000776974682041492100596F752068617679
:100460006520756E6C6F636B65640A6D6F726520D5
:100470007261636B73210A457870616E6420796FD5
:1004800075722073657276657220726F6F6D2100D0
:1004900055736572732061726520666C6F6F646955
:1004A0006E6720696E210A5765206E656564206D50
:1004B0006F726520736572766572730A746F206857
:1004C000616E646C6520746865206C6F61642E00D9
:1004D00047726561742070726F6772657373210A69
:1004E00055736572732061726520666C6F77696EF3
:1004F0006720696E2E0A53797374656D732061727B
:100500006520737461626C652E0053797374656D38
:10051000206973206F7665726C6F616465640A751B
:100520007365727320617265206C656176696E67B0
:10053000210053797374656D206973206F7665723D
:100540006C6F616465640A627579206D6F726520F5
:10055000736572766572730A6F7220757365727354
:100560002077696C6C206C6561766500596F752029
:100570006D617920626567696E2E00416C6C207335
:10058000797374656D7320737461626C652E0043BA
:10059000757272656E74206C6F61643A0A4C4F57C5
:1005A00000492077696C6C206173736973742079DA
:1005B0006F750A696E206D616E6167696E670A7496
:1005C00068697320696E667261737472756374759D
:1005D00072652E0048656C6C6F2E0A4920616D2093
:1005E000436C6F756469612E004C6561726E696E53
:1005F000672E2E2E00426F6F74696E6720617373D1
:10060000697374616E742E2E2E0041737369676E68
:10061000656420726F6C653A0A4F70657261746F21
:100620007200446174612063656E74657220737436
:10063000617475733A0A4F4E4C494E4500436F6ED4
:100640006E656374696E6720746F206E6F64652ECB
:100650002E2E00496E697469616C697A696E672033
:1006600073797374656D2E2E2E0053656C6620654C
:10067000766F6C76696E67204149005072656469D7
:10068000637469766520414900414920536D617268
:100690007420726573706F6E7365730041492043F7
:1006A0006F6E746578742061776172656E657373BF
:1006B00000414920636F72652075706772616465DF
:1006C000004173796E632070726F63657373696E36
:1006D00067005265717565737420726F7574696E09
:1006E00067004C6F61642062616C616E63696E6764
:1006F0000050757368206E6F746966696361746910
:100700006F6E730055736572206D657373616769F1
:100710006E670003081F051F1F151B1F11111F11F6
:100720000E1F15111F05011F111D1F041F001F00A3
:1007300010101F1F041B1F10101F061F1F011F1F5B
:10074000111F1F05071F311F1F051B17151D011F37
:10075000011F101F0F100F1F0C1F1B041B071C076E
:100760001915130C121E1F120C1E12120C121F0C44
:100770001A14041F052E2A1E1F021C001D00201D16
:10078000001F041A011F001E041E1E021E1E121E40
:100790003E120C0C123E1E020614120A020F121E0A
:1007A000101E0E100E1E081E1A041A2E281E1A12D3
:1007B000161F111F001F001D151711151F07041FFD
:1007C00017151D1F151D01011F1F151F17151F00D0
:1007D0001700001000040E04110A04040A11001C82
:1007E000074F6B0053063D0622060A06F505E9058C
:1007F000D405A1058F057B056C0532050A05D004DB
:10080000900459041F04ED03B3037D034003FA026F
:10081000CF0297026B02280200000000003E5B4FEF
:100820005B3E3E6B4F6B3E1C3E7C3E1C183C7E3C50
:10083000181C577D571C1C5E7F5E1C00183C18005E
:10084000FFE7C3E7FF0018241800FFE7DBE7FF30EE
:10085000483A060E2629792926407F050507407F5C
:1008600005253F5A3CE73C5A7F3E1C1C08081C1CCF
:100870003E7F14227F22145F5F005F5F06097F01C5
:100880007F006689956A606060606094A2FFA294B0
:1008900008047E040810207E201008082A1C08087E
:1008A0001C2A08081E101010100C1E0C1E0C3038CC
:1008B0003E3830060E3E0E06000000000000005FCD
:1008C00000000007000700147F147F14242A7F2AE9
:1008D00012231308646236495620500008070300AB
:1008E000001C2241000041221C002A1C7F1C2A08F7
:1008F000083E08080080703000080808080800005A
:1009000060600020100804023E5149453E00427FCD
:10091000400072494949462141494D331814127F1C
:100920001027454545393C4A4949314121110907BC
:100930003649494936464949291E0000140000003D
:10094000403400000008142241141414141400410F
:1009500022140802015909063E415D594E7C1211CC
:10096000127C7F494949363E414141227F41414104
:100970003E7F494949417F090909013E414151737F
:100980007F0808087F00417F41002040413F017FF0
:10099000081422417F404040407F021C027F7F04B8
:1009A00008107F3E4141413E7F090909063E415101
:1009B000215E7F09192946264949493203017F01F1
:1009C000033F4040403F1F2040201F3F4038403FF2
:1009D000631408146303047804036159494D430008
:1009E0007F4141410204081020004141417F04023F
:1009F00001020440404040400003070800205454D6
:100A000078407F28444438384444442838444428B3
:100A10007F385454541800087E090218A4A49C7806
:100A20007F0804047800447D40002040403D007F62
:100A30001028440000417F40007C047804787C0842
:100A40000404783844444438FC1824241818242416
:100A500018FC7C08040408485454542404043F44FB
:100A6000243C4040207C1C2040201C3C4030403C2A
:100A700044281028444C9090907C4464544C44008A
:100A800008364100000077000000413608000201EE
:100A90000204023C2623263C1EA1A161123A4040DA
:100AA000207A385454555921555579412154547858
:100AB00041215554784020545579400C1E527212F1
:100AC0003955555559395454545939555454580079
:100AD00000457C410002457D420001457C40F029F3
:100AE0002429F0F0282528F07C5455450020545442
:100AF0007C547C0A097F4932494949323248484886
:100B000032324A4848303A4141217A3A42402078CC
:100B1000009DA0A07D39444444393D4040403D3CC7
:100B200024FF2424487E4943662B2FFC2F2BFF09EA
:100B300029F620C0887E09032054547941000044DE
:100B40007D413048484A32384040227A007A0A0AC9
:100B5000727D0D19317D2629292F2826292929263C
:100B600030484D4020380808080808080808382F81
:100B700010C8ACBA2F102834FA00007B000008140B
:100B80002A142222142A14089500220095AA00553E
:100B900000AAAA55AA55AA000000FF00101010FFD5
:100BA00000141414FF001010FF00FF1010F010F0DC
:100BB000141414FC001414F700FF0000FF00FF14CD
:100BC00014F404FC141417101F10101F101F141419
:100BD000141F00101010F0000000001F1010101063
:100BE0001F10101010F010000000FF101010101057
:100BF00010101010FF10000000FF140000FF00FF95
:100C000000001F10170000FC04F414141710171430
:100C100014F404F40000FF00F71414141414141452
:100C2000F700F7141414171410101F101F141414C5
:100C3000F4141010F010F000001F101F0000001F2F
:100C400014000000FC140000F010F01010FF10FF62
:100C5000141414FF141010101F00000000F010FFF7
:100C6000FFFFFFFFF0F0F0F0F0FFFFFF00000000DB
:100C700000FFFF0F0F0F0F0F38444438447C2A2A1F
:100C80003E147E02020606027E027E026355494140
:100C9000633844443C04407E201E2006027E02024B
:100CA00099A5E7A5991C2A492A1C4C7201724C305F
:100CB0004A4D4D303048784830BC625A463D3E4936
:100CC0004949007E0101017E2A2A2A2A2A44445FDA
:100CD000444440514A444040444A51400000FF01CE
:100CE00003E080FF000008086B6B083612362436DC
:100CF000060F090F06000018180000001010003041
:100D000040FF0101001F01011E00191D1712003CC8
:100D10003C3C3C0000000000F0F89C8E8783878EEE
:100D20009CF8F00000FEFF0303030303070EFCF82A
:100D30000000FEFF0303030303070EFCF80000FF9F
:100D4000FF00000000000000FFFF0000FEFF8383A3
:100D5000838383C7EE7C380000F8FC0E070303038F
:100D6000070EFCF800003F7FE0C08080C0E07F3FBE
:100D7000FFFF01010101010101FFFF0000FFFF0C66
:100D80000C0C0C1C3E77E3C100007FFFC0C0C0C04C
:100D9000C0E0703F1F00001F3F70E0C0C0C0E070A7
:100DA0003F1F00007FFFC1C1C1C1C1E3773E1C00EE
:100DB000001F3F70E0C0C0C0E0703F1F0000000097
:100DC0000001FFFF01000000D5F08D14A1C881CF04
:100DD000D9F1AF200067616D65000080600806C131
:100DE00031896911018668020104040404050504BF
:100DF00004060000000000F0FCFEFE9F0F0F0F9E97
:100E00009E9C00FEFFFFFFFEFC000000000000F0C3
:100E1000FCFEFEFF3F3FFFFEFEFCF000FEFFFFFF7B
:100E2000FE00FEFFFFFFFE00FEFFFFFFFF3F3FFE55
:100E3000FEFCF000F8FEFFFFFFFEF800E0F8FCFE0D
:100E40007F3F7FFEFCF8E000000000000000030789
:100E5000070F0F0F0F07070300070F0F0F0F0F0FDD
:100E60000FCFCFC6C0C003C7C74F4F8F0F87C74331
:100E7000408001C7CF4F4F4F0FCFCF474140070FA3
:100E8000CFCFCF0F0F87C743404001070F0F0F078A
:100E90000100070F0F0F0606060F0F0F07000000D7
:100EA0000000000000000000000000000000000042
:100EB00000E0C080C0E000E0E00700E00047E7A2FB
:100EC000A625006767E2626700070701010000E7E7
:100ED000E7A1A12000E0E407040000C3E724E4C484
:100EE00000E080C080E00000000000000000000082
:100EF00000000000000000000000000000000000F2
:100F000000000000000000030103010300010302D0
:100F100002030002020303010000000300000000BE
:100F200000000000000303000000000303020202AF
:100F3000000103020301000301000103000000009F
:100F4000000000000000000000000000333000003E
:100F50000000000000008000000000000000000011
:100F6000000000000000000000001C3E3E7F7F7F6C
:100F70003E3E1C00000000000000000000000000D9
:100F80000000000000000080E08000000040E0F071
:100F9000E0E06000C0F0F0C01EEFEFFEF80080B8A7
:100FA000838300000000000000387CFCF8FC7C38E3
:100FB00000000000000000000101030F0301010018
:100FC000E0F0F1EFEFEFF3FCFDFDFCFEFEFDFDFFB9
:100FD000FFFFFFFFFFFFFEFEFCF0008080808081AE
:100FE0000000000000000000008080C080BCFEFF08
:100FF000FFFFFCFFFFFFFFFFFFE3E1E3FFFFBF7F1A
:101000007F7FBFFFFFE3E1E3FFFFFFFFFFFFFFFF86
:10101000FFFFFF3F9E80C0C080001E3F7F7F7F7F1D
:101020007F7F7F7FFFFFFFFFFFFF7F7F1F7FFFFF30
:10103000FFFFFFFFFFFFFFFFFFFF7F7FFFFFFFFFC0
:10104000FFFF7F3F67FFFFFFFFFF7F7F1F00000065
:10105000000000000000000000010101000000008D
:101060000000010101030303030303010100000069
:101070000000000000000000000000000000000070
:1010800000000000000000008000000000000000E0
:101090000000000000000000000000001C3E3E7F39
:1010A0007F7F3E3E1C0000000000000000000000AA
:1010B00000000000000000000080E0800000004010
:1010C000E0F0E0E06000C0F0F0C01EEFEFFEF800DE
:1010D00080B8838300000000000000387CFCF8FC2E
:1010E0007C3800000000000000000101030F030134
:1010F0000100E0F0F1EFEFEFF3FCFDFDFCFEFEFD83
:10110000FDFFFFFFFFFFFFFFFEFEFCF00080808081
:1011100080810000000000000000008080C080BCD2
:10112000FEFFFFFFFCFFFFFFFFFFFFE3E1E3FFFF29
:10113000BF7F7F7FBFFFF7FBFBFBF7FFFFFFFFFFDB
:10114000FFFFFFFFFF3F9E80C0C080001E3F7F7FEC
:101150007F7F7F7F7F7FFFFFFFFFFFFF7F7F1F7FFF
:10116000FFFFFFFFFFFFFFFFFFFFFFFF7F7FFFFF8F
:10117000FFFFFFFF7F3F67FFFFFFFFFF7F7F1F0036
:10118000000000000000000000000001010100005C
:101190000000000001010103030303030301010038
:1011A000000000000000000000000000000000003F
:1011B00000007468616E6B20796F75004F464600C1
:1011C0004F4E004D75736963004F66666963650035
:1011D0003C00546F67676C65005365727665727387
:1011E000002A8254000000570093825400000057E8
:1011F000003F8354000000570055845400000057FE
:1012000000AA885400000057007D86540000005753
:1012100000278554000000570055845400000057F3
:10122000002A8254000000570093825400000057A7
:10123000003F8354000000570055845400000057BD
:1012400000AA885400000057007D86540000005713
:1012500000278554000000570055845400000057B3
:10126000009F815400000057006E82540000005718
:10127000003F83540000005700DC835400000057F7
:1012800000B8875400000057007D865400000057C6
:1012900000DD845400000057003F835400000057D5
:1012A000009F815400000057006E825400000057D8
:1012B000003F83540000005700DC835400000057B7
:1012C00000B8875400000057007D86540000005786
:1012D00000DD845400000057003F83540000005795
:1012E00000B8815400000057002A825400000057C3
:1012F0000093825400000057007083540000005790
:1013000000E0865400000057002785540000005775
:1013100000558454000000570070835400000057AB
:1013200000B8815400000057002A82540000005782
:10133000009382540000005700708354000000574F
:1013400000E0865400000057002785540000005735
:10135000005584540000005700708354000000576B
:10136000004A81540000005700EE815400000057ED
:101370000093825400000057003F83540000005740
:10138000007D865400000057002785540000005758
:1013900000DC835400000057009382540000005783
:1013A000004A81540000005700EE815400000057AD
:1013B0000093825400000057003F83540000005700
:1013C000007D865400000057002785540000005718
:1013D00000DC835400000057009382540000005743
:1013E000004A81540000005700D281540000005789
:1013F000004B825400000057003F83540000005708
:10140000007D865400000057009784540000005768
:1014100000A483540000005700938254000000573A
:10142000004A81540000005700D281540000005748
:10143000004B825400000057003F835400000057C7
:10144000007D865400000057009784540000005728
:1014500000A48354000000570093825400000057FA
:101460000037815400000057002A825400000057C2
:10147000001083540000005700A48354000000575C
:101480000049875400000057002086540000005790
:101490000055845400000057006E8254000000572D
:1014A0000037815400000057002A82540000005782
:1014B000001083540000005700A48354000000571C
:1014C0000049875400000057002086540000005750
:1014D0000055845400000057006E825400000057ED
:1014E000009F815400000057002A825400000057DA
:1014F0000093825400000057003F835400000057BF
:10150000007D8654000000570027855400000057D6
:101510000055845400000057003F835400000057DA
:10152000009F815400000057002A82540000005799
:101530000093825400000057003F8354000000577E
:10154000007D865400000057002785540000005796
:101550000055845400000057003F8354000000579A
:10156000009F815400000057006E82540000005715
:1015700000E4825400000057001784540000005714
:10158000002D88540000005700C885540000005703
:1015900000DD845400000057003F835400000057D2
:1015A000009F815400000057006E825400000057D5
:1015B00000E48254000000570017845400000057D4
:1015C000002D88540000005700C8855400000057C3
:1015D00000DD845400000057003F83540000005792
:1015E000002A8254000000570093825400000057E4
:1015F000003F8354000000570055845400000057FA
:1016000000AA885400000057007D8654000000574F
:1016100000278554000000570055845400000057EF
:10162000002A8254000000570093825400000057A3
:10163000003F8354000000570055845400000057B9
:1016400000AA885400000057007D8654000000570F
:101650000027855400000057005584540001805332
:10166000657474696E6773003C0042757900536558
:101670007276657273002B00206D6178002078000F
:101680000407F106E206D206C106B1069C068906E9
:101690007B066A062F003E003C00427579005570BB
:1016A000677261646500304848360F0F064F666602
:1016B00069636500307878360909064361706163B3
:1016C00069747900427579005570677261646500CC
:1016D0005A810081008100810081008100818100A8
:1016E00081008100810081008100815A0F0F0F0E5F
:1016F0004C564C20004275790028300000FEFFFF58
:101700000707070707070707070707070707070769
:101710000707070707070707070707070707FFFF69
:10172000FE00000000FFFFFF0000000000000000BE
:1017300000000000000000000000000000000000A9
:10174000000000000000FFFFFF00000000FFFFFF9F
:101750000000000000000000000000000000000089
:101760000000000000000000000000000000FFFF7B
:10177000FF00000000FFFFFF00000000000000006D
:101780000000000000000000000000000000000059
:10179000000000000000FFFFFF00000000FFFFFF4F
:1017A0000000000000000000000000000000000039
:1017B0000000000000000000000000000000FFFF2B
:1017C000FF000010181F1F1F17070707070707074D
:1017D0000707070707070707070707070707070799
:1017E0000707070707171F1F1F18100000660101D2
:1017F00000000101000001010000010100000101E1
:1018000000000101000001010000010100000101D0
:1018100066000000006600000000000000000000FC
:1018200000000000000000000000000000000000B8
:1018300000000000000000006600000000660000DC
:1018400000000000F8F82828F8D00000F0F00000B0
:10185000F0F0000070F08080F0F000000000000068
:1018600066000000006600000000000001010101A8
:10187000010000000001010101010000000202025C
:101880000301000000000000660000000066000088
:101890000000000000000000000000000000000048
:1018A0000000000000000000000000000000000038
:1018B000660000000006080800000808000008088C
:1018C00000000808000008080000080800000808D8
:1018D00000000808000008080600004F5645524C5A
:1018E0004F414400150A150A150A150A150A150A6A
:1018F000150A150A150A150A150A150A150A150AF0
:10190000150A150A150A150A150A150A150A150ADF
:10191000150A150A631308646321000F10100F00E5
:101920001C07001F0204021F322A7F2A26080B0010
:101930000202020000090400000102020000052466
:1019400000100105240101010424020605240600FB
:10195000010705810310004009040100020A00008C
:101960000007050202400000070583024000000452
:1019700003090412010002EF0201404123368000F6
:10198000010102030141726475696E6F204C4C4382
:101990000041726475626F7900090F060600541DDC
:1019A00011241FBECFEFDAE0DEBFCDBF11E0A0E013
:1019B000B1E0EAEBFFE502C005900D92A43CB1074F
:1019C000D9F726E0A4ECB1E001C01D92A33AB2071A
:1019D000E1F71CE0C0EDDCE004C02197FE010E94AD
:1019E000E32DCF3CD107C9F70E94911D0C94DB2F4A
:1019F0000C9400008091EC0108956F927F928F9279
:101A00009F92AF92BF92CF92DF92EF92FF920F938D
:101A10001F93CF93DF93DC01FA0114913196549117
:101A20003196C12FD0E0222309F1CC24C394D12CCC
:101A3000852F877011F4D12CC12CE52EE694E69405
:101A4000E694EC0CFD2CF11CEC9EC001ED9E900D7B
:101A5000FC9E900D1124033011F4880F991F289FCC
:101A60007001299FF00C1124EE0DFF1D7D01EC0E7D
:101A7000FD1E1E141F040CF06BC0A038B1050CF045
:101A800067C0CB01850F911D181619060CF060C0B8
:101A9000603471050CF05CC0309709F459C0362FE2
:101AA0003770CB0177FD079623E0959587952A95AA
:101AB000E1F7282F77FF04C0332311F02FEF280F11
:101AC000662777276A1B7B0BB7FD02C070E060E0DA
:101AD00090E89A1B40E8E416F1040CF4912F961B51
:101AE000E22E022E000CFF08DE2CD0942F3F0CF0CB
:101AF000D12C41E0852F877009F440E0B52EB694D3
:101B0000B694B6944B0DE40EF11C89E0E816F1048E
:101B100014F048E0421BB42EBD182D0D40E82403FC
:101B200070011124AE0DBF1DA60FB71F1D9D600DC6
:101B3000711D1124AF01460F571FC32E032E000C39
:101B4000DD08033009F4C7C090F4023009F474C012
:101B5000DF91CF911F910F91FF90EF90DF90CF9089
:101B6000BF90AF909F908F907F906F9008950A3FA5
:101B7000A1F1B20E0B3F61F72B1551F3BD016F5C64
:101B80007D4F10E000E0091708F09FC0FA01E00F58
:101B9000F11FE491F0E04F010C2C02C0880C991C5D
:101BA0000A94E2F727FD06C0FB018081F82CF0942F
:101BB0008F218083332361F0273054F47B01F0E8D8
:101BC000EF0EF11CA92CA094F70180818A2180835B
:101BD0000F5F1F4F6F5F7F4FD6CFB20E2B1509F4EB
:101BE000B7CFBD016F5C7D4F10E000E0091708F032
:101BF00066C0FA01E00FF11FE491F0E04F010C2CF8
:101C000002C0880C991C0A94E2F727FD04C0FB016E
:101C1000808188298083332351F0273044F47B016D
:101C2000F0E8EF0EF11CF7018081892980830F5FB6
:101C30001F4F6F5F7F4FDACF6FEF70E0032E02C050
:101C4000660F771F0A94E2F760957095972E8B2C9C
:101C5000820E281509F47CCF8D010F5C1D4FF12CED
:101C6000E12CE91630F5FA01EE0DFF1DE491F0E0EC
:101C70003F010C2C02C0660C771C0A94E2F727FD8A
:101C800005C0F8018081862386298083332359F09B
:101C900027304CF45801F0E8AF0EB11CF5018081FB
:101CA000892187298083FFEFEF1AFF0A0F5F1F4FFB
:101CB000D8CF2F5F4C0F5D1FA058BF4FCACF2F5FEB
:101CC0004C0F5D1FA058BF4F89CF2F5F4C0F5D1F7A
:101CD000A058BF4F51CFE92EF12CFA01E60FF71FA4
:101CE000AF5CBD4F60E870E06E197F09CE19DF0967
:101CF0008E01000F111F41E050E07A01032E01C058
:101D0000EE0C0A94EAF7592F4B2D892E932ECF9380
:101D1000DF93ED01EF96EF962296A590C59099205E
:101D200059F0AE9C5001CE9C600127302CF4F88015
:101D3000D094FD20FB28F99222233AF0FC90C09425
:101D4000FC20FA28FD920C94A60E11965A9529F7BC
:101D50004A9551F0582D23951124E00FF11DA60F3F
:101D6000B11DC60FD11DD9CFDF91CF911124F0CE77
:101D7000480F592F511D1416150684F5803891050A
:101D80006CF597FF02C090E080E04138510514F0F7
:101D900040E850E0481BFB01E770FF2721E001C04D
:101DA000220FEA95EAF777FF02C0695F7F4FFB01D8
:101DB00033E0F595E7953A95E1F7F695FE2FEE2796
:101DC000F795E795E80FF91FEF5CFD4F415030F0B4
:101DD0008191DF011197822B8C93F8CF08954F9258
:101DE0005F926F927F928F929F92AF92BF92CF92AB
:101DF000DF92EF92FF920F931F93CF93DF9330E028
:101E0000F901E80FF91F1E161F060CF07FC080387D
:101E100091050CF07BC0802E912CF401E60FF71F8A
:101E20001E161F060CF072C0603471050CF06EC0F7
:101E3000E62FE7707E2EF7E08F0E911CE3E095947D
:101E40008794EA95E1F7F3E075956795FA95E1F7E0
:101E5000062E000C770BDB01B695BA2FAA27B79593
:101E6000A795A80FB91FAF5CBD4FEA0110E000E0D5
:101E70007801E60EF71E48E0E416F1040CF046C0C7
:101E8000EFEFEE16FE06C4F150E040E05D01F0E831
:101E9000AF0EB11C421753077CF5FA01E80FF91F8A
:101EA000E038F1054CF5F7FD24C0FA01EC0FFD1FF9
:101EB000E491F0E02F01072C02C0440C551C0A9459
:101EC000E2F7EFEFEE16FE0691F16D01C40ED51E9E
:101ED000F601608064286082772059F0F7E0EF1601
:101EE000F10439F06501C40ED51EF6016080652845
:101EF00060824F5F5F4FCECF0F5F1F4FA058BF4F25
:101F0000C20FD31F8016910609F0B2CFDF91CF9197
:101F10001F910F91FF90EF90DF90CF90BF90AF9007
:101F20009F908F907F906F905F904F900895711069
:101F3000D9CFDFCFE1E3F2E0A0E0B8E000800EBC53
:101F40008111012C1197A0FDFDCF0192B9F70DB4BD
:101F500008950F93682F70E008E025E049E959E102
:101F600090E080E00E94EF0E0F910895FC018091B7
:101F70003002882311F13FB7F89482E08093E900A2
:101F80002091F200822F90E01816190614F481E0D7
:101F900090E0882339F0289844E640932F0240913E
:101FA000F1004083222339F02091F200211103C077
:101FB0002BE62093E8003FBF08958FEF9FEF089531
:101FC0002FB7F89483E08093E9009091E800892F7F
:101FD000807295FF04C09091F20080E4891B2FBFAE
:101FE00008958091270281110DC082E08093230221
:101FF00084E080932402109226021092250281E050
:102000008093270283E292E00895CF93DF931F929B
:10201000CDB7DEB76983DC01ED91FC910280F381DD
:10202000E02D41E050E0BE016F5F7F4F09950F90BA
:10203000DF91CF91089583E08093E9008091F200D1
:10204000882319F08AE38093E80008950E94E00F46
:1020500090E00895CF93DF931F92CDB7DEB7FC01D8
:102060008485958597FD08C02FEF3FEF358724873E
:102070000F90DF91CF910895CE0101960E94B60F87
:10208000019719F4898190E0F3CF8FEF9FEFF0CFA4
:102090000F931F93CF93DF931F92CDB7DEB78C01C1
:1020A000FC018485958597FF0BC0CE0101960E94A7
:1020B000B60F019771F4898190E0F80195878487C4
:1020C000F801848595850F90DF91CF911F910F9135
:1020D00008958FEF9FEFF1CFFC018485958597FDE3
:1020E0000BC09FB7F89482E08093E9008091F200E2
:1020F0009FBF90E0019608959FB7F89482E0809387
:10210000E9008091F2009FBF90E0089540911D0288
:1021100050911E0220911B0230911C02421753075E
:10212000B4F49091E8009570E1F39091E80092FD8D
:1021300019C08093F10080911D0290911E020196BA
:102140008F739927892B19F48EEF8093E800809183
:102150001D0290911E02019690931E0280931D0213
:1021600081E0089580E00895DF92EF92FF920F934F
:102170001F93CF93DF93D82E8A01EB017B01E40EEE
:10218000F51ECE15DF0559F0D7FE12C0FE01849171
:102190000E94861021968111F4CF0FEF1FEFC80126
:1021A000DF91CF911F910F91FF90EF90DF900895F5
:1021B0008881EECF0F931F93CF93DF931F92CDB7FC
:1021C000DEB782E0898342E450E06DE279E180E8A5
:1021D0000E94B4100E94F10FDC0112960D911C9127
:1021E0000115110589F0D801ED91FC910280F38170
:1021F000E02DBE016F5F7F4FC801099597FD04C0B8
:10220000F80100851185ECCF89810F90DF91CF9186
:102210001F910F910895615030F02091F100FC0161
:1022200020830196F8CF289884E680932F020895A2
:10223000FC010E94AF11319728F068517C4F8F4FFD
:102240009F4FF9CFAB01FC010E94AF1164177507D6
:102250008E079F07C8F308958F929F92AF92BF9207
:10226000CF92DF92EF92FF920F931F93CF93DF9362
:102270006C017B018A0180918601882309F45AC090
:1022800080913002882309F455C08091220280FF9A
:1022900005C08091E00082608093E000E801B12CED
:1022A0008AEFA82E93E0892E2AE3922E209711F42C
:1022B000BB20C9F10E94E00F811108C0AA94AA2096
:1022C000C9F181E090E00E941811F0CF8C171D0633
:1022D00011F00CF08C2F9FB7F8948092E9002091B8
:1022E000E80025FD02C09FBFE1CF282F30E0C21BD0
:1022F000D30BF701815020F041914093F100FACFC8
:10230000E20EF31EBB2021F09092E800B12CEBCF3F
:102310008091E80085FDE7CF9092E800BB24B3945C
:10232000209709F3F3CF5D9884E68093210210167D
:1023300011063CF081E090E0F6019383828310E087
:1023400000E0C801DF91CF911F910F91FF90EF90B6
:10235000DF90CF90BF90AF909F908F900895A7E1AE
:10236000B2E02FB7F8947D918D919C9166B52FBF07
:10237000A89B05C06F3F18F47F5F8F4F9F4F22E0EF
:10238000660F771F881F991F2A95D1F70895AF927E
:10239000BF92CF92DF92EF92FF920F931F93CF9352
:1023A000DF936C017B018B01040F151FEB015E01B4
:1023B000AE18BF08C017D10759F06991D601ED9149
:1023C000FC910190F081E02DC6010995892B79F7E8
:1023D000C501DF91CF911F910F91FF90EF90DF909A
:1023E000CF90BF90AF900895FC01448155816081EA
:1023F000718181E996E00C94C7112091FB01E09175
:10240000F901F091FA01CF0102969093FA018093BD
:10241000F901222319F08591949108958081918189
:102420000895E1E7F0E080818D7F80831092910034
:10243000469847981092E1010895CF92DF92EF926B
:10244000FF92CF93DF930E94FD11811520E8920740
:1024500041F4DF91CF91FF90EF90DF90CF900C94FB
:10246000111221E02093E101813020E8920751F41C
:102470008091F7019091F8019093FA018093F9010E
:102480000E94FD1197FD05C02091E001222309F46F
:102490005BC02091DF01211157C021E02093E201B0
:1024A000EC01DF77209709F052C081E08093E301CF
:1024B00046983FE9C32E3FE0D32EE12CF12CCAEF22
:1024C000D0E0E0918F06F09190060995811103C04C
:1024D00081E08093E3018091E201882329F08091DB
:1024E000E301882309F446C047980E94FD11009734
:1024F00009F444C09C01DE010E94352BDC01CB01B4
:1025000029E0B595A795979587952A95D1F71092CB
:1025100090002AE020939100D0929900C0929800F8
:102520008093E4019093E501A093E601B093E70165
:1025300080917100826080937100DF91CF91FF9054
:10254000EF90DF90CF9008951092E201A9CF9E0105
:1025500050E040E060E472E48FE090E00E94B22A34
:1025600069017A0181E0C81AD108E108F1081092E6
:10257000E301A7CF4699B8CF479AB7CF8FEF9FEF28
:10258000DC01C5CF0F9302E00E94FD0C0F9108956E
:1025900090E00C9418118FB18095807F669B8860C5
:1025A0001C9B846008953E9A3F9A81E08093EC01E1
:1025B000089590E0E1E3F2E091119FEF8FEF9193A6
:1025C0009193919391938150D0F71092E9011092D9
:1025D000E8011092EB011092EA0108959091040233
:1025E000982329F490910502982381E009F480E072
:1025F000089580E00C949A0F80389105B8F4603407
:102600007105A0F490E121E061FD24E060FD220F5E
:1026100062FD2295687F969FD0011124A80FAF5CC0
:10262000BD4F0C90022A40FF02260C9208952F9273
:102630003F924F925F926F927F928F929F92AF9252
:10264000BF92CF92DF92EF92FF920F931F93CF939F
:10265000DF937C014B01C42FD0E081E090E06C015E
:10266000CC1ADD0AAA24BB24AC1ABD0AAA0CBB1CD6
:1026700066246394712C10E000E0822F8470582E41
:10268000822F8270482E822F8870382E2170222E41
:10269000D7FC06C0219782E0A80EB11CCA0CDB1C37
:1026A0000F5F1F4F82E0680E711CC60CD71C5520AF
:1026B00091F041E0BE01680D791DC701800F911FA7
:1026C0000E94FC1241E0B401600F711FCE018E0D1B
:1026D0009F1D0E94FC12442091F041E0B4016C1B4C
:1026E0007D0BC701800F911F0E94FC1241E0B401D5
:1026F000601B710BCE018E0D9F1D0E94FC123320BA
:1027000091F041E0B401600F711FC7018C1B9D0B5C
:102710000E94FC1241E0BE01680D791DC701801BBB
:10272000910B0E94FC12222091F041E0B401601B49
:10273000710BC7018C1B9D0B0E94FC1241E0B40180
:102740006C1B7D0BC701801B910B0E94FC120C17A8
:102750001D070CF49DCFDF91CF911F910F91FF903A
:10276000EF90DF90CF90BF90AF909F908F907F9031
:102770006F905F904F903F902F9008952F923F92CF
:102780004F925F926F927F928F929F92AF92BF9281
:10279000CF92DF92EF92FF920F931F93CF93DF932D
:1027A000EC018B017A016901C61AD70AD7FE03C072
:1027B000D194C194D10847018C1A9D0A97FE03C099
:1027C0009194819491088C149D0454F49E2D8F2D26
:1027D0007901292F382F9C2F8D2FE801092F182FD1
:1027E000EC16FD0654F4902F812F8901292F382FE4
:1027F0009C2F8D2FE701E92EF82E17012C1A3D0A88
:102800002901401A510A57FE03C0519441945108BE
:10281000310137FE03C08FEF681A780A7594679408
:102820008FEF021713070CF481E0A82E880FBB0866
:10283000EC16FD06A4F041E0BE01C8018C149D0415
:1028400014F0B801CE010E94FC126418750877FEDE
:1028500004C00A0D1B1D620C731C2196E9CFDF9189
:10286000CF911F910F91FF90EF90DF90CF90BF908D
:10287000AF909F908F907F906F905F904F903F9020
:102880002F9008958F929F92AF92BF92CF92DF9236
:10289000EF92FF920F931F93CF93DF936D3089F0E8
:1028A000C090E801D090E9016A30D1F41092EB01B8
:1028B0001092EA0188E0C80ED11CD092E901C092C2
:1028C000E80181E090E0DF91CF911F910F91FF909F
:1028D000EF90DF90CF90BF90AF909F908F90089532
:1028E0000091EA011091EB01E5E06E9FE0011124F7
:1028F000C85ED74F4801F12CF5E0E12CFF1629F016
:10290000CE010196FE01E490EC01B12CA12C4E2DDC
:102910004170B6016A0D7B1DC4010E94FC12E69451
:10292000FFEFAF1ABF0A88E0A816B10481F7F3944D
:10293000EFEF8E1A9E0AF6E0FF12DECF0A5F1F4FFE
:102940001093EB010093EA01BCCFDF92EF92FF926C
:102950000F931F93CF93DF937C01D22E8B01040F33
:10296000111DEB0177FF02C0D0E0C0E0C8010134C7
:10297000110514F080E490E0C817D9073CF44D2D00
:10298000BE01C7010E94FC122196F0CFDF91CF91CA
:102990001F910F91FF90EF90DF9008952F923F923B
:1029A0004F925F926F927F928F929F92AF92BF925F
:1029B000CF92DF92EF92FF920F931F93CF93DF930B
:1029C00000D000D0CDB7DEB75C012B012A83242FC5
:1029D00030E03C832B8381E090E07C01E21AF30A33
:1029E0001901319421943108220C331C88248394DA
:1029F000912CD12CC12C31E0300F3983F7FC0AC067
:102A0000EB81FC813197FC83EB83F2E02F0E311CCC
:102A1000E20CF31C2FEFC21AD20A32E0830E911C93
:102A2000E80CF91C4B81440FB2018B819C81681B1F
:102A3000790B102F180D32016C187D089A81913096
:102A400069F5E9814E0F20E0C5018C0D9D1D0E94A6
:102A5000A51420E0412FB3018B819C818A0D9B1D21
:102A60000E94A5148B819C81C816D9063CF20F9058
:102A70000F900F900F90DF91CF911F910F91FF90CA
:102A8000EF90DF90CF90BF90AF909F908F907F900E
:102A90006F905F904F903F902F900895F9814F0F66
:102AA00020E0C5018C199D090E94A51420E0412F4A
:102AB000B301C501EB81FC818E1B9F0BD1CFDF924F
:102AC000EF92FF920F931F93CF93DF937B01D22E50
:102AD000EC018C01040F111DC017D10744F420E054
:102AE0004D2DB701CE010E94A5142196F5CFDF919F
:102AF000CF911F910F91FF90EF90DF9008955F921B
:102B00006F927F928F929F92AF92BF92CF92DF92FD
:102B1000EF92FF920F931F93CF93DF93EC017B0112
:102B2000142F722E602E660C542E5618802E912C67
:102B30005401A80EB91E6034710520F4452DC5015D
:102B40000E94B80E6701C70CD11CB6016150710913
:102B50006034710520F4452DC5010E94B80E761829
:102B6000E80CF91C21E0472DB701CE010E94A51405
:102B7000C10FD11D21E0472DB701CE0101970E9461
:102B8000A51421E0402FB701C5010E941713C819F1
:102B9000D909219722E0402FB701CE010E941713D7
:102BA000C818D90881E0C81AD10824E0402FB6011E
:102BB000CE010E94171328E0402FB601C501DF9116
:102BC000CF911F910F91FF90EF90DF90CF90BF902A
:102BD000AF909F908F907F906F905F900C941713A1
:102BE0002091FF0184E0289F9001112441E090E0B2
:102BF00080E0FC01E20FF31FE959FE4F50815111B3
:102C000040E0019684309105A1F74093FE010895BC
:102C10008F929F92AF92BF92CF92DF92EF92FF92EC
:102C20001F93CF93DF9310920302E2E0F1E086E678
:102C300091E0812C912C5401839424813581820E62
:102C4000931EA11CB11C3A968E179F07B1F7809274
:102C50000A0290920B02A0920C02B0920D02F09127
:102C6000730127E631E0C0E0C12CD12C7601D0E021
:102C700012E1FD17D9F090E080E0D901A80FB91F4B
:102C8000EC91E19FA0011124052E000C660B770B3F
:102C9000C40ED51EE61EF71EE111CF5F01968430EB
:102CA000910559F7DF5F2C5F3F4FE3CFC0920602DB
:102CB000D0920702E0920802F0920902C093C40188
:102CC000A4E6B0E0A50194010E94D12A9601A701D3
:102CD000C114D104E104F10421F421E030E040E02A
:102CE00050E00E94132B30930202209301022F3BED
:102CF0003105B0F081E080930302B694A7949794D5
:102D000087948BE088169104A104B10408F044C0B4
:102D100080920A0290920B02A0920C02B0920D02D5
:102D20008EEEC81682E0D806E104F10428F0D23015
:102D300018F483E080937301C53038F08091660108
:102D4000863018F489E08093660190913C0180916F
:102D50003D019817A8F0909146018091470198177E
:102D600078F09091500180915101981748F090911E
:102D70005A0180915B01981718F08AE080936601F0
:102D8000DF91CF911F91FF90EF90DF90CF90BF9098
:102D9000AF909F908F9008958AE090E0A0E0B0E01F
:102DA00080930A0290930B02A0930C02B0930D0241
:102DB000B7CF0F93CF93DF93EC019E816A3059F424
:102DC0008D818C836985960F9E8381E090E0DF91F1
:102DD000CF910F910895262F61E0690F2A3398F45F
:102DE000203398F52B3299F140F42132A1F19885E6
:102DF0009D5F8C81890F8C83E8CF2E3251F12F3269
:102E0000B1F723E40FC02B3540F42134E0F42C3328
:102E100021F12E3361F721E405C08FE9820F275499
:102E20008A3128F7062E000C770B8C81082E000CB7
:102E3000990B3F810AEF313009F00BEF43E157E086
:102E40000E94FD0CD4CF2154EDCF2C5FEBCF20E4BA
:102E5000E9CF2FE3E7CF2EE3E5CF22E4E3CF0F93D3
:102E60001F93CF93DF938C01D0E0C0E0F801EC0F0B
:102E7000FD1F6491662341F081E996E00E94D91616
:102E8000892B11F02196F2CFCE01DF91CF911F91C6
:102E90000F910895089590E080E008958F929F9299
:102EA000AF92BF920F931F93CF93DF93CDB7DEB74F
:102EB000A1970FB6F894DEBF0FBECDBF19A2423066
:102EC00008F44AE08E010F5D1F4F842E912CB12C27
:102ED000A12CA50194010E94132BE62FB901CA0170
:102EE000EA3044F5E05DD801EE938D01232B242BCD
:102EF000252B79F790E080E0109769F0FD010190B3
:102F00000020E9F73197AF014A1B5B0BBD0181E956
:102F100096E00E94C711A1960FB6F894DEBF0FBECF
:102F2000CDBFDF91CF911F910F91BF90AF909F9038
:102F30008F900895E95CD7CFAF92BF92CF92DF9286
:102F4000EF92FF920F931F93CF93DF93CDB7DEB72E
:102F5000C054D1090FB6F894DEBF0FBECDBF90911B
:102F6000F501BB24B3949111A9C0E82EF12C97016F
:102F70002B533E4F6901F901B080B1109FC091E021
:102F8000909300029091F401953608F0AAC09F5FDB
:102F90009093F401A82E22E349E666E070E08DE00C
:102FA00090E00E945F1507E210E021E045E06BE051
:102FB00070E085E790E00E94CE1422E045E06BE0EF
:102FC00070E08DE090E00E94CE1405E022E343E73C
:102FD00065E070E088E090E00E947F15F5E0FA156A
:102FE000C8F420E04CE45FE062E170E08AE590E044
:102FF0000E94C2124091F4014B3508F04AE550E0BE
:103000004C5E5F4F24E330E064E370E08CE090E0DE
:103010000E94BE138BE0809396068093950688E00D
:1030200080939706F701EE0FFF1FEC51F84F659163
:1030300074918E010F5F1F4FC8010E943527F80160
:1030400001900020E9F73197AF01401B510BB80107
:1030500081E996E00E94C71128E040E868E370E04B
:1030600090E080E00E945F1508E027E046EA56E124
:1030700069E370E08AE590E00E94EF0E84E68093B9
:1030800096068093950689E38093970681EE97E0F4
:103090000E942F1784E00E94EE12882321F1909164
:1030A000F401933358F01092000291E0F6019083FE
:1030B0001092F40196E99093F501B82E8B2DC05C27
:1030C000DF4F0FB6F894DEBF0FBECDBFDF91CF91BB
:1030D0001F910F91FF90EF90DF90CF90BF90AF9036
:1030E000089594E655CFB12CE9CF0F931F93CF935A
:1030F000DF93EC0188819981009759F02A813B8107
:103100002617370730F081E0DF91CF911F910F91A3
:1031100008958B016F5F7F4F0E940E2F009759F02B
:10312000998388831B830A832C813D81232B59F744
:10313000FC011082E8CF80E0E7CFCF93DF93EC0172
:1031400088819981009711F00E94852E198218823A
:103150001D821C821B821A82DF91CF910895EF920B
:10316000FF920F931F93CF93DF938C017B01FB01A1
:1031700001900020E9F73197E61BF70BD1F0DC0155
:103180001496CD91DC91CE0FDF1FBE010E94751801
:103190008823B9F0F8012081318184819581B701BC
:1031A000820F931F0E94D42FD8011596DC93CE93E3
:1031B0001497C801DF91CF911F910F91FF90EF906D
:1031C0000895C8010E949D18F4CFEF92FF920F93CB
:1031D0001F93CF93DF93EC017B018A01BA010E9418
:1031E000751881110BC0CE010E949D18CE01DF9190
:1031F000CF911F910F91FF90EF9008951D830C8345
:10320000B701888199810E94D42FF0CFEF92FF926D
:103210000F931F93CF93DF93CDB7DEB7A1970FB670
:10322000F894DEBF0FBECDBF7C01CB01BA01F70120
:103230001182108213821282158214828E010F5F16
:103240001F4F21E043E00E9417270097C9F0FC01BF
:1032500001900020E9F73197AF01481B590BBC01E1
:10326000C7010E94E518A1960FB6F894DEBF0FBE05
:10327000CDBFDF91CF911F910F91FF90EF900895F7
:10328000C7010E949D18EFCFFB01DC0111961C9233
:103290001E9213961C921E92129715961C921E92C5
:1032A00014978617970749F0608171816115710540
:1032B00021F0448155810C94E5180895FC0180812A
:1032C0009181009711F00C94852E0895CF92DF9292
:1032D000EF92FF92CF93DF93CDB7DEB72C970FB667
:1032E000F894DEBF0FBECDBF6B017C0128EEC21685
:1032F00023E0D206E104F10480F44AE00E944E1774
:103300002C960FB6F894DEBF0FBECDBFDF91CF91E4
:10331000FF90EF90DF90CF9008950E949D2920E4C8
:10332000C21622E4D2062FE0E206F10420F520E0E6
:1033300030E04AE754E40E94442BAB01BC01CE01CB
:1033400001960E940619BE016F5F7F4FCE0107965E
:103350000E9444196EEB71E0CE0107960E94AF18EF
:103360000E94F411CE0107960E945E19CE010196CB
:103370000E945E19C5CFC1142AECD2062AE9E206E2
:103380002BE3F206B0F420E034E244E759E40E9473
:10339000442BAB01BC01CE0101960E940619BE016F
:1033A0006F5F7F4FCE0107960E94441960EC71E079
:1033B000D3CF28E23BE64EE65EE40E94442BAB010D
:1033C000BC01CE0101960E940619BE016F5F7F4FBE
:1033D000CE0107960E94441962EC71E0BDCF1F92A6
:1033E0000F920FB60F9211248F939F938091E1005B
:1033F0009091E100937F9093E10083FF0FC01092C2
:10340000E90091E09093EB001092EC0092E390932E
:10341000ED001092300298E09093F00082FF22C0FD
:1034200093E09093E9009091F200992319F09AE3C8
:103430009093E80090912102992341F0909121020C
:10344000915090932102911101C05D9A90912F02A9
:10345000992341F090912F02915090932F02911156
:1034600001C0289A84FF18C08091E2008E7E81609E
:103470008093E2008091E1008F7E8093E100809153
:1034800022028E7E8061809322029F918F910F9005
:103490000FBE0F901F90189580FFF7CF8091E2002C
:1034A0008E7E80618093E2008091E1008E7E809329
:1034B000E100809122028E7E8160E5CF1F920F9203
:1034C0000FB60F921124CF92DF92EF92FF920F93DB
:1034D0001F932F933F934F935F936F937F938F939C
:1034E0009F93AF93BF93EF93FF93CF93DF93CDB7AA
:1034F000DEB76C97DEBFCDBF1092E9008091E80087
:1035000083FF25C068E0CE0145960E940B1182EF33
:103510008093E8008D8987FF39C09091E80090FF83
:10352000FCCF982F907609F034C19E894F89588D31
:103530002F89F88C911131C0803861F5809120027B
:103540008093F1001092F1008EEF8093E8006C966A
:103550000FB6F894DEBF0FBECDBFDF91CF91FF91C4
:10356000EF91BF91AF919F918F917F916F915F91FB
:103570004F913F912F911F910F91FF90EF90DF900E
:10358000CF900F900FBE0F901F9018959EEF9093C5
:10359000E800C7CF1092F100D5CF913059F48111D6
:1035A000D3CF4130510581F6809120028D7F8093E9
:1035B0002002CACF933049F48111C6CF4130510562
:1035C00019F6809120028260F2CF953041F480910B
:1035D000E80080FFFCCF20682093E300B5CF963051
:1035E00009F0A9C00B8D1C8D22E01092E900109209
:1035F0001E0210921D02F2122EC010921C02109296
:103600001B020E94DA101F8299E09983FA8291E0EE
:103610009E8390EA98879AEF998720911D023091B6
:103620001E02275F3F4F3C832B838D831092E9005E
:1036300010921E0210921D0210931C0200931B0296
:1036400049E050E0BE016F5F7F4F80E00E94B41000
:103650000E94DA1079CF10931C0200931B020E9483
:10366000F10FDC0112960D911C910115110509F461
:1036700051C1D801ED91FC910480F581E02DBE018E
:103680006B5E7F4FC8010995009709F03EC1F801B4
:1036900000851185EACFF3E0FF120EC08F898823E1
:1036A00009F440C0823061F440E867E081E999E1C3
:1036B0000E94211D811148CF81E28093EB0047CF0A
:1036C000813029F440E86BE085E899E1F1CF83305F
:1036D00099F70E94F10FDC011296ED90FC908E019B
:1036E0000F5F1F4F6801E114F10479F0D701ED91EC
:1036F000FC910680F781E02DB801C7010995080FFC
:10370000111DF701E084F184EECFD8011C92F6017F
:1037100001900020E9F73197BF016C197D0940E065
:10372000C601C6CF6FE679E1FB01449150E080E825
:103730000E94B41009CF973009F4BECF983021F41D
:1037400081E08093F10000CF993009F0FDCE8370C5
:1037500009F0B2CFEEE8F1E081E031E096E32191AB
:10376000222371F08093E9003093EB00DF01119781
:103770002C912093EC009093ED008F5F873079F7C8
:103780008EE78093EA001092EA008F8980933002DE
:10379000DBCE8B8D9C8D1092E90010921E02109250
:1037A0001D0290931C0280931B02898D811192C08F
:1037B0008E899D89913A49F4813209F07DCF47E0A5
:1037C00050E06FE771E080E0B3CF913209F074CF41
:1037D000833269F48F89988DB0E0A0E080937B01FB
:1037E00090937C01A0937D01B0937E01ADCE803299
:1037F00069F48091E80082FFFCCF67E08FE791E0F9
:103800000E940B118BEF8093E8009ECE823209F06C
:103810009BCE8F8980938601EEEFFFE7859194918F
:103820008B3F9C4D51F1E0E0F8E080917F01909159
:103830008001A0918101B0918201803B9440A1055B
:10384000B105F1F48091860180FD1AC0EE3F8AE057
:10385000F80789F587E797E7918380838091600077
:1038600080931F0288E19BE00FB6F894A89580939F
:1038700060000FBE9093600067CEEEEFFAE0D5CF08
:10388000808191818737974709F05ECEA895809116
:10389000600088618093600080911F0280936000C7
:1038A000EE3F2AE0F20789F08091FE0A9091FF0A2C
:1038B0009183808349CE808191818737980751F227
:1038C0009093FF0A8093FE0AC5CF1092FF0A1092D0
:1038D000FE0A3ACE0E94F10FDC0112960D911C9166
:1038E0000115110509F4E8CED801ED91FC91019084
:1038F000F081E02DBE016B5E7F4FC80109958111FB
:1039000023CEF80100851185EBCF181619060CF4AB
:103910001BCED2CEF1E0FF12BECE63E779E104CF39
:103920000F920FB68F939F93EF93FF9380911202A4
:103930008D5F8D3708F08D5780931202E3E1F2E03E
:1039400080818E4F808391819F4F918382818F4FA1
:10395000828383818F4F8383E7E1F2E080818F5FF1
:10396000808381818F4F818382818F4F8283838186
:103970008F4F83838FB18F6066991C9B88278F360A
:1039800081F480911102981B963068F0E0E0F8E035
:1039900087E78083818388E180936000F0936000F3
:1039A000FFCF90931102FF91EF919F918F910FBEE6
:1039B0000F9018951F920F920FB60F9211242F930C
:1039C0003F934F935F936F937F938F939F93AF93A7
:1039D000BF93EF93FF938091E4019091E501A09153
:1039E000E601B091E7010097A105B10539F12091F9
:1039F000E301211105C0369A2091E2012111379A85
:103A00000197A109B109B7FD08C08093E401909323
:103A1000E501A093E601B093E701FF91EF91BF911B
:103A2000AF919F918F917F916F915F914F913F9156
:103A30002F910F900FBE0F901F9018950E941D128E
:103A4000ECCFEF92FF920F931F93CF93DF93F82E5B
:103A5000192FE62E042F81E0860F880F0E94861012
:103A600083E00E948610CF2DD12FEC0EFD2EF11C8D
:103A7000CE15DF05B9F007FF13C0FE0184910E9447
:103A80008610182F80E00E948610812321968111D4
:103A9000EFCFDF91CF911F910F91FF90EF9008959D
:103AA0008881EDCF81E0F5CFE1E3F6E01382128269
:103AB00088EE93E0A0E0B0E084839583A683B7838B
:103AC00088E991E0918380838FEF9FEF95878487CA
:103AD0008AEF9CE09093900680938F0680E090E8B8
:103AE00090938E0680938D0646983E9A47983F9A0B
:103AF000EBE9F6E01382128286EB91E091838083FA
:103B0000E1E9F6E0138212828AEA91E091838083F0
:103B100088E0818781E080871582168214828783FE
:103B20000895CDB7DEB7A897DEBFCDBF789483E008
:103B300084BD83E085BD81E080936E00E1E8F0E024
:103B400083E08083E0E881E08083E1E983E08083B3
:103B5000E0E981E08083E1EC87E08083E3EC81E0D1
:103B60008083E0EC82E08083E2EC81E08083EAE71E
:103B700087E0808380688083109230021092200258
:103B8000109222028091D70081608093D70080EA52
:103B90008093D80089B5806189BD89B5826089BD6F
:103BA00009B400FEFDCF81E090E00E9418118091E1
:103BB000D8008F7C80618093D8008091E000807F66
:103BC0008093E0008091E1008E7E8093E1008DE0A3
:103BD0008093E200559A209A81EC80937C0081EFDB
:103BE00085B987EE84B984E38BB984EF8AB9769A74
:103BF0006E9880EF81BB10BA80E58CBD81E08DBDF1
:103C000085E00E94C8125F9A85E00E94C8125C9805
:103C1000E8ECFDE085918EBD00000DB407FEFDCF00
:103C2000E53DC1F75C9A81E88093640081E0809370
:103C300065000E94F9120E94CB1287FF15C05C98A4
:103C400085EA8EBD00000DB407FEFDCF5C9A2E986C
:103C50002F982D988091640080628093640081E0A9
:103C600083BF889513BEFCCF0E94CB1282FF37C062
:103C70002D980E94CB1284788438A1F42D9A88EC78
:103C80000E94C8122F986FEF82E090E00E94A02A55
:103C900084EF91E00E9418112F9A0E94CB12847831
:103CA0008438D9F30E94CB1284718431A1F42D9A07
:103CB00088EC0E94C8122E9860E082E090E00E949A
:103CC000A02A84EF91E00E9418112E9A0E94CB1234
:103CD00084718431D9F388EC0E94C812C5CF2D9A23
:103CE00082E090E00E94982A882309F449C00E944B
:103CF000D31281E090E00E94982A182F147081FF5F
:103D00000CC011112E9851EFE52EFF24FA940E9459
:103D1000CB1286FF3AC02E9A2F9A82E30E94C812D5
:103D20000E94CB128111F9CF80E1809300010E94A3
:103D300008160E94D312809171008D7F80937100CC
:103D400081E08093FB0181EE91E19093FA018093F1
:103D5000F9019093F8018093F7010E941D12CE01A2
:103D600001961C018091EF01882309F469C010922B
:103D7000EF0180E090E0892BA9F30E940000F2CFD0
:103D80001092EC013E983F98B4CF112331F024E01B
:103D9000E216F10411F42E9A2F9881E00E949A0FF6
:103DA00000E128E548E15DE0B70184E190E00E9490
:103DB000EF0E0E94F9128FE00E94C8123FEFE31A43
:103DC000F30A49E1E416F10409F0A1CF112311F03F
:103DD0002F9A2D9880E991E00E9418112D9A81E088
:103DE00090E00E94982A80FF98CF8AE090E00E949D
:103DF000982A9FEF980F9E3F08F08FCF22E330E084
:103E00003093EB012093EA0128E330E03093E9019D
:103E10002093E8010AE010E0682F8BE996E00E9409
:103E200042140F5F1F4FC8010E94982A00311105EC
:103E300099F70E94F91288EE93E00E9418116DCF55
:103E4000909113028091F001E92FE81B8E2F2091B1
:103E50000001E21748F48F5F821708F08ACF81E0F3
:103E600083BF889513BE85CF81E08093EF01909347
:103E7000F001EDEEF1E080819181019680839183E4
:103E8000109105028091F301811159C01093040231
:103E90000E94CB128093050288E00E94EE128111ED
:103EA00005C084E00E94EE12882319F081E080931F
:103EB000F3010E94D9128091F2018F5F8093F20189
:103EC0009091F1019923A9F1883C20F01092F10121
:103ED0001092F2012091F10181E028274CE45FE08B
:103EE00068E170E08CE490E00E94C21200E226E5F6
:103EF00044EF5DE067E070E084E190E00E94EF0E47
:103F00000BE02DE04AED5DE065E370E090E080E0DD
:103F10000E94EF0E8FE0809396068093950689E3CA
:103F20008093970685ED9DE00E942F170E94F9125D
:103F300020CF8E3178F281E08093F101C9CF80915A
:103F400010028F5F80931002883050F080910F0232
:103F5000109210028F5F843108F071C580930F02B8
:103F600000910E0280910F02811133C00F3F89F53D
:103F7000C0900A02D0900B02E0900C02F0900D026B
:103F800020910602309107024091080250910902E7
:103F9000A9E0B0E0C216D306E406F50610F4A701C6
:103FA00096010E94D12AC0907501D0907601E090D0
:103FB0007701F0907801DC01CB018C0D9D1DAE1DC9
:103FC000BF1D8093750190937601A0937701B09304
:103FD0007801109304020E94CB12F82E8093050200
:103FE00088E00E94EE12882341F080917A018F5F71
:103FF000823008F027C580937A0180917A01882366
:1040000051F015FF08C0F5FC06C0813009F01DC550
:1040100082E080937A010E94D9120F3F09F0DDC43B
:10402000809179018F3F09F4DDC429E030E040E858
:1040300050E069E070E090E080E00E94BE1308E08C
:1040400025E048E259E161E070E081E090E00E9403
:10405000EF0E88E0809396068093950611E010930A
:10406000970660917501709176018091770190912A
:1040700078010E9466192DE04BE159E162E070E0A1
:1040800080E290E00E94EF0E8FE28093960680938C
:1040900095061093970660910A0270910B02809129
:1040A0000C0290910D020E946619809103028823F0
:1040B00021F089E199E10E942F1708E025E044E111
:1040C00059E161E070E086E490E00E94EF0E42E387
:1040D00061E070E08DE490E00E94B80E42E367E09A
:1040E00070E08DE490E00E94B80E21E047E061E0CE
:1040F00070E08DE490E00E94A51421E047E061E0CB
:1041000070E08EE790E00E94A514E0900102F0902C
:104110000202970136952795F0E6EF16F10408F0B4
:1041200020E308E044EE58E162E070E08EE490E0C5
:104130000E94EF0E24E6E216F10408F088C4C701DD
:1041400096958795835B9F4F27E030E0AC0161E057
:1041500070E00E94BE1380917A018111CDC18091DF
:104160000002811182C380E80E94EE12882339F098
:1041700080917401811197C483E08093740180E180
:104180000E94EE12882339F080917401833008F484
:104190008CC41092740110917301123008F180E206
:1041A0000E94EE12882351F08091FF01811181C499
:1041B0008FEF810F8093FF010E94F01580E40E9431
:1041C000EE12882369F02091FF01412F4150550BD9
:1041D000241715060CF46FC41092FF010E94F0150D
:1041E00084E00E94EE12882309F45CC0F090FE0186
:1041F0000091FF0110E0F11062C4E0917401C80168
:10420000880F991F880F991F89599E4FE80FF92F22
:10421000F11D6081643108F045C0662309F454C47F
:1042200070E090E080E00E949D299B01AC0163E377
:1042300073E383EB9FE30E94E52B20E030E04AE745
:1042400054E40E94DA290E94B62B80907501909068
:104250007601A0907701B090780186169706A8069F
:10426000B90600F1A5019401261B370B480B590B29
:10427000DA01C9018093750190937601A0937701CB
:10428000B0937801000F111F000F111FFF2009F4D8
:1042900020C409591E4F81E0F80183831092FE016A
:1042A0000E9408168091FE01882309F41DC421E0B4
:1042B00049EF56E16BE070E084E090E00E94C212AA
:1042C000C090740189E0C89E802D1124805F0E94F7
:1042D000A90F1091FE01E090FF01D12C84E0E89E2F
:1042E00070011124111109C0F701E959FE4FEC0DBD
:1042F000FD1D8081843108F04EC008E025E048E2D1
:1043000059E16DE270E085E590E00E94EF0E85E5F1
:10431000809396068093950683E280939706F70133
:10432000E959FE4FEC0DFD1D8081882309F481C4FD
:1043300088EC96E10E942F178DE580939606809376
:1043400095068DE28093970660EA76E881E090E03A
:1043500011111FC0F701E959FE4FCE0EDF1EF60105
:104360006081662309F468C470E090E080E00E94F8
:104370009D299B01AC0163E373E383EB9FE30E9400
:10438000E52B20E030E04AE754E40E94DA290E945D
:10439000B62B0E94661921E230E045E550E06BE063
:1043A00070E085E590E00E94BE1321E230E04EE728
:1043B00050E061E270E085E590E00E94BE138AE57E
:1043C00080939606809395068CE0809397068BEBFE
:1043D00096E10E942F1708E02DE04BE159E167E1DB
:1043E00070E08AE590E00E94EF0E8BE680939606DF
:1043F0008093950686E180939706609106027091FE
:10440000070280910802909109020E94661927E034
:1044100044EB56E169E370E08DE290E00E94EF0E1C
:1044200087E3809396068093950619E31093970689
:104430008DEA96E10E942F1727E046EA56E169E3EC
:1044400070E08AE590E00E94EF0E84E68093960685
:1044500080939506109397060091FF0110E0E0917C
:104460007401C801880F991F880F991F89599E4FA1
:10447000E80FF92FF11D8081882309F4E2C38EE94A
:1044800096E10E942F17809173018230A8F188E095
:10449000809396068093950669E3F62EF092970630
:1044A00088E996E10E942F1785E280939606809313
:1044B0009506F092970686E996E10E942F1783E110
:1044C0008093960680939506F0929706B8016F5FE9
:1044D0007F4F072E000C880B990B4AE00E944E1765
:1044E00084E996E10E942F176091730170E090E0DB
:1044F00080E04AE00E944E1780917A01813009F0F5
:10450000B4C1809100028111B0C180E80E94EE1216
:10451000882349F08091FD01811102C080916601DC
:1045200081508093FD0180E10E94EE12882361F0AA
:104530008091FD01209166012150330B82171306F3
:104540000CF482C31092FD0184E00E94EE128823D5
:1045500009F46EC08091FD019AE0989F80011124BA
:104560000E5F1E4FF801F0842185F21608F060C03E
:104570004080518062807380409175015091760136
:1045800060917701709178014415550566057705AE
:1045900008F44EC04419550966097709409375011E
:1045A0005093760160937701709378012AE0DE01E1
:1045B000599601900D922A95E1F7F801608570E017
:1045C00090E080E00E949D299B01AC0160E070E0DA
:1045D00080EC9FE30E94E52B4B015C01C301B2011B
:1045E0000E949D29A50194010E94DA290E94B62B00
:1045F000F8016083718382839383668177818481EC
:104600009581860F971F95838483F394F08690E0BD
:1046100080E00E949D2920E030E040EC5FE30E94B2
:10462000DA290E94B62BF801778366830E94081668
:1046300082E10E94A90F95E1E92EF12CB12CA12C69
:104640002AE0822E37E1732E4FE3642E5BE6552E6F
:10465000C090FD01C5018C0D911D209166012817A8
:10466000190609F00CF4A1C0CA0C01E021E148E7E9
:10467000B7016950710985E090E00E947F154E2CCA
:10468000F7E0F0939606F093950688EF8E0D8093F1
:104690009706D12CF601EE0FFF1FE058F94E6591F9
:1046A0007491C1010E943527F10101900020E9F7C2
:1046B0003197AF0142195309B10181E996E00E9497
:1046C000C7118C9C80018D9C100D11240E5F1E4F14
:1046D000F80190849920A1F08DE796E10E942F17B0
:1046E000692D70E090E080E04AE00E944E17F801EA
:1046F00090858185981720F088E796E10E942F1712
:1047000008E02DE04BE159E1B70187E090E00E941D
:10471000EF0E4A9470929606709295064092970614
:104720008C9CC0018D9C900D11249C012E5F3E4FEE
:104730006901F9016481758190E080E00E94661949
:10474000F60191858085891780F525E048E259E1D9
:10475000B7016150710988E390E00E94EF0E60920A
:1047600096066092950640929706F60160817181E7
:10477000828193810E9466192DE04BE159E1B701D6
:104780008AE590E00E94EF0E5092960650929506B0
:104790004092970686E796E10E942F17F601668100
:1047A000778190E080E00E946619FFEFAF1ABF0AA0
:1047B00022E1E20EF11C33E0A316B10409F048CF68
:1047C00028E040E868E370E090E080E00E945F1538
:1047D00008E027E044EB56E169E370E08DE290E009
:1047E0000E94EF0E87E3809396068093950619E367
:1047F000109397068EE696E10E942F17E091FD0137
:104800004AE0E49FF0011124EE5FFE4F9085818520
:104810009817A0F427E046EA56E169E370E08AE5DC
:1048200090E00E94EF0E84E68093960680939506B2
:10483000109397068AE696E10E942F1782E08093F4
:1048400096068093950619E31093970688E696E1FD
:104850000E942F1788E08093960680939506109308
:1048600097068FE596E10E942F1780917A0182309A
:1048700009F0B3C080E80E94EE12882339F08091DD
:10488000FC018111E5C181E08093FC0180E10E947F
:10489000EE12882339F08091FC01882309F4DAC1F3
:1048A0001092FC0184E00E94EE12882301F18091B5
:1048B000FC0181111CC08091010191E08927809346
:1048C0000101882309F4CAC1809171008D7F809312
:1048D00071009093FB0181EE91E19093FA01809336
:1048E000F9019093F8018093F7010E941D128091C5
:1048F000FC019CE0899F802D1124805F0E94A90FFC
:1049000001E02BE048E76CE070E085E090E00E9479
:104910007F1588E080939606809395061EE010939D
:10492000970683EC91E10E942F178AE58093960603
:10493000809395061093970680910101882309F4CE
:1049400090C180EC91E10E942F1728E040E868E3D5
:1049500070E090E080E00E945F1508E027E044EB03
:1049600056E169E370E08DE290E00E94EF0E87E38C
:10497000809396068093950619E31093970689ED28
:1049800091E10E942F1727E046EA56E169E370E0C3
:104990008AE590E00E94EF0E84E68093960680936D
:1049A00095061093970682ED91E10E942F1782E001
:1049B00080939606809395061093970680ED91E17B
:1049C0000E942F1788E08093960680939506109397
:1049D000970689EC91E10E942F17809179018F3F12
:1049E00009F06CC1F090F60190E29F1508F43CC10B
:1049F0002F2D40E870E060E090E080E00E945F15BD
:104A00000F2D10E060E470E0601B710B2F2D40E86B
:104A100090E080E00E945F1540E8B80190E080E0FF
:104A20000E94B80E6FE370E0601B710B40E890E0ED
:104A300080E00E94B80EF394F092F6013FC110920C
:104A40000F028ECA10927A01D8CA81E0E2CA3AE611
:104A5000E316F10408F47FCB25E04FE162E070E05B
:104A600086E590E00E945F1502E010E021E041E061
:104A700063E070E084E790E00E94CE1422E041E021
:104A800063E070E086E590E00E94CE1486E58093B6
:104A900096068093950681E0809397068BED98E1CA
:104AA0000E942F1758CB815068CB8F5F8093740181
:104AB00072CB81507FCB2F5F2093FF018FCB60EAB9
:104AC00076E881E090E0C1CB68EE73E080E090E0B2
:104AD000BCCB8091740109591E4FF801E80FF11DFC
:104AE00080818F5F8083DCCB4090FF0120E049EF25
:104AF00056E16BE070E084E090E00E94C2121091F9
:104B00000F02812F6AE00E94D72D41E0911140E011
:104B10006CE070E084E290E00E94FC12812F6CE077
:104B20000E94D72D41E0911140E06CE070E086E2F8
:104B300090E00E94FC12F4E04F9E200111249201AB
:104B400029593E4F2901F1E1CF2ED12CAFE0EA2EB9
:104B5000F12C1CE21093960610939506E0929706AE
:104B6000F201B1902F01B11018C008E02CE140ED26
:104B700056E1B7018AE090E00E94EF0E85EF96E1E2
:104B80000E942F1739E0E30EF11C49E0C40ED11C3E
:104B900055E3C516D104F1F693CB01E028E04CE1D2
:104BA000B7018AE090E00E947F158B2D65E00E949E
:104BB000D72D882E912CECE06E2E712CB12CA12CCF
:104BC00008E024E04CEE56E1B601C3010E94EF0E6E
:104BD000FFEFAF1ABF0A25E0620E711C8A149B0416
:104BE0007CF780EF96E10E942F17F20131978081C8
:104BF0001CA21BA21EA21DA218A61FA24AE0B10160
:104C000090E00E943C27F10101900020E9F73197E4
:104C1000AF0142195309B101CE0183960E94E518F4
:104C2000CE0183960E94F411CE0183960E945E19F4
:104C3000A9CF84EC96E17ECB68EE73E080E090E053
:104C4000A8CB8AE996E11DCC8F5F8093FD017CCCD7
:104C500081501ACE81E08093FC0124CE0E94111273
:104C600046CE8CEB91E16FCEE0E6EF1508F4BAC0CA
:104C700080EE8F0D082F000F20E430E0281B310953
:104C8000E22EEE0C20E440E870E060E090E080E08E
:104C90000E945F150E1570F4E01A10E04E2D6FE1C2
:104CA00070E0C8010E94B80E4E2D60E270E0C801AD
:104CB0000E94B80E31E63F1508F0BDCE809100028B
:104CC000811107C08091F501882319F081508093EC
:104CD000F50180910E028F3F89F00E949C17882376
:104CE00069F01092F5018EE18093F40180910E023B
:104CF0008F5F8B3008F08BC080930E028091010291
:104D0000909102028A36910518F08BE00E949C1760
:104D100080910302882319F08CE00E949C178091F7
:104D20000A0290910B02A0910C02B0910D028C32FC
:104D30009140A105B10558F08091010290910202C5
:104D40008035910508F06AC08DE00E949C17809123
:104D50007301823018F08FE00E949C1780916601E9
:104D6000863018F080E10E949C1780913C018823D6
:104D700019F081E10E949C1780914601882319F067
:104D800082E10E949C1780915001882319F083E1F1
:104D90000E949C17809166018A3019F484E10E9478
:104DA0009C179091640180916501981708F4BEC822
:104DB00085E10E949C17809179018F3F09F4B6C864
:104DC0000E949C17882309F4B1C81092F5018EE166
:104DD0008093F401809179018F5F8A3108F5809387
:104DE0007901A4C820E440E870E060E090E080E051
:104DF0000E945F158EE280939606809395068EE161
:104E00008093970682EB91E10E942F1753CF8FEF8B
:104E100080930E0281E080937A0170CF8EE095CF6F
:104E20008FEF8093790181E080937A017FC8EF92C0
:104E30000F931F93CF93DF93E80134E047FD34E1F4
:104E4000042E000C550B57FF03C051954195510995
:104E5000E32E022F242FAE010E945627CE01DF91B0
:104E6000CF911F910F91EF900895FB01DC01059008
:104E70000D920020E1F70895BB27FB015527AA27D3
:104E8000880F991FAA1FA41710F0A41B83955051D7
:104E9000B9F7A05DAA3308F0A95DA193009779F74F
:104EA000B111B1931192CB010C948D29A9E0B0E01E
:104EB000ECE5F7E20C94E22A6A01F22EB02E102FF4
:104EC000FBE3AF2EA01608F41BE31F5F012F27E0C2
:104ED000AE014F5F5F4F0E94B528BC018981982FBA
:104EE0009970913009F43FC09BE2E1FC04C09E2D13
:104EF0009170E0FC3AC05E2D5071E82FE87083FF9E
:104F000046C084E0911101C083E0EF2DE81B8F15AE
:104F100008F0E0E0D6018E2F20E2552351F19923CD
:104F200029F0D6019C93C60101966C0196012D5F74
:104F30003F4FE2FE24C08EE4D6018C9391E411969B
:104F40009C93119712968C93D9018E2F90E2811128
:104F50001BC0E20FF32FF11D10828EEF9FEF2996F9
:104F6000ECE00C94FE2A9DE2C6CF90E2C4CF2D93D4
:104F700081508111FCCFCE0ED11CE0E0D0CF8EE667
:104F8000D6018C9391E6DBCF9D938150E0CF482FE3
:104F9000447082FF3DC084E0911101C083E08F1511
:104FA00010F4EF2DE81BD6018E2F20E2552309F1D6
:104FB000992329F0D6019C93C60101966C019601B4
:104FC0002D5F3F4FE2FE1BC089E4D6018C938EE437
:104FD00011968C93119786E412968C93D9018E2F9B
:104FE00090E2882309F4B5CF9D938150FACF2D9399
:104FF00081508111FCCFCE0ED11CE0E0D9CF89E6E3
:10500000D6018C938EE611968C93119786E6E4CFA9
:105010009B0177FF02C030E020E0A1E0B0E09111F9
:1050200002C0B0E0A0E0F9013196AE0FBF1F8B2C9B
:10503000912CBB2009F461C05401EFEFAE1ABE0AF7
:10504000AA0DBB1DFA161B0619F014F04F2D4A1BB2
:10505000511188C0E3FC59C07601A42FB0E2A11120
:105060004FC0C40ED11C992309F45BC040E0D601A7
:105070001196F60190836D01552309F448C0012F64
:10508000060F9A81582F507184FF03C0913309F4A1
:10509000015010160CF047C0093008F008E0EEE2AD
:1050A000FE2E5B01A01AB1088501919481949108AC
:1050B0002F3F320729F4D601FC92F60131966F0199
:1050C0006217730794F1021713077CF5DB01A21B2B
:1050D000B30BAA24A394B12CAC0EBD1EAA0DBB1D0C
:1050E00011968C9121503109D60111962815390558
:1050F000F4F0F60180836D01DBCFB12CA12CA0CFA1
:10510000F701B1937F01A150AACF9111B0CFD60181
:10511000942F50E302C05D9391509111FCCFC40EC7
:10512000D11C40E0ACCF01E0BACF80E3DBCF621707
:10513000730731F4963388F4953311F4552369F0ED
:10514000F6018083FD01842F90E2811108C0A40F35
:10515000B11D1C9290E080E002CF81E3F1CF9193EA
:105160008150F3CF911183CF8ACF283008F027E008
:105170003327DA01990F311D87FD91600096610593
:10518000710539F432602E5F3D9330E32A95E1F7E3
:1051900008959F3F30F080387105610509F03C5F4C
:1051A0003C5F3D93913008F08068911DDF93CF9371
:1051B0001F930F93FF92EF92192F987F9695E92FE7
:1051C00096959695E90FFF27E857FE4F99273327C5
:1051D000EE24FF24A701E70105900894079428F422
:1051E000360FE71EF81E491F511D660F771F881FD7
:1051F000991F0694A1F70590079428F4E70EF81E6E
:10520000491F561FC11D770F881F991F661F0694DF
:10521000A1F70590079428F4F80E491F561FC71FE1
:10522000D11D880F991F661F771F0694A1F705905F
:10523000079420F4490F561FC71FD81F990F661FE8
:10524000771F881F0694A9F784911095177041F075
:10525000D695C79557954795F794E7941A95C1F752
:10526000EEE2F1E068941590159135916591959174
:1052700005907FE27395E118F10A430B560BC90BB9
:10528000D009C0F7E10CF11E431F561FC91FD01DE6
:105290007EF4703311F48A95E6CFE894015030F033
:1052A000080F0AF40027021708F4202F2395022F75
:1052B0007A3328F079E37D932A95E9F710C07D933E
:1052C0002A9589F6069497956795379517951794BB
:1052D000E118F10A430B560BC90BD00998F023953E
:1052E0007E9173957A3308F070E37C932013B8F7BE
:1052F0007E9170617D9330F0839571E37D9370E3CF
:105300002A95E1F71124EF90FF900F911F91CF9113
:10531000DF91992787FD90950895DC01FC01672FA7
:1053200071917723E1F7329704C07C916D9370837C
:105330006291AE17BF07C8F30895E89409C097FBC0
:105340003EF490958095709561957F4F8F4F9F4F5C
:105350009923A9F0F92F96E9BB279395F6958795A0
:1053600077956795B795F111F8CFFAF4BB0F11F463
:1053700060FF1BC06F5F7F4F8F4F9F4F16C088230A
:1053800011F096E911C0772321F09EE8872F762F40
:1053900005C0662371F096E8862F70E060E02AF081
:1053A0009A95660F771F881FDAF7880F969587956D
:1053B00097F908950E94ED290C945E2A0E94502AC4
:1053C00038F00E94572A20F0952311F00C94472AB8
:1053D0000C944D2A11240C94922A0E946F2A70F387
:1053E000959FC1F3950F50E0551F629FF001729F8A
:1053F000BB27F00DB11D639FAA27F00DB11DAA1F99
:10540000649F6627B00DA11D661F829F2227B00DE5
:10541000A11D621F739FB00DA11D621F839FA00D70
:10542000611D221F749F3327A00D611D231F849FC0
:10543000600D211D822F762F6A2F11249F57504017
:105440009AF0F1F088234AF0EE0FFF1FBB1F661F92
:10545000771F881F91505040A9F79E3F510580F05B
:105460000C94472A0C94922A5F3FE4F3983ED4F3BD
:10547000869577956795B795F795E7959F5FC1F7FF
:10548000FE2B880F911D9695879597F9089597F9AA
:105490009F6780E870E060E008959FEF80EC0895DA
:1054A00000240A9416161706180609060895002403
:1054B0000A9412161306140605060895092E03947D
:1054C000000C11F4882352F0BB0F40F4BF2B11F4F1
:1054D00060FF04C06F5F7F4F8F4F9F4F089557FD50
:1054E0009058440F551F59F05F3F71F04795880F52
:1054F00097FB991F61F09F3F79F0879508951216E9
:1055000013061406551FF2CF4695F1DF08C0161694
:1055100017061806991FF1CF869571056105089445
:105520000895E894BB2766277727CB0197F908955C
:10553000F999FECF92BD81BDF89A992780B508955B
:10554000262FF999FECF92BD81BDF89A019700B43C
:10555000021639F01FBA20BD0FB6F894FA9AF99ADC
:105560000FBE0895052E97FB1EF400940E94C92AD1
:1055700057FD07D00E94132B07FC03D04EF40C9468
:10558000C92A50954095309521953F4F4F4F5F4F19
:10559000089590958095709561957F4F8F4F9F4F9F
:1055A00008950E94352BA59F900DB49F900DA49F48
:1055B000800D911D112408952F923F924F925F927A
:1055C0006F927F928F929F92AF92BF92CF92DF9213
:1055D000EF92FF920F931F93CF93DF93CDB7DEB778
:1055E000CA1BDB0B0FB6F894DEBF0FBECDBF09940C
:1055F0002A88398848885F846E847D848C849B8463
:10560000AA84B984C884DF80EE80FD800C811B8170
:10561000AA81B981CE0FD11D0FB6F894DEBF0FBE9F
:10562000CDBFED010895A1E21A2EAA1BBB1BFD01FF
:105630000DC0AA1FBB1FEE1FFF1FA217B307E40771
:10564000F50720F0A21BB30BE40BF50B661F771FC9
:10565000881F991F1A9469F76095709580959095A9
:105660009B01AC01BD01CF010895A29FB001B39F82
:10567000C001A39F700D811D1124911DB29F700D5B
:10568000811D1124911D08950E94582B0C945E2AAF
:105690000E94572A58F00E94502A40F029F45F3F98
:1056A00029F00C94472A51110C94922A0C944D2AFB
:1056B0000E946F2A68F39923B1F3552391F3951B48
:1056C000550BBB27AA2762177307840738F09F5F23
:1056D0005F4F220F331F441FAA1FA9F335D00E2E90
:1056E0003AF0E0E832D091505040E695001CCAF7FD
:1056F0002BD0FE2F29D0660F771F881FBB1F2617C0
:1057000037074807AB07B0E809F0BB0B802DBF0196
:10571000FF2793585F4F3AF09E3F510578F00C9465
:10572000472A0C94922A5F3FE4F3983ED4F386957F
:1057300077956795B795F7959F5FC9F7880F911D86
:105740009695879597F90895E1E0660F771F881F72
:10575000BB1F621773078407BA0720F0621B730B25
:10576000840BBA0BEE1F88F7E09508950E94772A04
:1057700088F09F5798F0B92F9927B751B0F0E1F012
:10578000660F771F881F991F1AF0BA95C9F714C0C2
:10579000B13091F00E94912AB1E008950C94912AC1
:1057A000672F782F8827B85F39F0B93FCCF38695FB
:1057B00077956795B395D9F73EF490958095709558
:1057C00061957F4F8F4F9F4F0895FA01EE0FFF1F96
:1057D000309621053105A1F16115710561F480381C
:1057E000BFE39B0749F168949038810561F08038E8
:1057F000BFEF9B0741F099234AF5FF3FE1053105D3
:10580000210519F1E8940894E795D901AA2329F410
:10581000AB2FBE2FF85FD0F310C0FF5F70F4A695DA
:10582000E0F7F73950F019F0FF3A38F49F779F937B
:105830000DD00F9007FC9058089546F00C944D2A17
:1058400060E070E080E89FE308954FE79F775F9303
:105850004F933F932F930E94E02C2F913F914F91B4
:105860005F910E94DA290C943D2C29F416F00C94D7
:10587000472A0C94912A0C944D2A0E94772AA8F367
:105880009638A0F707F80F92E8942BE33AEA48EB32
:105890005FE70E94F0290F920F920F924DB75EB70B
:1058A0000F920E94282DECEAF0E00E946F2C4F919D
:1058B0005F91EF91FF91E595EE1FFF1F49F0FE57B5
:1058C000E0684427EE0F441FFA95E1F74195550B28
:1058D0000E94A22C0F9007FE0C94962C0895DF9343
:1058E000CF931F930F93FF92EF92DF927B018C0176
:1058F000689406C0DA2EEF010E94ED29FE01E894BB
:10590000A5912591359145915591A6F3EF010E94FE
:10591000742DFE019701A801DA9469F7DF90EF90EA
:10592000FF900F911F91CF91DF9108959B01AC01E2
:1059300060E070E080E89FE30C94442B0C94472ACD
:105940000C94C92D0E94772AD8F39923C9F3940F98
:10595000511DA3F39150504094F059F0882332F038
:10596000660F771F881F91505040C1F79E3F510529
:105970002CF7880F911D9695879597F908955F3FAD
:10598000ACF0983E9CF0BB27869577956795B795C8
:1059900008F4B1609395C1F7BB0F58F711F460FF9D
:1059A000E8CF6F5F7F4F8F4F9F4FE3CF0C94922ACA
:1059B00016F00C94C92D0C944D2A68940C94472A27
:1059C0000E94772AA8F39923C1F3AEF3DF93CF9314
:1059D0001F930F93FF92C92FDD2788232AF0219769
:1059E000660F771F881FDAF720E030E040E85FEBB2
:1059F0009FE3883920F0803E38F021968F770E940F
:105A00005D2DE4EDF0E004C00E945D2DE1E0F1E0E9
:105A10000E946F2C8B01BE01EC01FB2E6F577109A8
:105A20007595771F880B990B0E949F2928E132E713
:105A300041E35FE30E94ED29AF2D9801AE01FF9095
:105A40000F911F91CF91DF910E94742D0C945E2ACB
:105A5000FA01DC01AA0FBB1F9B01AC01BF5728F460
:105A6000222733274427507820C0B75190F4AB2F1A
:105A70000024469537952795011CA395D2F3002065
:105A800071F0220F331F441FB395DAF30ED00C943C
:105A90005C2D61307105A0E88A07B94630F49B019E
:105AA000AC016627772788279078309621F02083ED
:105AB00031834283538308955058BB27AA270E94FD
:105AC000742D0C945E2A0E94502A38F00E94572AA6
:105AD00020F039F49F3F19F426F40C944D2A0EF46B
