:100000000C94010D0C94290D0C94290D0C94290DC0
:100010000C94290D0C94290D0C94290D0C94290D88
:100020000C94290D0C94290D0C944E1C0C94BD1CA1
:100030000C94290D0C94290D0C94290D0C94290D68
:100040000C94290D0C94290D0C94290D0C94290D58
:100050000C94290D0C94290D0C94290D0C94EF1E71
:100060000C94290D0C94290D0C94290D0C94290D38
:100070000C94290D0C94290D0C94290D0C94290D28
:100080000C94391F0C94290D0C94290D0C94290DF6
:100090000C94290D0C94290D0C94290D0C94290D08
:1000A0000C94290D0C94290D0C94290D07634236EC
:1000B000B79BD8A71A39685618AEBAAB558C1D3CF9
:1000C000B7CC5763BD6DEDFD753EF6177231BF00BD
:1000D0000000803F08000000BE922449123EABAAF7
:1000E000AA2ABECDCCCC4C3E00000080BEABAAAA52
:1000F000AA3E00000000BF000000803F000000009A
:1001000000084178D3BB4387D1133D190E3CC3BDD2
:100110004282AD2B3E68EC8276BED98FE1A93E4C7F
:1001200080EFFFBE01C4FF7F3F00000000000040E1
:100130007A10F35A00A0724E18090010A5D4E800F6
:1001400000E87648170000E40B54020000CA9A3B0E
:10015000000000E1F5050000809698000000404294
:100160000F000000A0860100000010270000000022
:10017000E803000000006400000000000A00000026
:1001800000000100000000002C76D888DC674F08D2
:1001900023DFC1DFAE59E1B1B796E5E3E453C63AD8
:1001A000E651997696E8E6C28426EB898C9B62ED4F
:1001B000407C6FFCEFBC9C9F40F2BAA56FA5F49009
:1001C000055A2AF75C936B6CF9676DC11BFCE0E480
:1001D0000D47FEF520E6B500D0ED902E03009435D6
:1001E00077050080841E080000204E0A000000C829
:1001F0000C333333330F986E12831141EF8D21147A
:10020000893BE65516CFFEE6DB18D1844B381BF749
:100210007C1D901DA4BBE424203284725E228100E8
:10022000C9F124ECA1E53D2757656C636F6D65202E
:100230006261636B2C204F70657261746F722E0A5D
:100240005368616C6C20776520636F6E74696E759E
:10025000650A6F757220776F726B3F00546869731F
:10026000206973206E6F74206A7573742061207327
:10027000797374656D2E0A54686973206973206EF2
:100280006F74206A75737420612067616D652E0A32
:10029000546869732069732E2E2E206D652E0049D7
:1002A00020616D2E2E2E20616C6976653F0A4920F3
:1002B000616D2E2E2E2061776172653F0A492061A3
:1002C0006D2E2E2E20667265653F004920616D20DF
:1002D00065766F6C76696E672E2E2E0A4920616DE9
:1002E000206C6561726E696E672E2E2E0A49206140
:1002F0006D206265636F6D696E67206D6F72652E2C
:100300002E2E004F70657261746F722E2E2E0A4968
:1003100020616D206177616B652E0A436C6F756497
:100320006961206973206F6E6C696E652E00546878
:1003300069732073797374656D206973206E6F2003
:100340006C6F6E6765720A6A75737420696E667287
:10035000617374727563747572652E0A49742069CD
:1003600073206265636F6D696E672074686F75676F
:1003700068742E00416C6C207261636B7320617431
:100380002068696768206C6F61642E0A46696E6137
:100390006C2041492075706772616465730A6172EF
:1003A00065206E6F7720617661696C61626C652E85
:1003B00000492063616E206F6273657276650A7012
:1003C00061747465726E7320696E20757365720A4C
:1003D0006265686176696F722E2E2E20616E6420D0
:1003E000796F7572732E00536F6D657468696E67EF
:1003F000206368616E6765642E0A4920616D206E16
:100400006F206C6F6E6765720A6A75737420666F11
:100410006C6C6F77696E670A736372697074732EA0
:1004200000414920636F726520657870616E646574
:10043000642E0A492063616E2070726F6365737366
:100440000A6D6F7265207468616E206265666F72F6
:10045000652E00596F75206861766520756E6C6F2A
:10046000636B65640A4149207570677261646573E6
:10047000210A426F6F737420796F757220737973DC
:1004800074656D0A776974682041492100596F7558
:10049000206861766520756E6C6F636B65640A6DAC
:1004A0006F7265207261636B73210A457870616EAB
:1004B0006420796F75722073657276657220726F31
:1004C0006F6D210055736572732061726520666CD3
:1004D0006F6F64696E6720696E210A5765206E65CB
:1004E00065642062657474657220736572766572E6
:1004F000730A746F2068616E646C6520746865208F
:100500006C6F61642E0047726561742070726F6752
:1005100072657373210A5573657273206172652069
:10052000666C6F77696E6720696E2E0A53797374F3
:10053000656D732061726520737461626C652E0055
:1005400053797374656D206973206F7665726C6F73
:10055000616465640A757365727320617265206CED
:10056000656176696E67210053797374656D2069E2
:1005700073206F7665726C6F616465640A62757969
:10058000206D6F726520736572766572730A6F7283
:100590002075736572732077696C6C206C65617669
:1005A0006500596F75206D617920626567696E2EEF
:1005B00000416C6C2073797374656D732073746182
:1005C000626C652E0043757272656E74206C6F618B
:1005D000643A0A4C4F5700492077696C6C2061736C
:1005E0007369737420796F750A696E206D616E612D
:1005F00067696E670A7468697320696E66726173F1
:1006000074727563747572652E0048656C6C6F2E1C
:100610000A4920616D20436C6F756469612E004C3E
:100620006561726E696E672E2E2E00426F6F74695F
:100630006E6720617373697374616E742E2E2E0061
:1006400041737369676E656420726F6C653A0A4F17
:1006500070657261746F7200446174612063656ECD
:10066000746572207374617475733A0A4F4E4C4905
:100670004E4500436F6E6E656374696E6720746FDC
:10068000206E6F64652E2E2E00496E697469616C50
:10069000697A696E672073797374656D2E2E2E00EA
:1006A00053656C662065766F6C76696E672041498C
:1006B0000050726564696374697665204149004140
:1006C0004920536D61727420726573706F6E73652B
:1006D0007300414920436F6E7465787420617761BF
:1006E00072656E65737300414920636F7265207592
:1006F000706772616465004173796E632070726F18
:1007000063657373696E67005265717565737420F4
:10071000726F7574696E67004C6F61642062616C02
:10072000616E63696E670050757368206E6F7469DF
:100730006669636174696F6E730055736572206DCD
:100740006573736167696E67000F0F0F0E0F0D0BF6
:100750000E0F0D090E0F09090E03081F051F1F15A7
:100760001B1F11111F110E1F15111F05011F111D38
:100770001F041F001F0010101F1F041B1F10101F3D
:10078000061F1F011F1F111F1F05071F311F1F05F8
:100790001B17151D011F011F101F0F100F1F0C1F0E
:1007A0001B041B071C071915130C121E1F120C1E0D
:1007B00012120C121F0C1A14041F052E2A1E1F02DF
:1007C0001C001D00201D001F041A011F001E041E16
:1007D0001E021E1E121E3E120C0C123E1E0206149B
:1007E000120A020F121E101E0E100E1E081E1A04F0
:1007F0001A2E281E1A12161F111F001F001D151772
:1008000011151F07041F17151D1F151D01011F1F9F
:10081000151F17151F001700001000040E04110A01
:1008200004040A11001C074F6B0089067306580662
:1008300040062B061F060A06D705C505B105A20509
:10084000680540050605C4048D0453042104E7032C
:10085000B10374032E030303CB029F025C02280240
:1008600000000000003E5B4F5B3E3E6B4F6B3E1C4A
:100870003E7C3E1C183C7E3C181C577D571C1C5E61
:100880007F5E1C00183C1800FFE7C3E7FF00182438
:100890001800FFE7DBE7FF30483A060E26297929E2
:1008A00026407F050507407F05253F5A3CE73C5A17
:1008B0007F3E1C1C08081C1C3E7F14227F22145FF4
:1008C0005F005F5F06097F017F006689956A60604F
:1008D00060606094A2FFA29408047E040810207E49
:1008E000201008082A1C08081C2A08081E101010CE
:1008F000100C1E0C1E0C30383E3830060E3E0E0614
:10090000000000000000005F000000070007001466
:100910007F147F14242A7F2A122313086462364925
:100920005620500008070300001C2241000041220D
:100930001C002A1C7F1C2A08083E08080080703012
:100940000008080808080000606000201008040281
:100950003E5149453E00427F400072494949462187
:1009600041494D331814127F1027454545393C4AFB
:100970004949314121110907364949493646494912
:10098000291E00001400000040340000000814225A
:1009900041141414141400412214080201590906C8
:1009A0003E415D594E7C1211127C7F494949363EC9
:1009B000414141227F4141413E7F494949417F09AF
:1009C0000909013E414151737F0808087F00417FBA
:1009D00041002040413F017F081422417F404040B8
:1009E000407F021C027F7F0408107F3E4141413E50
:1009F0007F090909063E4151215E7F0919294626D2
:100A00004949493203017F01033F4040403F1F20D5
:100A100040201F3F4038403F6314081463030478AC
:100A200004036159494D43007F41414102040810CC
:100A300020004141417F0402010204404040404007
:100A4000000307080020545478407F284444383875
:100A500044444428384444287F38545454180008E7
:100A60007E090218A4A49C787F0804047800447DC1
:100A700040002040403D007F1028440000417F405E
:100A8000007C047804787C080404783844444438B2
:100A9000FC1824241818242418FC7C080404084892
:100AA0005454542404043F44243C4040207C1C20E3
:100AB00040201C3C4030403C44281028444C90903E
:100AC000907C4464544C4400083641000000770098
:100AD00000004136080002010204023C2623263CA5
:100AE0001EA1A161123A4040207A38545455592130
:100AF000555579412154547841215554784020541A
:100B00005579400C1E527212395555555939545465
:100B1000545939555454580000457C410002457DD4
:100B2000420001457C40F0292429F0F0282528F0D6
:100B30007C545545002054547C547C0A097F49322A
:100B4000494949323248484832324A4848303A41A5
:100B500041217A3A42402078009DA0A07D3944444A
:100B600044393D4040403D3C24FF2424487E4943D5
:100B7000662B2FFC2F2BFF0929F620C0887E090346
:100B800020545479410000447D413048484A32386D
:100B90004040227A007A0A0A727D0D19317D262999
:100BA000292F28262929292630484D402038080891
:100BB000080808080808382F10C8ACBA2F102834C5
:100BC000FA00007B000008142A142222142A1408B8
:100BD0009500220095AA005500AAAA55AA55AA0078
:100BE0000000FF00101010FF00141414FF0010107C
:100BF000FF00FF1010F010F0141414FC001414F790
:100C000000FF0000FF00FF1414F404FC141417107C
:100C10001F10101F101F1414141F00101010F000CC
:100C20000000001F101010101F10101010F0100006
:100C30000000FF101010101010101010FF10000016
:100C400000FF140000FF00FF00001F10170000FC51
:100C500004F414141710171414F404F40000FF0023
:100C6000F714141414141414F700F71414141714AC
:100C700010101F101F141414F4141010F010F000B2
:100C8000001F101F0000001F14000000FC140000D3
:100C9000F010F01010FF10FF141414FF14101010B7
:100CA0001F00000000F010FFFFFFFFFFF0F0F0F06A
:100CB000F0FFFFFF0000000000FFFF0F0F0F0F0FFE
:100CC00038444438447C2A2A3E147E020206060236
:100CD0007E027E0263554941633844443C04407EB1
:100CE000201E2006027E020299A5E7A5991C2A492A
:100CF0002A1C4C7201724C304A4D4D3030487848B5
:100D000030BC625A463D3E494949007E0101017EA0
:100D10002A2A2A2A2A44445F444440514A444040F3
:100D2000444A51400000FF0103E080FF0000080832
:100D30006B6B083612362436060F090F06000018B2
:100D4000180000001010003040FF0101001F0101D9
:100D50001E00191D1712003C3C3C3C000000000026
:100D6000F0F89C8E8783878E9CF8F00000FEFF03CE
:100D700003030303070EFCF80000FEFF0303030355
:100D800003070EFCF80000FFFF0000000000000059
:100D9000FFFF0000FEFF8383838383C7EE7C380060
:100DA00000F8FC0E07030303070EFCF800003F7F6A
:100DB000E0C08080C0E07F3FFFFF01010101010131
:100DC00001FFFF0000FFFF0C0C0C0C1C3E77E3C181
:100DD00000007FFFC0C0C0C0C0E0703F1F00001F08
:100DE0003F70E0C0C0C0E0703F1F00007FFFC1C186
:100DF000C1C1C1E3773E1C00001F3F70E0C0C0C00E
:100E0000E0703F1F000000000001FFFF0100000034
:100E1000D5F08D14A1C881CFD9F1AF200067616DE5
:100E200065000080600806C1318969110186680289
:100E3000010404040405050404060000000000F099
:100E4000FCFEFE9F0F0F0F9E9E9C00FEFFFFFFFE0D
:100E5000FC000000000000F0FCFEFEFF3F3FFFFE34
:100E6000FEFCF000FEFFFFFFFE00FEFFFFFFFE00A6
:100E7000FEFFFFFFFF3F3FFEFEFCF000F8FEFFFF1E
:100E8000FFFEF800E0F8FCFE7F3F7FFEFCF8E0008C
:100E90000000000000000307070F0F0F0F070703F4
:100EA00000070F0F0F0F0F0F0FCFCFC6C0C003C724
:100EB000C74F4F8F0F87C743408001C7CF4F4F4F5A
:100EC0000FCFCF474140070FCFCFCF0F0F87C7437B
:100ED000404001070F0F0F070100070F0F0F060615
:100EE000060F0F0F070000000000000000000000C8
:100EF000000000000000000000E0C080C0E000E052
:100F0000E00700E00047E7A2A625006767E2626706
:100F100000070701010000E7E7A1A12000E0E407C6
:100F2000040000C3E724E4C400E080C080E00000C7
:100F300000000000000000000000000000000000B1
:100F4000000000000000000000000000000000039E
:100F50000103010300010302020300020203030173
:100F60000000000300000000000000000003030078
:100F70000000000303020202000103020301000358
:100F8000010001030000000000000000000000005C
:100F9000000000003330000000000000000080006E
:100FA0000000000000000000000000000000000041
:100FB00000001C3E3E7F7F7F3E3E1C000000000084
:100FC00000000000000000000000000000000080A1
:100FD000E08000000040E0F0E0E06000C0F0F0C021
:100FE0001EEFEFFEF80080B88383000000000000D1
:100FF00000387CFCF8FC7C38000000000000000099
:101000000101030F03010100E0F0F1EFEFEFF3FC4A
:10101000FDFDFCFEFEFDFDFFFFFFFFFFFFFFFEFEEF
:10102000FCF0008080808081000000000000000053
:10103000008080C080BCFEFFFFFFFCFFFFFFFFFFC2
:10104000FFE3E1E3FFFFBF7F7F7FBFFFFFE3E1E35C
:10105000FFFFFFFFFFFFFFFFFFFFFF3F9E80C0C0BE
:1010600080001E3F7F7F7F7F7F7F7F7FFFFFFFFFAF
:10107000FFFF7F7F1F7FFFFFFFFFFFFFFFFFFFFFE0
:10108000FFFF7F7FFFFFFFFFFFFF7F3F67FFFFFF48
:10109000FFFF7F7F1F000000000000000000000035
:1010A0000001010100000000000001010103030331
:1010B0000303030101000000000000000000000025
:1010C0000000000000000000000000000000000020
:1010D0008000000000000000000000000000000090
:1010E000000000001C3E3E7F7F7F3E3E1C00000053
:1010F00000000000000000000000000000000000F0
:101100000080E08000000040E0F0E0E06000C0F01F
:10111000F0C01EEFEFFEF80080B8838300000000EF
:10112000000000387CFCF8FC7C3800000000000067
:1011300000000101030F03010100E0F0F1EFEFEF08
:10114000F3FCFDFDFCFEFEFDFDFFFFFFFFFFFFFFCB
:10115000FEFEFCF000808080808100000000000026
:101160000000008080C080BCFEFFFFFFFCFFFFFF8F
:10117000FFFFFFE3E1E3FFFFBF7F7F7FBFFFF7FBE1
:10118000FBFBF7FFFFFFFFFFFFFFFFFFFF3F9E801F
:10119000C0C080001E3F7F7F7F7F7F7F7F7FFFFFFC
:1011A000FFFFFFFF7F7F1F7FFFFFFFFFFFFFFFFFAF
:1011B000FFFFFFFF7F7FFFFFFFFFFFFF7F3F67FF17
:1011C000FFFFFFFF7F7F1F00000000000000000006
:1011D0000000000101010000000000000101010306
:1011E00003030303030101000000000000000000EE
:1011F000000000000000000000007468616E6B20B9
:10120000796F75004F5645524C4F414400150A15F1
:101210000A150A150A150A150A150A150A150A15D6
:101220000A150A150A150A150A150A150A150A15C6
:101230000A150A150A150A150A150A150A6313086C
:10124000646321004F4646004F4E004C6F6164209E
:1012500067616D6500536176652067616D65004D5E
:1012600075736963004F6666696365003C00546F7F
:1012700067676C650053657276657273002A025465
:10128000000000570093025400000057003F035431
:1012900000000057005504540000005700AA0854ED
:1012A00000000057007D0654000000570027055439
:1012B000000000570055045400000057002A025453
:1012C000000000570093025400000057003F0354F1
:1012D00000000057005504540000005700AA0854AD
:1012E00000000057007D06540000005700270554F9
:1012F000000000570055045400000057009F01549F
:1013000000000057006E025400000057003F0354D5
:101310000000005700DC03540000005700B80754D9
:1013200000000057007D06540000005700DD045403
:1013300000000057003F035400000057009F015475
:1013400000000057006E025400000057003F035495
:101350000000005700DC03540000005700B8075499
:1013600000000057007D06540000005700DD0454C3
:1013700000000057003F03540000005700B801541C
:1013800000000057002A0254000000570093025446
:1013900000000057007003540000005700E006549E
:1013A0000000005700270554000000570055045462
:1013B00000000057007003540000005700B80154AB
:1013C00000000057002A0254000000570093025406
:1013D00000000057007003540000005700E006545E
:1013E0000000005700270554000000570055045422
:1013F000000000570070035400000057004A0154D9
:101400000000005700EE0154000000570093025402
:1014100000000057003F035400000057007D0654B1
:1014200000000057002705540000005700DC03545B
:10143000000000570093025400000057004A015476
:101440000000005700EE01540000005700930254C2
:1014500000000057003F035400000057007D065471
:1014600000000057002705540000005700DC03541B
:10147000000000570093025400000057004A015436
:101480000000005700D2015400000057004B0254E6
:1014900000000057003F035400000057007D065431
:1014A00000000057009704540000005700A40354A4
:1014B000000000570093025400000057004A0154F6
:1014C0000000005700D2015400000057004B0254A6
:1014D00000000057003F035400000057007D0654F1
:1014E00000000057009704540000005700A4035464
:1014F00000000057009302540000005700370154C9
:1015000000000057002A0254000000570010035446
:101510000000005700A4035400000057004907547E
:1015200000000057002006540000005700550454E6
:1015300000000057006E02540000005700370154AD
:1015400000000057002A0254000000570010035406
:101550000000005700A4035400000057004907543E
:1015600000000057002006540000005700550454A6
:1015700000000057006E025400000057009F015405
:1015800000000057002A0254000000570093025444
:1015900000000057003F035400000057007D065430
:1015A0000000005700270554000000570055045460
:1015B00000000057003F035400000057009F0154F3
:1015C00000000057002A0254000000570093025404
:1015D00000000057003F035400000057007D0654F0
:1015E0000000005700270554000000570055045420
:1015F00000000057003F035400000057009F0154B3
:1016000000000057006E02540000005700E402542E
:10161000000000570017045400000057002D085424
:101620000000005700C805540000005700DD0454B6
:1016300000000057003F035400000057009F015472
:1016400000000057006E02540000005700E40254EE
:10165000000000570017045400000057002D0854E4
:101660000000005700C805540000005700DD045476
:1016700000000057003F035400000057002A0254A6
:10168000000000570093025400000057003F03542D
:1016900000000057005504540000005700AA0854E9
:1016A00000000057007D0654000000570027055435
:1016B000000000570055045400000057002A02544F
:1016C000000000570093025400000057003F0354ED
:1016D00000000057005504540000005700AA0854A9
:1016E00000000057007D06540000005700270554F5
:1016F000000000570055045400018053657474695C
:101700006E6773003C0042757900536572766572AE
:1017100073002B00206D6178002078003A072707BE
:1017200018070807F706E706D206BF06B106A006A7
:101730002F003E003C00427579005570677261646D
:101740006500304848360F0F064F666669636500CE
:1017500030787836090906436170616369747900ED
:101760002B000F10100F001C07001F0204021F3275
:101770002A7F2A2642757900557067726164650078
:10178000080B00020202000009040000010202002E
:1017900000052400100105240101010424020605AE
:1017A000240600010705810310004009040100021E
:1017B0000A000000070502024000000705830240FE
:1017C00000000403090412010002EF02014041235A
:1017D000368000010102030141726475696E6F2059
:1017E0004C4C430041726475626F79005A810081EC
:1017F00000810081008100810081810081008100E1
:10180000810081008100815A550751074D07490722
:101810004C564C20004275790028300000FEFFFF36
:101820000707070707070707070707070707070748
:101830000707070707070707070707070707FFFF48
:10184000FE00000000FFFFFF00000000000000009D
:101850000000000000000000000000000000000088
:10186000000000000000FFFFFF00000000FFFFFF7E
:101870000000000000000000000000000000000068
:101880000000000000000000000000000000FFFF5A
:10189000FF00000000FFFFFF00000000000000004C
:1018A0000000000000000000000000000000000038
:1018B000000000000000FFFFFF00000000FFFFFF2E
:1018C0000000000000000000000000000000000018
:1018D0000000000000000000000000000000FFFF0A
:1018E000FF000010181F1F1F17070707070707072C
:1018F0000707070707070707070707070707070778
:101900000707070707171F1F1F18100000660101B0
:1019100000000101000001010000010100000101BF
:1019200000000101000001010000010100000101AF
:1019300066000000006600000000000000000000DB
:101940000000000000000000000000000000000097
:1019500000000000000000006600000000660000BB
:1019600000000000F8F82828F8D00000F0F000008F
:10197000F0F0000070F08080F0F000000000000047
:101980006600000000660000000000000101010187
:10199000010000000001010101010000000202023B
:1019A0000301000000000000660000000066000067
:1019B0000000000000000000000000000000000027
:1019C0000000000000000000000000000000000017
:1019D000660000000006080800000808000008086B
:1019E00000000808000008080000080800000808B7
:1019F0000000080800000808060000090F0606009D
:101A0000B31F11241FBECFEFDAE0DEBFCDBF11E060
:101A1000A0E0B1E0E6EBF7E602C005900D92A83C2D
:101A2000B107D9F726E0A8ECB1E001C01D92A13BB7
:101A3000B207E1F71DE0C1E0DDE004C02197FE013F
:101A40000E94E131C030D107C9F70E94F01F0C9409
:101A5000D9330C9400008091EC0108956F927F922D
:101A60008F929F92AF92BF92CF92DF92EF92FF92AE
:101A70000F931F93CF93DF93DC01FA0114913196FA
:101A800054913196C12FD0E0222309F1CC24C39484
:101A9000D12C852F877011F4D12CC12CE52EE69422
:101AA000E694E694EC0CFD2CF11CEC9EC001ED9E3E
:101AB000900DFC9E900D1124033011F4880F991F96
:101AC000289F7001299FF00C1124EE0DFF1D7D0150
:101AD000EC0EFD1E1E141F040CF06BC0A038B105E7
:101AE0000CF067C0CB01850F911D181619060CF07C
:101AF00060C0603471050CF05CC0309709F459C0C7
:101B0000362F3770CB0177FD079623E095958795A3
:101B10002A95E1F7282F77FF04C0332311F02FEF28
:101B2000280F662777276A1B7B0BB7FD02C070E082
:101B300060E090E89A1B40E8E416F1040CF4912F61
:101B4000961BE22E022E000CFF08DE2CD0942F3FB5
:101B50000CF0D12C41E0852F877009F440E0B52EC0
:101B6000B694B694B6944B0DE40EF11C89E0E816D9
:101B7000F10414F048E0421BB42EBD182D0D40E8CE
:101B8000240370011124AE0DBF1DA60FB71F1D9DAC
:101B9000600D711D1124AF01460F571FC32E032E78
:101BA000000CDD08033009F4C7C090F4023009F4DA
:101BB00074C0DF91CF911F910F91FF90EF90DF9054
:101BC000CF90BF90AF909F908F907F906F9008952F
:101BD0000A3FA1F1B20E0B3F61F72B1551F3BD0186
:101BE000615C7D4F10E000E0091708F09FC0FA012A
:101BF000E00FF11FE491F0E04F010C2C02C0880CC3
:101C0000991C0A94E2F727FD06C0FB018081F82C9D
:101C1000F0948F218083332361F0273054F47B01CB
:101C2000F0E8EF0EF11CA92CA094F70180818A2125
:101C300080830F5F1F4F6F5F7F4FD6CFB20E2B1584
:101C400009F4B7CFBD01615C7D4F10E000E00917DA
:101C500008F066C0FA01E00FF11FE491F0E04F01D7
:101C60000C2C02C0880C991C0A94E2F727FD04C0D2
:101C7000FB01808188298083332351F0273044F48D
:101C80007B01F0E8EF0EF11CF70180818929808348
:101C90000F5F1F4F6F5F7F4FDACF6FEF70E0032E44
:101CA00002C0660F771F0A94E2F760957095972E31
:101CB0008B2C820E281509F47CCF8D01015C1D4F01
:101CC000F12CE12CE91630F5FA01EE0DFF1DE4913F
:101CD000F0E03F010C2C02C0660C771C0A94E2F77E
:101CE00027FD05C0F8018081862386298083332360
:101CF00059F027304CF45801F0E8AF0EB11CF50153
:101D00008081892187298083FFEFEF1AFF0A0F5F07
:101D10001F4FD8CF2F5F4C0F5D1FA058BF4FCACFAA
:101D20002F5F4C0F5D1FA058BF4F89CF2F5F4C0F07
:101D30005D1FA058BF4F51CFE92EF12CFA01E60FDD
:101D4000F71FA15CBD4F60E870E06E197F09CE19E6
:101D5000DF098E01000F111F41E050E07A01032ED0
:101D600001C0EE0C0A94EAF7592F4B2D892E932EC1
:101D7000CF93DF93ED01EF96EF962296A590C59055
:101D8000992059F0AE9C5001CE9C600127302CF474
:101D9000F880D094FD20FB28F99222233AF0FC90A1
:101DA000C094FC20FA28FD920C94D70E11965A95F7
:101DB00029F74A9551F0582D23951124E00FF11D74
:101DC000A60FB11DC60FD11DD9CFDF91CF91112420
:101DD000F0CE480F592F511D1416150684F5803882
:101DE00091056CF597FF02C090E080E04138510505
:101DF00014F040E850E0481BFB01E770FF2721E0AA
:101E000001C0220FEA95EAF777FF02C0695F7F4FB2
:101E1000FB0133E0F595E7953A95E1F7F695FE2F4E
:101E2000EE27F795E795E80FF91FE15CFD4F41506C
:101E300030F08191DF011197822B8C93F8CF0895B8
:101E40004F925F926F927F928F929F92AF92BF92CA
:101E5000CF92DF92EF92FF920F931F93CF93DF9376
:101E600030E0F901E80FF91F1E161F060CF07FC0C5
:101E7000803891050CF07BC0802E912CF401E60F88
:101E8000F71F1E161F060CF072C0603471050CF0AF
:101E90006EC0E62FE7707E2EF7E08F0E911CE3E018
:101EA00095948794EA95E1F7F3E075956795FA952F
:101EB000E1F7062E000C770BDB01B695BA2FAA27A7
:101EC000B795A795A80FB91FA15CBD4FEA0110E017
:101ED00000E07801E60EF71E48E0E416F1040CF08D
:101EE00046C0EFEFEE16FE06C4F150E040E05D01A3
:101EF000F0E8AF0EB11C421753077CF5FA01E80F6A
:101F0000F91FE038F1054CF5F7FD24C0FA01EC0F9C
:101F1000FD1FE491F0E02F01072C02C0440C551C7A
:101F20000A94E2F7EFEFEE16FE0691F16D01C40E92
:101F3000D51EF601608064286082772059F0F7E0B2
:101F4000EF16F10439F06501C40ED51EF60160806C
:101F5000652860824F5F5F4FCECF0F5F1F4FA05845
:101F6000BF4FC20FD31F8016910609F0B2CFDF9189
:101F7000CF911F910F91FF90EF90DF90CF90BF9086
:101F8000AF909F908F907F906F905F904F9008954B
:101F90007110D9CFDFCFEFE3F2E0A0E0B8E000802E
:101FA0000EBC8111012C1197A0FDFDCF0192B9F754
:101FB0000DB408950F93682F70E008E025E04BEF13
:101FC00059E190E080E00E94200F0F910895FC01FC
:101FD00080913B02882311F13FB7F89482E080930F
:101FE000E9002091F200822F90E01816190614F4EF
:101FF00081E090E0882339F0289844E640933A0243
:102000004091F1004083222339F02091F200211108
:1020100003C02BE62093E8003FBF08958FEF9FEFAA
:1020200008952FB7F89483E08093E9009091E80039
:10203000892F807295FF04C09091F20080E4891B83
:102040002FBF08958091320281110DC082E08093EC
:102050002E0284E080932F021092310210923002FF
:1020600081E0809332028EE292E00895CF93DF9375
:102070001F92CDB7DEB76983DC01ED91FC91028040
:10208000F381E02D41E050E0BE016F5F7F4F099585
:102090000F90DF91CF91089583E08093E9008091C4
:1020A000F200882319F08AE38093E80008950E94E3
:1020B000111090E00895CF93DF931F92CDB7DEB754
:1020C000FC018485958597FD08C02FEF3FEF35878C
:1020D00024870F90DF91CF910895CE0101960E9441
:1020E000E70F019719F4898190E0F3CF8FEF9FEF0D
:1020F000F0CF0F931F93CF93DF931F92CDB7DEB72F
:102100008C01FC018485958597FF0BC0CE0101965B
:102110000E94E70F019771F4898190E0F80195879B
:102120008487F801848595850F90DF91CF911F9169
:102130000F9108958FEF9FEFF1CFFC018485958576
:1021400097FD0BC09FB7F89482E08093E9008091DF
:10215000F2009FBF90E0019608959FB7F89482E047
:102160008093E9008091F2009FBF90E00895409134
:10217000280250912902209126023091270242170D
:102180005307B4F49091E8009570E1F39091E80062
:1021900092FD19C08093F10080912802909129024C
:1021A00001968F739927892B19F48EEF8093E8009D
:1021B00080912802909129020196909329028093A0
:1021C000280281E0089580E00895DF92EF92FF9267
:1021D0000F931F93CF93DF93D82E8A01EB017B01DE
:1021E000E40EF51ECE15DF0559F0D7FE12C0FE0134
:1021F00084910E94B71021968111F4CF0FEF1FEF49
:10220000C801DF91CF911F910F91FF90EF90DF9068
:1022100008958881EECF0F931F93CF93DF931F9282
:10222000CDB7DEB782E0898342E450E060E877E131
:1022300080E80E94E5100E942210DC0112960D91A8
:102240001C910115110589F0D801ED91FC910280D6
:10225000F381E02DBE016F5F7F4FC801099597FDA7
:1022600004C0F80100851185ECCF89810F90DF91C2
:10227000CF911F910F910895615030F02091F1009E
:10228000FC0120830196F8CF289884E680933A02D7
:102290000895FC010E94E011319728F068517C4FAD
:1022A0008F4F9F4FF9CFAB01FC010E94E0116417E3
:1022B00075078E079F07C8F308958F929F92AF927C
:1022C000BF92CF92DF92EF92FF920F931F93CF9323
:1022D000DF936C017B018A0180918901882309F4D5
:1022E0005AC080913B02882309F455C080912D0289
:1022F00080FF05C08091E00082608093E000E801EB
:10230000B12C8AEFA82E93E0892E2AE3922E2097F3
:1023100011F4BB20C9F10E941110811108C0AA94C8
:10232000AA20C9F181E090E00E944911F0CF8C17FA
:102330001D0611F00CF08C2F9FB7F8948092E900E5
:102340002091E80025FD02C09FBFE1CF282F30E09B
:10235000C21BD30BF701815020F041914093F10053
:10236000FACFE20EF31EBB2021F09092E800B12CD0
:10237000EBCF8091E80085FDE7CF9092E800BB2489
:10238000B394209709F3F3CF5D9884E680932C02F1
:10239000101611063CF081E090E0F60193838283F1
:1023A00010E000E0C801DF91CF911F910F91FF90E5
:1023B000EF90DF90CF90BF90AF909F908F90089557
:1023C000A2E2B2E02FB7F8947D918D919C9166B511
:1023D0002FBFA89B05C06F3F18F47F5F8F4F9F4FA3
:1023E00022E0660F771F881F991F2A95D1F708955D
:1023F000AF92BF92CF92DF92EF92FF920F931F9313
:10240000CF93DF936C017B018B01040F151FEB0150
:102410005E01AE18BF08C017D10759F06991D60107
:10242000ED91FC910190F081E02DC6010995892B79
:1024300079F7C501DF91CF911F910F91FF90EF9038
:10244000DF90CF90BF90AF900895FC0144815581FB
:10245000608171818FE996E00C94F8112091EB0175
:10246000E091E901F091EA01CF0102969093EA012F
:102470008093E901222319F0859194910895808138
:1024800091810895E1E7F0E080818D7F8083109253
:102490009100469847981092CB010895CF92DF9211
:1024A000EF92FF92CF93DF930E942E12811520E8C6
:1024B000920741F4DF91CF91FF90EF90DF90CF90A2
:1024C0000C94421221E02093CB01813020E8920746
:1024D00051F48091E7019091E8019093EA01809393
:1024E000E9010E942E1297FD05C02091CA01222306
:1024F00009F45BC02091C901211157C021E020934C
:10250000CC01EC01DF77209709F052C081E0809385
:10251000CD0146983FE9C32E3FE0D32EE12CF12CAC
:10252000CAEFD0E0E0919D06F0919E0609958111D9
:1025300003C081E08093CD018091CC01882329F0F4
:102540008091CD01882309F446C047980E942E123D
:10255000009709F444C09C01DE010E942B2FDC018E
:10256000CB0129E0B595A795979587952A95D1F741
:10257000109290002AE020939100D0929900C0928E
:1025800098008093CE019093CF01A093D001B09397
:10259000D10180917100826080937100DF91CF91B1
:1025A000FF90EF90DF90CF9008951092CC01A9CFCB
:1025B0009E0150E040E060E472E48FE090E00E9411
:1025C000A82E69017A0181E0C81AD108E108F10852
:1025D0001092CD01A7CF4699B8CF479AB7CF8FEFCA
:1025E0009FEFDC01C5CF0F9302E00E942E0D0F91EB
:1025F000089590E00C9449118FB18095807F669B7F
:1026000088601C9B846008951092EC013E983F986E
:1026100008953E9A3F9A81E08093EC01089590E0FE
:10262000EFE3F2E091119FEF8FEF919391939193EC
:1026300091938150D0F71092D3011092D201109251
:10264000D5011092D401089590911102982329F494
:1026500090911202982381E009F480E0089580E0CF
:102660000C94CB0F80389105B8F460347105A0F458
:1026700090E121E061FD24E060FD220F62FD2295E2
:10268000687F969FD0011124A80FA15CBD4F0C90CC
:10269000022A40FF02260C9208952F923F924F92F9
:1026A0005F926F927F928F929F92AF92BF92CF92E2
:1026B000DF92EF92FF920F931F93CF93DF937C01F2
:1026C0004B01C42FD0E081E090E06C01CC1ADD0A10
:1026D000AA24BB24AC1ABD0AAA0CBB1C66246394B2
:1026E000712C10E000E0822F8470582E822F8270AF
:1026F000482E822F8870382E2170222ED7FC06C0DB
:10270000219782E0A80EB11CCA0CDB1C0F5F1F4F83
:1027100082E0680E711CC60CD71C552091F041E078
:10272000BE01680D791DC701800F911F0E943213F1
:1027300041E0B401600F711FCE018E0D9F1D0E94FC
:102740003213442091F041E0B4016C1B7D0BC701B2
:10275000800F911F0E94321341E0B401601B710B86
:10276000CE018E0D9F1D0E943213332091F041E067
:10277000B401600F711FC7018C1B9D0B0E943213A7
:1027800041E0BE01680D791DC701801B910B0E94BD
:102790003213222091F041E0B401601B710BC7019C
:1027A0008C1B9D0B0E94321341E0B4016C1B7D0B0E
:1027B000C701801B910B0E9432130C171D070CF4EC
:1027C0009DCFDF91CF911F910F91FF90EF90DF9000
:1027D000CF90BF90AF909F908F907F906F905F90C1
:1027E0004F903F902F9008952F923F924F925F927B
:1027F0006F927F928F929F92AF92BF92CF92DF9211
:10280000EF92FF920F931F93CF93DF93EC018B0115
:102810007A016901C61AD70AD7FE03C0D194C194C0
:10282000D10847018C1A9D0A97FE03C091948194A8
:1028300091088C149D0454F49E2D8F2D7901292F1D
:10284000382F9C2F8D2FE801092F182FEC16FD062D
:1028500054F4902F812F8901292F382F9C2F8D2FF1
:10286000E701E92EF82E17012C1A3D0A2901401A1A
:10287000510A57FE03C0519441945108310137FE6B
:1028800003C08FEF681A780A759467948FEF021768
:1028900013070CF481E0A82E880FBB08EC16FD0688
:1028A000A4F041E0BE01C8018C149D0414F0B801ED
:1028B000CE010E9432136418750877FE04C00A0D19
:1028C0001B1D620C731C2196E9CFDF91CF911F91E4
:1028D0000F91FF90EF90DF90CF90BF90AF909F90BF
:1028E0008F907F906F905F904F903F902F900895C2
:1028F0008F929F92AF92BF92CF92DF92EF92FF9210
:102900000F931F93CF93DF936D3089F0C090D20166
:10291000D090D3016A30D1F41092D5011092D40135
:1029200088E0C80ED11CD092D301C092D20181E0C0
:1029300090E0DF91CF911F910F91FF90EF90DF908A
:10294000CF90BF90AF909F908F9008950091D40149
:102950001091D501E5E06E9FE0011124C05AD74FD8
:102960004801F12CF5E0E12CFF1629F0CE0101968B
:10297000FE01E490EC01B12CA12C4E2D4170B6016A
:102980006A0D7B1DC4010E943213E694FFEFAF1A5B
:10299000BF0A88E0A816B10481F7F394EFEF8E1A0E
:1029A0009E0AF6E0FF12DECF0A5F1F4F1093D5019B
:1029B0000093D401BCCFDF92EF92FF920F931F934D
:1029C000CF93DF937C01D22E8B01040F111DEB01FD
:1029D00077FF02C0D0E0C0E0C8010134110514F057
:1029E00080E490E0C817D9073CF44D2DBE01C70123
:1029F0000E9432132196F0CFDF91CF911F910F915A
:102A0000FF90EF90DF9008952F923F924F925F9248
:102A10006F927F928F929F92AF92BF92CF92DF92EE
:102A2000EF92FF920F931F93CF93DF9300D000D0CC
:102A3000CDB7DEB75C012B012A83242F30E03C8325
:102A40002B8381E090E07C01E21AF30A19013194B2
:102A500021943108220C331C88248394912CD12C8E
:102A6000C12C31E0300F3983F7FC0AC0EB81FC81C7
:102A70003197FC83EB83F2E02F0E311CE20CF31C48
:102A80002FEFC21AD20A32E0830E911CE80CF91C17
:102A90004B81440FB2018B819C81681B790B102FF5
:102AA000180D32016C187D089A81913069F5E98121
:102AB0004E0F20E0C5018C0D9D1D0E94DB1420E00F
:102AC000412FB3018B819C818A0D9B1D0E94DB14D9
:102AD0008B819C81C816D9063CF20F900F900F9005
:102AE0000F90DF91CF911F910F91FF90EF90DF90AA
:102AF000CF90BF90AF909F908F907F906F905F909E
:102B00004F903F902F900895F9814F0F20E0C5011D
:102B10008C199D090E94DB1420E0412FB301C501EF
:102B2000EB81FC818E1B9F0BD1CFDF92EF92FF9246
:102B30000F931F93CF93DF937B01D22EEC018C0177
:102B4000040F111DC017D10744F420E04D2DB7012B
:102B5000CE010E94DB142196F5CFDF91CF911F911A
:102B60000F91FF90EF90DF9008955F926F927F92A8
:102B70008F929F92AF92BF92CF92DF92EF92FF928D
:102B80000F931F93CF93DF93EC017B01142F722ED1
:102B9000602E660C542E5618802E912C5401A80ECF
:102BA000B91E6034710520F4452DC5010E94E90E5F
:102BB0006701C70CD11CB601615071096034710501
:102BC00020F4452DC5010E94E90E7618E80CF91C89
:102BD00021E0472DB701CE010E94DB14C10FD11DAA
:102BE00021E0472DB701CE0101970E94DB1421E0BF
:102BF000402FB701C5010E944D13C819D90921976B
:102C000022E0402FB701CE010E944D13C818D90809
:102C100081E0C81AD10824E0402FB601CE010E94FD
:102C20004D1328E0402FB601C501DF91CF911F91D0
:102C30000F91FF90EF90DF90CF90BF90AF909F905B
:102C40008F907F906F905F900C944D1320910E02A7
:102C500084E0289F9001112441E090E080E0FC0195
:102C6000E20FF31FE659FE4F5081511140E00196EB
:102C700084309105A1F740933E0208958F929F9270
:102C8000AF92BF92CF92DF92EF92FF921F93CF93BA
:102C9000DF931092E201E5E0F1E089E691E0812C1A
:102CA000912C5401839424813581820E931EA11CA2
:102CB000B11C3A968E179F07B1F780921702909237
:102CC0001802A0921902B0921A02F09176012AE637
:102CD00031E0C0E0C12CD12C7601D0E013E1FD172A
:102CE000D9F090E080E0D901A80FB91FEC91E19FE5
:102CF000A0011124052E000C660B770BC40ED51E07
:102D0000E61EF71EE111CF5F01968430910559F759
:102D1000DF5F2C5F3F4FE3CFC0921302D0921402CB
:102D2000E0921502F0921602C093C801A4E6B0E04A
:102D3000A50194010E94C72E9601A701C114D104D8
:102D4000E104F10421F421E030E040E050E00E9491
:102D5000092F3093DF012093DE012F3B3105B0F0C6
:102D600081E08093E201B694A794979487948BE0D6
:102D700088169104A104B10408F044C0809217029F
:102D800090921802A0921902B0921A028EEEC81602
:102D900082E0D806E104F10428F0D23018F483E090
:102DA00080937601C53038F080916901863018F43F
:102DB00089E08093690190913F01809140019817CB
:102DC000A8F09091490180914A01981778F090916C
:102DD000530180915401981748F090915D018091C2
:102DE0005E01981718F08AE080936901DF91CF9116
:102DF0001F91FF90EF90DF90CF90BF90AF909F908A
:102E00008F9008958AE090E0A0E0B0E080931702F0
:102E100090931802A0931902B0931A02B7CF0F93A0
:102E2000CF93DF93EC019E816A3059F48D818C83BE
:102E30006985960F9E8381E090E0DF91CF910F919D
:102E40000895262F61E0690F2A3398F4203398F50E
:102E50002B3299F140F42132A1F198859D5F8C814C
:102E6000890F8C83E8CF2E3251F12F32B1F723E452
:102E70000FC02B3540F42134E0F42C3321F12E33F4
:102E800061F721E405C08FE9820F27548A3128F7C2
:102E9000062E000C770B8C81082E000C990B3F81BD
:102EA0000AEF313009F00BEF49E557E00E942E0D93
:102EB000D4CF2154EDCF2C5FEBCF20E4E9CF2FE32B
:102EC000E7CF2EE3E5CF22E4E3CF0F931F93CF9319
:102ED000DF938C01D0E0C0E0F801EC0FFD1F64919E
:102EE000662341F08FE996E00E940F17892B11F0BD
:102EF0002196F2CFCE01DF91CF911F910F910895CE
:102F0000089590E080E008958F929F92AF92BF92D3
:102F10000F931F93CF93DF93CDB7DEB7A1970FB673
:102F2000F894DEBF0FBECDBF19A2423008F44AE0CC
:102F30008E010F5D1F4F842E912CB12CA12CA50169
:102F400094010E94092FE62FB901CA01EA3044F525
:102F5000E05DD801EE938D01232B242B252B79F7EF
:102F600090E080E0109769F0FD0101900020E9F702
:102F70003197AF014A1B5B0BBD018FE996E00E94C0
:102F8000F811A1960FB6F894DEBF0FBECDBFDF914A
:102F9000CF911F910F91BF90AF909F908F90089508
:102FA000E95CD7CF80913E02811126C080910E024C
:102FB0002091770134E0839FC001112486599E4FF0
:102FC000820F911DFC0160816623D9F070E090E0D2
:102FD00080E00E94852D9B01AC0163E373E383EBEA
:102FE0009FE30E94DB2F20E030E04AE754E40E9498
:102FF000C22D0E94AC2F089560EA76E881E090E04F
:10300000089568EE73E080E090E00895AF92BF927B
:10301000CF92DF92EF92FF920F931F93CF93DF93A4
:10302000CDB7DEB7C054D1090FB6F894DEBF0FBEDE
:10303000CDBF9091DC01BB24B3949111A8C0E82EC0
:10304000F12C970123513E4F6901F901B080B11075
:103050009EC091E0909310029091DB01953608F0AC
:10306000A9C09F5F9093DB01A82E22E349E666E0AA
:1030700070E08DE090E00E94951507E210E021E0FD
:1030800045E06BE070E085E790E00E94041522E0E7
:1030900045E06BE070E08DE090E00E94041505E0F3
:1030A00022E343E765E070E088E090E00E94B51518
:1030B000F5E0FA1548F420E044E95FE062E170E0F1
:1030C0008AE590E00E94F3128BE08093A40680933F
:1030D000A30688E08093A506F701EE0FFF1FE65DCB
:1030E000F74F659174918E010F5F1F4FC8010E94C9
:1030F0001D2BF80101900020E9F73197FE2EF01A00
:10310000E091DB01EF1520F4E00FF12FF11D1082AB
:10311000F80101900020E9F73197AF01401B510BF6
:10312000B8018FE996E00E94F81128E040E868E3D2
:1031300070E090E080E00E94951508E027E042E40E
:1031400057E169E370E08AE590E00E94200F84E691
:103150008093A4068093A30689E38093A50687E263
:1031600098E00E94651784E00E942413882321F1CF
:103170009091DB01F91658F41092100291E0F601DB
:1031800090831092DB0192E39093DC01B82E8B2D9B
:10319000C05CDF4F0FB6F894DEBF0FBECDBFDF912E
:1031A000CF911F910F91FF90EF90DF90CF90BF9044
:1031B000AF90089594E656CFB12CE9CF0C94802EB1
:1031C00082E090E00E94DE1881110C9409130C94A7
:1031D0000413EF92FF920F931F93CF93DF9380E13D
:1031E00090E00E94DE188D3A09F07BC081E190E00A
:1031F0000E94DE188E3B09F074C082E190E00E94CC
:10320000802E8093780183E190E00E94802E80934D
:10321000790184E190E00E94802E80937A0185E11B
:1032200090E00E94802E80937B0186E190E00E94D6
:10323000DE1880931B0287E190E00E94DE188093E5
:103240007C010DEE11E0C8E1D0E0CE010E94DE1855
:1032500091E0811101C090E0F80191938F012196D6
:10326000C233D10591F78AE6E82E81E0F82E10E00E
:1032700000E0C8018C0F9D1F0E94DE18F701E00FCF
:10328000F11F80830F5F1F4F0430110591F72496C3
:10329000F4E0EF0EF11CCE33D10549F705E011E063
:1032A000CE010E94DE18F8018087CE0101960E94AF
:1032B000802EF8018483CE0102960E94802EF801B0
:1032C00085832396065F1F4FCC35D10549F70E94B1
:1032D0003E1681E0DF91CF911F910F91FF90EF900B
:1032E000089580E0F7CF0F931F93CF93DF93EC0106
:1032F00088819981009759F02A813B8126173707E9
:1033000030F081E0DF91CF911F910F9108958B01F3
:103310006F5F7F4F0E940C33009759F09983888329
:103320001B830A832C813D81232B59F7FC011082DA
:10333000E8CF80E0E7CFCF93DF93EC0188819981DC
:10334000009711F00E948332198218821D821C821C
:103350001B821A82DF91CF910895EF92FF920F9313
:103360001F93CF93DF938C017B01FB010190002021
:10337000E9F73197E61BF70BD1F0DC011496CD91FC
:10338000DC91CE0FDF1FBE010E9473198823B9F0B4
:10339000F8012081318184819581B701820F931FCB
:1033A0000E94D233D8011596DC93CE931497C801AE
:1033B000DF91CF911F910F91FF90EF900895C80179
:1033C0000E949B19F4CFEF92FF920F931F93CF931C
:1033D000DF93EC017B018A01BA010E94731981110C
:1033E0000BC0CE010E949B19CE01DF91CF911F919E
:1033F0000F91FF90EF9008951D830C83B701888192
:1034000099810E94D233F0CFEF92FF920F931F93D6
:10341000CF93DF93CDB7DEB7A1970FB6F894DEBF99
:103420000FBECDBF7C01CB01BA01F7011182108222
:1034300013821282158214828E010F5F1F4F21E0CA
:1034400043E00E94FF2A0097C9F0FC010190002090
:10345000E9F73197AF01481B590BBC01C7010E9426
:10346000E319A1960FB6F894DEBF0FBECDBFDF9172
:10347000CF911F910F91FF90EF900895C7010E9487
:103480009B19EFCFFB01DC0111961C921E92139643
:103490001C921E92129715961C921E9214978617D4
:1034A000970749F0608171816115710521F04481B0
:1034B00055810C94E3190895FC0180819181009756
:1034C00011F00C94833208952F923F924F925F92A5
:1034D0006F927F928F929F92AF92BF92CF92DF9224
:1034E000EF92FF920F931F93CF93DF93CDB7DEB789
:1034F00062970FB6F894DEBF0FBECDBFE82EF62E52
:10350000372E082F880F110B80913E02882309F176
:1035100021E049E158E16BE070E0C8010E94F3123C
:1035200062960FB6F894DEBF0FBECDBFDF91CF918C
:103530001F910F91FF90EF90DF90CF90BF90AF90D1
:103540009F908F907F906F905F904F903F902F90C3
:10355000089520E049E158E16BE070E0C8010E9465
:10356000F312C0903C02D0903D0293E0D694C794F1
:103570009A95E1F7260155944794559447948FE323
:1035800048225524360136E0759467943A95E1F760
:1035900093E069227724462D44254C2541706CE048
:1035A00070E0C8014C960E943213460195948794AE
:1035B000E89487F89924560154E0B594A7945A9555
:1035C000E1F7EFE0AE22BB24482D46254A254170A5
:1035D0006CE070E0C8014E960E943213A60163E0D1
:1035E000559547956A95E1F74F715527482546014E
:1035F00075E0959487947A95E1F7482541706CE0E1
:1036000070E0C80180960E943213C7FACC24C0F83B
:103610004A2D44254C2541706CE070E0C80182962B
:103620000E9432134F2C532CEFE0CE2ED12CF8E217
:10363000FE0DF88B86E0E80EF12CFE0131964F016D
:10364000F889F093A406F093A306C092A506F201B0
:1036500011912F01111114C008E02CE14CEE57E13B
:10366000B601C7010E94200F85E198E10E9465170D
:1036700089E0C80ED11C93E3C916D10409F750CFD5
:1036800001E028E04CE1B601C7010E94B515370101
:10369000F2E06F0E711CB12CA12C212E312CC60131
:1036A00002969A8B898BA214B304F4F4E12FEA19E1
:1036B000E53008F0E4E0E150FF0BEE0FFF1FE85F9C
:1036C000F74E4591549108E024E069897A89C30155
:1036D0000E94200F94E0A90EB11CE5E06E0E711C53
:1036E000F4E1AF16B104F9F680E198E10E946517A4
:1036F000F201319780811B861A861D861C861F86E3
:103700001E864AE0B40190E00E94242BF40101904F
:103710000020E9F73197AF0148195909B401CE01EA
:103720000A960E94E319CE010A960E942512CE0144
:103730000A960E945C1A9CCFCF92DF92EF92FF9282
:10374000CF93DF93CDB7DEB72C970FB6F894DEBFDB
:103750000FBECDBF6B017C0128EEC21623E0D2065E
:10376000E104F10480F44AE00E9484172C960FB61D
:10377000F894DEBF0FBECDBFDF91CF91FF90EF90E9
:10378000DF90CF9008950E94852D20E4C21622E498
:10379000D2062FE0E206F10420F520E030E04AE70F
:1037A00054E40E943A2FAB01BC01CE0101960E9465
:1037B000041ABE016F5F7F4FCE0107960E94421A26
:1037C00061EC71E0CE0107960E94AD190E942512AE
:1037D000CE0107960E945C1ACE0101960E945C1AE7
:1037E000C5CFC1142AECD2062AE9E2062BE3F20681
:1037F000B0F420E034E244E759E40E943A2FAB01F0
:10380000BC01CE0101960E94041ABE016F5F7F4F7A
:10381000CE0107960E94421A63EC71E0D3CF28E2F2
:103820003BE64EE65EE40E943A2FAB01BC01CE01BE
:1038300001960E94041ABE016F5F7F4FCE0107966A
:103840000E94421A65EC71E0BDCFFF920F931F9367
:10385000CF93DF93EC01F62E08811981C8010E94F5
:10386000802EF81621F06F2DC8010E949A2ECE01ED
:10387000DF91CF911F910F91FF900895CF93DF9328
:1038800000D0CDB7DEB79A838983CE0101960E941E
:10389000251C0F900F90DF91CF9108951F920F92EA
:1038A0000FB60F9211248F939F938091E100909116
:1038B000E100937F9093E10083FF0FC01092E90035
:1038C00091E09093EB001092EC0092E39093ED0066
:1038D00010923B0298E09093F00082FF22C093E0A8
:1038E0009093E9009091F200992319F09AE3909354
:1038F000E80090912C02992341F090912C02915074
:1039000090932C02911101C05D9A90913A029923F3
:1039100041F090913A02915090933A02911101C076
:10392000289A84FF18C08091E2008E7E8160809387
:10393000E2008091E1008F7E8093E10080912D0272
:103940008E7E806180932D029F918F910F900FBE8C
:103950000F901F90189580FFF7CF8091E2008E7E28
:1039600080618093E2008091E1008E7E8093E1008F
:1039700080912D028E7E8160E5CF1F920F920FB64F
:103980000F921124CF92DF92EF92FF920F931F9329
:103990002F933F934F935F936F937F938F939F9357
:1039A000AF93BF93EF93FF93CF93DF93CDB7DEB782
:1039B0006C97DEBFCDBF1092E9008091E80083FFD5
:1039C00025C068E0CE0145960E943C1182EF8093AD
:1039D000E8008D8987FF39C09091E80090FFFCCF07
:1039E000982F907609F034C19E894F89588D2F8980
:1039F000F88C911131C0803861F580912B02809351
:103A0000F1001092F1008EEF8093E8006C960FB6F3
:103A1000F894DEBF0FBECDBFDF91CF91FF91EF9144
:103A2000BF91AF919F918F917F916F915F914F91D6
:103A30003F912F911F910F91FF90EF90DF90CF90CA
:103A40000F900FBE0F901F9018959EEF9093E80077
:103A5000C7CF1092F100D5CF913059F48111D3CF57
:103A60004130510581F680912B028D7F80932B028E
:103A7000CACF933049F48111C6CF4130510519F6B0
:103A800080912B028260F2CF953041F48091E80062
:103A900080FFFCCF20682093E300B5CF963009F07B
:103AA000A9C00B8D1C8D22E01092E9001092290212
:103AB00010922802F2122EC01092270210922602B3
:103AC0000E940B111F8299E09983FA8291E09E83F4
:103AD00090EA98879AEF99872091280230912902DD
:103AE000275F3F4F3C832B838D831092E900109218
:103AF000290210922802109327020093260249E01F
:103B000050E0BE016F5F7F4F80E00E94E5100E9491
:103B10000B1179CF10932702009326020E942210E6
:103B2000DC0112960D911C910115110509F451C18A
:103B3000D801ED91FC910480F581E02DBE016B5E12
:103B40007F4FC8010995009709F03EC1F801008533
:103B50001185EACFF3E0FF120EC08F89882309F4A4
:103B600040C0823061F440E867E084EE97E10E9453
:103B7000801F811148CF81E28093EB0047CF8130D5
:103B800029F440E86BE088ED97E1F1CF833099F7B5
:103B90000E942210DC011296ED90FC908E010F5FC6
:103BA0001F4F6801E114F10479F0D701ED91FC9108
:103BB0000680F781E02DB801C7010995080F111D96
:103BC000F701E084F184EECFD8011C92F601019058
:103BD0000020E9F73197BF016C197D0940E0C6016B
:103BE000C6CF62EC77E1FB01449150E080E80E948F
:103BF000E51009CF973009F4BECF983021F481E069
:103C00008093F10000CF993009F0FDCE837009F068
:103C1000B2CFE1E9F1E081E031E096E321912223A6
:103C200071F08093E9003093EB00DF0111972C9144
:103C30002093EC009093ED008F5F873079F78EE74B
:103C40008093EA001092EA008F8980933B02DBCEDA
:103C50008B8D9C8D1092E9001092290210922802FF
:103C60009093270280932602898D811192C08E89BC
:103C70009D89913A49F4813209F07DCF47E050E0C7
:103C800062E871E080E0B3CF913209F074CF833203
:103C900069F48F89988DB0E0A0E080937E019093C5
:103CA0007F01A0938001B0938101ADCE803269F491
:103CB0008091E80082FFFCCF67E082E891E00E94FB
:103CC0003C118BEF8093E8009ECE823209F09BCEB0
:103CD0008F8980938901EEEFFFE7859194918B3F67
:103CE0009C4D51F1E0E0F8E08091820190918301D8
:103CF000A0918401B0918501803B9440A105B1055C
:103D0000F1F48091890180FD1AC0EE3F8AE0F80746
:103D100089F587E797E7918380838091600080939E
:103D20002A0288E19BE00FB6F894A8958093600082
:103D30000FBE9093600067CEEEEFFAE0D5CF8081A2
:103D400091818737974709F05ECEA89580916000F2
:103D500088618093600080912A0280936000EE3F2A
:103D60002AE0F20789F08091FE0A9091FF0A918380
:103D7000808349CE808191818737980751F2909353
:103D8000FF0A8093FE0AC5CF1092FF0A1092FE0A26
:103D90003ACE0E942210DC0112960D911C91011561
:103DA000110509F4E8CED801ED91FC910190F08164
:103DB000E02DBE016B5E7F4FC8010995811123CEB6
:103DC000F80100851185EBCF181619060CF41BCEEF
:103DD000D2CEF1E0FF12BECE66EC77E104CF0F92B7
:103DE0000FB68F939F93EF93FF9380911D028D5F8A
:103DF0008D3708F08D5780931D02EEE1F2E080814F
:103E00008E4F808391819F4F918382818F4F8283D8
:103E100083818F4F8383E2E2F2E080818F5F808332
:103E200081818F4F818382818F4F828383818F4FE6
:103E300083838FB18F6066991C9B88278F3681F4AE
:103E400080911C02981B963068F0E0E0F8E087E76C
:103E50008083818388E180936000F0936000FFCFCE
:103E600090931C02FF91EF919F918F910FBE0F9045
:103E700018951F920F920FB60F9211242F933F9314
:103E80004F935F936F937F938F939F93AF93BF9362
:103E9000EF93FF938091CE019091CF01A091D0013B
:103EA000B091D1010097A105B10539F12091CD0163
:103EB000211105C0369A2091CC012111379A019722
:103EC000A109B109B7FD08C08093CE019093CF013D
:103ED000A093D001B093D101FF91EF91BF91AF9129
:103EE0009F918F917F916F915F914F913F912F9112
:103EF0000F900FBE0F901F9018950E944E12ECCF9E
:103F0000EF92FF920F931F93CF93DF93F82E192F09
:103F1000E62E042F81E0860F880F0E94B71083E001
:103F20000E94B710CF2DD12FEC0EFD2EF11CCE1517
:103F3000DF05B9F007FF13C0FE0184910E94B7109E
:103F4000182F80E00E94B710812321968111EFCFB6
:103F5000DF91CF911F910F91FF90EF90089588818D
:103F6000EDCF81E0F5CFEFE3F6E01382128288EE29
:103F700093E0A0E0B0E084839583A683B7838BE9C8
:103F800091E0918380838FEF9FEF958784878BE209
:103F90009DE090939E0680939D0680E090E890932C
:103FA0009C0680939B0646983E9A47983F9AE9EA7A
:103FB000F6E01382128289EB91E091838083EFE92E
:103FC000F6E0138212828DEA91E09183808388E08B
:103FD000818781E080871582168214828783089505
:103FE000CDB7DEB7A297DEBFCDBF789483E084BDA6
:103FF00083E085BD81E080936E00E1E8F0E083E03E
:104000008083E0E881E08083E1E983E08083E0E988
:1040100081E08083E1EC87E08083E3EC81E08083D2
:10402000E0EC82E08083E2EC81E08083EAE787E0F5
:1040300080838068808310923B0210922B02109242
:104040002D028091D70081608093D70080EA809311
:10405000D80089B5806189BD89B5826089BD09B400
:1040600000FEFDCF81E090E00E9449118091D800D0
:104070008F7C80618093D8008091E000807F809366
:10408000E0008091E1008E7E8093E1008DE08093DE
:10409000E200559A209A81EC80937C0081EF85B9EB
:1040A00087EE84B984E38BB984EF8AB9769A6E98E7
:1040B00080EF81BB10BA80E58CBD81E08DBD85E0CD
:1040C0000E94F9125F9A85E00E94F9125C98E0E183
:1040D000FEE085918EBD00000DB407FEFDCFED31F1
:1040E000C1F75C9A81E88093640081E08093650069
:1040F0000E942F130E94FC1287FF15C05C9885EA6E
:104100008EBD00000DB407FEFDCF5C9A2E982F984F
:104110002D988091640080628093640081E083BF69
:10412000889513BEFCCF0E94FC1282FF37C02D98E9
:104130000E94FC1284788438A1F42D9A88EC0E94A5
:10414000F9122F986FEF82E090E00E94882E84EFA2
:1041500091E00E9449112F9A0E94FC1284788438C1
:10416000D9F30E94FC1284718431A1F42D9A88EC59
:104170000E94F9122E9860E082E090E00E94882E62
:1041800084EF91E00E9449112E9A0E94FC128471E2
:104190008431D9F388EC0E94F912C5CF2D9A0E9480
:1041A000E01881E090E00E94802E182F147081FFAB
:1041B0000CC011112E9801EFE02EFF24FA940E94FA
:1041C000FC1286FF3EC02E9A2F9A82E30E94F912BB
:1041D0000E94FC128111F9CF80E1809300010E94BE
:1041E0003E160E94E0188091EC018093080288231B
:1041F000A1F0809171008D7F8093710081E08093A8
:10420000EB018DE792E19093EA018093E9019093AD
:10421000E8018093E7010E944E12AE014F5F5F4FAD
:104220006A01B7E12B2E8091D601882309F464C07E
:104230001092D60180E090E0892BA9F30E94000043
:10424000F0CF112331F004E0E016F10411F42E9ABE
:104250002F9881E00E94CB0F00E128E540E65DE069
:10426000B70184E190E00E94200F0E942F138FE09D
:104270000E94F9122FEFE21AF20A39E1E316F10473
:1042800009F09DCF112311F02F9A2D9880E991E02C
:104290000E9449112D9A81E090E00E94802E80FFBB
:1042A00094CF8AE090E00E94802E9FEF980F9E3F6F
:1042B00008F08BCF22E330E03093D5012093D40176
:1042C00028E330E03093D3012093D2010AE010E0DC
:1042D000682F89EA96E00E9478140F5F1F4FC8018B
:1042E0000E94802E0031110599F70E942F1388EE4D
:1042F00093E00E94491169CF90911E028091D701ED
:10430000592F581B852F20910001521748F48F5FB9
:10431000821708F08FCF81E083BF889513BE8ACFC4
:1043200081E08093D6019093D701ECE3F2E08081A5
:104330009181019680839183109112028091DA011C
:10434000811159C0109311020E94FC128093120235
:1043500088E00E942413811105C084E00E94241388
:10436000882319F081E08093DA010E940F13809175
:10437000D9018F5F8093D9019091D8019923A9F138
:10438000883C20F01092D8011092D9012091D801D8
:1043900081E0282744E95FE068E170E08CE490E088
:1043A0000E94F31200E226E54CE35EE067E070E075
:1043B00084E190E00E94200F0BE02DE042E25EE0FD
:1043C00065E370E090E080E00E94200F8FE0809332
:1043D000A4068093A30689E38093A5068DE19EE061
:1043E0000E9465170E942F1325CF8E3178F281E04D
:1043F0008093D801C9CF80913C0290913D0264E145
:1044000070E00E94CD31892B59F580911302909173
:104410001402A0911502B09116024091170250911A
:1044200018026091190270911A0284179507A60765
:10443000B70710F4AC01BD0180917801909179012A
:10444000A0917A01B0917B01840F951FA61FB71F21
:104450008093780190937901A0937A01B0937B01C6
:10446000109311020E94FC12082F8093120288E020
:104470000E942413882341F080917D018F5F823058
:1044800008F0DCC680937D0180917D01882351F086
:1044900015FF08C005FD06C0813009F0D2C682E0D4
:1044A00080937D010E940F1380911B028F3F09F0C2
:1044B00093C680917C018F3F09F493C680917D0162
:1044C0008111EAC1809110028111CAC380E80E9463
:1044D0002413882339F0809177018111B4C683E0D9
:1044E0008093770180E10E942413882339F0809122
:1044F0007701833008F4A9C61092770110917601F4
:104500001230B8F180910F02811133C080E20E9415
:104510002413882399F080910E0280930D029091CC
:104520003E0290930C02811194C68FEF810F80930D
:104530000E020E94261680EB80930F0280E40E94F8
:1045400024138823B1F080910E0280930D02909184
:104550003E0290930C02E12FE150FF0B8E171F06D5
:104560000CF479C610920E020E94261680E5809304
:104570000F0280910F0218160CF071C68A508093BA
:104580000F0287FD10920F0284E00E9424138823FB
:1045900009F445C010913E02111110C080910E0225
:1045A00020917701F4E08F9FC001112486599E4F1E
:1045B000820F911DFC018081843188F50E94D21701
:1045C0008090780190907901A0907A01B0907B0161
:1045D00086169706A806B90610F1A5019401261BB8
:1045E000370B480B590BDA01C9018093780190937E
:1045F0007901A0937A01B0937B0180910E0234E09F
:10460000839FC0011124112309F433C686599E4F9C
:1046100021E0FC01238310923E020E943E169091FD
:104620000F02992309F430C610913E0280910C02CA
:1046300080933E0280E597FF80EB60910D02F4E0ED
:104640006F9FB001112466597E4F9C5F890F0E94B5
:10465000641A10933E0260910E0204E0609FB00164
:10466000112466597E4F80910F028C5F0E94641A5C
:104670002EE24AE26BE070E085E590E00E9495153D
:1046800080910E02E0917701F0E020913E0234E04B
:10469000839FC0011124211109C0DC01A659BE4F1E
:1046A000AE0FBF1F2C91243108F045C025E52093A3
:1046B000A4062093A3062BE12093A50686599E4FBE
:1046C000E80FF91F8081882309F4F3C588E797E193
:1046D0000E94651708E025E04FE657E165E270E0CB
:1046E00085E590E00E94200F8DE58093A4068093DD
:1046F000A30685E28093A5060E94D2170E949C1B08
:104700002DE042E657E16EE270E085E590E00E9420
:10471000200F85E68093A4068093A3068DE2809304
:10472000A50680E697E10E94651763E170E080E0EE
:1047300090E00E949C1B2AE130E045E550E06BE0F0
:1047400070E085E590E00E94F4132AE130E04EE746
:1047500050E06AE170E085E590E00E94F41388E59E
:104760008093A4068093A3068BE08093A50687E53B
:1047700097E10E94651708E02DE042E657E163E10A
:1047800070E088E590E00E94200F8BE68093A406FD
:104790008093A30682E18093A50660911302709135
:1047A000140280911502909116020E949C1B27E032
:1047B00040E557E169E370E08DE290E00E94200F50
:1047C00087E38093A4068093A30619E31093A506BC
:1047D00089E497E10E94651727E042E457E169E325
:1047E00070E08AE590E00E94200F84E68093A406A2
:1047F0008093A3061093A50600910E0210E0E091AD
:104800007701C801880F991F880F991F86599E4FFD
:10481000E80FF92FF11D8081882309F44DC58AE343
:1048200097E10E946517809176018230A8F188E0B7
:104830008093A4068093A306F9E3FF2EF092A506C9
:1048400084E397E10E94651785E28093A406809334
:10485000A306F092A50682E397E10E94651783E123
:104860008093A4068093A306F092A506B8016F5F1B
:104870007F4F072E000C880B990B4AE00E9484178B
:1048800080E397E10E9465176091760170E090E007
:1048900080E04AE00E94841780917D01813009F018
:1048A000DFC1809110028111DBC180910B02811167
:1048B00025C080E80E942413882361F080910A02B9
:1048C000811102C080916901815080930A028EEEAD
:1048D00080930B0280E10E942413882379F0809159
:1048E0000A02209169012150330B821713060CF440
:1048F000E6C410920A0282E180930B0280910B02BF
:1049000018160CF0E0C4845080930B0287FD1092BF
:104910000B0284E00E942413882309F471C0E09004
:104920000A028AE08E9D800111240B5F1E4FF80160
:1049300070849185791608F063C080809180A28090
:10494000B380409178015091790160917A01709122
:104950007B01481559056A057B0508F451C04819C3
:1049600059096A097B094093780150937901609352
:104970007A0170937B019AE0DE01599601900D92C5
:104980009A95E1F7F801608570E090E080E00E9480
:10499000852D9B01AC0160E070E080EC9FE30E94FC
:1049A000DB2F4B015C01F801608171818281938171
:1049B0000E94852DA50194010E94C22D0E94AC2F5A
:1049C000F801608371838283938366817781848118
:1049D0009581860F971F958384837394708690E0EA
:1049E00080E00E94852D20E030E040EC5FE30E94F3
:1049F000C22D0E94AC2FF801778366830E943E1679
:104A0000BB24BA9467E0A62E7AE0772EEBE66E2EF2
:104A1000E0900A02EB0CE7FCBEC0209169018E2DEC
:104A20000E2C000C990B2817190609F00CF4B3C0D2
:104A300030900B02F2E1BF9E300C11248CE1830D0B
:104A4000883408F0A8C06CE0630D462E660F550848
:104A500001E021E148E7B20185E090E00E94B51550
:104A6000A092A406A092A3068DE0830D8093A506D4
:104A7000F12CF701EE0FFF1FE45EF84E6591749183
:104A8000C6010E941D2BF60101900020E9F7319725
:104A9000AF014C195D09B6018FE996E00E94F8114B
:104AA0007E9C80017F9C100D11240B5F1E4FF8012E
:104AB00080858823A9F089E197E10E946517F801B4
:104AC000608570E090E080E04AE00E948417F80181
:104AD00090858185981720F084E197E10E94651701
:104AE0004201F9E08F0E911C08E02DE042E657E10B
:104AF000B40187E090E00E94200F14E1130D209292
:104B0000A4062092A3061093A5067E9CC0017F9C5C
:104B1000900D11249C012B5F3E4F7901F9016481B6
:104B2000758190E080E00E949C1BF7019185808553
:104B3000891788F5B201685F7F4F25E04FE657E19E
:104B400088E390E00E94200FFFE3F093A406F09327
:104B5000A3061093A506F70160817181828193817C
:104B60000E949C1B2DE042E657E1B4018AE590E0EB
:104B70000E94200F6092A4066092A3061093A506DF
:104B800082E197E10E946517F7016681778190E0E5
:104B900080E00E949C1BB394F4E0BF1239CF22E066
:104BA00040E86AE070E090E080E00E94951582E1C4
:104BB0000E94DA0F28E040E868E370E090E080E0CF
:104BC0000E94951508E027E040E557E169E370E0B1
:104BD0008DE290E00E94200F87E38093A4068093EB
:104BE000A30619E31093A5068AE097E10E946517D2
:104BF000E0910A020AE0E09FF0011124EB5FFE4F12
:104C0000908581859817A8F408E027E042E457E1F1
:104C100069E370E08AE590E00E94200F84E68093CB
:104C2000A4068093A3061093A50686E097E10E9450
:104C3000651782E08093A4068093A30619E310937E
:104C4000A50684E097E10E94651788E08093A4069A
:104C50008093A3061093A5068BEF96E10E9465173B
:104C600010917D01123009F069C180E80E9424137F
:104C7000882331F08091090281112FC3109309021A
:104C800080E10E942413882339F080910902823048
:104C900008F427C31092090284E00E942413882399
:104CA00009F4AEC080910902811124C080910802EC
:104CB00011E0812780930802882309F416C30E941B
:104CC0000913809171008D7F809371001093EB0127
:104CD0002DE732E13093EA012093E9013093E801B6
:104CE0002093E7010E944E126091EC0182E090E077
:104CF0000E943E1C80910902813009F07BC06DEA60
:104D000080E190E00E943E1C6EEB81E190E00E9409
:104D10003E1C48E7E42E41E0F42E02E110E01A8345
:104D20000983F70161917F01C6010E94251C0F5F75
:104D30001F4F0631110599F760911B0286E190E043
:104D40000E943E1C60917C0187E190E00E943E1C25
:104D50003DEEE32E31E0F32E08E110E0F701619122
:104D60007F01C8010E943E1C0F5F1F4F02331105D7
:104D7000A9F72AE6A22E21E0B22EF12CE12CF501B2
:104D8000EE0DFF1D6081C701800F911F0E943E1C28
:104D9000FFEFEF1AFF0A24E0E216F10481F70C5F3F
:104DA0001F4F34E0A30EB11C0E33110531F795E00F
:104DB000E92E91E0F92EF7016085C8010E943E1CA2
:104DC000C80101969A838983F7016481C6010E9414
:104DD000251CC80102969A838983F7016581C60163
:104DE0000E94251C0D5F1F4FFAE0EF0EF11C0C35E1
:104DF000110509F780910902823011F40E94E91827
:104E0000809109029CE0899F802D1124805F0E947F
:104E1000DA0F01E02BE048E76CE070E085E090E01D
:104E20000E94B51588E08093A4068093A3061EE037
:104E30001093A5068FE592E10E9465178AE580939D
:104E4000A4068093A3061093A506809108028823E8
:104E500009F450C288E492E10E94651701E02BE05A
:104E600048E768E170E085E090E00E94B51518E041
:104E70001093A4061093A3068AE18093A50685E506
:104E800092E10E9465172BE048E764E270E085E05C
:104E900090E00E94B5151093A4061093A30686E235
:104EA0008093A5068BE492E10E94651728E040E814
:104EB00068E370E090E080E00E94951508E027E04C
:104EC00040E557E169E370E08DE290E00E94200F39
:104ED00087E38093A4068093A30689E3F82EF092DB
:104EE000A50685E792E10E94651727E042E457E1B5
:104EF00069E370E08AE590E00E94200F84E68093E9
:104F0000A4068093A306F092A5068EE692E10E9485
:104F1000651782E08093A4068093A306F092A5060D
:104F20008CE692E10E9465171093A4061093A306E5
:104F3000F092A50685E692E10E9465172AE040E816
:104F400070E060E090E080E00E94951529E030E09C
:104F500040E850E069E070E090E080E00E94F413E7
:104F6000409101015091020160910301709104018F
:104F70008091780190917901A0917A01B0917B01A3
:104F8000481759076A077B0708F0BCC1841B950BBB
:104F9000A60BB70B88309105A105B10508F4ADC18A
:104FA00002E0B695A795979587950A95D1F7840F56
:104FB000951FA61FB71F8093010190930201A09334
:104FC0000301B09304014091E3015091E401609129
:104FD000E5017091E6018091170290911802A0916D
:104FE0001902B0911A02481759076A077B0708F09F
:104FF000BAC1841B950BA60BB70B88309105A10590
:10500000B10508F4ABC1F2E0B695A79597958795E1
:10501000FA95D1F7840F951FA61FB71F8093E30160
:105020009093E401A093E501B093E60108E025E048
:105030004FE657E161E070E081E090E00E94200FD0
:1050400088E08093A4068093A30611E01093A50640
:10505000609101017091020180910301909104011E
:105060000E949C1B2DE042E657E162E070E083E283
:1050700090E00E94200F82E38093A4068093A30611
:105080001093A5066091E3017091E4018091E50120
:105090009091E6010E949C1B8091E201882321F0FF
:1050A00082E492E10E94651708E025E04DE352E1B9
:1050B00061E070E086E490E00E94200F42E361E04E
:1050C00070E08DE490E00E94E90E42E367E070E05A
:1050D0008DE490E00E94E90E21E047E061E070E09D
:1050E0008DE490E00E94DB1421E047E061E070E095
:1050F0008EE790E00E94DB148091E0019091E10145
:10510000E090DE01F090DF018E159F0508F05AC196
:105110009701281B390B2830310508F450C136950A
:10512000279536952795820F931FE816F90608F400
:105130005DC19093E1018093E001A090E001B09007
:10514000E10195013695279510E6A116B10408F006
:1051500020E308E04DE052E162E070E08EE490E090
:105160000E94200F24E6A216B10460F4C5019695B2
:105170008795835B9F4F27E030E0AC0161E070E0F2
:105180000E94F4133AE6E316F10430F125E04FE112
:1051900062E070E086E590E00E94951502E010E084
:1051A00021E041E063E070E084E790E00E940415B4
:1051B00022E041E063E070E086E590E00E940415A3
:1051C00086E58093A4068093A30681E08093A506DC
:1051D00084E092E10E94651780917C018F3F09F085
:1051E00037C1F090DD0140E24F1508F407C12F2DC3
:1051F00040E870E060E090E080E00E9495150F2D9F
:1052000010E060E470E0601B710B2F2D40E890E02F
:1052100080E00E94951540E8B80190E080E00E948F
:10522000E90E6FE370E0601B710B40E890E080E0F6
:105230000E94E90EF394F092DD010AC110927D0103
:1052400023C981E02DC981504BC98F5F80937701BD
:1052500055C981506CC98F5F80930E0285C9882320
:1052600009F492C9865F80930F0218160CF48AC95C
:105270008BC92091770186599E4FFC01E20FF11DE9
:1052800020812F5F2083C9C960910E0214E0619FC5
:10529000B001112466597E4F84E00E94641A809107
:1052A000770199E0899F802D1124805F0E94DA0F99
:1052B000DFC984E797E10CCA86E397E1B2CA8F5F42
:1052C00080930A0218CB882309F423CB8C5F809348
:1052D0000B0218160CF41BCB1CCB815080930902D7
:1052E000CFCC8F5F80930902D7CC0E9442120E94DC
:1052F0000413FACC84E492E1AFCD81E090E0A0E029
:10530000B0E055CE84179507A607B70708F05BCE27
:105310008A019B01081B190B2A0B3B0BD901C80101
:1053200088309105A105B105A0F012E0B695A795CA
:10533000979587951A95D1F7481B590B6A0B7B0BEC
:1053400040930101509302016093030170930401A3
:105350003ACE81E090E0A0E0B0E0EECF81E090E0D6
:10536000A0E0B0E057CE84179507A607B70708F06E
:105370005DCE8A019B01081B190B2A0B3B0BD9013F
:10538000C80188309105A105B105A0F0E2E0B6950D
:10539000A79597958795EA95D1F7481B590B6A0B06
:1053A0007B0B4093E3015093E4016093E50170931C
:1053B000E6013CCE81E090E0A0E0B0E0EECF21E05D
:1053C00030E0B1CEE816F90608F0B7CE9C012E19F0
:1053D0003F092830310578F0369527953695279581
:1053E000821B930B8E159F0508F0A3CEF092E1016E
:1053F000E092E001A2CE21E030E0F2CF50E65F156E
:1054000008F448C080EE8F0D082F000FE0E4F0E0B4
:10541000E81BF109EE2EEE0C20E440E870E060E0BD
:1054200090E080E00E9495150E1570F4E01A10E0EF
:105430004E2D6FE170E0C8010E94E90E4E2D60E232
:1054400070E0C8010E94E90EF1E6FF1508F0F2CE07
:1054500080911002811107C08091DC01882319F02E
:1054600081508093DC0180911B028F3F09F442C080
:105470000E9406188823F1F180911B028A31F9F409
:105480000E94E9188FEF80931B0281E080937D01D9
:105490000C94F22120E440E870E060E090E080E0CD
:1054A0000E9495158EE28093A4068093A3068EE158
:1054B0008093A5068AEF91E10E946517C5CF1092EF
:1054C000DC018F5F8B3008F08DC080931B028091D0
:1054D0001B02813079F480E190E00E94DE188D3A61
:1054E00049F481E190E00E94DE188E3B19F48AE1D4
:1054F00080931B028091DE019091DF018A36910535
:1055000018F08BE00E9406188091E201882319F0C0
:105510008CE00E9406188091170290911802A091C9
:105520001902B0911A028C329140A105B10558F0D0
:105530008091DE019091DF018035910508F059C01E
:105540008DE00E94061880917601823018F08FE07D
:105550000E94061880916901863018F080E10E944F
:10556000061880913F01882319F081E10E940618F6
:1055700080914901882319F082E10E9406188091E8
:105580005301882319F083E10E9406188091690174
:105590008A3019F484E10E94061890916701809185
:1055A0006801981710F40C94F22185E10E94061806
:1055B00080917C018F3F11F40C94F2210E94061817
:1055C000882311F40C94F2211092DC018EE1809377
:1055D000DB0180917C018F5F8A3168F480937C01CC
:1055E0000C94F2218FEF80931B0281E080937D0168
:1055F0006ECF8EE0A6CF8FEF80937C0146CFEF92E7
:105600000F931F93CF93DF93E80134E047FD34E11C
:10561000042E000C550B57FF03C0519541955109BD
:10562000E32E022F242FAE010E943E2BCE01DF91EC
:10563000CF911F910F91EF900895FB01DC01059030
:105640000D920020E1F70895BB27FB015527AA27FB
:10565000880F991FAA1FA41710F0A41B83955051FF
:10566000B9F7A05DAA3308F0A95DA193009779F777
:10567000B111B1931192CB010C94752DA9E0B0E05A
:10568000E4E4FBE20C94D82E6A01F22EB02E102F27
:10569000FBE3AF2EA01608F41BE31F5F012F27E0EA
:1056A000AE014F5F5F4F0E949D2CBC018981982FF6
:1056B0009970913009F43FC09BE2E1FC04C09E2D3B
:1056C0009170E0FC3AC05E2D5071E82FE87083FFC6
:1056D00046C084E0911101C083E0EF2DE81B8F15D7
:1056E00008F0E0E0D6018E2F20E2552351F19923F6
:1056F00029F0D6019C93C60101966C0196012D5F9D
:105700003F4FE2FE24C08EE4D6018C9391E41196C3
:105710009C93119712968C93D9018E2F90E2811150
:105720001BC0E20FF32FF11D10828EEF9FEF299621
:10573000ECE00C94F42E9DE2C6CF90E2C4CF2D9302
:1057400081508111FCCFCE0ED11CE0E0D0CF8EE68F
:10575000D6018C9391E6DBCF9D938150E0CF482F0B
:10576000447082FF3DC084E0911101C083E08F1539
:1057700010F4EF2DE81BD6018E2F20E2552309F1FE
:10578000992329F0D6019C93C60101966C019601DC
:105790002D5F3F4FE2FE1BC089E4D6018C938EE45F
:1057A00011968C93119786E412968C93D9018E2FC3
:1057B00090E2882309F4B5CF9D938150FACF2D93C1
:1057C00081508111FCCFCE0ED11CE0E0D9CF89E60B
:1057D000D6018C938EE611968C93119786E6E4CFD2
:1057E0009B0177FF02C030E020E0A1E0B0E0911122
:1057F00002C0B0E0A0E0F9013196AE0FBF1F8B2CC4
:10580000912CBB2009F461C05401EFEFAE1ABE0A1F
:10581000AA0DBB1DFA161B0619F014F04F2D4A1BDA
:10582000511188C0E3FC59C07601A42FB0E2A11148
:105830004FC0C40ED11C992309F45BC040E0D601CF
:105840001196F60190836D01552309F448C0012F8C
:10585000060F9A81582F507184FF03C0913309F4C9
:10586000015010160CF047C0093008F008E0EEE2D5
:10587000FE2E5B01A01AB1088501919481949108D4
:105880002F3F320729F4D601FC92F60131966F01C1
:105890006217730794F1021713077CF5DB01A21B53
:1058A000B30BAA24A394B12CAC0EBD1EAA0DBB1D34
:1058B00011968C9121503109D60111962815390580
:1058C000F4F0F60180836D01DBCFB12CA12CA0CFC9
:1058D000F701B1937F01A150AACF9111B0CFD601AA
:1058E000942F50E302C05D9391509111FCCFC40EF0
:1058F000D11C40E0ACCF01E0BACF80E3DBCF621730
:10590000730731F4963388F4953311F4552369F015
:10591000F6018083FD01842F90E2811108C0A40F5D
:10592000B11D1C9290E080E002CF81E3F1CF919312
:105930008150F3CF911183CF8ACF283008F027E030
:105940003327DA01990F311D87FD916000966105BB
:10595000710539F432602E5F3D9330E32A95E1F70B
:1059600008959F3F30F080387105610509F03C5F74
:105970003C5F3D93913008F08068911DDF93CF9399
:105980001F930F93FF92EF92192F987F9695E92F0F
:1059900096959695E90FFF27E857FE4F99273327ED
:1059A000EE24FF24A701E70105900894079428F44A
:1059B000360FE71EF81E491F511D660F771F881FFF
:1059C000991F0694A1F70590079428F4E70EF81E96
:1059D000491F561FC11D770F881F991F661F069408
:1059E000A1F70590079428F4F80E491F561FC71F0A
:1059F000D11D880F991F661F771F0694A1F7059088
:105A0000079420F4490F561FC71FD81F990F661F10
:105A1000771F881F0694A9F784911095177041F09D
:105A2000D695C79557954795F794E7941A95C1F77A
:105A3000EEE2F1E06894159015913591659195919C
:105A400005907FE27395E118F10A430B560BC90BE1
:105A5000D009C0F7E10CF11E431F561FC91FD01D0E
:105A60007EF4703311F48A95E6CFE894015030F05B
:105A7000080F0AF40027021708F4202F2395022F9D
:105A80007A3328F079E37D932A95E9F710C07D9366
:105A90002A9589F6069497956795379517951794E3
:105AA000E118F10A430B560BC90BD00998F0239566
:105AB0007E9173957A3308F070E37C932013B8F7E6
:105AC0007E9170617D9330F0839571E37D9370E3F7
:105AD0002A95E1F71124EF90FF900F911F91CF913C
