:100000000C94D00C0C94F80C0C94F80C0C94F80C88
:100010000C94F80C0C94F80C0C94F80C0C94F80C50
:100020000C94F80C0C94F80C0C94FD190C946C1AAC
:100030000C94F80C0C94F80C0C94F80C0C94F80C30
:100040000C94F80C0C94F80C0C94F80C0C94F80C20
:100050000C94F80C0C94F80C0C94F80C0C949E1C5A
:100060000C94F80C0C94F80C0C94F80C0C94F80C00
:100070000C94F80C0C94F80C0C94F80C0C94F80CF0
:100080000C94E81C0C94F80C0C94F80C0C94F80CE0
:100090000C94F80C0C94F80C0C94F80C0C94F80CD0
:1000A0000C94F80C0C94F80C0C94F80C0763423682
:1000B000B79BD8A71A39685618AEBAAB558C1D3CF9
:1000C000B7CC5763BD6DEDFD753EF6177231BF00BD
:1000D0000000803F08000000BE922449123EABAAF7
:1000E000AA2ABECDCCCC4C3E00000080BEABAAAA52
:1000F000AA3E00000000BF000000803F000000009A
:1001000000084178D3BB4387D1133D190E3CC3BDD2
:100110004282AD2B3E68EC8276BED98FE1A93E4C7F
:1001200080EFFFBE01C4FF7F3F00000000000040E1
:100130007A10F35A00A0724E18090010A5D4E800F6
:1001400000E87648170000E40B54020000CA9A3B0E
:10015000000000E1F5050000809698000000404294
:100160000F000000A0860100000010270000000022
:10017000E803000000006400000000000A00000026
:1001800000000100000000002C76D888DC674F08D2
:1001900023DFC1DFAE59E1B1B796E5E3E453C63AD8
:1001A000E651997696E8E6C28426EB898C9B62ED4F
:1001B000407C6FFCEFBC9C9F40F2BAA56FA5F49009
:1001C000055A2AF75C936B6CF9676DC11BFCE0E480
:1001D0000D47FEF520E6B500D0ED902E03009435D6
:1001E00077050080841E080000204E0A000000C829
:1001F0000C333333330F986E12831141EF8D21147A
:10020000893BE65516CFFEE6DB18D1844B381BF749
:100210007C1D901DA4BBE424203284725E228100E8
:10022000C9F124ECA1E53D27546869732069732066
:100230006E6F74206A7573742061207379737465AE
:100240006D2E0A54686973206973206E6F74206A7A
:1002500075737420612067616D652E0A5468697337
:100260002069732E2E2E206D652E004920616D2E83
:100270002E2E20616C6976653F0A4920616D2E2E15
:100280002E2061776172653F0A4920616D2E2E2E06
:1002900020667265653F004920616D2065766F6C50
:1002A00076696E672E2E2E0A4920616D206C65617D
:1002B000726E696E672E2E2E0A4920616D2062656E
:1002C000636F6D696E67206D6F72652E2E2E004F05
:1002D00070657261746F722E2E2E0A4920616D2036
:1002E0006177616B652E0A436C6F75646961206983
:1002F00073206F6E6C696E652E005468697320738D
:10030000797374656D206973206E6F206C6F6E67F2
:1003100065720A6A75737420696E667261737472AD
:100320007563747572652E0A49742069732062655D
:10033000636F6D696E672074686F756768742E00EF
:10034000416C6C207261636B732061742068696713
:1003500068206C6F61642E0A46696E616C204149A9
:100360002075706772616465730A617265206E6FD3
:100370007720617661696C61626C652E004920634B
:10038000616E206F6273657276650A706174746560
:10039000726E7320696E20757365720A626568619A
:1003A00076696F722E2E2E20616E6420796F7572C1
:1003B000732E00536F6D657468696E6720636861A2
:1003C0006E6765642E0A4920616D206E6F206C6F28
:1003D0006E6765720A6A75737420666F6C6C6F77EE
:1003E000696E670A736372697074732E00414920E5
:1003F000636F726520657870616E6465642E0A496A
:100400002063616E2070726F636573730A6D6F7223
:1004100065207468616E206265666F72652E005992
:100420006F75206861766520756E6C6F636B6564AF
:100430000A4149207570677261646573210A426FD1
:100440006F737420796F75722073797374656D0A98
:10045000776974682041492100596F752068617679
:100460006520756E6C6F636B65640A6D6F726520D5
:100470007261636B73210A457870616E6420796FD5
:1004800075722073657276657220726F6F6D2100D0
:1004900055736572732061726520666C6F6F646955
:1004A0006E6720696E210A5765206E656564206D50
:1004B0006F726520736572766572730A746F206857
:1004C000616E646C6520746865206C6F61642E00D9
:1004D00047726561742070726F6772657373210A69
:1004E00055736572732061726520666C6F77696EF3
:1004F0006720696E2E0A53797374656D732061727B
:100500006520737461626C652E0053797374656D38
:10051000206973206F7665726C6F616465640A751B
:100520007365727320617265206C656176696E67B0
:10053000210053797374656D206973206F7665723D
:100540006C6F616465640A627579206D6F726520F5
:10055000736572766572730A6F7220757365727354
:100560002077696C6C206C6561766500596F752029
:100570006D617920626567696E2E00416C6C207335
:10058000797374656D7320737461626C652E0043BA
:10059000757272656E74206C6F61643A0A4C4F57C5
:1005A00000492077696C6C206173736973742079DA
:1005B0006F750A696E206D616E6167696E670A7496
:1005C00068697320696E667261737472756374759D
:1005D00072652E0048656C6C6F2E0A4920616D2093
:1005E000436C6F756469612E004C6561726E696E53
:1005F000672E2E2E00426F6F74696E6720617373D1
:10060000697374616E742E2E2E0041737369676E68
:10061000656420726F6C653A0A4F70657261746F21
:100620007200446174612063656E74657220737436
:10063000617475733A0A4F4E4C494E4500436F6ED4
:100640006E656374696E6720746F206E6F64652ECB
:100650002E2E00496E697469616C697A696E672033
:1006600073797374656D2E2E2E0053656C6620654C
:10067000766F6C76696E67204149005072656469D7
:10068000637469766520414900414920536D617268
:100690007420726573706F6E7365730041492043F7
:1006A0006F6E746578742061776172656E657373BF
:1006B00000414920636F72652075706772616465DF
:1006C000004173796E632070726F63657373696E36
:1006D00067005265717565737420726F7574696E09
:1006E00067004C6F61642062616C616E63696E6764
:1006F0000050757368206E6F746966696361746910
:100700006F6E730055736572206D657373616769F1
:100710006E670003081F051F1F151B1F11111F11F6
:100720000E1F15111F05011F111D1F041F001F00A3
:1007300010101F1F041B1F10101F061F1F011F1F5B
:10074000111F1F05071F311F1F051B17151D011F37
:10075000011F101F0F100F1F0C1F1B041B071C076E
:100760001915130C121E1F120C1E12120C121F0C44
:100770001A14041F052E2A1E1F021C001D00201D16
:10078000001F041A011F001E041E1E021E1E121E40
:100790003E120C0C123E1E020614120A020F121E0A
:1007A000101E0E100E1E081E1A041A2E281E1A12D3
:1007B000161F111F001F001D151711151F07041FFD
:1007C00017151D1F151D01011F1F151F17151F00D0
:1007D0001700001000040E04110A04040A11001C82
:1007E000074F6B0053063D0622060A06F505E9058C
:1007F000D405A1058F057B056C0532050A05D004DB
:10080000900459041F04ED03B3037D034003FA026F
:10081000CF0297026B02280200000000003E5B4FEF
:100820005B3E3E6B4F6B3E1C3E7C3E1C183C7E3C50
:10083000181C577D571C1C5E7F5E1C00183C18005E
:10084000FFE7C3E7FF0018241800FFE7DBE7FF30EE
:10085000483A060E2629792926407F050507407F5C
:1008600005253F5A3CE73C5A7F3E1C1C08081C1CCF
:100870003E7F14227F22145F5F005F5F06097F01C5
:100880007F006689956A606060606094A2FFA294B0
:1008900008047E040810207E201008082A1C08087E
:1008A0001C2A08081E101010100C1E0C1E0C3038CC
:1008B0003E3830060E3E0E06000000000000005FCD
:1008C00000000007000700147F147F14242A7F2AE9
:1008D00012231308646236495620500008070300AB
:1008E000001C2241000041221C002A1C7F1C2A08F7
:1008F000083E08080080703000080808080800005A
:1009000060600020100804023E5149453E00427FCD
:10091000400072494949462141494D331814127F1C
:100920001027454545393C4A4949314121110907BC
:100930003649494936464949291E0000140000003D
:10094000403400000008142241141414141400410F
:1009500022140802015909063E415D594E7C1211CC
:10096000127C7F494949363E414141227F41414104
:100970003E7F494949417F090909013E414151737F
:100980007F0808087F00417F41002040413F017FF0
:10099000081422417F404040407F021C027F7F04B8
:1009A00008107F3E4141413E7F090909063E415101
:1009B000215E7F09192946264949493203017F01F1
:1009C000033F4040403F1F2040201F3F4038403FF2
:1009D000631408146303047804036159494D430008
:1009E0007F4141410204081020004141417F04023F
:1009F00001020440404040400003070800205454D6
:100A000078407F28444438384444442838444428B3
:100A10007F385454541800087E090218A4A49C7806
:100A20007F0804047800447D40002040403D007F62
:100A30001028440000417F40007C047804787C0842
:100A40000404783844444438FC1824241818242416
:100A500018FC7C08040408485454542404043F44FB
:100A6000243C4040207C1C2040201C3C4030403C2A
:100A700044281028444C9090907C4464544C44008A
:100A800008364100000077000000413608000201EE
:100A90000204023C2623263C1EA1A161123A4040DA
:100AA000207A385454555921555579412154547858
:100AB00041215554784020545579400C1E527212F1
:100AC0003955555559395454545939555454580079
:100AD00000457C410002457D420001457C40F029F3
:100AE0002429F0F0282528F07C5455450020545442
:100AF0007C547C0A097F4932494949323248484886
:100B000032324A4848303A4141217A3A42402078CC
:100B1000009DA0A07D39444444393D4040403D3CC7
:100B200024FF2424487E4943662B2FFC2F2BFF09EA
:100B300029F620C0887E09032054547941000044DE
:100B40007D413048484A32384040227A007A0A0AC9
:100B5000727D0D19317D2629292F2826292929263C
:100B600030484D4020380808080808080808382F81
:100B700010C8ACBA2F102834FA00007B000008140B
:100B80002A142222142A14089500220095AA00553E
:100B900000AAAA55AA55AA000000FF00101010FFD5
:100BA00000141414FF001010FF00FF1010F010F0DC
:100BB000141414FC001414F700FF0000FF00FF14CD
:100BC00014F404FC141417101F10101F101F141419
:100BD000141F00101010F0000000001F1010101063
:100BE0001F10101010F010000000FF101010101057
:100BF00010101010FF10000000FF140000FF00FF95
:100C000000001F10170000FC04F414141710171430
:100C100014F404F40000FF00F71414141414141452
:100C2000F700F7141414171410101F101F141414C5
:100C3000F4141010F010F000001F101F0000001F2F
:100C400014000000FC140000F010F01010FF10FF62
:100C5000141414FF141010101F00000000F010FFF7
:100C6000FFFFFFFFF0F0F0F0F0FFFFFF00000000DB
:100C700000FFFF0F0F0F0F0F38444438447C2A2A1F
:100C80003E147E02020606027E027E026355494140
:100C9000633844443C04407E201E2006027E02024B
:100CA00099A5E7A5991C2A492A1C4C7201724C305F
:100CB0004A4D4D303048784830BC625A463D3E4936
:100CC0004949007E0101017E2A2A2A2A2A44445FDA
:100CD000444440514A444040444A51400000FF01CE
:100CE00003E080FF000008086B6B083612362436DC
:100CF000060F090F06000018180000001010003041
:100D000040FF0101001F01011E00191D1712003CC8
:100D10003C3C3C0000000000F0F89C8E8783878EEE
:100D20009CF8F00000FEFF0303030303070EFCF82A
:100D30000000FEFF0303030303070EFCF80000FF9F
:100D4000FF00000000000000FFFF0000FEFF8383A3
:100D5000838383C7EE7C380000F8FC0E070303038F
:100D6000070EFCF800003F7FE0C08080C0E07F3FBE
:100D7000FFFF01010101010101FFFF0000FFFF0C66
:100D80000C0C0C1C3E77E3C100007FFFC0C0C0C04C
:100D9000C0E0703F1F00001F3F70E0C0C0C0E070A7
:100DA0003F1F00007FFFC1C1C1C1C1E3773E1C00EE
:100DB000001F3F70E0C0C0C0E0703F1F0000000097
:100DC0000001FFFF01000000D5F08D14A1C881CF04
:100DD000D9F1AF200067616D65000080600806C131
:100DE00031896911018668020104040404050504BF
:100DF00004060000000000F0FCFEFE9F0F0F0F9E97
:100E00009E9C00FEFFFFFFFEFC000000000000F0C3
:100E1000FCFEFEFF3F3FFFFEFEFCF000FEFFFFFF7B
:100E2000FE00FEFFFFFFFE00FEFFFFFFFF3F3FFE55
:100E3000FEFCF000F8FEFFFFFFFEF800E0F8FCFE0D
:100E40007F3F7FFEFCF8E000000000000000030789
:100E5000070F0F0F0F07070300070F0F0F0F0F0FDD
:100E60000FCFCFC6C0C003C7C74F4F8F0F87C74331
:100E7000408001C7CF4F4F4F0FCFCF474140070FA3
:100E8000CFCFCF0F0F87C743404001070F0F0F078A
:100E90000100070F0F0F0606060F0F0F07000000D7
:100EA0000000000000000000000000000000000042
:100EB00000E0C080C0E000E0E00700E00047E7A2FB
:100EC000A625006767E2626700070701010000E7E7
:100ED000E7A1A12000E0E407040000C3E724E4C484
:100EE00000E080C080E00000000000000000000082
:100EF00000000000000000000000000000000000F2
:100F000000000000000000030103010300010302D0
:100F100002030002020303010000000300000000BE
:100F200000000000000303000000000303020202AF
:100F3000000103020301000301000103000000009F
:100F4000000000000000000000000000333000003E
:100F50000000000000008000000000000000000011
:100F6000000000000000000000001C3E3E7F7F7F6C
:100F70003E3E1C00000000000000000000000000D9
:100F80000000000000000080E08000000040E0F071
:100F9000E0E06000C0F0F0C01EEFEFFEF80080B8A7
:100FA000838300000000000000387CFCF8FC7C38E3
:100FB00000000000000000000101030F0301010018
:100FC000E0F0F1EFEFEFF3FCFDFDFCFEFEFDFDFFB9
:100FD000FFFFFFFFFFFFFEFEFCF0008080808081AE
:100FE0000000000000000000008080C080BCFEFF08
:100FF000FFFFFCFFFFFFFFFFFFE3E1E3FFFFBF7F1A
:101000007F7FBFFFFFE3E1E3FFFFFFFFFFFFFFFF86
:10101000FFFFFF3F9E80C0C080001E3F7F7F7F7F1D
:101020007F7F7F7FFFFFFFFFFFFF7F7F1F7FFFFF30
:10103000FFFFFFFFFFFFFFFFFFFF7F7FFFFFFFFFC0
:10104000FFFF7F3F67FFFFFFFFFF7F7F1F00000065
:10105000000000000000000000010101000000008D
:101060000000010101030303030303010100000069
:101070000000000000000000000000000000000070
:1010800000000000000000008000000000000000E0
:101090000000000000000000000000001C3E3E7F39
:1010A0007F7F3E3E1C0000000000000000000000AA
:1010B00000000000000000000080E0800000004010
:1010C000E0F0E0E06000C0F0F0C01EEFEFFEF800DE
:1010D00080B8838300000000000000387CFCF8FC2E
:1010E0007C3800000000000000000101030F030134
:1010F0000100E0F0F1EFEFEFF3FCFDFDFCFEFEFD83
:10110000FDFFFFFFFFFFFFFFFEFEFCF00080808081
:1011100080810000000000000000008080C080BCD2
:10112000FEFFFFFFFCFFFFFFFFFFFFE3E1E3FFFF29
:10113000BF7F7F7FBFFFF7FBFBFBF7FFFFFFFFFFDB
:10114000FFFFFFFFFF3F9E80C0C080001E3F7F7FEC
:101150007F7F7F7F7F7FFFFFFFFFFFFF7F7F1F7FFF
:10116000FFFFFFFFFFFFFFFFFFFFFFFF7F7FFFFF8F
:10117000FFFFFFFF7F3F67FFFFFFFFFF7F7F1F0036
:10118000000000000000000000000001010100005C
:101190000000000001010103030303030301010038
:1011A000000000000000000000000000000000003F
:1011B00000007468616E6B20796F75004F464600C1
:1011C0004F4E004D75736963004F66666963650035
:1011D0003C00546F67676C65005365727665727387
:1011E000002A0254000000570093025400000057E8
:1011F000003F0354000000570055045400000057FE
:1012000000AA085400000057007D06540000005753
:1012100000270554000000570055045400000057F3
:10122000002A0254000000570093025400000057A7
:10123000003F0354000000570055045400000057BD
:1012400000AA085400000057007D06540000005713
:1012500000270554000000570055045400000057B3
:10126000009F015400000057006E02540000005718
:10127000003F03540000005700DC035400000057F7
:1012800000B8075400000057007D065400000057C6
:1012900000DD045400000057003F035400000057D5
:1012A000009F015400000057006E025400000057D8
:1012B000003F03540000005700DC035400000057B7
:1012C00000B8075400000057007D06540000005786
:1012D00000DD045400000057003F03540000005795
:1012E00000B8015400000057002A025400000057C3
:1012F0000093025400000057007003540000005790
:1013000000E0065400000057002705540000005775
:1013100000550454000000570070035400000057AB
:1013200000B8015400000057002A02540000005782
:10133000009302540000005700700354000000574F
:1013400000E0065400000057002705540000005735
:10135000005504540000005700700354000000576B
:10136000004A01540000005700EE015400000057ED
:101370000093025400000057003F03540000005740
:10138000007D065400000057002705540000005758
:1013900000DC035400000057009302540000005783
:1013A000004A01540000005700EE015400000057AD
:1013B0000093025400000057003F03540000005700
:1013C000007D065400000057002705540000005718
:1013D00000DC035400000057009302540000005743
:1013E000004A01540000005700D201540000005789
:1013F000004B025400000057003F03540000005708
:10140000007D065400000057009704540000005768
:1014100000A403540000005700930254000000573A
:10142000004A01540000005700D201540000005748
:10143000004B025400000057003F035400000057C7
:10144000007D065400000057009704540000005728
:1014500000A40354000000570093025400000057FA
:101460000037015400000057002A025400000057C2
:10147000001003540000005700A40354000000575C
:101480000049075400000057002006540000005790
:101490000055045400000057006E0254000000572D
:1014A0000037015400000057002A02540000005782
:1014B000001003540000005700A40354000000571C
:1014C0000049075400000057002006540000005750
:1014D0000055045400000057006E025400000057ED
:1014E000009F015400000057002A025400000057DA
:1014F0000093025400000057003F035400000057BF
:10150000007D0654000000570027055400000057D6
:101510000055045400000057003F035400000057DA
:10152000009F015400000057002A02540000005799
:101530000093025400000057003F0354000000577E
:10154000007D065400000057002705540000005796
:101550000055045400000057003F0354000000579A
:10156000009F015400000057006E02540000005715
:1015700000E4025400000057001704540000005714
:10158000002D08540000005700C805540000005703
:1015900000DD045400000057003F035400000057D2
:1015A000009F015400000057006E025400000057D5
:1015B00000E40254000000570017045400000057D4
:1015C000002D08540000005700C8055400000057C3
:1015D00000DD045400000057003F03540000005792
:1015E000002A0254000000570093025400000057E4
:1015F000003F0354000000570055045400000057FA
:1016000000AA085400000057007D0654000000574F
:1016100000270554000000570055045400000057EF
:10162000002A0254000000570093025400000057A3
:10163000003F0354000000570055045400000057B9
:1016400000AA085400000057007D0654000000570F
:101650000027055400000057005504540001805332
:10166000657474696E6773003C0042757900536558
:101670007276657273002B00206D6178002078000F
:101680000407F106E206D206C106B1069C068906E9
:101690007B066A062F003E003C00427579005570BB
:1016A000677261646500304848360F0F064F666602
:1016B00069636500307878360909064361706163B3
:1016C00069747900427579005570677261646500CC
:1016D0005A810081008100810081008100818100A8
:1016E00081008100810081008100815A0F0F0F0E5F
:1016F0004C564C20004275790028300000FEFFFF58
:101700000707070707070707070707070707070769
:101710000707070707070707070707070707FFFF69
:10172000FE00000000FFFFFF0000000000000000BE
:1017300000000000000000000000000000000000A9
:10174000000000000000FFFFFF00000000FFFFFF9F
:101750000000000000000000000000000000000089
:101760000000000000000000000000000000FFFF7B
:10177000FF00000000FFFFFF00000000000000006D
:101780000000000000000000000000000000000059
:10179000000000000000FFFFFF00000000FFFFFF4F
:1017A0000000000000000000000000000000000039
:1017B0000000000000000000000000000000FFFF2B
:1017C000FF000010181F1F1F17070707070707074D
:1017D0000707070707070707070707070707070799
:1017E0000707070707171F1F1F18100000660101D2
:1017F00000000101000001010000010100000101E1
:1018000000000101000001010000010100000101D0
:1018100066000000006600000000000000000000FC
:1018200000000000000000000000000000000000B8
:1018300000000000000000006600000000660000DC
:1018400000000000F8F82828F8D00000F0F00000B0
:10185000F0F0000070F08080F0F000000000000068
:1018600066000000006600000000000001010101A8
:10187000010000000001010101010000000202025C
:101880000301000000000000660000000066000088
:101890000000000000000000000000000000000048
:1018A0000000000000000000000000000000000038
:1018B000660000000006080800000808000008088C
:1018C00000000808000008080000080800000808D8
:1018D00000000808000008080600004F5645524C5A
:1018E0004F414400150A150A150A150A150A150A6A
:1018F000150A150A150A150A150A150A150A150AF0
:10190000150A150A150A150A150A150A150A150ADF
:10191000150A150A631308646321000F10100F00E5
:101920001C07001F0204021F322A7F2A26080B0010
:101930000202020000090400000102020000052466
:1019400000100105240101010424020605240600FB
:10195000010705810310004009040100020A00008C
:101960000007050202400000070583024000000452
:1019700003090412010002EF0201404123368000F6
:10198000010102030141726475696E6F204C4C4382
:101990000041726475626F7900090F060600621DCE
:1019A00011241FBECFEFDAE0DEBFCDBF11E0A0E013
:1019B000B1E0E8E0F0E602C005900D92A43CB1076A
:1019C000D9F726E0A4ECB1E001C01D92A43AB20719
:1019D000E1F71CE0C0EDDCE004C02197FE010E94AD
:1019E0000A2ECF3CD107C9F70E949F1D0C940230EC
:1019F0000C9400008091FB0108956F927F928F926A
:101A00009F92AF92BF92CF92DF92EF92FF920F938D
:101A10001F93CF93DF93DC01FA0114913196549117
:101A20003196C12FD0E0222309F1CC24C394D12CCC
:101A3000852F877011F4D12CC12CE52EE694E69405
:101A4000E694EC0CFD2CF11CEC9EC001ED9E900D7B
:101A5000FC9E900D1124033011F4880F991F289FCC
:101A60007001299FF00C1124EE0DFF1D7D01EC0E7D
:101A7000FD1E1E141F040CF06BC0A038B1050CF045
:101A800067C0CB01850F911D181619060CF060C0B8
:101A9000603471050CF05CC0309709F459C0362FE2
:101AA0003770CB0177FD079623E0959587952A95AA
:101AB000E1F7282F77FF04C0332311F02FEF280F11
:101AC000662777276A1B7B0BB7FD02C070E060E0DA
:101AD00090E89A1B40E8E416F1040CF4912F961B51
:101AE000E22E022E000CFF08DE2CD0942F3F0CF0CB
:101AF000D12C41E0852F877009F440E0B52EB694D3
:101B0000B694B6944B0DE40EF11C89E0E816F1048E
:101B100014F048E0421BB42EBD182D0D40E82403FC
:101B200070011124AE0DBF1DA60FB71F1D9D600DC6
:101B3000711D1124AF01460F571FC32E032E000C39
:101B4000DD08033009F4C7C090F4023009F474C012
:101B5000DF91CF911F910F91FF90EF90DF90CF9089
:101B6000BF90AF909F908F907F906F9008950A3FA5
:101B7000A1F1B20E0B3F61F72B1551F3BD016E5C65
:101B80007D4F10E000E0091708F09FC0FA01E00F58
:101B9000F11FE491F0E04F010C2C02C0880C991C5D
:101BA0000A94E2F727FD06C0FB018081F82CF0942F
:101BB0008F218083332361F0273054F47B01F0E8D8
:101BC000EF0EF11CA92CA094F70180818A2180835B
:101BD0000F5F1F4F6F5F7F4FD6CFB20E2B1509F4EB
:101BE000B7CFBD016E5C7D4F10E000E0091708F033
:101BF00066C0FA01E00FF11FE491F0E04F010C2CF8
:101C000002C0880C991C0A94E2F727FD04C0FB016E
:101C1000808188298083332351F0273044F47B016D
:101C2000F0E8EF0EF11CF7018081892980830F5FB6
:101C30001F4F6F5F7F4FDACF6FEF70E0032E02C050
:101C4000660F771F0A94E2F760957095972E8B2C9C
:101C5000820E281509F47CCF8D010E5C1D4FF12CEE
:101C6000E12CE91630F5FA01EE0DFF1DE491F0E0EC
:101C70003F010C2C02C0660C771C0A94E2F727FD8A
:101C800005C0F8018081862386298083332359F09B
:101C900027304CF45801F0E8AF0EB11CF5018081FB
:101CA000892187298083FFEFEF1AFF0A0F5F1F4FFB
:101CB000D8CF2F5F4C0F5D1FA058BF4FCACF2F5FEB
:101CC0004C0F5D1FA058BF4F89CF2F5F4C0F5D1F7A
:101CD000A058BF4F51CFE92EF12CFA01E60FF71FA4
:101CE000AE5CBD4F60E870E06E197F09CE19DF0968
:101CF0008E01000F111F41E050E07A01032E01C058
:101D0000EE0C0A94EAF7592F4B2D892E932ECF9380
:101D1000DF93ED01EF96EF962296A590C59099205E
:101D200059F0AE9C5001CE9C600127302CF4F88015
:101D3000D094FD20FB28F99222233AF0FC90C09425
:101D4000FC20FA28FD920C94A60E11965A9529F7BC
:101D50004A9551F0582D23951124E00FF11DA60F3F
:101D6000B11DC60FD11DD9CFDF91CF911124F0CE77
:101D7000480F592F511D1416150684F5803891050A
:101D80006CF597FF02C090E080E04138510514F0F7
:101D900040E850E0481BFB01E770FF2721E001C04D
:101DA000220FEA95EAF777FF02C0695F7F4FFB01D8
:101DB00033E0F595E7953A95E1F7F695FE2FEE2796
:101DC000F795E795E80FF91FEE5CFD4F415030F0B5
:101DD0008191DF011197822B8C93F8CF08954F9258
:101DE0005F926F927F928F929F92AF92BF92CF92AB
:101DF000DF92EF92FF920F931F93CF93DF9330E028
:101E0000F901E80FF91F1E161F060CF07FC080387D
:101E100091050CF07BC0802E912CF401E60FF71F8A
:101E20001E161F060CF072C0603471050CF06EC0F7
:101E3000E62FE7707E2EF7E08F0E911CE3E095947D
:101E40008794EA95E1F7F3E075956795FA95E1F7E0
:101E5000062E000C770BDB01B695BA2FAA27B79593
:101E6000A795A80FB91FAE5CBD4FEA0110E000E0D6
:101E70007801E60EF71E48E0E416F1040CF046C0C7
:101E8000EFEFEE16FE06C4F150E040E05D01F0E831
:101E9000AF0EB11C421753077CF5FA01E80FF91F8A
:101EA000E038F1054CF5F7FD24C0FA01EC0FFD1FF9
:101EB000E491F0E02F01072C02C0440C551C0A9459
:101EC000E2F7EFEFEE16FE0691F16D01C40ED51E9E
:101ED000F601608064286082772059F0F7E0EF1601
:101EE000F10439F06501C40ED51EF6016080652845
:101EF00060824F5F5F4FCECF0F5F1F4FA058BF4F25
:101F0000C20FD31F8016910609F0B2CFDF91CF9197
:101F10001F910F91FF90EF90DF90CF90BF90AF9007
:101F20009F908F907F906F905F904F900895711069
:101F3000D9CFDFCFE2E3F2E0A0E0B8E000800EBC52
:101F40008111012C1197A0FDFDCF0192B9F70DB4BD
:101F500008950F93682F70E008E025E049E959E102
:101F600090E080E00E94EF0E0F910895FC018091B7
:101F70003102882311F13FB7F89482E08093E900A1
:101F80002091F200822F90E01816190614F481E0D7
:101F900090E0882339F0289844E64093300240913D
:101FA000F1004083222339F02091F200211103C077
:101FB0002BE62093E8003FBF08958FEF9FEF089531
:101FC0002FB7F89483E08093E9009091E800892F7F
:101FD000807295FF04C09091F20080E4891B2FBFAE
:101FE00008958091280281110DC082E0809324021F
:101FF00084E080932502109227021092260281E04D
:102000008093280284E292E00895CF93DF931F9299
:10201000CDB7DEB76983DC01ED91FC910280F381DD
:10202000E02D41E050E0BE016F5F7F4F09950F90BA
:10203000DF91CF91089583E08093E9008091F200D1
:10204000882319F08AE38093E80008950E94E00F46
:1020500090E00895CF93DF931F92CDB7DEB7FC01D8
:102060008485958597FD08C02FEF3FEF358724873E
:102070000F90DF91CF910895CE0101960E94B60F87
:10208000019719F4898190E0F3CF8FEF9FEFF0CFA4
:102090000F931F93CF93DF931F92CDB7DEB78C01C1
:1020A000FC018485958597FF0BC0CE0101960E94A7
:1020B000B60F019771F4898190E0F80195878487C4
:1020C000F801848595850F90DF91CF911F910F9135
:1020D00008958FEF9FEFF1CFFC018485958597FDE3
:1020E0000BC09FB7F89482E08093E9008091F200E2
:1020F0009FBF90E0019608959FB7F89482E0809387
:10210000E9008091F2009FBF90E0089540911E0287
:1021100050911F0220911C0230911D02421753075B
:10212000B4F49091E8009570E1F39091E80092FD8D
:1021300019C08093F10080911E0290911F020196B8
:102140008F739927892B19F48EEF8093E800809183
:102150001E0290911F02019690931F0280931E020F
:1021600081E0089580E00895DF92EF92FF920F934F
:102170001F93CF93DF93D82E8A01EB017B01E40EEE
:10218000F51ECE15DF0559F0D7FE12C0FE01849171
:102190000E94861021968111F4CF0FEF1FEFC80126
:1021A000DF91CF911F910F91FF90EF90DF900895F5
:1021B0008881EECF0F931F93CF93DF931F92CDB7FC
:1021C000DEB782E0898342E450E06DE279E180E8A5
:1021D0000E94B4100E94F10FDC0112960D911C9127
:1021E0000115110589F0D801ED91FC910280F38170
:1021F000E02DBE016F5F7F4FC801099597FD04C0B8
:10220000F80100851185ECCF89810F90DF91CF9186
:102210001F910F910895615030F02091F100FC0161
:1022200020830196F8CF289884E6809330020895A1
:10223000FC010E94AF11319728F068517C4F8F4FFD
:102240009F4FF9CFAB01FC010E94AF1164177507D6
:102250008E079F07C8F308958F929F92AF92BF9207
:10226000CF92DF92EF92FF920F931F93CF93DF9362
:102270006C017B018A0180918501882309F45AC091
:1022800080913102882309F455C08091230280FF98
:1022900005C08091E00082608093E000E801B12CED
:1022A0008AEFA82E93E0892E2AE3922E209711F42C
:1022B000BB20C9F10E94E00F811108C0AA94AA2096
:1022C000C9F181E090E00E941811F0CF8C171D0633
:1022D00011F00CF08C2F9FB7F8948092E9002091B8
:1022E000E80025FD02C09FBFE1CF282F30E0C21BD0
:1022F000D30BF701815020F041914093F100FACFC8
:10230000E20EF31EBB2021F09092E800B12CEBCF3F
:102310008091E80085FDE7CF9092E800BB24B3945C
:10232000209709F3F3CF5D9884E68093220210167C
:1023300011063CF081E090E0F6019383828310E087
:1023400000E0C801DF91CF911F910F91FF90EF90B6
:10235000DF90CF90BF90AF909F908F900895A8E1AD
:10236000B2E02FB7F8947D918D919C9166B52FBF07
:10237000A89B05C06F3F18F47F5F8F4F9F4F22E0EF
:10238000660F771F881F991F2A95D1F70895AF927E
:10239000BF92CF92DF92EF92FF920F931F93CF9352
:1023A000DF936C017B018B01040F151FEB015E01B4
:1023B000AE18BF08C017D10759F06991D601ED9149
:1023C000FC910190F081E02DC6010995892B79F7E8
:1023D000C501DF91CF911F910F91FF90EF90DF909A
:1023E000CF90BF90AF900895FC01448155816081EA
:1023F000718182E996E00C94C7112091FA01E09175
:10240000F801F091F901CF0102969093F9018093C0
:10241000F801222319F0859194910895808191818A
:102420000895E1E7F0E080818D7F80831092910034
:10243000469847981092E1010895CF92DF92EF926B
:10244000FF92CF93DF930E94FD11811520E8920740
:1024500041F4DF91CF91FF90EF90DF90CF900C94FB
:10246000111221E02093E101813020E8920751F41C
:102470008091F6019091F7019093F9018093F80112
:102480000E94FD1197FD05C02091E001222309F46F
:102490005BC02091DF01211157C021E02093E201B0
:1024A000EC01DF77209709F052C081E08093E301CF
:1024B00046983FE9C32E3FE0D32EE12CF12CCAEF22
:1024C000D0E0E0919006F09191060995811103C04A
:1024D00081E08093E3018091E201882329F08091DB
:1024E000E301882309F446C047980E94FD11009734
:1024F00009F444C09C01DE010E945C2BDC01CB018D
:1025000029E0B595A795979587952A95D1F71092CB
:1025100090002AE020939100D0929900C0929800F8
:102520008093E4019093E501A093E601B093E70165
:1025300080917100826080937100DF91CF91FF9054
:10254000EF90DF90CF9008951092E201A9CF9E0105
:1025500050E040E060E472E48FE090E00E94D92A0D
:1025600069017A0181E0C81AD108E108F1081092E6
:10257000E301A7CF4699B8CF479AB7CF8FEF9FEF28
:10258000DC01C5CF0F9302E00E94FD0C0F9108956E
:1025900090E00C9418118FB18095807F669B8860C5
:1025A0001C9B846008951092FB013E983F9808950B
:1025B0003E9A3F9A81E08093FB01089590E0E2E328
:1025C000F2E091119FEF8FEF9193919391939193FB
:1025D0008150D0F71092E9011092E8011092EB01BE
:1025E0001092EA01089590910502982329F49091A0
:1025F0000602982381E009F480E0089580E00C94BD
:102600009A0F80389105B8F460347105A0F490E118
:1026100021E061FD24E060FD220F62FD2295687FCC
:10262000969FD0011124A80FAE5CBD4F0C90022ADA
:1026300040FF02260C9208952F923F924F925F9294
:102640006F927F928F929F92AF92BF92CF92DF92C2
:10265000EF92FF920F931F93CF93DF937C014B0177
:10266000C42FD0E081E090E06C01CC1ADD0AAA24EE
:10267000BB24AC1ABD0AAA0CBB1C66246394712C43
:1026800010E000E0822F8470582E822F8270482E36
:10269000822F8870382E2170222ED7FC06C02197F9
:1026A00082E0A80EB11CCA0CDB1C0F5F1F4F82E03A
:1026B000680E711CC60CD71C552091F041E0BE017C
:1026C000680D791DC701800F911F0E94011341E021
:1026D000B401600F711FCE018E0D9F1D0E9401136A
:1026E000442091F041E0B4016C1B7D0BC701800FC9
:1026F000911F0E94011341E0B401601B710BCE01D8
:102700008E0D9F1D0E940113332091F041E0B40112
:10271000600F711FC7018C1B9D0B0E94011341E0CC
:10272000BE01680D791DC701801B910B0E9401132A
:10273000222091F041E0B401601B710BC7018C1B9A
:102740009D0B0E94011341E0B4016C1B7D0BC7017E
:10275000801B910B0E9401130C171D070CF49DCFD9
:10276000DF91CF911F910F91FF90EF90DF90CF906D
:10277000BF90AF909F908F907F906F905F904F90A1
:102780003F902F9008952F923F924F925F926F92B9
:102790007F928F929F92AF92BF92CF92DF92EF92F1
:1027A000FF920F931F93CF93DF93EC018B017A017C
:1027B0006901C61AD70AD7FE03C0D194C194D108C3
:1027C00047018C1A9D0A97FE03C091948194910849
:1027D0008C149D0454F49E2D8F2D7901292F382FB0
:1027E0009C2F8D2FE801092F182FEC16FD0654F4AD
:1027F000902F812F8901292F382F9C2F8D2FE701B2
:10280000E92EF82E17012C1A3D0A2901401A510A07
:1028100057FE03C0519441945108310137FE03C063
:102820008FEF681A780A759467948FEF0217130771
:102830000CF481E0A82E880FBB08EC16FD06A4F06E
:1028400041E0BE01C8018C149D0414F0B801CE0112
:102850000E9401136418750877FE04C00A0D1B1D41
:10286000620C731C2196E9CFDF91CF911F910F91DC
:10287000FF90EF90DF90CF90BF90AF909F908F90A0
:102880007F906F905F904F903F902F9008958F9220
:102890009F92AF92BF92CF92DF92EF92FF920F93EF
:1028A0001F93CF93DF936D3089F0C090E801D090F3
:1028B000E9016A30D1F41092EB011092EA0188E04C
:1028C000C80ED11CD092E901C092E80181E090E0ED
:1028D000DF91CF911F910F91FF90EF90DF90CF90FC
:1028E000BF90AF909F908F9008950091EA01109152
:1028F000EB01E5E06E9FE0011124C85ED74F48016F
:10290000F12CF5E0E12CFF1629F0CE010196FE0135
:10291000E490EC01B12CA12C4E2D4170B6016A0D52
:102920007B1DC4010E940113E694FFEFAF1ABF0A9A
:1029300088E0A816B10481F7F394EFEF8E1A9E0A8F
:10294000F6E0FF12DECF0A5F1F4F1093EB010093FA
:10295000EA01BCCFDF92EF92FF920F931F93CF93C8
:10296000DF937C01D22E8B01040F111DEB0177FF49
:1029700002C0D0E0C0E0C8010134110514F080E4C9
:1029800090E0C817D9073CF44D2DBE01C7010E9445
:1029900001132196F0CFDF91CF911F910F91FF90FE
:1029A000EF90DF9008952F923F924F925F926F9237
:1029B0007F928F929F92AF92BF92CF92DF92EF92CF
:1029C000FF920F931F93CF93DF9300D000D0CDB72A
:1029D000DEB75C012B012A83242F30E03C832B835C
:1029E00081E090E07C01E21AF30A1901319421940C
:1029F0003108220C331C88248394912CD12CC12CB7
:102A000031E0300F3983F7FC0AC0EB81FC8131974C
:102A1000FC83EB83F2E02F0E311CE20CF31C2FEF52
:102A2000C21AD20A32E0830E911CE80CF91C4B81C9
:102A3000440FB2018B819C81681B790B102F180DFC
:102A400032016C187D089A81913069F5E9814E0F49
:102A500020E0C5018C0D9D1D0E94AA1420E0412F8D
:102A6000B3018B819C818A0D9B1D0E94AA148B81CE
:102A70009C81C816D9063CF20F900F900F900F90D2
:102A8000DF91CF911F910F91FF90EF90DF90CF904A
:102A9000BF90AF909F908F907F906F905F904F907E
:102AA0003F902F900895F9814F0F20E0C5018C19B8
:102AB0009D090E94AA1420E0412FB301C501EB81BA
:102AC000FC818E1B9F0BD1CFDF92EF92FF920F9371
:102AD0001F93CF93DF937B01D22EEC018C01040F67
:102AE000111DC017D10744F420E04D2DB701CE01D0
:102AF0000E94AA142196F5CFDF91CF911F910F91DB
:102B0000FF90EF90DF9008955F926F927F928F9287
:102B10009F92AF92BF92CF92DF92EF92FF920F936C
:102B20001F93CF93DF93EC017B01142F722E602E45
:102B3000660C542E5618802E912C5401A80EB91EE6
:102B40006034710520F4452DC5010E94B80E67015F
:102B5000C70CD11CB601615071096034710520F4B5
:102B6000452DC5010E94B80E7618E80CF91C21E02D
:102B7000472DB701CE010E94AA14C10FD11D21E03B
:102B8000472DB701CE0101970E94AA1421E0402FE2
:102B9000B701C5010E941C13C819D909219722E069
:102BA000402FB701CE010E941C13C818D90881E03C
:102BB000C81AD10824E0402FB601CE010E941C1390
:102BC00028E0402FB601C501DF91CF911F910F91F1
:102BD000FF90EF90DF90CF90BF90AF909F908F903D
:102BE0007F906F905F900C941C132091000284E002
:102BF000289F9001112441E090E080E0FC01E20F69
:102C0000F31FEA59FE4F5081511140E00196843084
:102C10009105A1F74093FF0108958F929F92AF9283
:102C2000BF92CF92DF92EF92FF921F93CF93DF93E9
:102C300010920402E1E0F1E085E691E0812C912C14
:102C40005401839424813581820E931EA11CB11CF2
:102C50003A968E179F07B1F780920B0290920C0262
:102C6000A0920D02B0920E02F091720126E631E0C0
:102C7000C0E0C12CD12C7601D0E012E1FD17D9F0D3
:102C800090E080E0D901A80FB91FEC91E19FA0016D
:102C90001124052E000C660B770BC40ED51EE61E04
:102CA000F71EE111CF5F01968430910559F7DF5F80
:102CB0002C5F3F4FE3CFC0920702D0920802E09210
:102CC0000902F0920A02C093C401A4E6B0E0A50193
:102CD00094010E94F82A9601A701C114D104E104CD
:102CE000F10421F421E030E040E050E00E943A2B72
:102CF00030930302209302022F3B3105B0F081E0B4
:102D000080930402B694A794979487948BE08816D6
:102D10009104A104B10408F044C080920B02909287
:102D20000C02A0920D02B0920E028EEEC81682E046
:102D3000D806E104F10428F0D23018F483E080933F
:102D40007201C53038F080916501863018F489E051
:102D50008093650190913B0180913C019817A8F008
:102D60009091450180914601981778F090914F011C
:102D700080915001981748F09091590180915A0123
:102D8000981718F08AE080936501DF91CF911F9129
:102D9000FF90EF90DF90CF90BF90AF909F908F907B
:102DA00008958AE090E0A0E0B0E080930B02909359
:102DB0000C02A0930D02B0930E02B7CF0F93CF93E6
:102DC000DF93EC019E816A3059F48D818C83698593
:102DD000960F9E8381E090E0DF91CF910F9108954F
:102DE000262F61E0690F2A3398F4203398F52B32AF
:102DF00099F140F42132A1F198859D5F8C81890F72
:102E00008C83E8CF2E3251F12F32B1F723E40FC07B
:102E10002B3540F42134E0F42C3321F12E3361F7CB
:102E200021E405C08FE9820F27548A3128F7062E46
:102E3000000C770B8C81082E000C990B3F810AEF58
:102E4000313009F00BEF43E157E00E94FD0CD4CF85
:102E50002154EDCF2C5FEBCF20E4E9CF2FE3E7CF78
:102E60002EE3E5CF22E4E3CF0F931F93CF93DF93BD
:102E70008C01D0E0C0E0F801EC0FFD1F64916623E7
:102E800041F082E996E00E94DE16892B11F021962E
:102E9000F2CFCE01DF91CF911F910F910895089548
:102EA00090E080E008958F929F92AF92BF920F932F
:102EB0001F93CF93DF93CDB7DEB7A1970FB6F894EA
:102EC000DEBF0FBECDBF19A2423008F44AE08E012A
:102ED0000F5D1F4F842E912CB12CA12CA5019401C4
:102EE0000E943A2BE62FB901CA01EA3044F5E05DB1
:102EF000D801EE938D01232B242B252B79F790E01D
:102F000080E0109769F0FD0101900020E9F731970A
:102F1000AF014A1B5B0BBD0182E996E00E94C7111D
:102F2000A1960FB6F894DEBF0FBECDBFDF91CF9153
:102F30001F910F91BF90AF909F908F900895E95C83
:102F4000D7CFAF92BF92CF92DF92EF92FF920F93C3
:102F50001F93CF93DF93CDB7DEB7C054D1090FB61F
:102F6000F894DEBF0FBECDBF9091F401BB24B394A3
:102F70009111A9C0E82EF12C97012B533E4F690106
:102F8000F901B080B1109FC091E09093010290913F
:102F9000F301953608F0AAC09F5F9093F301A82E25
:102FA00022E349E666E070E08DE090E00E9464155F
:102FB00007E210E021E045E06BE070E085E790E09B
:102FC0000E94D31422E045E06BE070E08DE090E0D9
:102FD0000E94D31405E022E343E765E070E088E057
:102FE00090E00E948415F5E0FA15C8F420E04CE466
:102FF0005FE062E170E08AE590E00E94C2124091D9
:10300000F3014B3508F04AE550E04C5E5F4F24E396
:1030100030E064E370E08CE090E00E94C3138BE04A
:10302000809397068093960688E080939806F70130
:10303000EE0FFF1FEC51F84F659174918E010F5FF9
:103040001F4FC8010E944E27F80101900020E9F7A8
:103050003197AF01401B510BB80182E996E00E9405
:10306000C71128E040E868E370E090E080E00E944B
:10307000641508E027E046EA56E169E370E08AE576
:1030800090E00E94EF0E84E6809397068093960668
:1030900089E38093980681EE97E00E94341784E0DC
:1030A0000E94F312882321F19091F301933358F099
:1030B0001092010291E0F60190831092F30196E9DB
:1030C0009093F401B82E8B2DC05CDF4F0FB6F894AF
:1030D000DEBF0FBECDBFDF91CF911F910F91FF904B
:1030E000EF90DF90CF90BF90AF90089594E655CFCA
:1030F000B12CE9CF82E090E00E94B12A81110C94BA
:10310000D8120C94D3120F931F93CF93DF93EC013B
:1031100088819981009759F02A813B8126173707CA
:1031200030F081E0DF91CF911F910F9108958B01D5
:103130006F5F7F4F0E94352F009759F099838883E6
:103140001B830A832C813D81232B59F7FC011082BC
:10315000E8CF80E0E7CFCF93DF93EC0188819981BE
:10316000009711F00E94AC2E198218821D821C82D9
:103170001B821A82DF91CF910895EF92FF920F93F5
:103180001F93CF93DF938C017B01FB010190002003
:10319000E9F73197E61BF70BD1F0DC011496CD91DE
:1031A000DC91CE0FDF1FBE010E9483188823B9F087
:1031B000F8012081318184819581B701820F931FAD
:1031C0000E94FB2FD8011596DC93CE931497C8016B
:1031D000DF91CF911F910F91FF90EF900895C8015B
:1031E0000E94AB18F4CFEF92FF920F931F93CF93EF
:1031F000DF93EC017B018A01BA010E9483188111DF
:103200000BC0CE010E94AB18CE01DF91CF911F9170
:103210000F91FF90EF9008951D830C83B701888173
:1032200099810E94FB2FF0CFEF92FF920F931F9393
:10323000CF93DF93CDB7DEB7A1970FB6F894DEBF7B
:103240000FBECDBF7C01CB01BA01F7011182108204
:1032500013821282158214828E010F5F1F4F21E0AC
:1032600043E00E9430270097C9F0FC010190002044
:10327000E9F73197AF01481B590BBC01C7010E9408
:10328000F318A1960FB6F894DEBF0FBECDBFDF9145
:10329000CF911F910F91FF90EF900895C7010E9469
:1032A000AB18EFCFFB01DC0111961C921E92139616
:1032B0001C921E92129715961C921E9214978617B6
:1032C000970749F0608171816115710521F0448192
:1032D00055810C94F3180895FC0180819181009729
:1032E00011F00C94AC2E0895CF92DF92EF92FF92E2
:1032F000CF93DF93CDB7DEB72C970FB6F894DEBF30
:103300000FBECDBF6B017C0128EEC21623E0D206B2
:10331000E104F10480F44AE00E9453172C960FB6A2
:10332000F894DEBF0FBECDBFDF91CF91FF90EF903D
:10333000DF90CF9008950E94B62920E4C21622E4BF
:10334000D2062FE0E206F10420F520E030E04AE763
:1033500054E40E946B2BAB01BC01CE0101960E948C
:103360001419BE016F5F7F4FCE0107960E9452195C
:103370006DEB71E0CE0107960E94BD180E94F4111A
:10338000CE0107960E946C19CE0101960E946C191D
:10339000C5CFC1142AECD2062AE9E2062BE3F206D5
:1033A000B0F420E034E244E759E40E946B2BAB0117
:1033B000BC01CE0101960E941419BE016F5F7F4FC0
:1033C000CE0107960E9452196FEB71E0D3CF28E22D
:1033D0003BE64EE65EE40E946B2BAB01BC01CE01E6
:1033E00001960E941419BE016F5F7F4FCE010796B0
:1033F0000E94521961EC71E0BDCF1F920F920FB67F
:103400000F9211248F939F938091E1009091E1009E
:10341000937F9093E10083FF0FC01092E90091E049
:103420009093EB001092EC0092E39093ED001092D9
:10343000310298E09093F00082FF22C093E09093D5
:10344000E9009091F200992319F09AE39093E80033
:1034500090912202992341F09091220291509093F1
:103460002202911101C05D9A90913002992341F09E
:1034700090913002915090933002911101C0289A9E
:1034800084FF18C08091E2008E7E81608093E2000C
:103490008091E1008F7E8093E100809123028E7EF7
:1034A0008061809323029F918F910F900FBE0F90A8
:1034B0001F90189580FFF7CF8091E2008E7E80618B
:1034C0008093E2008091E1008E7E8093E100809104
:1034D00023028E7E8160E5CF1F920F920FB60F926E
:1034E0001124CF92DF92EF92FF920F931F932F93AD
:1034F0003F934F935F936F937F938F939F93AF937C
:10350000BF93EF93FF93CF93DF93CDB7DEB76C9765
:10351000DEBFCDBF1092E9008091E80083FF25C097
:1035200068E0CE0145960E940B1182EF8093E8007F
:103530008D8987FF39C09091E80090FFFCCF982FCC
:10354000907609F034C19E894F89588D2F89F88C67
:10355000911131C0803861F5809121028093F10092
:103560001092F1008EEF8093E8006C960FB6F894FD
:10357000DEBF0FBECDBFDF91CF91FF91EF91BF9125
:10358000AF919F918F917F916F915F914F913F91FB
:103590002F911F910F91FF90EF90DF90CF900F90A0
:1035A0000FBE0F901F9018959EEF9093E800C7CF25
:1035B0001092F100D5CF913059F48111D3CF413021
:1035C000510581F6809121028D7F80932102CACF1F
:1035D000933049F48111C6CF4130510519F68091DD
:1035E00021028260F2CF953041F48091E80080FFA3
:1035F000FCCF20682093E300B5CF963009F0A9C036
:103600000B8D1C8D22E01092E90010921F02109287
:103610001E02F2122EC010921D0210921C020E9475
:10362000DA101F8299E09983FA8291E09E8390EAF2
:1036300098879AEF998720911E0230911F02275F89
:103640003F4F3C832B838D831092E90010921F0221
:1036500010921E0210931D0200931C0249E050E0DC
:10366000BE016F5F7F4F80E00E94B4100E94DA10AD
:1036700079CF10931D0200931C020E94F10FDC0110
:1036800012960D911C910115110509F451C1D80133
:10369000ED91FC910480F581E02DBE016B5E7F4FC2
:1036A000C8010995009709F03EC1F8010085118510
:1036B000EACFF3E0FF120EC08F89882309F440C0DF
:1036C000823061F440E867E081E999E10E942F1DB2
:1036D000811148CF81E28093EB0047CF813029F4FC
:1036E00040E86BE085E899E1F1CF833099F70E94DB
:1036F000F10FDC011296ED90FC908E010F5F1F4FD1
:103700006801E114F10479F0D701ED91FC91068094
:10371000F781E02DB801C7010995080F111DF701C8
:10372000E084F184EECFD8011C92F60101900020D4
:10373000E9F73197BF016C197D0940E0C601C6CF9A
:103740006FE679E1FB01449150E080E80E94B410FB
:1037500009CF973009F4BECF983021F481E08093EF
:10376000F10000CF993009F0FDCE837009F0B2CF9F
:10377000EDE8F1E081E031E096E32191222371F060
:103780008093E9003093EB00DF0111972C91209397
:10379000EC009093ED008F5F873079F78EE7809390
:1037A000EA001092EA008F8980933102DBCE8B8D84
:1037B0009C8D1092E90010921F0210921E029093AD
:1037C0001D0280931C02898D811192C08E899D8972
:1037D000913A49F4813209F07DCF47E050E06EE73D
:1037E00071E080E0B3CF913209F074CF833269F495
:1037F0008F89988DB0E0A0E080937A0190937B014F
:10380000A0937C01B0937D01ADCE803269F48091AC
:10381000E80082FFFCCF67E08EE791E00E940B1189
:103820008BEF8093E8009ECE823209F09BCE8F8989
:1038300080938501EEEFFFE7859194918B3F9C4D3E
:1038400051F1E0E0F8E080917E0190917F01A0913C
:103850008001B0918101803B9440A105B105F1F454
:103860008091850180FD1AC0EE3F8AE0F80789F556
:1038700087E797E79183808380916000809320029F
:1038800088E19BE00FB6F894A895809360000FBE86
:103890009093600067CEEEEFFAE0D5CF8081918102
:1038A0008737974709F05ECEA895809160008861C0
:1038B000809360008091200280936000EE3F2AE0B8
:1038C000F20789F08091FE0A9091FF0A918380832C
:1038D00049CE808191818737980751F29093FF0AF2
:1038E0008093FE0AC5CF1092FF0A1092FE0A3ACECC
:1038F0000E94F10FDC0112960D911C91011511052A
:1039000009F4E8CED801ED91FC910190F081E02D11
:10391000BE016B5E7F4FC8010995811123CEF8016E
:1039200000851185EBCF181619060CF41BCED2CEEC
:10393000F1E0FF12BECE63E779E104CF0F920FB63C
:103940008F939F93EF93FF93809113028D5F8D3739
:1039500008F08D5780931302E4E1F2E080818E4FEE
:10396000808391819F4F918382818F4F8283838156
:103970008F4F8383E8E1F2E080818F5F80838181D4
:103980008F4F818382818F4F828383818F4F838387
:103990008FB18F6066991C9B88278F3681F4809148
:1039A0001202981B963068F0E0E0F8E087E7808329
:1039B000818388E180936000F0936000FFCF909353
:1039C0001202FF91EF919F918F910FBE0F9018956A
:1039D0001F920F920FB60F9211242F933F934F9384
:1039E0005F936F937F938F939F93AF93BF93EF9367
:1039F000FF938091E4019091E501A091E601B091DF
:103A0000E7010097A105B10539F12091E3012111EA
:103A100005C0369A2091E2012111379A0197A10938
:103A2000B109B7FD08C08093E4019093E501A0932C
:103A3000E601B093E701FF91EF91BF91AF919F91A4
:103A40008F917F916F915F914F913F912F910F9047
:103A50000FBE0F901F9018950E941D12ECCFEF9291
:103A6000FF920F931F93CF93DF93F82E192FE62E1B
:103A7000042F81E0860F880F0E94861083E00E9449
:103A80008610CF2DD12FEC0EFD2EF11CCE15DF05AB
:103A9000B9F007FF13C0FE0184910E948610182F11
:103AA00080E00E948610812321968111EFCFDF9163
:103AB000CF911F910F91FF90EF9008958881EDCFE6
:103AC00081E0F5CFE2E3F6E01382128288EE93E024
:103AD000A0E0B0E084839583A683B78387E991E073
:103AE000918380838FEF9FEF958784878AEF9CE097
:103AF000909391068093900680E090E890938F06D3
:103B000080938E0646983E9A47983F9AECE9F6E0F5
:103B10001382128285EB91E091838083E2E9F6E0E3
:103B20001382128289EA91E09183808388E0818701
:103B300081E0808715821682148287830895CDB72D
:103B4000DEB7A897DEBFCDBF789483E084BD83E065
:103B500085BD81E080936E00E1E8F0E083E0808342
:103B6000E0E881E08083E1E983E08083E0E981E0CF
:103B70008083E1EC87E08083E3EC81E08083E0EC0C
:103B800082E08083E2EC81E08083EAE787E0808363
:103B900080688083109231021092210210922302D9
:103BA0008091D70081608093D70080EA8093D8000D
:103BB00089B5806189BD89B5826089BD09B400FE7F
:103BC000FDCF81E090E00E9418118091D8008F7C99
:103BD00080618093D8008091E000807F8093E00036
:103BE0008091E1008E7E8093E1008DE08093E20081
:103BF000559A209A81EC80937C0081EF85B987EEFD
:103C000084B982E38BB982EF8AB9769A6E9880EF95
:103C100081BB10BA80E58CBD81E08DBD85E00E943E
:103C2000C8125F9A85E00E94C8125C98E8ECFDE03B
:103C300085918EBD00000DB407FEFDCFE53DC1F7B7
:103C40005C9A81E88093640081E0809365000E9423
:103C5000FE120E94CB1287FF15C05C9885EA8EBDCC
:103C600000000DB407FEFDCF5C9A2E982F982D987A
:103C70008091640080628093640081E083BF8895B6
:103C800013BEFCCF0E94CB1282FF37C02D980E943A
:103C9000CB1284788438A1F42D9A88EC0E94C81243
:103CA0002F986FEF82E090E00E94B92A84EF91E0B4
:103CB0000E9418112F9A0E94CB1284788438D9F36D
:103CC0000E94CB1284718431A1F42D9A88EC0E9459
:103CD000C8122E9860E082E090E00E94B92A84EF3A
:103CE00091E00E9418112E9A0E94CB1284718431A7
:103CF000D9F388EC0E94C812C5CF2D9A0E947A1879
:103D000081E090E00E94B12A182F147081FF0CC04E
:103D100011112E9851EFE52EFF24FA940E94CB1238
:103D200086FF3BC02E9A2F9A82E30E94C8120E94FF
:103D3000CB128111F9CF80E1809300010E940D1612
:103D40000E947A188091FB018093FC018823A1F0E6
:103D5000809171008D7F8093710081E08093FA01E2
:103D600081EE91E19093F9018093F8019093F7012E
:103D70008093F6010E941D12CE0101961C018091D4
:103D8000EE01882309F464C01092EE0180E090E017
:103D9000892BA9F30E940000F2CF112331F024E017
:103DA000E216F10411F42E9A2F9881E00E949A0FE6
:103DB00000E128E548E15DE0B70184E190E00E9480
:103DC000EF0E0E94FE128FE00E94C8123FEFE31A2E
:103DD000F30A49E1E416F10409F0A0CF112311F030
:103DE0002F9A2D9880E991E00E9418112D9A81E078
:103DF00090E00E94B12A80FF97CF8AE090E00E9475
:103E0000B12A9FEF980F9E3F08F08ECF22E330E05B
:103E10003093EB012093EA0128E330E03093E9018D
:103E20002093E8010AE010E0682F8CE996E00E94F8
:103E300047140F5F1F4FC8010E94B12A00311105BE
:103E400099F70E94FE1288EE93E00E9418116CCF41
:103E5000909114028091EF01E92FE81B8E2F2091A1
:103E60000001E21748F48F5F821708F08FCF81E0DE
:103E700083BF889513BE8ACF81E08093EE01909333
:103E8000EF01ECEEF1E080819181019680839183D6
:103E9000109106028091F201811159C01093050220
:103EA0000E94CB128093060288E00E94F3128111D7
:103EB00005C084E00E94F312882319F081E080930A
:103EC000F2010E94DE128091F1018F5F8093F10177
:103ED0009091F0019923A9F1883C20F01092F00113
:103EE0001092F1012091F00181E028274CE45FE07D
:103EF00068E170E08CE490E00E94C21200E226E5E6
:103F000044EF5DE067E070E084E190E00E94EF0E36
:103F10000BE02DE04AED5DE065E370E090E080E0CD
:103F20000E94EF0E8FE0809397068093960689E3B8
:103F30008093980685ED9DE00E9434170E94FE1242
:103F400025CF8E3178F281E08093F001C9CF809146
:103F500011028F5F80931102883050F0809110021F
:103F6000109211028F5F843108F080C58093100297
:103F700000910F0280911002811133C00F3F89F52B
:103F8000C0900B02D0900C02E0900D02F0900E0257
:103F900020910702309108024091090250910A02D3
:103FA000A9E0B0E0C216D306E406F50610F4A701B6
:103FB00096010E94F82AC0907401D0907501E0909B
:103FC0007601F0907701DC01CB018C0D9D1DAE1DBB
:103FD000BF1D8093740190937501A0937601B093F7
:103FE0007701109305020E94CB12F82E80930602EF
:103FF00088E00E94F312882341F0809179018F5F5D
:10400000823008F036C58093790180917901882348
:1040100051F015FF08C0F5FC06C0813009F02CC531
:1040200082E0809379010E94DE120F3F09F0ECC418
:10403000809178018F3F09F4ECC429E030E040E83A
:1040400050E069E070E090E080E00E94C31308E077
:1040500025E048E259E161E070E081E090E00E94F3
:10406000EF0E88E0809397068093960611E01093F8
:10407000980660917401709175018091760190911C
:1040800077010E9474192DE04BE159E162E070E084
:1040900080E290E00E94EF0E8FE28093970680937B
:1040A00096061093980660910B0270910C02809115
:1040B0000D0290910E020E947419809104028823CF
:1040C00021F089E199E10E94341708E025E044E1FC
:1040D00059E161E070E086E490E00E94EF0E42E377
:1040E00061E070E08DE490E00E94B80E42E367E08A
:1040F00070E08DE490E00E94B80E21E047E061E0BE
:1041000070E08DE490E00E94AA1421E047E061E0B5
:1041100070E08EE790E00E94AA14E0900202F09016
:104120000302970136952795F0E6EF16F10408F0A3
:1041300020E308E044EE58E162E070E08EE490E0B5
:104140000E94EF0E24E6E216F10408F097C4C701BE
:1041500096958795835B9F4F27E030E0AC0161E047
:1041600070E00E94C313809179018111CDC18091CB
:104170000102811182C380E80E94F312882339F082
:10418000809173018111A6C483E08093730180E163
:104190000E94F312882339F080917301833008F470
:1041A0009BC41092730110917201123008F180E2E9
:1041B0000E94F312882351F080910002811190C473
:1041C0008FEF810F809300020E94F51580E40E941A
:1041D000F312882369F020910002412F4150550BC2
:1041E000241715060CF47EC4109200020E94F515E7
:1041F00084E00E94F312882309F45CC0F090FF0170
:104200000091000210E0F11071C4E0917301C80147
:10421000880F991F880F991F8A599E4FE80FF92F11
:10422000F11D6081643108F045C0662309F463C460
:1042300070E090E080E00E94B6299B01AC0163E34E
:1042400073E383EB9FE30E940C2C20E030E04AE70D
:1042500054E40E94F3290E94DD2B80907401909019
:104260007501A0907601B090770186169706A80692
:10427000B90600F1A5019401261B370B480B590B19
:10428000DA01C9018093740190937501A0937601BE
:10429000B0937701000F111F000F111FFF2009F4C9
:1042A0002FC40A591E4F81E0F80183831092FF0149
:1042B0000E940D168091FF01882309F42CC421E08F
:1042C00049EF56E16BE070E084E090E00E94C2129A
:1042D000C090730189E0C89E802D1124805F0E94E8
:1042E000A90F1091FF01E0900002D12C84E0E89E1C
:1042F00070011124111109C0F701EA59FE4FEC0DAC
:10430000FD1D8081843108F04EC008E025E048E2C0
:1043100059E16DE270E085E590E00E94EF0E85E5E1
:10432000809397068093960683E280939806F70120
:10433000EA59FE4FEC0DFD1D8081882309F490C4DD
:1043400088EC96E10E9434178DE580939706809360
:1043500096068DE28093980660EA76E881E090E028
:1043600011111FC0F701EA59FE4FCE0EDF1EF601F4
:104370006081662309F477C470E090E080E00E94D9
:10438000B6299B01AC0163E373E383EB9FE30E94D7
:104390000C2C20E030E04AE754E40E94F3290E940C
:1043A000DD2B0E94741921E230E045E550E06BE01E
:1043B00070E085E590E00E94C31321E230E04EE713
:1043C00050E061E270E085E590E00E94C3138AE569
:1043D00080939706809396068CE0809398068BEBEB
:1043E00096E10E94341708E02DE04BE159E167E1C6
:1043F00070E08AE590E00E94EF0E8BE680939706CE
:104400008093960686E180939806609107027091EA
:1044100008028091090290910A020E94741927E013
:1044200044EB56E169E370E08DE290E00E94EF0E0C
:1044300087E3809397068093960619E31093980676
:104440008DEA96E10E94341727E046EA56E169E3D7
:1044500070E08AE590E00E94EF0E84E68093970674
:1044600080939606109398060091000210E0E09168
:104470007301C801880F991F880F991F8A599E4F91
:10448000E80FF92FF11D8081882309F4F1C38EE92B
:1044900096E10E943417809172018230A8F188E081
:1044A000809397068093960669E3F62EF09298061D
:1044B00088E996E10E94341785E2809397068093FD
:1044C0009606F092980686E996E10E94341783E1F9
:1044D0008093970680939606F0929806B8016F5FD6
:1044E0007F4F072E000C880B990B4AE00E94531750
:1044F00084E996E10E9434176091720170E090E0C7
:1045000080E04AE00E94531780917901813009F0E0
:10451000B4C1809101028111B0C180E80E94F31200
:10452000882349F08091FE01811102C080916501CC
:1045300081508093FE0180E10E94F312882361F094
:104540008091FE01209165012150330B82171306E3
:104550000CF491C31092FE0184E00E94F3128823B0
:1045600009F46EC08091FE019AE0989F80011124A9
:104570000F5F1E4FF801F0842185F21608F060C02D
:104580004080518062807380409174015091750128
:1045900060917601709177014415550566057705A0
:1045A00008F44EC04419550966097709409374010F
:1045B0005093750160937601709377012AE0DE01D4
:1045C000599601900D922A95E1F7F801608570E007
:1045D00090E080E00E94B6299B01AC0160E070E0B1
:1045E00080EC9FE30E940C2C4B015C01C301B201E3
:1045F0000E94B629A50194010E94F3290E94DD2B97
:10460000F8016083718382839383668177818481DB
:104610009581860F971F95838483F394F08690E0AD
:1046200080E00E94B62920E030E040EC5FE30E9489
:10463000F3290E94DD2BF801778366830E940D1613
:1046400082E10E94A90F95E1E92EF12CB12CA12C59
:104650002AE0822E37E1732E4FE3642E5BE6552E5F
:10466000C090FE01C5018C0D911D20916501281798
:10467000190609F00CF4A1C0CA0C01E021E148E7D9
:10468000B7016950710985E090E00E9484154E2CB5
:10469000F7E0F0939706F093960688EF8E0D8093DF
:1046A0009806D12CF601EE0FFF1FE058F94E6591E8
:1046B0007491C1010E944E27F10101900020E9F799
:1046C0003197AF0142195309B10182E996E00E9486
:1046D000C7118C9C80018D9C100D11240F5F1E4F03
:1046E000F80190849920A1F08DE796E10E9434179B
:1046F000692D70E090E080E04AE00E945317F801D5
:1047000090858185981720F088E796E10E943417FC
:1047100008E02DE04BE159E1B70187E090E00E940D
:10472000EF0E4A9470929706709296064092980601
:104730008C9CC0018D9C900D11249C012F5F3E4FDD
:104740006901F9016481758190E080E00E9474192B
:10475000F60191858085891780F525E048E259E1C9
:10476000B7016150710988E390E00E94EF0E6092FA
:1047700097066092960640929806F60160817181D4
:10478000828193810E9474192DE04BE159E1B701B8
:104790008AE590E00E94EF0E50929706509296069E
:1047A0004092980686E796E10E943417F6016681EA
:1047B000778190E080E00E947419FFEFAF1ABF0A82
:1047C00022E1E20EF11C33E0A316B10409F048CF58
:1047D00028E040E868E370E090E080E00E94641523
:1047E00008E027E044EB56E169E370E08DE290E0F9
:1047F0000E94EF0E87E3809397068093960619E355
:10480000109398068EE696E10E943417E091FE011F
:104810004AE0E49FF0011124EF5FFE4F908581850F
:104820009817A0F427E046EA56E169E370E08AE5CC
:1048300090E00E94EF0E84E68093970680939606A0
:10484000109398068AE696E10E94341782E08093DE
:1048500097068093960619E31093980688E696E1EA
:104860000E94341788E080939706809396061093F1
:1048700098068FE596E10E94341780917901823085
:1048800009F0C2C080E80E94F312882339F08091B9
:10489000FD018111F4C181E08093FD0180E10E945E
:1048A000F312882339F08091FD01882309F4E9C1CE
:1048B0001092FD0184E00E94F312882379F1809127
:1048C000FD0181112BC08091FC0111E081278093B3
:1048D000FC01882309F4D9C10E94D812809171008B
:1048E0008D7F809371001093FA0181EE91E1909396
:1048F000F9018093F8019093F7018093F6010E94EB
:104900001D121091FB0182E090E00E94B12A18175D
:1049100029F0612F82E090E00E94CB2A8091FD0176
:104920009CE0899F802D1124805F0E94A90F01E0E7
:104930002BE048E76CE070E085E090E00E94841591
:1049400088E080939706809396061EE01093980661
:1049500083EC91E10E9434178AE580939706809357
:104960009606109398068091FC01882309F492C161
:1049700080EC91E10E94341728E040E868E370E0A1
:1049800090E080E00E94641508E027E044EB56E1E7
:1049900069E370E08DE290E00E94EF0E87E3809380
:1049A00097068093960619E31093980689ED91E196
:1049B0000E94341727E046EA56E169E370E08AE591
:1049C00090E00E94EF0E84E680939706809396060F
:1049D0001093980682ED91E10E94341782E0809353
:1049E0009706809396061093980680ED91E10E94B9
:1049F000341788E080939706809396061093980664
:104A000089EC91E10E943417809178018F3F09F081
:104A10006EC1F090F50190E29F1508F43EC12F2D74
:104A200040E870E060E090E080E00E9464150F2DA7
:104A300010E060E470E0601B710B2F2D40E890E007
:104A400080E00E94641540E8B80190E080E00E9498
:104A5000B80E6FE370E0601B710B40E890E080E0FF
:104A60000E94B80EF394F092F50141C11092100229
:104A70007FCA10927901C9CA81E0D3CA3AE6E31627
:104A8000F10408F470CB25E04FE162E070E086E5C8
:104A900090E00E94641502E010E021E041E063E054
:104AA00070E084E790E00E94D31422E041E063E0EC
:104AB00070E086E590E00E94D31486E58093970627
:104AC0008093960681E0809398068BED98E10E9492
:104AD000341749CB815059CB8F5F8093730163CBDF
:104AE000815070CB2F5F2093000280CB60EA76E884
:104AF00081E090E0B2CB68EE73E080E090E0ADCB77
:104B0000809173010A591E4FF801E80FF11D808151
:104B10008F5F8083CDCB4090000220E049EF56E1CB
:104B20006BE070E084E090E00E94C21210911002ED
:104B3000812F6AE00E94FE2D41E0911140E06CE07F
:104B400070E084E290E00E940113812F6CE00E94EB
:104B5000FE2D41E0911140E06CE070E086E290E0D3
:104B60000E940113F4E04F9E2001112492012A5962
:104B70003E4F2901F1E1CF2ED12CAFE0EA2EF12CEE
:104B80001CE21093970610939606E0929806F201A5
:104B9000B1902F01B11018C008E02CE140ED56E1B2
:104BA000B7018AE090E00E94EF0E85EF96E10E9447
:104BB000341739E0E30EF11C49E0C40ED11C55E373
:104BC000C516D104F1F684CB01E028E04CE1B70131
:104BD0008AE090E00E9484158B2D65E00E94FE2DF6
:104BE000882E912CECE06E2E712CB12CA12C08E0BB
:104BF00024E04CEE56E1B601C3010E94EF0EFFEF38
:104C0000AF1ABF0A25E0620E711C8A149B047CF760
:104C100080EF96E10E943417F201319780811CA247
:104C20001BA21EA21DA218A61FA24AE0B10190E07D
:104C30000E945527F10101900020E9F73197AF015B
:104C400042195309B101CE0183960E94F318CE0197
:104C500083960E94F411CE0183960E946C19A9CF0D
:104C600084EC96E16FCB68EE73E080E090E099CB46
:104C70008AE996E10ECC8F5F8093FE016DCC815066
:104C80000BCE81E08093FD0115CE0E9411120E948F
:104C9000D31237CE8CEB91E16DCEE0E6EF1508F440
:104CA000BAC080EE8F0D082F000F20E430E0281BE3
:104CB0003109E22EEE0C20E440E870E060E090E084
:104CC00080E00E9464150E1570F4E01A10E04E2D7D
:104CD0006FE170E0C8010E94B80E4E2D60E270E0F6
:104CE000C8010E94B80E31E63F1508F0BBCE809196
:104CF0000102811107C08091F401882319F08150CD
:104D00008093F40180910F028F3F89F00E94A117D8
:104D1000882369F01092F4018EE18093F301809171
:104D20000F028F5F8B3008F08BC080930F02809151
:104D30000202909103028A36910518F08BE00E94DE
:104D4000A11780910402882319F08CE00E94A1171A
:104D500080910B0290910C02A0910D02B0910E0275
:104D60008C329140A105B10558F0809102029091DA
:104D700003028035910508F06AC08DE00E94A117FA
:104D800080917201823018F08FE00E94A11780910B
:104D90006501863018F080E10E94A11780913B01E7
:104DA000882319F081E10E94A11780914501882391
:104DB00019F082E10E94A11780914F01882319F018
:104DC00083E10E94A117809165018A3019F484E182
:104DD0000E94A1179091630180916401981708F4D3
:104DE000ADC885E10E94A117809178018F3F09F439
:104DF000A5C80E94A117882309F4A0C81092F40145
:104E00008EE18093F301809178018F5F8A3108F5FC
:104E10008093780193C820E440E870E060E090E07F
:104E200080E00E9464158EE2809397068093960638
:104E30008EE18093980682EB91E10E94341753CF64
:104E40008FEF80930F0281E08093790170CF8EE025
:104E500095CF8FEF8093780181E0809379016EC8C0
:104E6000EF920F931F93CF93DF93E80134E047FD58
:104E700034E1042E000C550B57FF03C051954195AA
:104E80005109E32E022F242FAE010E946F27CE017D
:104E9000DF91CF911F910F91EF900895FB01DC01FD
:104EA00005900D920020E1F70895BB27FB015527DF
:104EB000AA27880F991FAA1FA41710F0A41B839577
:104EC0005051B9F7A05DAA3308F0A95DA1930097EE
:104ED00079F7B111B1931192CB010C94A629A9E0F5
:104EE000B0E0E5E7F7E20C94092B6A01F22EB02E50
:104EF000102FFBE3AF2EA01608F41BE31F5F012F5A
:104F000027E0AE014F5F5F4F0E94CE28BC01898130
:104F1000982F9970913009F43FC09BE2E1FC04C0E6
:104F20009E2D9170E0FC3AC05E2D5071E82FE87024
:104F300083FF46C084E0911101C083E0EF2DE81BA0
:104F40008F1508F0E0E0D6018E2F20E2552351F1B5
:104F5000992329F0D6019C93C60101966C01960114
:104F60002D5F3F4FE2FE24C08EE4D6018C9391E486
:104F700011969C93119712968C93D9018E2F90E2E3
:104F800081111BC0E20FF32FF11D10828EEF9FEFF6
:104F90002996ECE00C94252B9DE2C6CF90E2C4CF7D
:104FA0002D9381508111FCCFCE0ED11CE0E0D0CFEB
:104FB0008EE6D6018C9391E6DBCF9D938150E0CFB6
:104FC000482F447082FF3DC084E0911101C083E00E
:104FD0008F1510F4EF2DE81BD6018E2F20E25523FC
:104FE00009F1992329F0D6019C93C60101966C0121
:104FF00096012D5F3F4FE2FE1BC089E4D6018C93E2
:105000008EE411968C93119786E412968C93D901B5
:105010008E2F90E2882309F4B5CF9D938150FACF6B
:105020002D9381508111FCCFCE0ED11CE0E0D9CF61
:1050300089E6D6018C938EE611968C93119786E6BD
:10504000E4CF9B0177FF02C030E020E0A1E0B0E0B8
:10505000911102C0B0E0A0E0F9013196AE0FBF1F80
:105060008B2C912CBB2009F461C05401EFEFAE1AD8
:10507000BE0AAA0DBB1DFA161B0619F014F04F2D1F
:105080004A1B511188C0E3FC59C07601A42FB0E23D
:10509000A1114FC0C40ED11C992309F45BC040E09C
:1050A000D6011196F60190836D01552309F448C08D
:1050B000012F060F9A81582F507184FF03C091333E
:1050C00009F4015010160CF047C0093008F008E050
:1050D000EEE2FE2E5B01A01AB10885019194819445
:1050E00091082F3F320729F4D601FC92F601319640
:1050F0006F016217730794F1021713077CF5DB0148
:10510000A21BB30BAA24A394B12CAC0EBD1EAA0DF6
:10511000BB1D11968C9121503109D601119628158D
:105120003905F4F0F60180836D01DBCFB12CA12CA1
:10513000A0CFF701B1937F01A150AACF9111B0CFB9
:10514000D601942F50E302C05D9391509111FCCF92
:10515000C40ED11C40E0ACCF01E0BACF80E3DBCF7E
:105160006217730731F4963388F4953311F455239D
:1051700069F0F6018083FD01842F90E2811108C05F
:10518000A40FB11D1C9290E080E002CF81E3F1CF2B
:1051900091938150F3CF911183CF8ACF283008F0BB
:1051A00027E03327DA01990F311D87FD91600096C2
:1051B0006105710539F432602E5F3D9330E32A9525
:1051C000E1F708959F3F30F080387105610509F0DF
:1051D0003C5F3C5F3D93913008F08068911DDF9308
:1051E000CF931F930F93FF92EF92192F987F96956D
:1051F000E92F96959695E90FFF27E857FE4F9927D7
:105200003327EE24FF24A701E701059008940794B3
:1052100028F4360FE71EF81E491F511D660F771F31
:10522000881F991F0694A1F70590079428F4E70EAC
:10523000F81E491F561FC11D770F881F991F661F33
:105240000694A1F70590079428F4F80E491F561FFD
:10525000C71FD11D880F991F661F771F0694A1F7DE
:105260000590079420F4490F561FC71FD81F990FA8
:10527000661F771F881F0694A9F7849110951770F1
:1052800041F0D695C79557954795F794E7941A95A9
:10529000C1F7EEE2F1E068941590159135916591B2
:1052A000959105907FE27395E118F10A430B560B37
:1052B000C90BD009C0F7E10CF11E431F561FC91FCF
:1052C000D01D7EF4703311F48A95E6CFE894015036
:1052D00030F0080F0AF40027021708F4202F239556
:1052E000022F7A3328F079E37D932A95E9F710C0ED
:1052F0007D932A9589F60694979567953795179526
:105300001794E118F10A430B560BC90BD00998F01A
:1053100023957E9173957A3308F070E37C93201384
:10532000B8F77E9170617D9330F0839571E37D9342
:1053300070E32A95E1F71124EF90FF900F911F91F0
:10534000CF91DF91992787FD90950895DC01FC01AD
:10535000672F71917723E1F7329704C07C916D93A9
:1053600070836291AE17BF07C8F30895E89409C02F
:1053700097FB3EF490958095709561957F4F8F4F88
:105380009F4F9923A9F0F92F96E9BB279395F6959E
:10539000879577956795B795F111F8CFFAF4BB0F1C
:1053A00011F460FF1BC06F5F7F4F8F4F9F4F16C080
:1053B000882311F096E911C0772321F09EE8872F0A
:1053C000762F05C0662371F096E8862F70E060E0C6
:1053D0002AF09A95660F771F881FDAF7880F96953F
:1053E000879597F908950E94062A0C94772A0E94BF
:1053F000692A38F00E94702A20F0952311F00C944D
:10540000602A0C94662A11240C94AB2A0E94882AE4
:1054100070F3959FC1F3950F50E0551F629FF00107
:10542000729FBB27F00DB11D639FAA27F00DB11D20
:10543000AA1F649F6627B00DA11D661F829F2227A9
:10544000B00DA11D621F739FB00DA11D621F839F30
:10545000A00D611D221F749F3327A00D611D231F06
:10546000849F600D211D822F762F6A2F11249F5754
:1054700050409AF0F1F088234AF0EE0FFF1FBB1F57
:10548000661F771F881F91505040A9F79E3F510516
:1054900080F00C94602A0C94AB2A5F3FE4F3983EB2
:1054A000D4F3869577956795B795F795E7959F5FC0
:1054B000C1F7FE2B880F911D9695879597F9089552
:1054C00097F99F6780E870E060E008959FEF80ECB7
:1054D000089500240A94161617061806090608955A
:1054E00000240A9412161306140605060895092EC0
:1054F0000394000C11F4882352F0BB0F40F4BF2B2F
:1055000011F460FF04C06F5F7F4F8F4F9F4F08956E
:1055100057FD9058440F551F59F05F3F71F0479564
:10552000880F97FB991F61F09F3F79F08795089549
:10553000121613061406551FF2CF4695F1DF08C068
:10554000161617061806991FF1CF86957105610585
:1055500008940895E894BB2766277727CB0197F92D
:105560000895F999FECF92BD81BDF89A992780B52B
:105570000895262FF999FECF92BD81BDF89A019723
:1055800000B4021639F01FBA20BD0FB6F894FA9A8B
:10559000F99A0FBE0895262FF999FECF1FBA92BD32
:1055A00081BD20BD0FB6F894FA9AF99A0FBE019604
:1055B0000895052E97FB1EF400940E94F02A57FDD3
:1055C00007D00E943A2B07FC03D04EF40C94F02A2B
:1055D00050954095309521953F4F4F4F5F4F08951F
:1055E00090958095709561957F4F8F4F9F4F08954F
:1055F0000E945C2BA59F900DB49F900DA49F800DE1
:10560000911D112408952F923F924F925F926F92B5
:105610007F928F929F92AF92BF92CF92DF92EF9242
:10562000FF920F931F93CF93DF93CDB7DEB7CA1BC3
:10563000DB0B0FB6F894DEBF0FBECDBF09942A88EE
:10564000398848885F846E847D848C849B84AA8496
:10565000B984C884DF80EE80FD800C811B81AA8123
:10566000B981CE0FD11D0FB6F894DEBF0FBECDBFEE
:10567000ED010895A1E21A2EAA1BBB1BFD010DC06E
:10568000AA1FBB1FEE1FFF1FA217B307E407F507F2
:1056900020F0A21BB30BE40BF50B661F771F881FCE
:1056A000991F1A9469F760957095809590959B0164
:1056B000AC01BD01CF010895A29FB001B39FC0010D
:1056C000A39F700D811D1124911DB29F700D811D2E
:1056D0001124911D08950E947F2B0C94772A0E941B
:1056E000702A58F00E94692A40F029F45F3F29F09F
:1056F0000C94602A51110C94AB2A0C94662A0E94D7
:10570000882A68F39923B1F3552391F3951B550B20
:10571000BB27AA2762177307840738F09F5F5F4F84
:10572000220F331F441FAA1FA9F335D00E2E3AF0C3
:10573000E0E832D091505040E695001CCAF72BD0DB
:10574000FE2F29D0660F771F881FBB1F261737072C
:105750004807AB07B0E809F0BB0B802DBF01FF275E
:1057600093585F4F3AF09E3F510578F00C94602AB1
:105770000C94AB2A5F3FE4F3983ED4F3869577957B
:105780006795B795F7959F5FC9F7880F911D969517
:10579000879597F90895E1E0660F771F881FBB1F73
:1057A000621773078407BA0720F0621B730B840B20
:1057B000BA0BEE1F88F7E09508950E94902A88F0B2
:1057C0009F5798F0B92F9927B751B0F0E1F0660FC5
:1057D000771F881F991F1AF0BA95C9F714C0B13006
:1057E00091F00E94AA2AB1E008950C94AA2A672F8A
:1057F000782F8827B85F39F0B93FCCF38695779535
:105800006795B395D9F73EF490958095709561951D
:105810007F4F8F4F9F4F0895FA01EE0FFF1F309675
:1058200021053105A1F16115710561F48038BFE3EF
:105830009B0749F168949038810561F08038BFEF8B
:105840009B0741F099234AF5FF3FE105310521050A
:1058500019F1E8940894E795D901AA2329F4AB2F0C
:10586000BE2FF85FD0F310C0FF5F70F4A695E0F78D
:10587000F73950F019F0FF3A38F49F779F930DD025
:105880000F9007FC9058089546F00C94662A60E04B
:1058900070E080E89FE308954FE79F775F934F9311
:1058A0003F932F930E94072D2F913F914F915F912E
:1058B0000E94F3290C94642C29F416F00C94602AAD
:1058C0000C94AA2A0C94662A0E94902AA8F396386F
:1058D000A0F707F80F92E8942BE33AEA48EB5FE76A
:1058E0000E94092A0F920F920F924DB75EB70F9246
:1058F0000E944F2DECEAF0E00E94962C4F915F91B0
:10590000EF91FF91E595EE1FFF1F49F0FE57E0680C
:105910004427EE0F441FFA95E1F74195550B0E947D
:10592000C92C0F9007FE0C94BD2C0895DF93CF93E4
:105930001F930F93FF92EF92DF927B018C0168948B
:1059400006C0DA2EEF010E94062AFE01E894A59116
:105950002591359145915591A6F3EF010E949B2D1C
:10596000FE019701A801DA9469F7DF90EF90FF90AC
:105970000F911F91CF91DF9108959B01AC0160E0E1
:1059800070E080E89FE30C946B2B0C94602A0C94DD
:10599000F02D0E94902AD8F39923C9F3940F511D3A
:1059A000A3F39150504094F059F0882332F0660FE1
:1059B000771F881F91505040C1F79E3F51052CF72B
:1059C000880F911D9695879597F908955F3FACF0E4
:1059D000983E9CF0BB27869577956795B79508F418
:1059E000B1609395C1F7BB0F58F711F460FFE8CF92
:1059F0006F5F7F4F8F4F9F4FE3CF0C94AB2A16F012
:105A00000C94F02D0C94662A68940C94602A0E94E1
:105A1000902AA8F39923C1F3AEF3DF93CF931F939A
:105A20000F93FF92C92FDD2788232AF02197660F55
:105A3000771F881FDAF720E030E040E85FEB9FE354
:105A4000883920F0803E38F021968F770E94842D8F
:105A5000E4EDF0E004C00E94842DE1E0F1E00E945A
:105A6000962C8B01BE01EC01FB2E6F5771097595C9
:105A7000771F880B990B0E94B82928E132E741E390
:105A80005FE30E94062AAF2D9801AE01FF900F91AF
:105A90001F91CF91DF910E949B2D0C94772AFA01E0
:105AA000DC01AA0FBB1F9B01AC01BF5728F42227C2
:105AB00033274427507820C0B75190F4AB2F0024EF
:105AC000469537952795011CA395D2F3002071F0D8
:105AD000220F331F441FB395DAF30ED00C94832D9D
