:100000000C942F130C9457130C9457130C945713F0
:100010000C9457130C9457130C9457130C945713B8
:100020000C9457130C9457130C94AC200C941B2174
:100030000C9457130C9457130C9457130C94571398
:100040000C9457130C94F7230C9457130C945713D8
:100050000C9457130C9457130C9457130C944D2372
:100060000C9457130C9457130C9457130C94571368
:100070000C9457130C9457130C9457130C94571358
:100080000C9497230C9457130C9457130C945713F8
:100090000C9457130C9457130C9457130C94571338
:1000A0000C9457130C9457130C9457130763423650
:1000B000B79BD8A71A39685618AEBAAB558C1D3CF9
:1000C000B7CC5763BD6DEDFD753EF6177231BF00BD
:1000D0000000803F08000000BE922449123EABAAF7
:1000E000AA2ABECDCCCC4C3E00000080BEABAAAA52
:1000F000AA3E00000000BF000000803F000000009A
:1001000000084178D3BB4387D1133D190E3CC3BDD2
:100110004282AD2B3E68EC8276BED98FE1A93E4C7F
:1001200080EFFFBE01C4FF7F3F00000000000040E1
:100130007A10F35A00A0724E18090010A5D4E800F6
:1001400000E87648170000E40B54020000CA9A3B0E
:10015000000000E1F5050000809698000000404294
:100160000F000000A0860100000010270000000022
:10017000E803000000006400000000000A00000026
:1001800000000100000000002C76D888DC674F08D2
:1001900023DFC1DFAE59E1B1B796E5E3E453C63AD8
:1001A000E651997696E8E6C28426EB898C9B62ED4F
:1001B000407C6FFCEFBC9C9F40F2BAA56FA5F49009
:1001C000055A2AF75C936B6CF9676DC11BFCE0E480
:1001D0000D47FEF520E6B500D0ED902E03009435D6
:1001E00077050080841E080000204E0A000000C829
:1001F0000C333333330F986E12831141EF8D21147A
:10020000893BE65516CFFEE6DB18D1844B381BF749
:100210007C1D901DA4BBE424203284725E228100E8
:10022000C9F124ECA1E53D2753656C662065766F26
:100230006C76696E67204149005072656469637429
:1002400069766520414900414920536D61727420EF
:10025000726573706F6E73657300414920436F6EF2
:10026000746578742061776172656E65737300419F
:100270004920636F72652075706772616465004123
:1002800073796E632070726F63657373696E670054
:100290005265717565737420726F7574696E67004D
:1002A0004C6F61642062616C616E63696E670050BF
:1002B000757368206E6F74696669636174696F6EC7
:1002C000730055736572206D6573736167696E673E
:1002D0000003081F051F1F151B1F11111F110E1FE3
:1002E00015111F05011F111D1F041F001F001010F5
:1002F0001F1F041B1F10101F061F1F011F1F111F90
:100300001F05071F311F1F051B17151D011F011F8B
:10031000101F0F100F1F0C1F1B041B071C071915A4
:10032000130C121E1F120C1E12120C121F0C1A1488
:10033000041F052E2A1E1F021C001D00201D001F69
:10034000041A011F001E041E1E021E1E121E3E1253
:100350000C0C123E1E020614120A020F121E101E70
:100360000E100E1E081E1A041A2E281E1A12161F10
:10037000111F001F001D151711151F07041F17154A
:100380001D1F151D01011F1F151F17151F00170029
:10039000001000040E04110A04040A11001C074F87
:1003A0006B0000000000003E5B4F5B3E3E6B4F6BFE
:1003B0003E1C3E7C3E1C183C7E3C181C577D571C46
:1003C0001C5E7F5E1C00183C1800FFE7C3E7FF00BF
:1003D00018241800FFE7DBE7FF30483A060E26290D
:1003E000792926407F050507407F05253F5A3CE7D0
:1003F0003C5A7F3E1C1C08081C1C3E7F14227F2296
:10040000145F5F005F5F06097F017F006689956A60
:10041000606060606094A2FFA29408047E040810EB
:10042000207E201008082A1C08081C2A08081E1014
:100430001010100C1E0C1E0C30383E3830060E3ECC
:100440000E06000000000000005F0000000700072B
:1004500000147F147F14242A7F2A12231308646255
:1004600036495620500008070300001C22410000B6
:1004700041221C002A1C7F1C2A08083E0808008014
:1004800070300008080808080000606000201008AC
:1004900004023E5149453E00427F400072494949AD
:1004A000462141494D331814127F102745454539DF
:1004B0003C4A4949314121110907364949493646E3
:1004C0004949291E000014000000403400000008C3
:1004D0001422411414141414004122140802015966
:1004E00009063E415D594E7C1211127C7F494949F3
:1004F000363E414141227F4141413E7F4949494188
:100500007F090909013E414151737F0808087F00B6
:10051000417F41002040413F017F081422417F403C
:100520004040407F021C027F7F0408107F3E414113
:10053000413E7F090909063E4151215E7F09192983
:1005400046264949493203017F01033F4040403F6D
:100550001F2040201F3F4038403F631408146303AE
:10056000047804036159494D43007F41414102042D
:10057000081020004141417F040201020440404034
:100580004040000307080020545478407F2844442A
:10059000383844444428384444287F385454541844
:1005A00000087E090218A4A49C787F08040478003F
:1005B000447D40002040403D007F10284400004121
:1005C0007F40007C047804787C0804047838444434
:1005D0004438FC1824241818242418FC7C0804042B
:1005E00008485454542404043F44243C4040207C94
:1005F0001C2040201C3C4030403C44281028444CE7
:100600009090907C4464544C4400083641000000B3
:10061000770000004136080002010204023C262354
:10062000263C1EA1A161123A4040207A385454550C
:1006300059215555794121545478412155547840D8
:1006400020545579400C1E5272123955555559395E
:100650005454545939555454580000457C410002B3
:10066000457D420001457C40F0292429F0F02825F1
:1006700028F07C545545002054547C547C0A097F52
:100680004932494949323248484832324A4848306A
:100690003A4141217A3A42402078009DA0A07D391C
:1006A000444444393D4040403D3C24FF2424487E9E
:1006B0004943662B2FFC2F2BFF0929F620C0887E8B
:1006C000090320545479410000447D413048484A90
:1006D00032384040227A007A0A0A727D0D19317D43
:1006E0002629292F28262929292630484D40203817
:1006F0000808080808080808382F10C8ACBA2F10D6
:100700002834FA00007B000008142A142222142A3C
:1007100014089500220095AA005500AAAA55AA55CA
:10072000AA000000FF00101010FF00141414FF00B6
:100730001010FF00FF1010F010F0141414FC00143F
:1007400014F700FF0000FF00FF1414F404FC14145D
:1007500017101F10101F101F1414141F001010105A
:10076000F0000000001F101010101F10101010F0EB
:1007700010000000FF101010101010101010FF10CB
:10078000000000FF140000FF00FF00001F10170012
:1007900000FC04F414141710171414F404F40000EB
:1007A000FF00F714141414141414F700F71414149D
:1007B000171410101F101F141414F4141010F0103C
:1007C000F000001F101F0000001F14000000FC14A8
:1007D0000000F010F01010FF10FF141414FF14109C
:1007E00010101F00000000F010FFFFFFFFFFF0F0EF
:1007F000F0F0F0FFFFFF0000000000FFFF0F0F0F01
:100800000F0F38444438447C2A2A3E147E020206E4
:1008100006027E027E0263554941633844443C042B
:10082000407E201E2006027E020299A5E7A5991CA3
:100830002A492A1C4C7201724C304A4D4D303048C6
:10084000784830BC625A463D3E494949007E010124
:10085000017E2A2A2A2A2A44445F444440514A44B9
:100860004040444A51400000FF0103E080FF000087
:1008700008086B6B083612362436060F090F06007F
:100880000018180000001010003040FF0101001F88
:1008900001011E00191D1712003C3C3C3C000000E9
:1008A000000000000000240027002A002D00300076
:1008B00000000000250028002B002E003100040855
:1008C0000201104080401020408040800802040156
:1008D00080402010020110801020404020040404B9
:1008E00004040304050202020204030202020206D7
:1008F00006060606060404020202040406011501A7
:10090000260137014A015D01720188019F01B8018A
:10091000D201EE010B022A024B026E029302BA02CE
:10092000E40210033F037003A403DC03170455041F
:100930009704DD0427057505C80520067D06E00639
:100940004907B8072D08A9082D09B9094D0AEA0A6F
:10095000900B400CFA0CC00D910E6F0F5A105311F2
:100960005B1272139A14D41520178018F519801B86
:10097000231DDE1EB420A622B524E4263429A72B8D
:10098000402E0031EA330037453ABC3D68414C45C2
:100990006B49C84D68524F57805C006210111213AA
:1009A000151617181A1C1D1F21232527292C2E3137
:1009B00034373A3E4145494E52575C62686E757B0A
:1009C000838B939CA5AFB9C4D0DCE9F7F0F89C8E7B
:1009D0008783878E9CF8F00000FEFF030303030368
:1009E000070EFCF80000FEFF0303030303070EFCE1
:1009F000F80000FFFF00000000000000FFFF000003
:100A0000FEFF8383838383C7EE7C380000F8FC0EEF
:100A100007030303070EFCF800003F7FE0C080805F
:100A2000C0E07F3FFFFF01010101010101FFFF0065
:100A300000FFFF0C0C0C0C1C3E77E3C100007FFF95
:100A4000C0C0C0C0C0E0703F1F00001F3F70E0C0CA
:100A5000C0C0E0703F1F00007FFFC1C1C1C1C1E342
:100A6000773E1C00001F3F70E0C0C0C0E0703F1F19
:100A7000000000000001FFFF01000000D5F08D1410
:100A8000A1C881CFD9F1AF200067616D65000080FA
:100A9000600806C1318969110186680201040404F5
:100AA0000405050404060000F0FCFEFE9F0F0F0F76
:100AB0009E9E9C00FEFFFFFFFEFC00000000000069
:100AC000F0FCFEFEFF3F3FFFFEFEFCF000FEFFFFDE
:100AD000FFFE00FEFFFFFFFE00FEFFFFFFFF3F3FA8
:100AE000FEFEFCF00000070F070000F8FEFFFFFF0E
:100AF000FEF800E0F8FCFE7F3F7FFEFCF8E000031C
:100B000007070F0F0F0F07070300070F0F0F0F0F38
:100B10000F0F0F0F06C0C0C3C7C70FCFCF4F4787F8
:100B20000380C041478F0FCFCF4F4F4F07C1C04702
:100B30004F4F0F0FCFCFC7070380C040404000008A
:100B40000001070F0F0F070100070F0F0F06060622
:100B50000F0F0F0700000000000000000000000061
:100B60000000000000E0C080C0E000E0E00700E01E
:100B70000047E7A2A625006767E262670007070152
:100B8000010000E7E7A1A12000E0E407040000C3A2
:100B9000E724E4C400E080C080E000000000000022
:100BA0000000000000000000000000000000000045
:100BB000000000000000000000000003010301032A
:100BC000000103020203000202030301000000030C
:100BD000000000000000000000030300000000030C
:100BE00003020202000103020301000301000103EA
:100BF00000000000000000000000000000000000F5
:100C00003330000000000000000080000000000001
:100C100000000000000000000000000000001C3E7A
:100C20003E7F7F7F3E3E1C00000000000000000071
:100C3000000000000000000000000080E0800000D4
:100C40000040E0F0E0E06000C0F0F0C01EEFEFFE1A
:100C5000F80080B8838300000000000000387CFCAE
:100C6000F8FC7C3800000000000000000101030FC8
:100C700003010100E0F0F1EFEFEFF3FCFDFDFCFEFE
:100C8000FEFDFDFFFFFFFFFFFFFFFEFEFCF000800B
:100C9000808080810000000000000000008080C093
:100CA00080BCFEFFFFFFFCFFFFFFFFFFFFE3E1E370
:100CB000FFFFBF7F7F7FBFFFFFE3E1E3FFFFFFFF9A
:100CC000FFFFFFFFFFFFFF3F9E80C0C080001E3F71
:100CD0007F7F7F7F7F7F7F7FFFFFFFFFFFFF7F7F24
:100CE0001F7FFFFFFFFFFFFFFFFFFFFFFFFF7F7F74
:100CF000FFFFFFFFFFFF7F3F67FFFFFFFFFF7F7FDC
:100D00001F000000000000000000000000010101C1
:100D100000000000000001010103030303030301BD
:100D200001000000000000000000000000000000C2
:100D30000000000000000000000000008000000033
:100D400000000000000000000000000000000000A3
:100D50001C3E3E7F7F7F3E3E1C00000000000000E6
:100D60000000000000000000000000000080E080A3
:100D700000000040E0F0E0E06000C0F0F0C01EEFD6
:100D8000EFFEF80080B88383000000000000003808
:100D90007CFCF8FC7C380000000000000000010131
:100DA000030F03010100E0F0F1EFEFEFF3FCFDFDB5
:100DB000FCFEFEFDFDFFFFFFFFFFFFFFFEFEFCF060
:100DC0000080808080810000000000000000008022
:100DD00080C080BCFEFFFFFFFCFFFFFFFFFFFFE3C3
:100DE000E1E3FFFFBF7F7F7FBFFFF7FBFBFBF7FF69
:100DF000FFFFFFFFFFFFFFFFFF3F9E80C0C080009F
:100E00001E3F7F7F7F7F7F7F7F7FFFFFFFFFFFFF93
:100E10007F7F1F7FFFFFFFFFFFFFFFFFFFFFFFFF42
:100E20007F7FFFFFFFFFFFFF7F3F67FFFFFFFFFFAA
:100E30007F7F1F0000000000000000000000000194
:100E4000010100000000000001010103030303038E
:100E5000030101000000000000000000000000008D
:100E60000000000000004F4646004F4E004D7573D5
:100E70006963004F6666696365003C00546F67678D
:100E80006C65005365727665727300903C00168045
:100E900000999035001680009B9039001580009BCA
:100EA00090350016800099903B001680009B90358D
:100EB000001580009B903C0016800099903500162C
:100EC00080009B9039001580009B903500168000B3
:100ED00099903B001680009B9035001580009B90F8
:100EE0003C00168000999035001680009B903900D8
:100EF0001580009B90350016800099903B0016806D
:100F0000009B9035001580009B903C001680009956
:100F10009035001680009B9039001580009B90351D
:100F20000016800099903B001680009B90350015BC
:100F300080009B903C002C8000859032002E800029
:100F4000859039002C8000859032002C800085909F
:100F50003B002E8000859032002C800085903C0064
:100F60002C8000859032002E8000859039002C80E6
:100F700000859032002C800085903B002E800085FB
:100F80009032002C800085903C004280006F9032AF
:100F900000428000709039004280006F9032004221
:100FA00080006F903B0042800070903200428000D1
:100FB0006F903C004280006F903200428000709041
:100FC00039004280006F9032004280006F903B00F9
:100FD000428000709032004280006F903C00588048
:100FE0000057902D005880005890390057800058C5
:100FF000902D0058800057903B0058800058902D4D
:101000000057800058903C0058800057902D0058A1
:1010100080005890390057800058902D005880006B
:1010200057903B0058800058902D005780005890F2
:101030003C006F800042902D00708000429039008B
:101040006F800042902D006F800042903B007080C6
:101050000042902D006F800042903C006F80004263
:10106000902D00708000429039006F800042902DDA
:10107000006F800042903B0070800042902D006F16
:10108000800042903C008580002C902D00858000DF
:101090002E9039008580002C902D008580002C90AA
:1010A0003B008580002E902D008580002C903C0018
:1010B0008580002C902D008580002E903900858041
:1010C000002C902D008580002C903B008580002E08
:1010D000902D008580002C903C009B800015902D69
:1010E000009B800016903E0099800016902D009B7A
:1010F000800015903C009B800016902D0099800088
:1011000016903B00B180902D00B280903900B180E4
:10111000902D00B180903700B280902D00B180F00A
:1011200053657474696E6773003C004275790053AF
:10113000657276657273002B00206D6178002078EF
:1011400000C202AF02A00290027F026F025A024761
:101150000239022802427579005570677261646530
:1011600000304848360F0F064F66666963650030E9
:1011700078783609090643617061636974790042C1
:1011800075790055706772616465005A810081004D
:1011900081008100810081008181008100810081C6
:1011A0000081008100815A0F0F0F0E4C564C200019
:1011B0004275790028300000FEFFFF070707070788
:1011C00007070707070707070707070707070707AF
:1011D000070707070707070707FFFFFE00000000D4
:1011E000FFFFFF0000000000000000000000000002
:1011F00000000000000000000000000000000000EF
:1012000000FFFFFF00000000FFFFFF0000000000E4
:1012100000000000000000000000000000000000CE
:10122000000000000000000000FFFFFF00000000C1
:10123000FFFFFF00000000000000000000000000B1
:10124000000000000000000000000000000000009E
:1012500000FFFFFF00000000FFFFFF000000000094
:10126000000000000000000000000000000000007E
:10127000000000000000000000FFFFFF0000101849
:101280001F1F1F1707070707070707070707070796
:1012900007070707070707070707070707070707DE
:1012A000171F1F1F18100000660101000001010038
:1012B0000001010000010100000101000001010026
:1012C00000010100000101000001016600000000B2
:1012D00066000000000000000000000000000000A8
:1012E00000000000000000000000000000000000FE
:1012F000000000660000000066000000000000F82A
:10130000F82828F8D00000F0F00000F0F00000709D
:10131000F08080F0F0000000000000660000000097
:101320006600000000000001010101010000000052
:10133000010101010100000002020203010000009E
:1013400000000066000000006600000000000000D1
:10135000000000000000000000000000000000008D
:101360000000000000000000000000660000000017
:101370000608080000080800000808000008080027
:10138000000808000008080000080800000808001D
:101390000008080600004F5645524C4F41440015C6
:1013A0000A150A150A150A150A150A150A150A1545
:1013B0000A150A150A150A150A150A150A150A1535
:1013C0000A150A150A150A150A150A150A150A63D7
:1013D0001308646321000F10100F001C07001F0288
:1013E00004021F322A7F2A26903C000E911D002CF9
:1013F000810077809035000E9111002C810078805B
:101400009039000E911D002C810077809035000EE0
:101410009121002C81007780903B000E9124002CBC
:10142000810078809035000E9129002C8100778012
:10143000903C000E911D002C810077809035000EAD
:101440009111002C810078809039000E911D002CA4
:10145000810077809035000E9121002C81007780EB
:10146000903B000E9124002C810078809035000E76
:101470009129002C81007780903C000E911D002C5A
:10148000810077809035000E9111002C81007880CA
:101490009039000E911D002C810077809035000E50
:1014A0009121002C81007780903B000E9124002C2C
:1014B000810078809035000E9129002C8100778082
:1014C000903C000E911D002C810077809035000E1D
:1014D0009111002C810078809039000E911D002C14
:1014E000810077809035000E9121002C810077805B
:1014F000903B000E9124002C810078809035000EE6
:101500009129002C81007780903C000E911A002CCC
:10151000810077809032000E910E002C810078803F
:101520009039000E911A002C810077809032000EC5
:10153000911D002C81007780903B000E9121002CA2
:10154000810078809032000E9124002C81007780F9
:10155000903C000E911A002C810077809032000E92
:10156000910E002C810078809039000E911A002C89
:10157000810077809032000E911D002C81007780D1
:10158000903B000E9121002C810078809032000E5B
:101590009124002C81007780903C000E911A002C41
:1015A000810077809032000E910E002C81007880AF
:1015B0009039000E911A002C810077809032000E35
:1015C000911D002C81007780903B000E9121002C12
:1015D000810078809032000E9124002C8100778069
:1015E000903C000E911A002C810077809032000E02
:1015F000910E002C810078809039000E911A002CF9
:10160000810077809032000E911D002C8100778040
:10161000903B000E9121002C810078809032000ECA
:101620009124002C81007780903C000E9121002CA9
:1016300081007780902D000E9115002C810078801C
:101640009039000E9121002C81007780902D000EA2
:101650009124002C81007780903B000E9128002C73
:1016600081007880902D000E912D002C81007780D4
:10167000903C000E9121002C81007780902D000E6F
:101680009115002C810078809039000E9121002C5A
:1016900081007780902D000E9124002C81007780AE
:1016A000903B000E9128002C81007880902D000E38
:1016B000912D002C81007780903C000E9121002C10
:1016C00081007780902D000E9115002C810078808C
:1016D0009039000E9121002C81007780902D000E12
:1016E0009124002C81007780903B000E9128002CE3
:1016F00081007880902D000E912D002C8100778044
:10170000903C000E9121002C81007780902D000EDE
:101710009115002C810078809039000E9121002CC9
:1017200081007780902D000E9124002C810077801D
:10173000903B000E9128002C81007880902D000EA7
:10174000912D002C81007780903C000E9121002C7F
:1017500081007780902D000E9115002C81007880FB
:101760009039000E9121002C81007780902D000E81
:101770009124002C81007780903B000E9128002C52
:1017800081007880902D000E912D002C81007780B3
:10179000903C000E9121002C81007780902D000E4E
:1017A0009115002C810078809039000E9121002C39
:1017B00081007780902D000E9124002C810077808D
:1017C000903B000E9128002C81007880902D000E17
:1017D000912D002C81007780903C000E9121002CEF
:1017E00081007780902D000E9115002C810078806B
:1017F000903E000E9115002C81007780902D000EF8
:101800009121002C81007780903C000E9115002CD6
:1018100081007880902D000E9115002C810077803A
:10182000903B000E9121002C81007780902D000EBE
:101830009115002C810078809039000E9121002CA8
:1018400081007780902D000E9115002C810077800B
:101850009037000E912D002C81007880902D000E85
:101860009121002C81007780903C000E911D002C6E
:10187000810077809035000E9111002C81007880D6
:101880009039000E911D002C810077809035000E5C
:101890009121002C81007780903B000E9124002C38
:1018A000810078809035000E9129002C810077808E
:1018B000903C000E911D002C810077809035000E29
:1018C0009111002C810078809039000E911D002C20
:1018D000810077809035000E9121002C8100778067
:1018E000903B000E9124002C810078809035000EF2
:1018F0009129002C81007780903C000E911D002CD6
:10190000810077809035000E9111002C8100788045
:101910009039000E911D002C810077809035000ECB
:101920009121002C81007780903B000E9124002CA7
:10193000810078809035000E9129002C81007780FD
:10194000903C000E911D002C810077809035000E98
:101950009111002C810078809039000E911D002C8F
:10196000810077809035000E9121002C81007780D6
:10197000903B000E9124002C810078809035000E61
:101980009129002C81007780903C000E911A002C48
:10199000810077809032000E910E002C81007880BB
:1019A0009039000E911A002C810077809032000E41
:1019B000911D002C81007780903B000E9121002C1E
:1019C000810078809032000E9124002C8100778075
:1019D000903C000E911A002C810077809032000E0E
:1019E000910E002C810078809039000E911A002C05
:1019F000810077809032000E911D002C810077804D
:101A0000903B000E9121002C810078809032000ED6
:101A10009124002C81007780903C000E911A002CBC
:101A2000810077809032000E910E002C810078802A
:101A30009039000E911A002C810077809032000EB0
:101A4000911D002C81007780903B000E9121002C8D
:101A5000810078809032000E9124002C81007780E4
:101A6000903C000E911A002C810077809032000E7D
:101A7000910E002C810078809039000E911A002C74
:101A8000810077809032000E911D002C81007780BC
:101A9000903B000E9121002C810078809032000E46
:101AA0009124002C81007780903C000E9121002C25
:101AB00081007780902D000E9115002C8100788098
:101AC0009039000E9121002C81007780902D000E1E
:101AD0009124002C81007780903B000E9128002CEF
:101AE00081007880902D000E912D002C8100778050
:101AF000903C000E9121002C81007780902D000EEB
:101B00009115002C810078809039000E9121002CD5
:101B100081007780902D000E9124002C8100778029
:101B2000903B000E9128002C81007880902D000EB3
:101B3000912D002C81007780903C000E9121002C8B
:101B400081007780902D000E9115002C8100788007
:101B50009039000E9121002C81007780902D000E8D
:101B60009124002C81007780903B000E9128002C5E
:101B700081007880902D000E912D002C81007780BF
:101B8000903C000E9121002C81007780902D000E5A
:101B90009115002C810078809039000E9121002C45
:101BA00081007780902D000E9124002C8100778099
:101BB000903B000E9128002C81007880902D000E23
:101BC000912D002C81007780903C000E911F002CFD
:101BD00081007780902B000E9113002C810078807B
:101BE0009039000E911F002C81007780902B000E01
:101BF0009123002C81007780903B000E9126002CD1
:101C000081007880902B000E912B002C8100778032
:101C1000903C000E911F002C81007780902B000ECD
:101C20009113002C810078809039000E911F002CB8
:101C300081007780902B000E9123002C810077800B
:101C4000903B000E9126002C81007880902B000E96
:101C5000912B002C81007780903C000E911F002C6E
:101C600081007780902B000E9113002C81007880EA
:101C7000903E000E911F002C81007780902B000E6B
:101C80009123002C81007780903C000E9126002C3F
:101C900081007880902B000E912B002C81007780A2
:101CA000903B000E911F002C81007780902B000E3E
:101CB0009113002C810078809039000E911F002C28
:101CC00081007780902B000E9123002C810077807B
:101CD0009037000E9126002C81007880902B000E0A
:101CE000912B002C81007780903C000E911D002CE0
:101CF000810077809035000E9111002C8100788052
:101D00009039000E911D002C810077809035000ED7
:101D10009121002C81007780903B000E9124002CB3
:101D2000810078809035000E9129002C8100778009
:101D3000903C000E911D002C810077809035000EA4
:101D40009111002C810078809039000E911D002C9B
:101D5000810077809035000E9121002C81007780E2
:101D6000903B000E9124002C810078809035000E6D
:101D70009129002C81007780903C000E911D002C51
:101D8000810077809035000E9111002C81007880C1
:101D90009039000E911D002C810077809035000E47
:101DA0009121002C81007780903B000E9124002C23
:101DB000810078809035000E9129002C8100778079
:101DC000903C000E911D002C810077809035000E14
:101DD0009111002C810078809039000E911D002C0B
:101DE000810077809035000E9121002C8100778052
:101DF000903B000E9124002C810078809035000EDD
:101E00009129002C81007780903C000E911A002CC3
:101E1000810077809032000E910E002C8100788036
:101E20009039000E911A002C810077809032000EBC
:101E3000911D002C81007780903B000E9121002C99
:101E4000810078809032000E9124002C81007780F0
:101E5000903C000E911A002C810077809032000E89
:101E6000910E002C810078809039000E911A002C80
:101E7000810077809032000E911D002C81007780C8
:101E8000903B000E9121002C810078809032000E52
:101E90009124002C81007780903C000E911A002C38
:101EA000810077809032000E910E002C81007880A6
:101EB0009039000E911A002C810077809032000E2C
:101EC000911D002C81007780903B000E9121002C09
:101ED000810078809032000E9124002C8100778060
:101EE000903C000E911A002C810077809032000EF9
:101EF000910E002C810078809039000E911A002CF0
:101F0000810077809032000E911D002C8100778037
:101F1000903B000E9121002C810078809032000EC1
:101F20009124002C81007780903C000E9121002CA0
:101F300081007780902D000E9115002C8100788013
:101F40009039000E9121002C81007780902D000E99
:101F50009124002C81007780903B000E9128002C6A
:101F600081007880902D000E912D002C81007780CB
:101F7000903C000E9121002C81007780902D000E66
:101F80009115002C810078809039000E9121002C51
:101F900081007780902D000E9124002C81007780A5
:101FA000903B000E9128002C81007880902D000E2F
:101FB000912D002C81007780903C000E9121002C07
:101FC00081007780902D000E9115002C8100788083
:101FD0009039000E9121002C81007780902D000E09
:101FE0009124002C81007780903B000E9128002CDA
:101FF00081007880902D000E912D002C810077803B
:10200000903C000E9121002C81007780902D000ED5
:102010009115002C810078809039000E9121002CC0
:1020200081007780902D000E9124002C8100778014
:10203000903B000E9128002C81007880902D000E9E
:10204000912D002C81007780903C000E9121002C76
:1020500081007780902D000E9115002C81007880F2
:102060009039000E9121002C81007780902D000E78
:102070009124002C81007780903B000E9128002C49
:1020800081007880902D000E912D002C81007780AA
:10209000903C000E9121002C81007780902D000E45
:1020A0009115002C810078809039000E9121002C30
:1020B00081007780902D000E9124002C8100778084
:1020C000903B000E9128002C81007880902D000E0E
:1020D000912D002C81007780903C000E9121002CE6
:1020E00081007780902D000E9115002C8100788062
:1020F000903E000E9115002C81007780902D000EEF
:102100009121002C81007780903C000E9115002CCD
:1021100081007880902D000E9115002C8100778031
:10212000903B000E9121002C81007780902D000EB5
:102130009115002C810078809039000E9121002C9F
:1021400081007780902D000E9115002C8100778002
:102150009037000E912D002C81007880902D000E7C
:102160009121002C81007780903C000E911D002C65
:10217000810077809035000E9111002C81007880CD
:102180009039000E911D002C810077809035000E53
:102190009121002C81007780903B000E9124002C2F
:1021A000810078809035000E9129002C8100778085
:1021B000903C000E911D002C810077809035000E20
:1021C0009111002C810078809039000E911D002C17
:1021D000810077809035000E9121002C810077805E
:1021E000903B000E9124002C810078809035000EE9
:1021F0009129002C81007780903C000E911D002CCD
:10220000810077809035000E9111002C810078803C
:102210009039000E911D002C810077809035000EC2
:102220009121002C81007780903B000E9124002C9E
:10223000810078809035000E9129002C81007780F4
:10224000903C000E911D002C810077809035000E8F
:102250009111002C810078809039000E911D002C86
:10226000810077809035000E9121002C81007780CD
:10227000903B000E9124002C810078809035000E58
:102280009129002C81007780903C000E911A002C3F
:10229000810077809032000E910E002C81007880B2
:1022A0009039000E911A002C810077809032000E38
:1022B000911D002C81007780903B000E9121002C15
:1022C000810078809032000E9124002C810077806C
:1022D000903C000E911A002C810077809032000E05
:1022E000910E002C810078809039000E911A002CFC
:1022F000810077809032000E911D002C8100778044
:10230000903B000E9121002C810078809032000ECD
:102310009124002C81007780903C000E911A002CB3
:10232000810077809032000E910E002C8100788021
:102330009039000E911A002C810077809032000EA7
:10234000911D002C81007780903B000E9121002C84
:10235000810078809032000E9124002C81007780DB
:10236000903C000E911A002C810077809032000E74
:10237000910E002C810078809039000E911A002C6B
:10238000810077809032000E911D002C81007780B3
:10239000903B000E9121002C810078809032000E3D
:1023A0009124002C81007780903C000E9121002C1C
:1023B00081007780902D000E9115002C810078808F
:1023C0009039000E9121002C81007780902D000E15
:1023D0009124002C81007780903B000E9128002CE6
:1023E00081007880902D000E912D002C8100778047
:1023F000903C000E9121002C81007780902D000EE2
:102400009115002C810078809039000E9121002CCC
:1024100081007780902D000E9124002C8100778020
:10242000903B000E9128002C81007880902D000EAA
:10243000912D002C81007780903C000E9121002C82
:1024400081007780902D000E9115002C81007880FE
:102450009039000E9121002C81007780902D000E84
:102460009124002C81007780903B000E9128002C55
:1024700081007880902D000E912D002C81007780B6
:10248000903C000E9121002C81007780902D000E51
:102490009115002C810078809039000E9121002C3C
:1024A00081007780902D000E9124002C8100778090
:1024B000903B000E9128002C81007880902D000E1A
:1024C000912D002C81007780903C000E9121002CF2
:1024D00081007780902D000E9115002C810078806E
:1024E0009039000E9121002C81007780902D000EF4
:1024F0009124002C81007780903B000E9128002CC5
:1025000081007880902D000E912D002C8100778025
:10251000903C000E9121002C81007780902D000EC0
:102520009115002C810078809039000E9121002CAB
:1025300081007780902D000E9124002C81007780FF
:10254000903B000E9128002C81007880902D000E89
:10255000912D002C81007780903C000E9121002C61
:1025600081007780902D000E9115002C81007880DD
:10257000903E000E9121002C81007780902D000E5E
:102580009124002C81007780903C000E9128002C33
:1025900081007880902D000E912D002C8100778095
:1025A000903B000E9121002C81007780902D000E31
:1025B0009115002C810078809039000E9121002C1B
:1025C00081007780902D000E9124002C810077806F
:1025D0009037000E9128002C81007880902D000EFD
:1025E000912D002C81007780F0080B000202020080
:1025F000000904000001020200000524001001058A
:1026000024010101042402060524060001070581B6
:102610000310004009040100020A0000000705023F
:102620000240000007058302400000040309041271
:10263000010002EF02014041233680000101020344
:102640000141726475696E6F204C4C4300417264A5
:1026500075626F7900090F060600AC24AB2D1124BA
:102660001FBECFEFDAE0DEBFCDBF13E0A0E0B1E0E8
:10267000E6E1FDE602C005900D92AA38B107D9F750
:1026800028E0AAE8B3E001C01D92A83BB207E1F739
:1026900013E1CEE2D3E104C02197FE010E9486340B
:1026A000CD32D107C9F70E9439250C947E360C949F
:1026B00000008091A60308956F927F928F929F925F
:1026C000AF92BF92CF92DF92EF92FF920F931F9340
:1026D000CF93DF93DC01FA01149131965491319636
:1026E000C12FD0E0222309F1CC24C394D12C852F13
:1026F000877011F4D12CC12CE52EE694E694E69473
:10270000EC0CFD2CF11CEC9EC001ED9E900DFC9E8E
:10271000900D1124033011F4880F991F289F700128
:10272000299FF00C1124EE0DFF1D7D01EC0EFD1E06
:102730001E141F040CF06BC0A038B1050CF067C06C
:10274000CB01850F911D181619060CF060C060347E
:1027500071050CF05CC0309709F459C0362F377002
:10276000CB0177FD079623E0959587952A95E1F7AC
:10277000282F77FF04C0332311F02FEF280F66278F
:1027800077276A1B7B0BB7FD02C070E060E090E822
:102790009A1B40E8E416F1040CF4912F961BE22EEC
:1027A000022E000CFF08DE2CD0942F3F0CF0D12C11
:1027B00041E0852F877009F440E0B52EB694B694B9
:1027C000B6944B0DE40EF11C89E0E816F10414F008
:1027D00048E0421BB42EBD182D0D40E824037001C3
:1027E0001124AE0DBF1DA60FB71F1D9D600D711DDD
:1027F0001124AF01460F571FC32E032E000CDD0816
:10280000033009F4C7C090F4023009F474C0DF91BA
:10281000CF911F910F91FF90EF90DF90CF90BF90DD
:10282000AF909F908F907F906F9008950A3FA1F195
:10283000B20E0B3F61F72B1551F3BD0166507C4F73
:1028400010E000E0091708F09FC0FA01E00FF11F47
:10285000E491F0E04F010C2C02C0880C991C0A9402
:10286000E2F727FD06C0FB018081F82CF0948F2150
:102870008083332361F0273054F47B01F0E8EF0EBE
:10288000F11CA92CA094F70180818A2180830F5F1D
:102890001F4F6F5F7F4FD6CFB20E2B1509F4B7CF06
:1028A000BD0166507C4F10E000E0091708F066C0DB
:1028B000FA01E00FF11FE491F0E04F010C2C02C08F
:1028C000880C991C0A94E2F727FD04C0FB01808163
:1028D00088298083332351F0273044F47B01F0E8CA
:1028E000EF0EF11CF7018081892980830F5F1F4F54
:1028F0006F5F7F4FDACF6FEF70E0032E02C0660F7D
:10290000771F0A94E2F760957095972E8B2C820EB4
:10291000281509F47CCF8D0106501C4FF12CE12CB9
:10292000E91630F5FA01EE0DFF1DE491F0E03F01EC
:102930000C2C02C0660C771C0A94E2F727FD05C038
:10294000F8018081862386298083332359F027303C
:102950004CF45801F0E8AF0EB11CF50180818921DB
:1029600087298083FFEFEF1AFF0A0F5F1F4FD8CF31
:102970002F5F4C0F5D1FA058BF4FCACF2F5F4C0F6A
:102980005D1FA058BF4F89CF2F5F4C0F5D1FA05810
:10299000BF4F51CFE92EF12CFA01E60FF71FA650D9
:1029A000BC4F60E870E06E197F09CE19DF098E0117
:1029B000000F111F41E050E07A01032E01C0EE0C20
:1029C0000A94EAF7592F4B2D892E932ECF93DF933C
:1029D000ED01EF96EF962296A590C590992059F0BB
:1029E000AE9C5001CE9C600127302CF4F880D0942E
:1029F000FD20FB28F99222233AF0FC90C094FC20A1
:102A0000FA28FD920C94051511965A9529F74A95C6
:102A100051F0582D23951124E00FF11DA60FB11D83
:102A2000C60FD11DD9CFDF91CF911124F0CE480F21
:102A3000592F511D1416150684F5803891056CF533
:102A400097FF02C090E080E04138510514F040E863
:102A500050E0481BFB01E770FF2721E001C0220F77
:102A6000EA95EAF777FF02C0695F7F4FFB0133E029
:102A7000F595E7953A95E1F7F695FE2FEE27F79550
:102A8000E795E80FF91FE650FC4F415030F0819177
:102A9000DF011197822B8C93F8CF08954F925F92AC
:102AA0006F927F928F929F92AF92BF92CF92DF925E
:102AB000EF92FF920F931F93CF93DF9330E0F901D2
:102AC000E80FF91F1E161F060CF07FC08038910515
:102AD0000CF07BC0802E912CF401E60FF71F1E1620
:102AE0001F060CF072C0603471050CF06EC0E62F4A
:102AF000E7707E2EF7E08F0E911CE3E095948794AB
:102B0000EA95E1F7F3E075956795FA95E1F7062EFA
:102B1000000C770BDB01B695BA2FAA27B795A795BE
:102B2000A80FB91FA650BC4FEA0110E000E07801E1
:102B3000E60EF71E48E0E416F1040CF046C0EFEF95
:102B4000EE16FE06C4F150E040E05D01F0E8AF0E85
:102B5000B11C421753077CF5FA01E80FF91FE03862
:102B6000F1054CF5F7FD24C0FA01EC0FFD1FE491CF
:102B7000F0E02F01072C02C0440C551C0A94E2F728
:102B8000EFEFEE16FE0691F16D01C40ED51EF601B3
:102B9000608064286082772059F0F7E0EF16F10436
:102BA00039F06501C40ED51EF6016080652860828B
:102BB0004F5F5F4FCECF0F5F1F4FA058BF4FC20F69
:102BC000D31F8016910609F0B2CFDF91CF911F91EC
:102BD0000F91FF90EF90DF90CF90BF90AF909F90BC
:102BE0008F907F906F905F904F9008957110D9CF24
:102BF000DFCFEAEFF3E0A0E0B8E000800EBC811187
:102C0000012C1197A0FDFDCF0192B9F70DB40895E5
:102C10000F93682F70E008E025E045E556E290E06C
:102C200080E00E944E150F910895FC018091F903F8
:102C3000882311F13FB7F89482E08093E900209156
:102C4000F200822F90E01816190614F481E090E04B
:102C5000882339F0289844E64093F8034091F10026
:102C60004083222339F02091F200211103C02BE68A
:102C70002093E8003FBF08958FEF9FEF08952FB78F
:102C8000F89483E08093E9009091E800892F8072A6
:102C900095FF04C09091F20080E4891B2FBF089536
:102CA0008091F00381110DC082E08093EC0384E0F9
:102CB0008093ED031092EF031092EE0381E0809376
:102CC000F0038CEE93E00895CF93DF931F92CDB77E
:102CD000DEB76983DC01ED91FC910280F381E02D88
:102CE00041E050E0BE016F5F7F4F09950F90DF918B
:102CF000CF91089583E08093E9008091F2008823CA
:102D000019F08AE38093E80008950E943F1690E04E
:102D10000895CF93DF931F92CDB7DEB7FC01848572
:102D2000958597FD08C02FEF3FEF358724870F90DB
:102D3000DF91CF910895CE0101960E94151601975B
:102D400019F4898190E0F3CF8FEF9FEFF0CF0F93CD
:102D50001F93CF93DF931F92CDB7DEB78C01FC0199
:102D60008485958597FF0BC0CE0101960E941516AC
:102D7000019771F4898190E0F80195878487F801C3
:102D8000848595850F90DF91CF911F910F910895C4
:102D90008FEF9FEFF1CFFC018485958597FD0BC0E8
:102DA0009FB7F89482E08093E9008091F2009FBF82
:102DB00090E0019608959FB7F89482E08093E9002F
:102DC0008091F2009FBF90E008954091E6035091FA
:102DD000E7032091E4033091E50342175307B4F46D
:102DE0009091E8009570E1F39091E80092FD19C090
:102DF0008093F1008091E6039091E70301968F7331
:102E00009927892B19F48EEF8093E8008091E603CF
:102E10009091E70301969093E7038093E60381E0A6
:102E2000089580E00895DF92EF92FF920F931F9331
:102E3000CF93DF93D82E8A01EB017B01E40EF51EC0
:102E4000CE15DF0559F0D7FE12C0FE0184910E9415
:102E5000E51621968111F4CF0FEF1FEFC801DF9126
:102E6000CF911F910F91FF90EF90DF90089588818F
:102E7000EECF0F931F93CF93DF931F92CDB7DEB7A3
:102E800082E0898342E450E069EE75E280E80E94C6
:102E900013170E945016DC0112960D911C9101151A
:102EA000110589F0D801ED91FC910280F381E02DAC
:102EB000BE016F5F7F4FC801099597FD04C0F801FF
:102EC00000851185ECCF89810F90DF91CF911F9103
:102ED0000F910895615030F02091F100FC012083A2
:102EE0000196F8CF289884E68093F8030895FC01B2
:102EF0000E940E18319728F068517C4F8F4F9F4FDA
:102F0000F9CFAB01FC010E940E18641775078E07FC
:102F10009F07C8F308958F929F92AF92BF92CF926E
:102F2000DF92EF92FF920F931F93CF93DF936C0189
:102F30007B018A0180916F01882309F45AC0809136
:102F4000F903882309F455C08091EB0380FF05C085
:102F50008091E00082608093E000E801B12C8AEF6C
:102F6000A82E93E0892E2AE3922E209711F4BB20FD
:102F7000C9F10E943F16811108C0AA94AA20C9F184
:102F800081E090E00E947717F0CF8C171D0611F0BA
:102F90000CF08C2F9FB7F8948092E9002091E80004
:102FA00025FD02C09FBFE1CF282F30E0C21BD30B0D
:102FB000F701815020F041914093F100FACFE20EE9
:102FC000F31EBB2021F09092E800B12CEBCF809152
:102FD000E80085FDE7CF9092E800BB24B3942097EA
:102FE00009F3F3CF5D9884E68093EA031016110687
:102FF0003CF081E090E0F6019383828310E000E0F2
:10300000C801DF91CF911F910F91FF90EF90DF905A
:10301000CF90BF90AF909F908F900895A0EEB3E0B7
:103020002FB7F8947D918D919C9166B52FBFA89B89
:1030300005C06F3F18F47F5F8F4F9F4F22E0660FF0
:10304000771F881F991F2A95D1F70895AF92BF92D5
:10305000CF92DF92EF92FF920F931F93CF93DF9364
:103060006C017B018B01040F151FEB015E01AE1893
:10307000BF08C017D10759F06991D601ED91FC91B5
:103080000190F081E02DC6010995892B79F7C501E2
:10309000DF91CF911F910F91FF90EF90DF90CF9034
:1030A000BF90AF900895FC0144815581608171818A
:1030B0008CE498E00C942618CF92DF92EF92FF9266
:1030C0001F93CF93DF93E82FF0E0EA58FE4F108173
:1030D000E62FF0E0603398F5E456F64FE491CE2FFA
:1030E000D0E0F12CE12C60E074E284EF90E0A701E5
:1030F0009E010E945531215031094109510991E049
:103100002115310581E0480751056CF060E970ED4B
:1031100083E090E0A7019E010E94553121503109C2
:103120004109510993E0113089F0133039F1DF91F1
:10313000CF911F91FF90EF90DF90CF900895EE0F09
:10314000FF1FE456F74FC591D491CBCF8091A103D7
:103150008111EDCF80918100887F892B8093810040
:10316000309389002093880010928500109284008B
:1031700080916F00826080936F00D9CF8091910021
:10318000887F892B80939100309399002093980039
:103190001092950010929400D093A003C0939F03C7
:1031A00081E080939E038091710082608093710022
:1031B000BECFE82FF0E0EA58FE4F8081813019F051
:1031C0008330A9F008958091A10381110FC08091EF
:1031D0006F008D7F80936F0080919003E0918E034C
:1031E000F0918F03908180958923808308951092B8
:1031F0009E0380919D038111F9CF80919B03E09103
:103200009903F0919A03EECFCF93DF93D1E0E09151
:10321000D203F091D303AF014F5F5F4F5093D303BD
:103220004093D2032491822F807FC22FCF708038A9
:1032300021F48C2F0E94D918EACF803919F5E0913A
:103240004A08F0914B0809958D2780939C03E091E3
:10325000D203F091D303CF0101969093D3038093CF
:10326000D20364918091BF03C81788F6C13021F45E
:1032700080918D038111CBCF67FDC9CF8C2F0E9428
:103280005C18C5CF87FD3CC03296F093D303E09322
:10329000D203FA014491A0919F03B091A003322F71
:1032A000242F0E94D8316C507E4F8F4F9F4F28EEB5
:1032B00033E040E050E00E94B63120939503309314
:1032C00096034093970350939803809195039091B0
:1032D0009603A0919703B0919803892B8A2B8B2B8F
:1032E00061F481E090E0A0E0B0E0809395039093DA
:1032F0009603A0939703B0939803DF91CF9108951D
:10330000803E49F48091D4039091D5039093D303E8
:103310008093D2037CCF803F09F079CF1092D603FF
:10332000ECCF9091BF03923009F471C0292F30E0A7
:10333000F901EA58FE4F408125573C4FF90180833F
:10334000913031F420918B03281302C090938D03A8
:103350009F5F9093BF0390E0FC01E352F74F2491ED
:103360008254974FFC01849130E0220F331FF90102
:10337000E055F74F65917491F901EE55F74FA5911E
:10338000B4919C91982B9C93413019F04330D9F023
:10339000089590916400977F90936400109280004C
:1033A000109281009091810098609093810090919B
:1033B000810091609093810070938F0360938E03DE
:1033C00080939003089590916500977F9093650096
:1033D00010929000109291009091910098609093BB
:1033E00091009091910091609093910070939A0355
:1033F0006093990380939B038091BF03882321F0FE
:103400006CE380E00E945C1880E00C94D918089569
:103410000F9302E00E945C130F91089590E00C94CA
:1034200077178FB18095807F669B88601C9B846036
:1034300008953E9A3F9A81E08093A603089590E014
:10344000EAEFF3E091119FEF8FEF919391939193B6
:1034500091938150D0F71092A3031092A20310927F
:10346000A5031092A40308959091C803982329F40A
:103470009091C903982381E009F480E0089580E0E9
:103480000C94F91580389105B8F460347105A0F4F6
:1034900090E121E061FD24E060FD220F62FD2295B4
:1034A000687F969FD0011124A80FA650BC4F0C90A6
:1034B000022A40FF02260C9208952F923F924F92CB
:1034C0005F926F927F928F929F92AF92BF92CF92B4
:1034D000DF92EF92FF920F931F93CF93DF937C01C4
:1034E0004B01C42FD0E081E090E06C01CC1ADD0AE2
:1034F000AA24BB24AC1ABD0AAA0CBB1C6624639484
:10350000712C10E000E0822F8470582E822F827080
:10351000482E822F8870382E2170222ED7FC06C0AC
:10352000219782E0A80EB11CCA0CDB1C0F5F1F4F55
:1035300082E0680E711CC60CD71C552091F041E04A
:10354000BE01680D791DC701800F911F0E94421AAC
:1035500041E0B401600F711FCE018E0D9F1D0E94CE
:10356000421A442091F041E0B4016C1B7D0BC7016D
:10357000800F911F0E94421A41E0B401601B710B41
:10358000CE018E0D9F1D0E94421A332091F041E022
:10359000B401600F711FC7018C1B9D0B0E94421A62
:1035A00041E0BE01680D791DC701801B910B0E948F
:1035B000421A222091F041E0B401601B710BC70157
:1035C0008C1B9D0B0E94421A41E0B4016C1B7D0BC9
:1035D000C701801B910B0E94421A0C171D070CF4A7
:1035E0009DCFDF91CF911F910F91FF90EF90DF90D2
:1035F000CF90BF90AF909F908F907F906F905F9093
:103600004F903F902F9008952F923F924F925F924C
:103610006F927F928F929F92AF92BF92CF92DF92E2
:10362000EF92FF920F931F93CF93DF93EC018B01E7
:103630007A016901C61AD70AD7FE03C0D194C19492
:10364000D10847018C1A9D0A97FE03C0919481947A
:1036500091088C149D0454F49E2D8F2D7901292FEF
:10366000382F9C2F8D2FE801092F182FEC16FD06FF
:1036700054F4902F812F8901292F382F9C2F8D2FC3
:10368000E701E92EF82E17012C1A3D0A2901401AEC
:10369000510A57FE03C0519441945108310137FE3D
:1036A00003C08FEF681A780A759467948FEF02173A
:1036B00013070CF481E0A82E880FBB08EC16FD065A
:1036C000A4F041E0BE01C8018C149D0414F0B801BF
:1036D000CE010E94421A6418750877FE04C00A0DD4
:1036E0001B1D620C731C2196E9CFDF91CF911F91B6
:1036F0000F91FF90EF90DF90CF90BF90AF909F9091
:103700008F907F906F905F904F903F902F90089593
:103710008F929F92AF92BF92CF92DF92EF92FF92E1
:103720000F931F93CF93DF936D3089F0C090A20366
:10373000D090A3036A30D1F41092A5031092A40391
:1037400088E0C80ED11CD092A303C092A20381E0EE
:1037500090E0DF91CF911F910F91FF90EF90DF905C
:10376000CF90BF90AF909F908F9008950091A40349
:103770001091A503E5E06E9FE0011124CE55DC4FCA
:103780004801F12CF5E0E12CFF1629F0CE0101965D
:10379000FE01E490EC01B12CA12C4E2D4170B6013C
:1037A0006A0D7B1DC4010E94421AE694FFEFAF1A16
:1037B000BF0A88E0A816B10481F7F394EFEF8E1AE0
:1037C0009E0AF6E0FF12DECF0A5F1F4F1093A5039B
:1037D0000093A403BCCFDF92EF92FF920F931F934D
:1037E000CF93DF937C01D22E8B01040F111DEB01CF
:1037F00077FF02C0D0E0C0E0C8010134110514F029
:1038000080E490E0C817D9073CF44D2DBE01C701F4
:103810000E94421A2196F0CFDF91CF911F910F9114
:10382000FF90EF90DF9008952F923F924F925F921A
:103830006F927F928F929F92AF92BF92CF92DF92C0
:10384000EF92FF920F931F93CF93DF9300D000D09E
:10385000CDB7DEB75C012B012A83242F30E03C83F7
:103860002B8381E090E07C01E21AF30A1901319484
:1038700021943108220C331C88248394912CD12C60
:10388000C12C31E0300F3983F7FC0AC0EB81FC8199
:103890003197FC83EB83F2E02F0E311CE20CF31C1A
:1038A0002FEFC21AD20A32E0830E911CE80CF91CE9
:1038B0004B81440FB2018B819C81681B790B102FC7
:1038C000180D32016C187D089A81913069F5E981F3
:1038D0004E0F20E0C5018C0D9D1D0E94EB1B20E0CA
:1038E000412FB3018B819C818A0D9B1D0E94EB1B94
:1038F0008B819C81C816D9063CF20F900F900F90D7
:103900000F90DF91CF911F910F91FF90EF90DF907B
:10391000CF90BF90AF909F908F907F906F905F906F
:103920004F903F902F900895F9814F0F20E0C501EF
:103930008C199D090E94EB1B20E0412FB301C501AA
:10394000EB81FC818E1B9F0BD1CF5F926F927F9298
:103950008F929F92AF92BF92CF92DF92EF92FF929F
:103960000F931F93CF93DF93EC017B01142F722EE3
:10397000602E660C542E5618802E912C5401A80EE1
:10398000B91E6034710520F4452DC5010E9417153C
:103990006701C70CD11CB601615071096034710513
:1039A00020F4452DC5010E9417157618E80CF91C66
:1039B00021E0472DB701CE010E94EB1BC10FD11DA5
:1039C00021E0472DB701CE0101970E94EB1B21E0BA
:1039D000402FB701C5010E945D1AC819D909219766
:1039E00022E0402FB701CE010E945D1AC818D90805
:1039F00081E0C81AD10824E0402FB601CE010E9410
:103A00005D1A28E0402FB601C501DF91CF911F91CB
:103A10000F91FF90EF90DF90CF90BF90AF909F906D
:103A20008F907F906F905F900C945D1A2091C303EC
:103A300084E0289F9001112441E090E080E0FC01A7
:103A4000E20FF31FEF5AFE4F5081511140E00196F3
:103A500084309105A1F74093C20308958F929F92FD
:103A6000AF92BF92CF92DF92EF92FF921092C70374
:103A7000E1E0F1E081E591E0C12CD12C7601C39425
:103A800022813381C20ED31EE11CF11C38968E17A1
:103A90009F07B1F7C092CE03D092CF03E092D0033C
:103AA000F092D103E1E5F1E025E531E0812C912CA4
:103AB00054014FE08191849FC0011124092E000C14
:103AC000AA0BBB0B880E991EAA1EBB1E2E173F0702
:103AD00089F78092CA039092CB03A092CC03B09254
:103AE000CD03A4E6B0E0A70196010E947431A501C0
:103AF0009401211531054105510521F421E030E003
:103B000040E050E00E94B6313093C6032093C503D5
:103B10002F3B3105A8F081E08093C703F694E7942A
:103B2000D794C7948BE0C816D104E104F10488F45B
:103B3000C092CE03D092CF03E092D003F092D10393
:103B4000FF90EF90DF90CF90BF90AF909F908F90BD
:103B500008958AE090E0A0E0B0E08093CE039093D7
:103B6000CF03A093D003B093D103EACF0F93CF93A9
:103B7000DF93EC019E816A3059F48D818C836985D5
:103B8000960F9E8381E090E0DF91CF910F91089591
:103B9000262F61E0690F2A3398F4203398F52B32F1
:103BA00099F140F42132A1F198859D5F8C81890FB4
:103BB0008C83E8CF2E3251F12F32B1F723E40FC0BE
:103BC0002B3540F42134E0F42C3321F12E3361F70E
:103BD00021E405C08FE9820F27548A3128F7062E89
:103BE000000C770B8C81082E000C990B3F810AEF9B
:103BF000313009F00BEF41ED52E00E945C13D4CF5D
:103C00002154EDCF2C5FEBCF20E4E9CF2FE3E7CFBA
:103C10002EE3E5CF22E4E3CF0F931F93CF93DF93FF
:103C20008C01D0E0C0E0F801EC0FFD1F6491662329
:103C300041F08CE498E00E94B61D892B11F021968A
:103C4000F2CFCE01DF91CF911F910F910895EF92A6
:103C5000FF920F931F93CF93DF939091BE03D1E018
:103C60009111A2C0282F30E0A90142555C4F7A0182
:103C7000FA01D081D11198C091E09093C403909142
:103C8000BD03953608F098C09F5F9093BD03C82F81
:103C90000DE010E020E042E366E070E0C8010E9421
:103CA000EB1B0F5F1F4F06371105A1F707E210E06E
:103CB00021E045E06BE070E085E790E00E94141C95
:103CC00022E045E06BE070E08DE090E00E94141C83
:103CD00005E022E343E765E070E088E090E00E94C1
:103CE000A51CC630C8F020E040E05CE062E170E076
:103CF0008AE590E00E94081A4091BD034B3508F018
:103D00004AE550E04C5E5F4F24E330E064E370E04E
:103D10008CE090E00E94041B8BE08093510880931C
:103D2000500888E080935208F6E0CF9FC00111242C
:103D3000865A974F0E94531810E000E020E048E0B8
:103D400068E370E0C8010E94EB1B0F5F1F4F003853
:103D50001105A1F708E027E041E651E169E370E0D1
:103D60008AE590E00E944E1584E680935108809386
:103D7000500889E3809352088FE993E00E940C1E5B
:103D800084E00E94341A8823C9F09091BD039333D4
:103D900058F01092C40391E0F70190831092BD0394
:103DA00096E99093BE03D82F8D2FDF91CF911F916D
:103DB0000F91FF90EF90089594E667CFD0E0F4CF95
:103DC000089590E080E008958F929F92AF92BF9205
:103DD0000F931F93CF93DF93CDB7DEB7A1970FB6A5
:103DE000F894DEBF0FBECDBF19A2423008F44AE0FE
:103DF0008E010F5D1F4F842E912CB12CA12CA5019B
:103E000094010E94B631E62FB901CA01EA3044F5A7
:103E1000E05DD801EE938D01232B242B252B79F720
:103E200090E080E0109769F0FD0101900020E9F733
:103E30003197AF014A1B5B0BBD018CE498E00E94F7
:103E40002618A1960FB6F894DEBF0FBECDBFDF9146
:103E5000CF911F910F91BF90AF909F908F90089539
:103E6000E95CD7CF0F931F93CF93DF93EC01888149
:103E70009981009759F02A813B812617370730F046
:103E800081E0DF91CF911F910F9108958B016F5FBA
:103E90007F4F0E94B135009759F0998388831B8327
:103EA0000A832C813D81232B59F7FC011082E8CF36
:103EB00080E0E7CFCF93DF93EC0188819981009771
:103EC00011F00E942835198218821D821C821B82E3
:103ED0001A82DF91CF910895EF92FF920F931F9373
:103EE000CF93DF938C017B01FB0101900020E9F768
:103EF0003197E61BF70BD1F0DC011496CD91DC91E4
:103F0000CE0FDF1FBE010E94321F8823B9F0F801D7
:103F10002081318184819581B701820F931F0E9496
:103F20007736D8011596DC93CE931497C801DF91AC
:103F3000CF911F910F91FF90EF900895C8010E94BB
:103F40005A1FF4CFEF92FF920F931F93CF93DF93FB
:103F5000EC017B018A01BA010E94321F81110BC062
:103F6000CE010E945A1FCE01DF91CF911F910F9178
:103F7000FF90EF9008951D830C83B701888199818C
:103F80000E947736F0CFEF92FF920F931F93CF935B
:103F9000DF93CDB7DEB7A1970FB6F894DEBF0FBEA3
:103FA000CDBF7C01CB01BA01F701118210821382CF
:103FB0001282158214828E010F5F1F4F21E043E0B1
:103FC0000E94BA2D0097C9F0FC0101900020E9F78A
:103FD0003197AF01481B590BBC01C7010E94A21FBA
:103FE000A1960FB6F894DEBF0FBECDBFDF91CF9183
:103FF0001F910F91FF90EF900895C7010E945A1FE3
:10400000EFCFFB01DC0111961C921E9213961C92BD
:104010001E92129715961C921E9214978617970758
:1040200049F0608171816115710521F044815581EC
:104030000C94A21F0895FC0180819181009711F0DA
:104040000C9428350895CF92DF92EF92FF92CF9390
:10405000DF93CDB7DEB72C970FB6F894DEBF0FBE57
:10406000CDBF6B017C0128EEC21623E0D206E1042D
:10407000F10480F44AE00E94E41E2C960FB6F894F6
:10408000DEBF0FBECDBFDF91CF91FF90EF90DF90ED
:10409000CF9008950E94403020E4C21622E4D20658
:1040A0002FE0E206F10420F520E030E04AE754E496
:1040B0000E94E731AB01BC01CE0101960E94C31FF3
:1040C000BE016F5F7F4FCE0107960E94012069EA13
:1040D00071E0CE0107960E946C1F0E945318CE011A
:1040E00007960E941B20CE0101960E941B20C5CF7F
:1040F000C1142AECD2062AE9E2062BE3F206B0F458
:1041000020E034E244E759E40E94E731AB01BC010E
:10411000CE0101960E94C31FBE016F5F7F4FCE018B
:1041200007960E9401206BEA71E0D3CF28E23BE6BC
:104130004EE65EE40E94E731AB01BC01CE01019680
:104140000E94C31FBE016F5F7F4FCE0107960E9482
:1041500001206DEA71E0BDCF1F920F920FB60F9252
:1041600011248F939F938091E1009091E100937FC0
:104170009093E10083FF0FC01092E90091E09093CB
:10418000EB001092EC0092E39093ED001092F90393
:1041900098E09093F00082FF22C093E09093E900B2
:1041A0009091F200992319F09AE39093E80090918E
:1041B000EA03992341F09091EA0391509093EA0326
:1041C000911101C05D9A9091F803992341F090916B
:1041D000F80391509093F803911101C0289A84FF3D
:1041E00018C08091E2008E7E81608093E200809111
:1041F000E1008F7E8093E1008091EB038E7E8061F1
:104200008093EB039F918F910F900FBE0F901F90A3
:10421000189580FFF7CF8091E2008E7E80618093B9
:10422000E2008091E1008E7E8093E1008091EB03BB
:104230008E7E8160E5CF1F920F920FB60F921124F0
:10424000CF92DF92EF92FF920F931F932F933F93A2
:104250004F935F936F937F938F939F93AF93BF938E
:10426000EF93FF93CF93DF93CDB7DEB76C97DEBFAD
:10427000CDBF1092E9008091E80083FF25C068E07F
:10428000CE0145960E946A1782EF8093E8008D89DF
:1042900087FF39C09091E80090FFFCCF982F90766F
:1042A00009F034C19E894F89588D2F89F88C91115E
:1042B00031C0803861F58091E9038093F10010925C
:1042C000F1008EEF8093E8006C960FB6F894DEBF95
:1042D0000FBECDBFDF91CF91FF91EF91BF91AF9115
:1042E0009F918F917F916F915F914F913F912F910E
:1042F0001F910F91FF90EF90DF90CF900F900FBE26
:104300000F901F9018959EEF9093E800C7CF1092E2
:10431000F100D5CF913059F48111D3CF41305105FF
:1043200081F68091E9038D7F8093E903CACF9330B2
:1043300049F48111C6CF4130510519F68091E90346
:104340008260F2CF953041F48091E80080FFFCCF8D
:1043500020682093E300B5CF963009F0A9C00B8DFB
:104360001C8D22E01092E9001092E7031092E60300
:10437000F2122EC01092E5031092E4030E94391746
:104380001F8299E09983FA8291E09E8390EA988750
:104390009AEF99872091E6033091E703275F3F4F1B
:1043A0003C832B838D831092E9001092E7031092D7
:1043B000E6031093E5030093E40349E050E0BE01F7
:1043C0006F5F7F4F80E00E9413170E94391779CFEB
:1043D0001093E5030093E4030E945016DC0112964B
:1043E0000D911C910115110509F451C1D801ED91F0
:1043F000FC910480F581E02DBE016B5E7F4FC8010A
:104400000995009709F03EC1F80100851185EACFB2
:10441000F3E0FF120EC08F89882309F440C0823078
:1044200061F440E867E08DE496E20E94682481111F
:1044300048CF81E28093EB0047CF813029F440E8F8
:104440006BE081E496E2F1CF833099F70E94501639
:10445000DC011296ED90FC908E010F5F1F4F6801FA
:10446000E114F10479F0D701ED91FC910680F78118
:10447000E02DB801C7010995080F111DF701E0846F
:10448000F184EECFD8011C92F60101900020E9F7EB
:104490003197BF016C197D0940E0C601C6CF6BE2C0
:1044A00076E2FB01449150E080E80E94131709CFA7
:1044B000973009F4BECF983021F481E08093F10069
:1044C00000CF993009F0FDCE837009F0B2CFE9E753
:1044D000F1E081E031E096E32191222371F08093B5
:1044E000E9003093EB00DF0111972C912093EC0051
:1044F0009093ED008F5F873079F78EE78093EA0025
:104500001092EA008F898093F903DBCE8B8D9C8D0E
:104510001092E9001092E7031092E6039093E503EE
:104520008093E403898D811192C08E899D89913A8F
:1045300049F4813209F07DCF47E050E068E671E050
:1045400080E0B3CF913209F074CF833269F48F8960
:10455000988DB0E0A0E08093640190936501A093F2
:104560006601B0936701ADCE803269F48091E800B6
:1045700082FFFCCF67E088E691E00E946A178BEF2C
:104580008093E8009ECE823209F09BCE8F89809383
:104590006F01EEEFFFE7859194918B3F9C4D51F1B8
:1045A000E0E0F8E08091680190916901A0916A01D2
:1045B000B0916B01803B9440A105B105F1F480916D
:1045C0006F0180FD1AC0EE3F8AE0F80789F587E7A2
:1045D00097E791838083809160008093E80388E16E
:1045E0009BE00FB6F894A895809360000FBE90935F
:1045F000600067CEEEEFFAE0D5CF808191818737FA
:10460000974709F05ECEA8958091600088618093FD
:1046100060008091E80380936000EE3F2AE0F2079B
:1046200089F08091FE0A9091FF0A9183808349CEA0
:10463000808191818737980751F29093FF0A809388
:10464000FE0AC5CF1092FF0A1092FE0A3ACE0E94CF
:104650005016DC0112960D911C910115110509F4FB
:10466000E8CED801ED91FC910190F081E02DBE01E2
:104670006B5E7F4FC8010995811123CEF80100853B
:104680001185EBCF181619060CF41BCED2CEF1E033
:10469000FF12BECE6FE276E204CF0F920FB68F9379
:1046A0009F93EF93FF938091DB038D5F8D3708F02D
:1046B0008D578093DB03ECEDF3E080818E4F808398
:1046C00091819F4F918382818F4F828383818F4F0E
:1046D0008383E0EEF3E080818F5F808381818F4F61
:1046E000818382818F4F828383818F4F83838FB1B8
:1046F0008F6066991C9B88278F3681F48091DA033E
:10470000981B963068F0E0E0F8E087E780838183CB
:1047100088E180936000F0936000FFCF9093DA030C
:10472000FF91EF919F918F910FBE0F9018951F925F
:104730000F920FB60F9211242F933F934F935F93D5
:104740006F937F938F939F93AF93BF93EF93FF9359
:1047500080919E03882389F080919D0381110DC073
:1047600080919C03811109C090919B03E091990372
:10477000F0919A038081892780838091D6038823D2
:1047800029F18091950390919603A0919703B091A0
:104790009803892B8A2B8B2BC9F0809195039091DC
:1047A0009603A0919703B09198030197A109B109CD
:1047B0008093950390939603A0939703B0939803E7
:1047C000892B8A2B8B2B11F40E940419FF91EF91F6
:1047D000BF91AF919F918F917F916F915F914F9119
:1047E0003F912F910F900FBE0F901F9018951F9221
:1047F0000F920FB60F9211248F939F93AF93BF9395
:10480000EF93FF938091A103882309F454C0809112
:10481000910390919203A0919303B0919403892BFB
:104820008A2B8B2BA1F190919003E0918E03F09154
:104830008F038081892780838091910390919203D7
:10484000A0919303B0919403181619061A061B063B
:104850009CF48091910390919203A0919303B09165
:1048600094030197A109B109809391039093920356
:10487000A0939303B0939403FF91EF91BF91AF91F5
:104880009F918F910F900FBE0F901F9018951092CF
:104890009D031092A10380916F008D7F80936F0024
:1048A00080919003E0918E03F0918F039081809529
:1048B00089238083E1CF80919C038111DDCF90918A
:1048C0009003E0918E03F0918F0380818927F1CFCF
:1048D000EF92FF920F931F93CF93DF93F82E192F30
:1048E000E62E042F81E0860F880F0E94E51683E0F4
:1048F0000E94E516CF2DD12FEC0EFD2EF11CCE150A
:10490000DF05B9F007FF13C0FE0184910E94E51690
:10491000182F80E00E94E516812321968111EFCFA8
:10492000DF91CF911F910F91FF90EF9008958881B3
:10493000EDCF81E0F5CFFC0111821082138212824B
:1049400015821482FB0101900020E9F73197AF0135
:10495000461B570B0C94A21FEAEFF7E0138212825A
:1049600088EE93E0A0E0B0E084839583A683B783CC
:1049700083E891E0918380838FEF9FEF9587848711
:104980006FEA71E08AE598E00E949B2466EC71E092
:1049900080E698E00E949B246CED71E086E698E04A
:1049A0000E949B2467EF71E08CE698E00E949B24B4
:1049B0006FE072E082E798E00E949B2464E272E07C
:1049C00088E798E00E949B2460E372E08EE798E01D
:1049D0000E949B2466E472E084E898E00E949B2495
:1049E00069E772E08AE898E00E949B246BE872E035
:1049F00080E998E00E949B246FE972E086E998E0E4
:104A00000E949B246EEA72E08CE998E00E949B244D
:104A100068EE72E082EA98E00E949B2460E173E015
:104A200088EA98E00E949B246AE473E08EEA98E0AA
:104A30000E949B2489E593E190934B0880934A0858
:104A4000E6E5F8E01382128281EA91E091838083A7
:104A5000ECE4F8E01382128285E991E0918380838F
:104A600088E0818781E0808715821682148287839F
:104A70000895CDB7DEB7A697DEBFCDBF789483E0AB
:104A800084BD83E085BD81E080936E00E1E8F0E0C5
:104A900083E08083E0E881E08083E1E983E0808354
:104AA000E0E981E08083E1EC87E08083E3EC81E072
:104AB0008083E0EC82E08083E2EC81E08083EAE7BF
:104AC00087E08083806880831092F9031092E90365
:104AD0001092EB038091D70081608093D70080EA29
:104AE0008093D80089B5806189BD89B5826089BD10
:104AF00009B400FEFDCF81E090E00E94771780911D
:104B0000D8008F7C80618093D8008091E000807F06
:104B10008093E0008091E1008E7E8093E1008DE043
:104B20008093E200559A209A81EC80937C0081EF7B
:104B300085B987EE84B984E38BB984EF8AB9769A14
:104B40006E9880EF81BB10BA80E58CBD81E08DBD91
:104B500085E00E940E1A5F9A85E00E940E1A5C980A
:104B6000ECE7FAE085918EBD00000DB407FEFDCFA5
:104B7000E938C1F75C9A81E88093640081E0809312
:104B800065000E943F1A0E94111A87FF15C05C98A9
:104B900085EA8EBD00000DB407FEFDCF5C9A2E980D
:104BA0002F982D988091640080628093640081E04A
:104BB00083BF889513BEFCCF0E94111A82FF37C0B5
:104BC0002D980E94111A84788438A1F42D9A88ECCB
:104BD0000E940E1A2F986FEF82E090E00E944331FE
:104BE00084EF91E00E9477172F9A0E94111A84781F
:104BF0008438D9F30E94111A84718431A1F42D9A5A
:104C000088EC0E940E1A2E9860E082E090E00E94EC
:104C1000433184EF91E00E9477172E9A0E94111A77
:104C200084718431D9F388EC0E940E1AC5CF2D9A75
:104C300082E090E00E943B31882309F44AC00E9440
:104C4000191A81E090E00E943B31182F147081FF07
:104C50000CC011112E9831EFE32EFF24FA940E941C
:104C6000111A86FF3BC02E9A2F9A82E30E940E1AD9
:104C70000E94111A8111F9CF80E1809300010E94F6
:104C80002E1D0E94191A85E00E9491198DE00E9444
:104C900091198BE89EE09093D5038093D403909371
:104CA000D3038093D2030E94041981E08093D6033A
:104CB000CE0101962C018091A903882309F469C0D3
:104CC0001092A90380E090E0892BA9F30E940000D4
:104CD000F2CF1092A6033E983F98B3CF112331F044
:104CE00024E0E216F10411F42E9A2F9881E00E943C
:104CF000F91500E128E54CEC59E0B70184E190E0BA
:104D00000E944E150E943F1A8FE00E940E1A3FEF3C
:104D1000E31AF30A49E1E416F10409F0A0CF1123E4
:104D200011F02F9A2D9880E991E00E9477172D9A23
:104D300081E090E00E943B3180FF97CF8AE090E0D5
:104D40000E943B319FEF980F9E3F08F08ECF22E3E9
:104D500030E03093A5032093A40328E330E03093A0
:104D6000A3032093A2030AE010E0682F86E598E0F1
:104D70000E94881B0F5F1F4FC8010E943B3100310A
:104D8000110599F70E943F1A88EE93E00E94771769
:104D90006CCF9091DC038091AA03E92FE81B8E2F42
:104DA00020910001E21748F48F5F821708F08ACF44
:104DB00081E083BF889513BE85CF81E08093A903EE
:104DC0009093AA03E7EAF3E08081918101968083C2
:104DD00091838091AD0381115BC08091C903809361
:104DE000C8030E94111A8093C90388E00E94341AF4
:104DF000811105C084E00E94341A882319F081E0F3
:104E00008093AD030E941F1A8091AC038F5F809343
:104E1000AC039091AB039923A9F1883C20F0109248
:104E2000AB031092AC032091AB0381E0282740E054
:104E30005CE068E170E08CE490E00E94081A00E217
:104E400026E548EA5AE067E070E084E190E00E94DD
:104E50004E150BE02DE04EE85AE065E370E090E07F
:104E600080E00E944E158FE0809351088093500897
:104E700089E38093520889E89AE00E940C1E0E9400
:104E80003F1A20CF8E3178F281E08093AB03C9CFF7
:104E90008091D9038F5F883008F037C58093D9039C
:104EA0008091D603811113C080916301882379F02A
:104EB00028EE33E13093D5032093D4033093D3030A
:104EC0002093D2030E94041981E08093D6031091AD
:104ED000D7038091D803811131C01F3F79F54091EC
:104EE000CE035091CF036091D0037091D103809194
:104EF000CA039091CB03A091CC03B091CD03481786
:104F000059076A077B0710F4DB01CA01880F991F54
:104F1000AA1FBB1F40915E0150915F01609160012B
:104F200070916101840F951FA61FB71F80935E01CA
:104F300090935F01A0936001B0936101F090C90369
:104F4000F092C8030E94111A082F8093C90388E0C9
:104F50000E94341A882341F0809162018F5F823071
:104F600008F0E0C48093620180916201882351F0CF
:104F7000F5FE08C005FD06C0813009F0D6C482E008
:104F8000809362010E941F1A1F3F09F06BC429E041
:104F900030E040E850E069E070E090E080E00E949E
:104FA000041B08E025E043EE53E161E070E081E09E
:104FB00090E00E944E1588E080935108809350083D
:104FC00011E01093520860915E0170915F01809131
:104FD0006001909161010E9423202DE046ED53E194
:104FE00062E070E080E290E00E944E158FE28093D4
:104FF000510880935008109352086091CE0370912D
:10500000CF038091D0039091D1030E9423208091FF
:10501000C703882321F084ED93E10E940C1E08E071
:1050200025E04FEC53E161E070E086E490E00E94FF
:105030004E1542E361E070E08DE490E00E941715A8
:1050400042E367E070E08DE490E00E94171521E0F4
:1050500047E061E070E08DE490E00E94EB1B21E00E
:1050600047E061E070E08EE790E00E94EB1BE0908B
:10507000C503F090C60397013695279530E6E316F1
:10508000F10408F020E308E04FE953E162E070E04A
:105090008EE490E00E944E1544E6E416F10408F018
:1050A00046C4C70196958795835B9F4F27E030E004
:1050B000AC0161E070E00E94041B809162018111EB
:1050C0006CC18091C403811168C180E80E94341AC8
:1050D000882339F080915D0181115BC483E0809366
:1050E0005D0180E10E94341A882339F080915D01CE
:1050F000833008F450C410925D0184E00E94341A99
:10510000F090C2030091C30310E0882309F458C053
:10511000F11045C4E0915D01C801880F991F880F07
:10512000991F8F5A9E4FE80FF92FF11D608164314E
:1051300008F03FC4662309F437C470E090E080E0D3
:105140000E9440309B01AC0163E373E383EB9FE378
:105150000E94883220E030E04AE754E40E947D302B
:105160000E94593280905E0190905F01A090600192
:10517000B090610186169706A806B90608F1A50148
:105180009401261B370B480B590BDA01C901809398
:105190005E0190935F01A0936001B0936101E09183
:1051A0005D01C801880F991F880F991F8F5A9E4F64
:1051B000E80FF92FF11D80818F5F80830E942E1DE3
:1051C000FF2009F4F6C321E044EB51E16BE070E00D
:1051D00084E090E00E94081AC0905D0189E0C89EBA
:1051E000802D1124805F0E9408161091C203E09068
:1051F000C303D12C84E0E89E70011124111109C071
:10520000F701EF5AFE4FEC0DFD1D8081843108F04F
:105210004EC008E025E043EE53E16DE270E085E525
:1052200090E00E944E1585E58093510880935008C8
:1052300083E280935208F701EF5AFE4FEC0DFD1DFB
:105240008081882309F458C483E891E10E940C1EF0
:105250008DE580935108809350088DE28093520829
:1052600060E177E280E090E011111FC0F701EF5A92
:10527000FE4FCE0EDF1EF6016081662309F43FC4A7
:1052800070E090E080E00E9440309B01AC0163E35D
:1052900073E383EB9FE30E94883220E030E04AE72B
:1052A00054E40E947D300E9459320E94232021E262
:1052B00030E045E550E06BE070E085E590E00E946D
:1052C000041B21E230E04EE750E061E270E085E54A
:1052D00090E00E94041B8AE5809351088093500857
:1052E0008CE08093520886E791E10E940C1E08E052
:1052F0002DE046ED53E167E170E08AE590E00E9421
:105300004E158BE6809351088093500886E1809378
:1053100052086091CA037091CB038091CC039091A5
:10532000CD030E94232027E04FE651E169E370E0BE
:105330008DE290E00E944E1587E3809351088093A0
:10534000500819E31093520888E691E10E940C1E60
:1053500027E041E651E169E370E08AE590E00E94D0
:105360004E1584E68093510880935008109352089C
:105370008091C30320915D01F4E08F9FC00111244F
:105380008F5A9E4F820F911DFC018081882309F462
:10539000BBC389E591E10E940C1E809162018130BE
:1053A00009F0A7C18091C4038111A3C180E80E94C4
:1053B000341A882339F08091C1038111A8C384E095
:1053C0008093C10380E10E94341A882339F08091D0
:1053D000C103843008F49DC31092C10384E00E948D
:1053E000341A882309F46CC00091C103F8E00F9FC0
:1053F000800111240F5F1E4FF80176808781781697
:1054000008F05EC080809180B12CA12C80915E015B
:1054100090915F01A0916001B0916101881599059B
:10542000AA05BB0508F44CC088199909AA09BB094B
:1054300080935E0190935F01A0936001B09361013E
:1054400088E0DE01599601900D928A95E1F7F80106
:10545000668170E090E080E00E9440309B01AC01EA
:1054600060E070E080EC9FE30E9488326B017C0179
:10547000C501B4010E944030A70196010E947D3011
:105480000E945932F8017183608364817581828141
:105490009381860F971F938382837394768290E023
:1054A00080E00E94403020E030E040EC5FE30E946A
:1054B0007D300E945932F801758364830E942E1D4D
:1054C00082E10E94081625E1C22ED12CB12CA12C1C
:1054D00037E0932E4FE3842E5BE6752EE090C103F8
:1054E000C5018E0D911D05970CF09DC0EA0C01E0E1
:1054F00021E148E7B6016950710985E090E00E941A
:10550000A51C6C2C909251089092500888EF8C0D3D
:1055100080935208F12CF701EE0FFF1FEF5BFE4E58
:1055200065917491C2010E94D82DF2010190002072
:10553000E9F73197AF0144195509B2018CE498E0BD
:105540000E94261893E0EE0CFF1C9A95E1F7870164
:105550000F5F1E4FF80126802220A1F08EE391E11B
:105560000E940C1E622D70E090E080E04AE00E94F4
:10557000E41EF80196818781981720F089E391E174
:105580000E940C1E08E02DE046ED53E1B60187E0D5
:1055900090E00E944E156A94F7E1F0935108F09361
:1055A00050086092520897012F5F3E4F7901F90130
:1055B0006281738190E080E00E942320F70197814F
:1055C0008681891780F525E043EE53E1B6016150ED
:1055D000710988E390E00E944E15809251088092F4
:1055E000500860925208F7016081718190E080E07C
:1055F0000E9423202DE046ED53E1B6018AE590E0BC
:105600000E944E1570925108709250086092520894
:1056100087E391E10E940C1EF7016481758190E09F
:1056200080E00E942320FFEFAF1ABF0A22E1C20EE2
:10563000D11C33E0A316B10409F050CF10E000E014
:1056400020E048E068E370E0C8010E94EB1B0F5FB8
:105650001F4F00381105A1F708E027E04FE651E1A0
:1056600069E370E08DE290E00E944E1587E380933D
:1056700051088093500819E3109352088FE291E18A
:105680000E940C1EE091C10348E0E49FF001112448
:10569000EF5FFE4F968187819817A0F427E041E6DF
:1056A00051E169E370E08AE590E00E944E1584E6DE
:1056B0008093510880935008109352088BE291E137
:1056C0000E940C1E82E0809351088093500819E3D9
:1056D0001093520889E291E10E940C1E88E08093A9
:1056E0005108809350081093520880E291E10E9483
:1056F0000C1E80916201823009F0B4C080E80E94E3
:10570000341A882339F08091C003811106C281E0E8
:105710008093C00380E10E94341A882339F080917D
:10572000C003882309F4FBC11092C00384E00E94E7
:10573000341A8823D9F01091C003111117C0809139
:10574000630101E0802780936301882309F4EBC1A2
:105750008BE89EE09093D5038093D4039093D3037A
:105760008093D2030E9404190093D6038091C00352
:105770009CE0899F802D1124805F0E94081601E023
:105780002BE048E76CE070E085E090E00E94A51C0B
:1057900088E080935108809350081EE010935208CF
:1057A0008DE69EE00E940C1E8AE58093510880934E
:1057B00050081093520880916301882309F4BFC1F7
:1057C0008AE69EE00E940C1E10E000E020E048E027
:1057D00068E370E0C8010E94EB1B0F5F1F4F0038A9
:1057E0001105A1F708E027E04FE651E169E370E019
:1057F0008DE290E00E944E1587E3809351088093DC
:10580000500819E31093520883E89EE00E940C1E92
:1058100027E041E651E169E370E08AE590E00E940B
:105820004E1584E6809351088093500810935208D7
:105830008CE79EE00E940C1E82E0809351088093CA
:105840005008109352088AE79EE00E940C1E88E0E0
:1058500080935108809350081093520883E79EE08C
:105860000E940C1E8091C403811107C08091BE0369
:10587000882319F081508093BE038091D7038F3F16
:1058800089F00E94271E882369F01092BE038EE1E2
:105890008093BD038091D7038F5F8B3008F052C196
:1058A0008093D7038091CE039091CF03A091D00332
:1058B000B091D1038C329140A105B10598F080914F
:1058C000BB0381110FC08091BC0381110BC080917B
:1058D000C5039091C6038035910508F03AC18DE06B
:1058E0000E94271E8091C5039091C6038A369105B8
:1058F00018F08BE00E94271E8091C703882309F4CB
:10590000BECA8CE00E94271EBACA1092D9038091A9
:10591000D8038F5F843118F48093D803C1CA1092E2
:10592000D803BECA109262011FCB81E029CB5AE690
:10593000E516F10408F4C1CB06E510E020E045E0EF
:1059400062E070E0C8010E94EB1B0F5F1F4F05373C
:105950001105A1F702E010E021E041E063E070E012
:1059600084E790E00E94141C22E041E063E070E0D4
:1059700086E590E00E94141C86E580935108809390
:10598000500881E08093520886E993E10E940C1E42
:1059900094CB8150A4CB8F5F80935D01AECB60E14F
:1059A00077E280E090E0DECB68EE73E080E090E0AC
:1059B000D9CB20E044EB51E16BE070E084E090E073
:1059C0000E94081AF090D8038F2D6AE00E947A3462
:1059D00041E0911140E06CE070E084E290E00E94D0
:1059E000421A8F2D6CE00E947A3441E0911140E020
:1059F0006CE070E086E290E00E94421A000F111FF6
:105A0000000F111FA8014F5A5E4F1A01E1E16E2EDF
:105A1000712CFFE0EF2EF12C1CE210935108109333
:105A20005008E0925208F101D1901F01D11018C026
:105A300008E02CE14BE851E1B7018AE090E00E94D8
:105A40004E1580EB91E10E940C1E39E0E30EF11C33
:105A500049E0640E711C55E365167104F1F6BCCB88
:105A600001E028E04CE1B7018AE090E00E94A51C2B
:105A70008D2D65E00E947A34A82EB12C6CE0862E24
:105A8000912CD12CC12C08E024E047EA51E1B3016C
:105A9000C4010E944E15FFEFCF1ADF0A25E0820EE7
:105AA000911CAC14BD047CF78BEA91E10E940C1EA2
:105AB000F101319780811AA219A21CA21BA21EA279
:105AC0001DA24AE0B20190E00E94DF2DF201019098
:105AD0000020E9F73197AF0144195509B201CE0111
