:100000000C9458100C9480100C9480100C94801058
:100010000C9480100C9480100C9480100C94801020
:100020000C9480100C9480100C944E1C0C94BD1CED
:100030000C9480100C9480100C9480100C94801000
:100040000C9480100C94991F0C9480100C948010C8
:100050000C9480100C9480100C9480100C94EF1E63
:100060000C9480100C9480100C9480100C948010D0
:100070000C9480100C9480100C9480100C948010C0
:100080000C94391F0C9480100C9480100C948010E8
:100090000C9480100C9480100C9480100C948010A0
:1000A0000C9480100C9480100C94801007634236DE
:1000B000B79BD8A71A39685618AEBAAB558C1D3CF9
:1000C000B7CC5763BD6DEDFD753EF6177231BF00BD
:1000D0000000803F08000000BE922449123EABAAF7
:1000E000AA2ABECDCCCC4C3E00000080BEABAAAA52
:1000F000AA3E00000000BF000000803F000000009A
:1001000000084178D3BB4387D1133D190E3CC3BDD2
:100110004282AD2B3E68EC8276BED98FE1A93E4C7F
:1001200080EFFFBE01C4FF7F3F00000000000040E1
:100130007A10F35A00A0724E18090010A5D4E800F6
:1001400000E87648170000E40B54020000CA9A3B0E
:10015000000000E1F5050000809698000000404294
:100160000F000000A0860100000010270000000022
:10017000E803000000006400000000000A00000026
:1001800000000100000000002C76D888DC674F08D2
:1001900023DFC1DFAE59E1B1B796E5E3E453C63AD8
:1001A000E651997696E8E6C28426EB898C9B62ED4F
:1001B000407C6FFCEFBC9C9F40F2BAA56FA5F49009
:1001C000055A2AF75C936B6CF9676DC11BFCE0E480
:1001D0000D47FEF520E6B500D0ED902E03009435D6
:1001E00077050080841E080000204E0A000000C829
:1001F0000C333333330F986E12831141EF8D21147A
:10020000893BE65516CFFEE6DB18D1844B381BF749
:100210007C1D901DA4BBE424203284725E228100E8
:10022000C9F124ECA1E53D2703081F051F1F151B7D
:100230001F11111F110E1F15111F05011F111D1F69
:10024000041F001F0010101F1F041B1F10101F068B
:100250001F1F011F1F111F1F05071F311F1F051B18
:1002600017151D011F011F101F0F100F1F0C1F1B43
:10027000041B071C071915130C121E1F120C1E124B
:10028000120C121F0C1A14041F052E2A1E1F021C0A
:10029000001D00201D001F041A011F001E041E1E49
:1002A000021E1E121E3E120C0C123E1E02061412DC
:1002B0000A020F121E101E0E100E1E081E1A041A1D
:1002C0002E281E1A12161F111F001F001D151711B0
:1002D000151F07041F17151D1F151D01011F1F15D1
:1002E0001F17151F001700001000040E0400000067
:1002F00000003E5B4F5B3E3E6B4F6B3E1C3E7C3EC8
:100300001C183C7E3C181C577D571C1C5E7F5E1CD5
:1003100000183C1800FFE7C3E7FF0018241800FF8F
:10032000E7DBE7FF30483A060E2629792926407F89
:10033000050507407F05253F5A3CE73C5A7F3E1C98
:100340001C08081C1C3E7F14227F22145F5F005F84
:100350005F06097F017F006689956A606060606062
:1003600094A2FFA29408047E040810207E201008A6
:10037000082A1C08081C2A08081E101010100C1E41
:100380000C1E0C30383E3830060E3E0E06000000C3
:10039000000000005F00000007000700147F147FCA
:1003A00014242A7F2A1223130864623649562050E7
:1003B0000008070300001C2241000041221C002A03
:1003C0001C7F1C2A08083E080800807030000808BE
:1003D000080808000060600020100804023E51492F
:1003E000453E00427F400072494949462141494DFE
:1003F000331814127F1027454545393C4A49493185
:1004000041211109073649494936464949291E0003
:1004100000140000004034000000081422411414AD
:10042000141414004122140802015909063E415DCA
:10043000594E7C1211127C7F494949363E41414157
:10044000227F4141413E7F494949417F09090901D4
:100450003E414151737F0808087F00417F410020E1
:1004600040413F017F081422417F404040407F02CD
:100470001C027F7F0408107F3E4141413E7F0909F5
:1004800009063E4151215E7F0919294626494949FD
:100490003203017F01033F4040403F1F2040201FA7
:1004A0003F4038403F631408146303047804036139
:1004B00059494D43007F4141410204081020004149
:1004C00041417F04020102044040404040000307D4
:1004D000080020545478407F284444383844444429
:1004E00028384444287F385454541800087E0902A0
:1004F00018A4A49C787F0804047800447D40002060
:1005000040403D007F1028440000417F40007C04B3
:100510007804787C080404783844444438FC18246F
:10052000241818242418FC7C080404084854545443
:100530002404043F44243C4040207C1C2040201CD8
:100540003C4030403C44281028444C9090907C44DF
:1005500064544C440008364100000077000000411C
:1005600036080002010204023C2623263C1EA1A1FB
:1005700061123A4040207A385454555921555579E2
:1005800041215454784121555478402054557940A4
:100590000C1E527212395555555939545454593903
:1005A000555454580000457C410002457D420001ED
:1005B000457C40F0292429F0F0282528F07C54556A
:1005C00045002054547C547C0A097F4932494949EA
:1005D000323248484832324A4848303A4141217A1A
:1005E0003A42402078009DA0A07D39444444393DE2
:1005F0004040403D3C24FF2424487E4943662B2F45
:10060000FC2F2BFF0929F620C0887E0903205454B3
:1006100079410000447D413048484A323840402208
:100620007A007A0A0A727D0D19317D2629292F2830
:10063000262929292630484D40203808080808086E
:10064000080808382F10C8ACBA2F102834FA000058
:100650007B000008142A142222142A140895002270
:100660000095AA005500AAAA55AA55AA000000FFA5
:1006700000101010FF00141414FF001010FF00FFF2
:100680001010F010F0141414FC001414F700FF0004
:1006900000FF00FF1414F404FC141417101F1010B2
:1006A0001F101F1414141F00101010F00000000081
:1006B0001F101010101F10101010F010000000FF7D
:1006C000101010101010101010FF10000000FF1478
:1006D0000000FF00FF00001F10170000FC04F414CE
:1006E000141710171414F404F40000FF00F7141486
:1006F0001414141414F700F7141414171410101F02
:10070000101F141414F4141010F010F000001F1037
:100710001F0000001F14000000FC140000F010F087
:100720001010FF10FF141414FF141010101F0000FD
:100730000000F010FFFFFFFFFFF0F0F0F0F0FFFF10
:10074000FF0000000000FFFF0F0F0F0F0F384444A1
:1007500038447C2A2A3E147E02020606027E027E6D
:100760000263554941633844443C04407E201E20C6
:1007700006027E020299A5E7A5991C2A492A1C4C6B
:100780007201724C304A4D4D303048784830BC626E
:100790005A463D3E494949007E0101017E2A2A2AE6
:1007A0002A2A44445F444440514A444040444A5108
:1007B000400000FF0103E080FF000008086B6B08A9
:1007C0003612362436060F090F06000018180000EE
:1007D000001010003040FF0101001F01011E001930
:1007E0001D1712003C3C3C3C0000000000000000D3
:1007F00000240027002A002D003000000000002502
:100800000028002B002E0031000408020110408057
:1008100040102040804080080204018040201002E7
:100820000110801020404020040404040403040547
:10083000020202020403020202020606060606067D
:100840000404020202040406011501260137014ACC
:10085000015D01720188019F01B801D201EE010B17
:10086000022A024B026E029302BA02E40210033F14
:10087000037003A403DC03170455049704DD042765
:10088000057505C80520067D06E0064907B8072D51
:1008900008A9082D09B9094D0AEA0A900B400CFA7B
:1008A0000CC00D910E6F0F5A1053115B1272139AF8
:1008B00014D41520178018F519801B231DDE1EB4D3
:1008C00020A622B524E4263429A72B402E0031EAA5
:1008D000330037453ABC3D68414C456B49C84D68CB
:1008E000524F57805C006210111213151617181A18
:1008F0001C1D1F21232527292C2E3134373A3E4138
:1009000045494E52575C62686E757B838B939CA5FC
:10091000AFB9C4D0DCE9F7F0F89C8E8783878E9C52
:10092000F8F00000FEFF0303030303070EFCF800CA
:1009300000FEFF0303030303070EFCF80000FFFFA4
:1009400000000000000000FFFF0000FEFF83838323
:100950008383C7EE7C380000F8FC0E07030303070F
:100960000EFCF800003F7FE0C08080C0E07F3FFFCA
:10097000FF01010101010101FFFF0000FFFF0C0C5D
:100980000C0C1C3E77E3C100007FFFC0C0C0C0C09C
:10099000E0703F1F00001F3F70E0C0C0C0E0703F2C
:1009A0001F00007FFFC1C1C1C1C1E3773E1C000031
:1009B0001F3F70E0C0C0C0E0703F1F00000000009B
:1009C00001FFFF01000000D5F08D14A1C881CFD92F
:1009D000F1AF20004F4646004F4E004D75736963DE
:1009E00000546F67676C65004261636B00903C0068
:1009F000168000999035001680009B903900158074
:100A0000009B90350016800099903B001680009B5B
:100A10009035001580009B903C0016800099903521
:100A2000001680009B9039001580009B90350016C1
:100A3000800099903B001680009B90350015800047
:100A40009B903C00168000999035001680009B908A
:100A500039001580009B90350016800099903B006E
:100A60001680009B9035001580009B903C001680FE
:100A700000999035001680009B9039001580009BEE
:100A800090350016800099903B001680009B9035B1
:100A9000001580009B903C002C8000859032002E39
:100AA0008000859039002C8000859032002C8000D9
:100AB00085903B002E8000859032002C8000859030
:100AC0003C002C8000859032002E800085903900FB
:100AD0002C8000859032002C800085903B002E8079
:100AE00000859032002C800085903C004280006F91
:100AF000903200428000709039004280006F903246
:100B0000004280006F903B004280007090320042B3
:100B100080006F903C004280006F90320042800065
:100B2000709039004280006F9032004280006F90D8
:100B30003B00428000709032004280006F903C0089
:100B400058800057902D00588000589039005780E9
:100B50000058902D0058800057903B005880005856
:100B6000902D0057800058903C0058800057902DE1
:100B7000005880005890390057800058902D005838
:100B8000800057903B0058800058902D00578000FF
:100B900058903C006F800042902D00708000429081
:100BA00039006F800042902D006F800042903B0022
:100BB00070800042902D006F800042903C006F805A
:100BC0000042902D00708000429039006F800042FA
:100BD000902D006F800042903B0070800042902D6D
:100BE000006F800042903C008580002C902D008595
:100BF00080002E9039008580002C902D008580008B
:100C00002C903B008580002E902D008580002C903C
:100C10003C008580002C902D008580002E903900AE
:100C20008580002C902D008580002C903B008580D5
:100C3000002E902D008580002C903C009B8000159C
:100C4000902D009B800016903E0099800016902DFC
:100C5000009B800015903C009B800016902D009911
:100C6000800016903B00B180902D00B2809039003A
:100C7000B180902D00B180903700B280902D00B1EE
:100C800080F02B00206D617800207800427579009B
:100C900053657276657273000F0F0F0E5A810081D3
:100CA000008100810081008100818100810081003C
:100CB000810081008100815A4C564C200042757998
:100CC0000028300000FEFFFF070707070707070798
:100CD00007070707070707070707070707070707A4
:100CE000070707070707FFFFFE00000000FFFFFFE1
:100CF00000000000000000000000000000000000F4
:100D00000000000000000000000000000000FFFFE5
:100D1000FF00000000FFFFFF0000000000000000D7
:100D200000000000000000000000000000000000C3
:100D3000000000000000FFFFFF00000000FFFFFFB9
:100D400000000000000000000000000000000000A3
:100D50000000000000000000000000000000FFFF95
:100D6000FF00000000FFFFFF000000000000000087
:100D70000000000000000000000000000000000073
:100D8000000000000000FFFFFF000010181F1F1FE1
:100D900017070707070707070707070707070707D3
:100DA00007070707070707070707070707171F1F93
:100DB0001F181042757900557067726164650043B1
:100DC0006170616369747900557067726164650070
:100DD00042757900304848360F0F064F66666963E2
:100DE0006500307878360909064F5645524C4F4118
:100DF0004400150A150A150A150A150A150A150AD6
:100E0000150A150A150A150A150A150A150A150AEA
:100E1000150A150A150A150A150A150A150A150ADA
:100E2000150A63130864630F10100F001C07001FDE
:100E30000204021F322A7F2A26903C000E911D00D8
:100E40002C810077809035000E9111002C81007864
:100E5000809039000E911D002C8100778090350024
:100E60000E9121002C81007780903B000E91240090
:100E70002C810078809035000E9129002C8100771C
:100E800080903C000E911D002C81007780903500F1
:100E90000E9111002C810078809039000E911D0078
:100EA0002C810077809035000E9121002C810077F5
:100EB00080903B000E9124002C81007880903500BA
:100EC0000E9129002C81007780903C000E911D002E
:100ED0002C810077809035000E9111002C810078D4
:100EE000809039000E911D002C8100778090350094
:100EF0000E9121002C81007780903B000E91240000
:100F00002C810078809035000E9129002C8100778B
:100F100080903C000E911D002C8100778090350060
:100F20000E9111002C810078809039000E911D00E7
:100F30002C810077809035000E9121002C81007764
:100F400080903B000E9124002C8100788090350029
:100F50000E9129002C81007780903C000E911A00A0
:100F60002C810077809032000E910E002C81007849
:100F7000809039000E911A002C8100778090320009
:100F80000E911D002C81007780903B000E91210076
:100F90002C810078809032000E9124002C81007703
:100FA00080903C000E911A002C81007780903200D6
:100FB0000E910E002C810078809039000E911A005D
:100FC0002C810077809032000E911D002C810077DB
:100FD00080903B000E9121002C810078809032009F
:100FE0000E9124002C81007780903C000E911A0015
:100FF0002C810077809032000E910E002C810078B9
:10100000809039000E911A002C8100778090320078
:101010000E911D002C81007780903B000E912100E5
:101020002C810078809032000E9124002C81007772
:1010300080903C000E911A002C8100778090320045
:101040000E910E002C810078809039000E911A00CC
:101050002C810077809032000E911D002C8100774A
:1010600080903B000E9121002C810078809032000E
:101070000E9124002C81007780903C000E9121007D
:101080002C81007780902D000E9115002C81007826
:10109000809039000E9121002C81007780902D00E6
:1010A0000E9124002C81007780903B000E91280047
:1010B0002C81007880902D000E912D002C810077DE
:1010C00080903C000E9121002C81007780902D00B3
:1010D0000E9115002C810078809039000E9121002E
:1010E0002C81007780902D000E9124002C810077B8
:1010F00080903B000E9128002C81007880902D007C
:101100000E912D002C81007780903C000E912100E3
:101110002C81007780902D000E9115002C81007895
:10112000809039000E9121002C81007780902D0055
:101130000E9124002C81007780903B000E912800B6
:101140002C81007880902D000E912D002C8100774D
:1011500080903C000E9121002C81007780902D0022
:101160000E9115002C810078809039000E9121009D
:101170002C81007780902D000E9124002C81007727
:1011800080903B000E9128002C81007880902D00EB
:101190000E912D002C81007780903C000E91210053
:1011A0002C81007780902D000E9115002C81007805
:1011B000809039000E9121002C81007780902D00C5
:1011C0000E9124002C81007780903B000E91280026
:1011D0002C81007880902D000E912D002C810077BD
:1011E00080903C000E9121002C81007780902D0092
:1011F0000E9115002C810078809039000E9121000D
:101200002C81007780902D000E9124002C81007796
:1012100080903B000E9128002C81007880902D005A
:101220000E912D002C81007780903C000E912100C2
:101230002C81007780902D000E9115002C81007874
:1012400080903E000E9115002C81007780902D003B
:101250000E9121002C81007780903C000E911500AA
:101260002C81007880902D000E9115002C81007744
:1012700080903B000E9121002C81007780902D0002
:101280000E9115002C810078809039000E9121007C
:101290002C81007780902D000E9115002C81007715
:1012A000809037000E912D002C81007880902D00C9
:1012B0000E9121002C81007780903C000E911D0042
:1012C0002C810077809035000E9111002C810078E0
:1012D000809039000E911D002C81007780903500A0
:1012E0000E9121002C81007780903B000E9124000C
:1012F0002C810078809035000E9129002C81007798
:1013000080903C000E911D002C810077809035006C
:101310000E9111002C810078809039000E911D00F3
:101320002C810077809035000E9121002C81007770
:1013300080903B000E9124002C8100788090350035
:101340000E9129002C81007780903C000E911D00A9
:101350002C810077809035000E9111002C8100784F
:10136000809039000E911D002C810077809035000F
:101370000E9121002C81007780903B000E9124007B
:101380002C810078809035000E9129002C81007707
:1013900080903C000E911D002C81007780903500DC
:1013A0000E9111002C810078809039000E911D0063
:1013B0002C810077809035000E9121002C810077E0
:1013C00080903B000E9124002C81007880903500A5
:1013D0000E9129002C81007780903C000E911A001C
:1013E0002C810077809032000E910E002C810078C5
:1013F000809039000E911A002C8100778090320085
:101400000E911D002C81007780903B000E912100F1
:101410002C810078809032000E9124002C8100777E
:1014200080903C000E911A002C8100778090320051
:101430000E910E002C810078809039000E911A00D8
:101440002C810077809032000E911D002C81007756
:1014500080903B000E9121002C810078809032001A
:101460000E9124002C81007780903C000E911A0090
:101470002C810077809032000E910E002C81007834
:10148000809039000E911A002C81007780903200F4
:101490000E911D002C81007780903B000E91210061
:1014A0002C810078809032000E9124002C810077EE
:1014B00080903C000E911A002C81007780903200C1
:1014C0000E910E002C810078809039000E911A0048
:1014D0002C810077809032000E911D002C810077C6
:1014E00080903B000E9121002C810078809032008A
:1014F0000E9124002C81007780903C000E912100F9
:101500002C81007780902D000E9115002C810078A1
:10151000809039000E9121002C81007780902D0061
:101520000E9124002C81007780903B000E912800C2
:101530002C81007880902D000E912D002C81007759
:1015400080903C000E9121002C81007780902D002E
:101550000E9115002C810078809039000E912100A9
:101560002C81007780902D000E9124002C81007733
:1015700080903B000E9128002C81007880902D00F7
:101580000E912D002C81007780903C000E9121005F
:101590002C81007780902D000E9115002C81007811
:1015A000809039000E9121002C81007780902D00D1
:1015B0000E9124002C81007780903B000E91280032
:1015C0002C81007880902D000E912D002C810077C9
:1015D00080903C000E9121002C81007780902D009E
:1015E0000E9115002C810078809039000E91210019
:1015F0002C81007780902D000E9124002C810077A3
:1016000080903B000E9128002C81007880902D0066
:101610000E912D002C81007780903C000E911F00D0
:101620002C81007780902B000E9113002C81007884
:10163000809039000E911F002C81007780902B0044
:101640000E9123002C81007780903B000E912600A4
:101650002C81007880902B000E912B002C8100773C
:1016600080903C000E911F002C81007780902B0011
:101670000E9113002C810078809039000E911F008C
:101680002C81007780902B000E9123002C81007715
:1016900080903B000E9126002C81007880902B00DA
:1016A0000E912B002C81007780903C000E911F0042
:1016B0002C81007780902B000E9113002C810078F4
:1016C00080903E000E911F002C81007780902B00AF
:1016D0000E9123002C81007780903C000E91260013
:1016E0002C81007880902B000E912B002C810077AC
:1016F00080903B000E911F002C81007780902B0082
:101700000E9113002C810078809039000E911F00FB
:101710002C81007780902B000E9123002C81007784
:10172000809037000E9126002C81007880902B004D
:101730000E912B002C81007780903C000E911D00B3
:101740002C810077809035000E9111002C8100785B
:10175000809039000E911D002C810077809035001B
:101760000E9121002C81007780903B000E91240087
:101770002C810078809035000E9129002C81007713
:1017800080903C000E911D002C81007780903500E8
:101790000E9111002C810078809039000E911D006F
:1017A0002C810077809035000E9121002C810077EC
:1017B00080903B000E9124002C81007880903500B1
:1017C0000E9129002C81007780903C000E911D0025
:1017D0002C810077809035000E9111002C810078CB
:1017E000809039000E911D002C810077809035008B
:1017F0000E9121002C81007780903B000E912400F7
:101800002C810078809035000E9129002C81007782
:1018100080903C000E911D002C8100778090350057
:101820000E9111002C810078809039000E911D00DE
:101830002C810077809035000E9121002C8100775B
:1018400080903B000E9124002C8100788090350020
:101850000E9129002C81007780903C000E911A0097
:101860002C810077809032000E910E002C81007840
:10187000809039000E911A002C8100778090320000
:101880000E911D002C81007780903B000E9121006D
:101890002C810078809032000E9124002C810077FA
:1018A00080903C000E911A002C81007780903200CD
:1018B0000E910E002C810078809039000E911A0054
:1018C0002C810077809032000E911D002C810077D2
:1018D00080903B000E9121002C8100788090320096
:1018E0000E9124002C81007780903C000E911A000C
:1018F0002C810077809032000E910E002C810078B0
:10190000809039000E911A002C810077809032006F
:101910000E911D002C81007780903B000E912100DC
:101920002C810078809032000E9124002C81007769
:1019300080903C000E911A002C810077809032003C
:101940000E910E002C810078809039000E911A00C3
:101950002C810077809032000E911D002C81007741
:1019600080903B000E9121002C8100788090320005
:101970000E9124002C81007780903C000E91210074
:101980002C81007780902D000E9115002C8100781D
:10199000809039000E9121002C81007780902D00DD
:1019A0000E9124002C81007780903B000E9128003E
:1019B0002C81007880902D000E912D002C810077D5
:1019C00080903C000E9121002C81007780902D00AA
:1019D0000E9115002C810078809039000E91210025
:1019E0002C81007780902D000E9124002C810077AF
:1019F00080903B000E9128002C81007880902D0073
:101A00000E912D002C81007780903C000E912100DA
:101A10002C81007780902D000E9115002C8100788C
:101A2000809039000E9121002C81007780902D004C
:101A30000E9124002C81007780903B000E912800AD
:101A40002C81007880902D000E912D002C81007744
:101A500080903C000E9121002C81007780902D0019
:101A60000E9115002C810078809039000E91210094
:101A70002C81007780902D000E9124002C8100771E
:101A800080903B000E9128002C81007880902D00E2
:101A90000E912D002C81007780903C000E9121004A
:101AA0002C81007780902D000E9115002C810078FC
:101AB000809039000E9121002C81007780902D00BC
:101AC0000E9124002C81007780903B000E9128001D
:101AD0002C81007880902D000E912D002C810077B4
:101AE00080903C000E9121002C81007780902D0089
:101AF0000E9115002C810078809039000E91210004
:101B00002C81007780902D000E9124002C8100778D
:101B100080903B000E9128002C81007880902D0051
:101B20000E912D002C81007780903C000E912100B9
:101B30002C81007780902D000E9115002C8100786B
:101B400080903E000E9115002C81007780902D0032
:101B50000E9121002C81007780903C000E911500A1
:101B60002C81007880902D000E9115002C8100773B
:101B700080903B000E9121002C81007780902D00F9
:101B80000E9115002C810078809039000E91210073
:101B90002C81007780902D000E9115002C8100770C
:101BA000809037000E912D002C81007880902D00C0
:101BB0000E9121002C81007780903C000E911D0039
:101BC0002C810077809035000E9111002C810078D7
:101BD000809039000E911D002C8100778090350097
:101BE0000E9121002C81007780903B000E91240003
:101BF0002C810078809035000E9129002C8100778F
:101C000080903C000E911D002C8100778090350063
:101C10000E9111002C810078809039000E911D00EA
:101C20002C810077809035000E9121002C81007767
:101C300080903B000E9124002C810078809035002C
:101C40000E9129002C81007780903C000E911D00A0
:101C50002C810077809035000E9111002C81007846
:101C6000809039000E911D002C8100778090350006
:101C70000E9121002C81007780903B000E91240072
:101C80002C810078809035000E9129002C810077FE
:101C900080903C000E911D002C81007780903500D3
:101CA0000E9111002C810078809039000E911D005A
:101CB0002C810077809035000E9121002C810077D7
:101CC00080903B000E9124002C810078809035009C
:101CD0000E9129002C81007780903C000E911A0013
:101CE0002C810077809032000E910E002C810078BC
:101CF000809039000E911A002C810077809032007C
:101D00000E911D002C81007780903B000E912100E8
:101D10002C810078809032000E9124002C81007775
:101D200080903C000E911A002C8100778090320048
:101D30000E910E002C810078809039000E911A00CF
:101D40002C810077809032000E911D002C8100774D
:101D500080903B000E9121002C8100788090320011
:101D60000E9124002C81007780903C000E911A0087
:101D70002C810077809032000E910E002C8100782B
:101D8000809039000E911A002C81007780903200EB
:101D90000E911D002C81007780903B000E91210058
:101DA0002C810078809032000E9124002C810077E5
:101DB00080903C000E911A002C81007780903200B8
:101DC0000E910E002C810078809039000E911A003F
:101DD0002C810077809032000E911D002C810077BD
:101DE00080903B000E9121002C8100788090320081
:101DF0000E9124002C81007780903C000E912100F0
:101E00002C81007780902D000E9115002C81007898
:101E1000809039000E9121002C81007780902D0058
:101E20000E9124002C81007780903B000E912800B9
:101E30002C81007880902D000E912D002C81007750
:101E400080903C000E9121002C81007780902D0025
:101E50000E9115002C810078809039000E912100A0
:101E60002C81007780902D000E9124002C8100772A
:101E700080903B000E9128002C81007880902D00EE
:101E80000E912D002C81007780903C000E91210056
:101E90002C81007780902D000E9115002C81007808
:101EA000809039000E9121002C81007780902D00C8
:101EB0000E9124002C81007780903B000E91280029
:101EC0002C81007880902D000E912D002C810077C0
:101ED00080903C000E9121002C81007780902D0095
:101EE0000E9115002C810078809039000E91210010
:101EF0002C81007780902D000E9124002C8100779A
:101F000080903B000E9128002C81007880902D005D
:101F10000E912D002C81007780903C000E912100C5
:101F20002C81007780902D000E9115002C81007877
:101F3000809039000E9121002C81007780902D0037
:101F40000E9124002C81007780903B000E91280098
:101F50002C81007880902D000E912D002C8100772F
:101F600080903C000E9121002C81007780902D0004
:101F70000E9115002C810078809039000E9121007F
:101F80002C81007780902D000E9124002C81007709
:101F900080903B000E9128002C81007880902D00CD
:101FA0000E912D002C81007780903C000E91210035
:101FB0002C81007780902D000E9115002C810078E7
:101FC00080903E000E9121002C81007780902D00A2
:101FD0000E9124002C81007780903C000E91280007
:101FE0002C81007880902D000E912D002C8100779F
:101FF00080903B000E9121002C81007780902D0075
:102000000E9115002C810078809039000E912100EE
:102010002C81007780902D000E9124002C81007778
:10202000809037000E9128002C81007880902D0040
:102030000E912D002C81007780F0080B0002020227
:102040000000090400000102020000052400100144
:1020500005240101010424020605240600010705E8
:10206000810310004009040100020A000000070576
:102070000202400000070583024000000403090437
:1020800012010002EF0201404123368000010102EB
:10209000030141726475696E6F204C4C43004172BC
:1020A0006475626F7900090F060600004E204F2804
:1020B00011241FBECFEFDAE0DEBFCDBF11E0A0E0FC
:1020C000B1E0EEE8F2E602C005900D92AC37B10740
:1020D000D9F726E0ACE7B1E001C01D92A236B20705
:1020E000E1F710E1C7E5D0E104C02197FE010E94AD
:1020F000422FC635D107C9F70E94C1200C943A314E
:102100000C9400008091940108954F925F926F9219
:102110007F928F929F92AF92BF92CF92DF92EF9277
:10212000FF920F931F93CF93DF9330E0F901E80FF5
:10213000F91F1E161F060CF07FC0803891050CF0A9
:102140007BC0802E912CF401E60FF71F1E161F0690
:102150000CF072C0603471050CF06EC0E62FE770B1
:102160007E2EF7E08F0E911CE3E095948794EA951C
:10217000E1F7F3E075956795FA95E1F7062E000C07
:10218000770BDB01B695BA2FAA27B795A795A80FAD
:10219000B91FAC52BE4FEA0110E000E07801E60E34
:1021A000F71E48E0E416F1040CF046C0EFEFEE161F
:1021B000FE06C4F150E040E05D01F0E8AF0EB11C56
:1021C000421753077CF5FA01E80FF91FE038F105D3
:1021D0004CF5F7FD24C0FA01EC0FFD1FE491F0E08F
:1021E0002F01072C02C0440C551C0A94E2F7EFEFB4
:1021F000EE16FE0691F16D01C40ED51EF60160804B
:1022000064286082772059F0F7E0EF16F10439F086
:102210006501C40ED51EF6016080652860824F5F9F
:102220005F4FCECF0F5F1F4FA058BF4FC20FD31FBE
:102230008016910609F0B2CFDF91CF911F910F91D7
:10224000FF90EF90DF90CF90BF90AF909F908F90D6
:102250007F906F905F904F9008957110D9CFDFCF2E
:102260000F93682F70E008E025E046EA50E290E026
:1022700080E00E9485100F910895480F592F511D3D
:102280001416150684F5803891056CF597FF02C089
:1022900090E080E04138510514F040E850E0481BE0
:1022A000FB01E770FF2721E001C0220FEA95EAF762
:1022B00077FF02C0695F7F4FFB0133E0F595E7953B
:1022C0003A95E1F7F695FE2FEE27F795E795E80F9B
:1022D000F91FEC52FE4F415030F08191DF01119710
:1022E000822B8C93F8CF0895E4EDF1E0A0E0B8E004
:1022F00000800EBC8111012C1197A0FDFDCF019231
:10230000B9F70DB40895FC018091D301882311F130
:102310003FB7F89482E08093E9002091F200822F89
:1023200090E01816190614F481E090E0882339F043
:10233000289844E64093D2014091F1004083222343
:1023400039F02091F200211103C02BE62093E80020
:102350003FBF08958FEF9FEF08952FB7F89483E064
:102360008093E9009091E800892F807295FF04C066
:102370009091F20080E4891B2FBF08958091CA01DB
:1023800081110DC082E08093C60184E08093C70173
:102390001092C9011092C80181E08093CA0186ECB5
:1023A00091E00895CF93DF931F92CDB7DEB7698395
:1023B000DC01ED91FC910280F381E02D41E050E0E1
:1023C000BE016F5F7F4F09950F90DF91CF91089508
:1023D00083E08093E9008091F200882319F08AE37A
:1023E0008093E80008950E94AD1190E00895CF9386
:1023F000DF931F92CDB7DEB7FC018485958597FDED
:1024000008C02FEF3FEF358724870F90DF91CF91E2
:102410000895CE0101960E948311019719F48981D4
:1024200090E0F3CF8FEF9FEFF0CF0F931F93CF93F9
:10243000DF931F92CDB7DEB78C01FC0184859585B3
:1024400097FF0BC0CE0101960E948311019771F492
:10245000898190E0F80195878487F80184859585C6
:102460000F90DF91CF911F910F9108958FEF9FEF04
:10247000F1CFFC018485958597FD0BC09FB7F8943B
:1024800082E08093E9008091F2009FBF90E0019686
:1024900008959FB7F89482E08093E9008091F2005C
:1024A0009FBF90E008954091C0015091C1012091DB
:1024B000BE013091BF0142175307B4F49091E80078
:1024C0009570E1F39091E80092FD19C08093F100BE
:1024D0008091C0019091C10101968F739927892B3A
:1024E00019F48EEF8093E8008091C0019091C101B2
:1024F00001969093C1018093C00181E0089580E02E
:102500000895DF92EF92FF920F931F93CF93DF9383
:10251000D82E8A01EB017B01E40EF51ECE15DF05F6
:1025200059F0D7FE12C0FE0184910E9453122196E9
:102530008111F4CF0FEF1FEFC801DF91CF911F91F1
:102540000F91FF90EF90DF9008958881EECF0F9369
:102550001F93CF93DF931F92CDB7DEB782E08983BD
:1025600042E450E06AE370E280E80E9481120E9437
:10257000BE11DC0112960D911C910115110589F017
:10258000D801ED91FC910280F381E02DBE016F5FD7
:102590007F4FC801099597FD04C0F801008511859A
:1025A000ECCF89810F90DF91CF911F910F9108950A
:1025B000615030F02091F100FC0120830196F8CFAA
:1025C000289884E68093D2010895FC010E947C1330
:1025D000319728F068517C4F8F4F9F4FF9CFAB0157
:1025E000FC010E947C13641775078E079F07C8F3D0
:1025F00008958F929F92AF92BF92CF92DF92EF9207
:10260000FF920F931F93CF93DF936C017B018A019D
:1026100080911F01882309F45AC08091D301882337
:1026200009F455C08091C50180FF05C08091E0008C
:1026300082608093E000E801B12C8AEFA82E93E03D
:10264000892E2AE3922E209711F4BB20C9F10E9413
:10265000AD11811108C0AA94AA20C9F181E090E0CF
:102660000E94E512F0CF8C171D0611F00CF08C2F94
:102670009FB7F8948092E9002091E80025FD02C000
:102680009FBFE1CF282F30E0C21BD30BF701815051
:1026900020F041914093F100FACFE20EF31EBB20EF
:1026A00021F09092E800B12CEBCF8091E80085FDFD
:1026B000E7CF9092E800BB24B394209709F3F3CFBF
:1026C0005D9884E68093C401101611063CF081E009
:1026D00090E0F6019383828310E000E0C801DF916F
:1026E000CF911F910F91FF90EF90DF90CF90BF900F
:1026F000AF909F908F900895AAEBB1E02FB7F89418
:102700007D918D919C9166B52FBFA89B05C06F3FB1
:1027100018F47F5F8F4F9F4F22E0660F771F881F4F
:10272000991F2A95D1F70895AF92BF92CF92DF9269
:10273000EF92FF920F931F93CF93DF936C017B0176
:102740008B01040F151FEB015E01AE18BF08C01707
:10275000D10759F06991D601ED91FC910190F0817A
:10276000E02DC6010995892B79F7C501DF91CF913D
:102770001F910F91FF90EF90DF90CF90BF90AF909F
:102780000895FC01448155816081718186E296E063
:102790000C949413CF92DF92EF92FF921F93CF93FA
:1027A000DF93E82FF0E0EA5DFE4F1081E62FF0E0C6
:1027B000603398F5E951F74FE491CE2FD0E0F12C3A
:1027C000E12C60E074E284EF90E0A7019E010E949A
:1027D000112C215031094109510991E02115310590
:1027E00081E0480751056CF060E970ED83E090E00E
:1027F000A7019E010E94112C215031094109510964
:1028000093E0113089F0133039F1DF91CF911F91AE
:10281000FF90EF90DF90CF900895EE0FFF1FE951EA
:10282000F84FC591D491CBCF809193018111EDCF19
:1028300080918100887F892B80938100309389006B
:1028400020938800109285001092840080916F0080
:10285000826080936F00D9CF80919100887F892B0F
:1028600080939100309399002093980010929500E6
:1028700010929400D0939201C093910181E08093D3
:10288000900180917100826080937100BECFE82F2B
:10289000F0E0EA5DFE4F8081813019F08330A9F0CD
:1028A00008958091930181110FC080916F008D7FF9
:1028B00080936F0080918201E0918001F09181010D
:1028C0009081809589238083089510929001809152
:1028D0008F018111F9CF80918D01E0918B01F091F1
:1028E0008C01EECFCF93DF93D1E0E091AB01F0917B
:1028F000AC01AF014F5F5F4F5093AC014093AB0110
:102900002491822F807FC22FCF70803821F48C2FAA
:102910000E944714EACF803919F5E0912406F0911E
:10292000250609958D2780938E01E091AB01F091EA
:10293000AC01CF0101969093AC018093AB016491FF
:1029400080919901C81788F6C13021F480917F01E8
:102950008111CBCF67FDC9CF8C2F0E94CA13C5CF81
:1029600087FD3CC03296F093AC01E093AB01FA01D5
:102970004491A0919101B0919201322F242F0E9495
:10298000942C6C507E4F8F4F9F4F28EE33E040E0E9
:1029900050E00E94722C209387013093880140936D
:1029A000890150938A018091870190918801A091BB
:1029B0008901B0918A01892B8A2B8B2B61F481E0EC
:1029C00090E0A0E0B0E08093870190938801A0930D
:1029D0008901B0938A01DF91CF910895803E49F437
:1029E0008091AD019091AE019093AC018093AB01C9
:1029F0007CCF803F09F079CF1092AF01ECCF90915E
:102A00009901923009F471C0292F30E0F901EA5D93
:102A1000FE4F408123583E4FF9018083913031F4BD
:102A200020917D01281302C090937F019F5F9093B6
:102A3000990190E0FC01E85DF74F2491875F974F83
:102A4000FC01849130E0220F331FF901E550F84F6B
:102A500065917491F901E351F84FA591B4919C915E
:102A6000982B9C93413019F04330D9F00895909100
:102A70006400977F90936400109280001092810010
:102A80009091810098609093810090918100916075
:102A90009093810070938101609380018093820103
:102AA000089590916500977F909365001092900033
:102AB0001092910090919100986090939100909164
:102AC000910091609093910070938C0160938B01C1
:102AD00080938D0180919901882321F06CE380E03F
:102AE0000E94CA1380E00C94471408954F925F929D
:102AF0006F927F928F929F92AF92BF92CF92DF920E
:102B0000EF92FF920F931F93CF93DF934C015901E4
:102B1000FC2DC02FD0E0CE01880D991D1816190686
:102B20000CF06CC020E8821691040CF067C09B0189
:102B30002E0D311D121613060CF060C060347105A5
:102B40000CF05CC04115510509F458C0E62FE77040
:102B5000FE2EDB0177FD179633E0B595A7953A95E4
:102B6000E1F73A2F77FF04C0FF2011F03FEF3A0F53
:102B7000662777276819790997FC02C070E060E042
:102B8000803891050CF44BC090E89819961BA32F40
:102B9000032E000CBB0B1A2F10953F3F0CF010E0DA
:102BA00021E08E2D877009F420E0E694E694E69407
:102BB000E20EAE0DB11D19971CF028E0E22EE31ACB
:102BC000E11A310F20E83203D0011124A80DB91DFC
:102BD000A60FB71F019F600D711D1124460F571FCF
:102BE0000F2D0F2C000C110BF33009F41CC1C8F48D
:102BF000F13009F4D0C0F23009F47CC0DF91CF91FC
:102C00001F910F91FF90EF90DF90CF90BF90AF900A
:102C10009F908F907F906F905F904F900895902F2E
:102C2000B5CFFA3FB1F1232F2E0DFB3F39F7321705
:102C300029F3BD016C527E4FD12CC12CC91608F06E
:102C4000A4C0FA01EC0DFD1DE491F0E04F01002E4F
:102C500002C0880C991C0A94E2F737FD06C0FB01FC
:102C60008081E82CE0948E218083FF2061F0373052
:102C700054F45B01F0E8AF0EB11CE92CE094F501CF
:102C800080818E218083FFEFCF1ADF0A6F5F7F4F35
:102C9000D5CF232F2E0D321709F4B0CFBD016C52C2
:102CA0007E4FD12CC12CC91608F069C0FA01EC0D79
:102CB000FD1DE491F0E04F01002E02C0880C991C2C
:102CC0000A94E2F737FD04C0FB01808188298083E4
:102CD000FF2051F0373044F45B01F0E8AF0EB11C37
:102CE000F501808189298083FFEFCF1ADF0A6F5FAA
:102CF0007F4FD9CF6FEF70E00F2C02C0660F771FA8
:102D00000A94E2F760957095772E232F2E0D3217D7
:102D100009F474CFFD01EC52FE4F6F01B12CA12CD0
:102D2000A91638F5FA01EA0DFB1DE491F0E02F0138
:102D3000002E02C0440C551C0A94E2F737FD05C072
:102D4000F6018081862384298083FF2059F0373063
:102D50004CF44601F0E88F0E911CF401808187212C
:102D600085298083FFEFAF1ABF0A8FEFC81AD80AF0
:102D7000D7CF3F5F4C0F5D1FA058BF4FC8CF3F5FFD
:102D80004C0F5D1FA058BF4F86CF3F5F4C0F5D1F9C
:102D9000A058BF4F4CCF6A0D7B1D232F2E0D32172D
:102DA00009F42CCFFD01EC52FE4F6F01B12CA12C88
:102DB000A91688F5FB01EA0DFB1D8490912C002ECD
:102DC00002C0880C991C0A94E2F780949094FA014E
:102DD000EA0DFB1D6490712C002E02C0660C771C5E
:102DE0000A94E2F737FD05C0F60180818821862923
:102DF0008083FF2049F037303CF4F601E058FF4F64
:102E00008081892187298083FFEFAF1ABF0A8FEF66
:102E1000C81AD80ACDCF3F5F4C0F5D1F6C0F7D1FC6
:102E2000A058BF4FBCCFC92ED12CFA01E60FF71F17
:102E3000AC52BE4F00E810E00C191D09CC19DD0999
:102E4000BE01660F771F41E050E06A010F2C01C000
:102E5000CC0C0A94EAF7592F2E2D792ECF93DF93BD
:102E6000ED01EF96EF9622968590A590FF2059F000
:102E70008C9C4001AC9C500137302CF4E880B0941D
:102E8000EB20E928E99233233AF0EC90A094EA2071
:102E9000E828ED920C944D1711965A9529F72A952A
:102EA00051F0572D33951124E60FF11DA00FB11DE0
:102EB000C00FD11DD9CFDF91CF9111249FCE90E0CB
:102EC0000C94E5128FB18095807F669B88601C9B77
:102ED000846008953E9A3F9A81E08093940108951A
:102EE0009091A101982329F49091A201982381E067
:102EF00009F480E0089580E00C9474118038910505
:102F0000B8F460347105A0F490E121E061FD24E0A3
:102F100060FD220F62FD2295687F969FD0011124EB
:102F2000A80FAC52BE4F0C90022A40FF02260C9212
:102F300008952F923F924F925F926F927F928F925D
:102F40009F92AF92BF92CF92DF92EF92FF920F9338
:102F50001F93CF93DF93EC018B017A016901C61AAD
:102F6000D70AD7FE03C0D194C194D10847018C1A67
:102F70009D0A97FE03C09194819491088C149D043E
:102F800054F49E2D8F2D7901292F382F9C2F8D2FB2
:102F9000E801092F182FEC16FD0654F4902F812F0D
:102FA0008901292F382F9C2F8D2FE701E92EF82E2C
:102FB00017012C1A3D0A2901401A510A57FE03C075
:102FC000519441945108310137FE03C08FEF681AC4
:102FD000780A759467948FEF021713070CF481E059
:102FE000A82E880FBB08EC16FD06A4F041E0BE0138
:102FF000C8018C149D0414F0B801CE010E947E1704
:103000006418750877FE04C00A0D1B1D620C731C42
:103010002196E9CFDF91CF911F910F91FF90EF9013
:10302000DF90CF90BF90AF909F908F907F906F90E8
:103030005F904F903F902F900895FF920F931F93B2
:10304000CF93DF93EC018B01F42E42FF0BC041E0E4
:1030500001960E947E1741E0B8016F5F7F4FCE015D
:103060000E947E17F1FE0DC041E0B801CE0101962D
:103070000E947E1741E0B80161507109CE010E94A3
:103080007E17F3FE0DC041E0B8016F5F7F4FCE01A8
:103090000E947E1741E0B801CE0101970E947E1781
:1030A000F0FE12C0B8016150710941E0CE010E94EA
:1030B0007E1741E0B801CE010197DF91CF911F91BA
:1030C0000F91FF900C947E17DF91CF911F910F917C
:1030D000FF9008958F929F92AF92BF92CF92DF920E
:1030E000EF92FF920F931F93CF93DF936D3089F090
:1030F000C0909F01D090A0016A30D1F410929E013F
:1031000010929D0188E0C80ED11CD092A001C092FF
:103110009F0181E090E0DF91CF911F910F91FF908F
:10312000EF90DF90CF90BF90AF909F908F900895D9
:1031300000919D0110919E01E5E06E9FE001112438
:10314000C351DD4F4801F12CF5E0E12CFF1629F0C9
:10315000CE010196FE01E490EC01B12CA12C4E2D84
:103160004170B6016A0D7B1DC4010E947E17E69472
:10317000FFEFAF1ABF0A88E0A816B10481F7F394F5
:10318000EFEF8E1A9E0AF6E0FF12DECF0A5F1F4FA6
:1031900010939E0100939D01BCCFDF92EF92FF92AE
:1031A0000F931F93CF93DF937C01D22E8B01040FDB
:1031B000111DEB0177FF02C0D0E0C0E0C80101346F
:1031C000110514F080E490E0C817D9073CF44D2DA8
:1031D000BE01C7010E947E172196F0CFDF91CF91EB
:1031E0001F910F91FF90EF90DF900895EF92FF9263
:1031F0000F931F93CF938C01842F41E0420FC3E0C4
:10320000C20F9B0121503109790120E0813079F40E
:10321000C80101960E94CD1820E04C2FB701C801CB
:10322000CF911F910F91FF90EF900C94CD18C80192
:103230000197F0CF8F929F92BF92CF92DF92EF9241
:10324000FF920F931F93CF93DF934C01EB01042F59
:10325000B22E1EEF140F6C018FEFC81AD80A60341B
:10326000710520F4412FC6010E943D117E01EB0C37
:10327000F11CB701615071096034710520F4412FD0
:10328000C6010E943D11BA94BA94219621E04B2DBB
:10329000BE01C4010E94CD18080D192D111D21E099
:1032A0004B2DBE01C80101970E94CD1841E0BE011F
:1032B000C6010E941D180250110942E0BE01C8015A
:1032C0000E941D1882E0E81AF10844E0B701C80125
:1032D0000E941D1848E0B701C601DF91CF911F91F0
:1032E0000F91FF90EF90DF90CF90BF909F908F90C5
:1032F0000C941D18CF92DF92EF92FF92CF93209102
:103300003C0630913D0650E040E02F5F3F4F4F4F6D
:103310005F4F80914A0690914B06280F391F411D3F
:10332000511D8091580690915906280F391F411D53
:10333000511D2093A7013093A8014093A9015093F8
:10334000AA01E1E0F1E065E071E0C12CD12C760149
:10335000CFE081918C9FC0011124092E000CAA0B93
:10336000BB0BC80ED91EEA1EFB1E6E177F0789F71E
:10337000C092A301D092A401E092A501F092A6010F
:10338000A4E6B0E00E94302CA7019601211531057A
:103390004105510521F421E030E040E050E00E9479
:1033A000722C20939C01CF91FF90EF90DF90CF90F3
:1033B0000895CF92EF920F93CF93DF93EC018E811C
:1033C0006A3069F49D819C836985860F8E8381E0D4
:1033D00090E0DF91CF910F91EF90CF9008956A33F5
:1033E00060F4603308F058C06B32B9F06E3209F403
:1033F00055C0613261F49EE311C0613440F06B3519
:1034000008F445C09FE9960F9A3108F443C09885A7
:103410009D5F8C81890F8C83DACF90E461E0680F27
:10342000062E000C770BAC810A2E000CBB0BE8E2D9
:10343000F2E029E232E08F81813091F50491F901C7
:10344000E4904AE252E09923D1F041E050E08E2D21
:10345000877011F450E040E02E2D26952695269594
:10346000240F352F311D029FF001039FF00D112411
:103470009E9FA0019F9F500D1124465D5D4F9AEFC6
:10348000C92E30E020E0CD010E947615C0CF9FEB21
:10349000960FC4CF99EBFCCF94E0FACF9FE3BECF59
:1034A0000491F901E4904AE252E09923D1F041E01D
:1034B00050E08E2D877011F450E040E02E2D2695BF
:1034C00026952695240F352F311D029FF001039F6D
:1034D000F00D11249E9FA0019F9F500D1124465D69
:1034E0005D4F8BEFC82ECDCF0F931F93CF93DF93FC
:1034F0008C01D0E0C0E0F801EC0FFD1F6491662361
:1035000041F086E296E00E94D919892B11F02196AC
:10351000F2CFCE01DF91CF911F910F9108950895C1
:1035200090E080E00895E0910D01F0E0EF5FFE4F44
:1035300060816623B1F070E090E080E00E94FC2A98
:103540009B01AC0163E373E383EB9FE30E94442D93
:1035500020E030E04AE754E40E94392B0E94152D08
:10356000089568EE73E080E090E008950F931F9354
:10357000CF93DF93EC0188819981009759F02A81DC
:103580003B812617370730F081E0DF91CF911F9103
:103590000F9108958B016F5F7F4F0E946D300097F0
:1035A00059F0998388831B830A832C813D81232BC7
:1035B00059F7FC011082E8CF80E0E7CFCF93DF938B
:1035C000EC0188819981009711F00E94E42F198203
:1035D00018821D821C821B821A82DF91CF9108956E
:1035E000EF92FF920F931F93CF93DF938C017B0198
:1035F000FB0101900020E9F73197E61BF70BD1F0B2
:10360000DC011496CD91DC91CE0FDF1FBE010E942C
:10361000B61A8823B9F0F80120813181848195811F
:10362000B701820F931F0E943331D8011596DC93A6
:10363000CE931497C801DF91CF911F910F91FF9006
:10364000EF900895C8010E94DE1AF4CFEF92FF9226
:103650000F931F93CF93DF93EC017B018A01BA0193
:103660000E94B61A81110BC0CE010E94DE1ACE0153
:10367000DF91CF911F910F91FF90EF9008951D83DF
:103680000C83B701888199810E943331F0CFFB010F
:1036900001900020E9F73197AF01461B570B0C94BE
:1036A000261BEF92FF920F931F93CF93DF93CDB71B
:1036B000DEB7A1970FB6F894DEBF0FBECDBF7C0179
:1036C000CB01BA01F7011182108213821282158296
:1036D00014828E010F5F1F4F21E043E00E945B28A0
:1036E000009789F0BC01C7010E94471BA1960FB645
:1036F000F894DEBF0FBECDBFDF91CF911F910F9128
:10370000FF90EF900895C7010E94DE1AEFCFFB01F2
:10371000DC0111961C921E9213961C921E92129717
:1037200015961C921E9214978617970749F0608190
:1037300071816115710521F0448155810C94261B1E
:103740000895FC0180819181009711F00C94E42F81
:103750000895CF92DF92EF92FF920F931F93CF9332
:10376000DF93CDB7DEB7A7970FB6F894DEBF0FBED5
:10377000CDBF8C016A017B0128EEC21623E0D20680
:10378000E104F10428F5FC011182108213821282F7
:10379000158214822AE0AE014F5F5F4FCB01B60164
:1037A0000E947928BE016F5F7F4FC8010E94471BAE
:1037B000C801A7960FB6F894DEBF0FBECDBFDF914C
:1037C000CF911F910F91FF90EF90DF90CF900895D0
:1037D000CB01BA010E94FC2AF0E4CF16F2E4DF0626
:1037E000FFE0EF06F10430F520E030E04AE754E472
:1037F0000E94A32CAB01BC01CE0101960E94511B7B
:10380000BE016F5F7F4FCE0182960E94871B69E5E4
:1038100071E0CE0182960E94F01ABC01C8010E949C
:10382000871BCE0182960E94A11BCE0101960E94A9
:10383000A11BBECFC1142AECD2062AE9E2062BE373
:10384000F206B0F420E034E244E759E40E94A32CED
:10385000AB01BC01CE0101960E94511BBE016F5FFE
:103860007F4FCE0182960E94871B6BE571E0D1CF1E
:1038700028E23BE64EE65EE40E94A32CAB01BC01CD
:10388000CE0101960E94511BBE016F5F7F4FCE019A
:1038900082960E94871B6DE571E0BBCF1F920F924D
:1038A0000FB60F9211248F939F938091E100909116
:1038B000E100937F9093E10083FF0FC01092E90035
:1038C00091E09093EB001092EC0092E39093ED0066
:1038D0001092D30198E09093F00082FF22C093E011
:1038E0009093E9009091F200992319F09AE3909354
:1038F000E8009091C401992341F09091C401915046
:103900009093C401911101C05D9A9091D2019923C5
:1039100041F09091D20191509093D201911101C048
:10392000289A84FF18C08091E2008E7E8160809387
:10393000E2008091E1008F7E8093E1008091C501DB
:103940008E7E80618093C5019F918F910F900FBEF5
:103950000F901F90189580FFF7CF8091E2008E7E28
:1039600080618093E2008091E1008E7E8093E1008F
:103970008091C5018E7E8160E5CF1F920F920FB6B8
:103980000F921124CF92DF92EF92FF920F931F9329
:103990002F933F934F935F936F937F938F939F9357
:1039A000AF93BF93EF93FF93CF93DF93CDB7DEB782
:1039B0006C97DEBFCDBF1092E9008091E80083FFD5
:1039C00025C068E0CE0145960E94D81282EF809310
:1039D000E8008D8987FF39C09091E80090FFFCCF07
:1039E000982F907609F034C19E894F89588D2F8980
:1039F000F88C911131C0803861F58091C3018093BA
:103A0000F1001092F1008EEF8093E8006C960FB6F3
:103A1000F894DEBF0FBECDBFDF91CF91FF91EF9144
:103A2000BF91AF919F918F917F916F915F914F91D6
:103A30003F912F911F910F91FF90EF90DF90CF90CA
:103A40000F900FBE0F901F9018959EEF9093E80077
:103A5000C7CF1092F100D5CF913059F48111D3CF57
:103A60004130510581F68091C3018D7F8093C30160
:103A7000CACF933049F48111C6CF4130510519F6B0
:103A80008091C3018260F2CF953041F48091E800CB
:103A900080FFFCCF20682093E300B5CF963009F07B
:103AA000A9C00B8D1C8D22E01092E9001092C1017B
:103AB0001092C001F2122EC01092BF011092BE01EE
:103AC0000E94A7121F8299E09983FA8291E09E8357
:103AD00090EA98879AEF99872091C0013091C101AF
:103AE000275F3F4F3C832B838D831092E900109218
:103AF000C1011092C0011093BF010093BE0149E0C3
:103B000050E0BE016F5F7F4F80E00E9481120E94F3
:103B1000A71279CF1093BF010093BE010E94BE117E
:103B2000DC0112960D911C910115110509F451C18A
:103B3000D801ED91FC910480F581E02DBE016B5E12
:103B40007F4FC8010995009709F03EC1F801008533
:103B50001185EACFF3E0FF120EC08F89882309F4A4
:103B600040C0823061F440E867E08EE990E20E9454
:103B70000A20811148CF81E28093EB0047CF81304A
:103B800029F440E86BE082E990E2F1CF833099F7C5
:103B90000E94BE11DC011296ED90FC908E010F5F29
:103BA0001F4F6801E114F10479F0D701ED91FC9108
:103BB0000680F781E02DB801C7010995080F111D96
:103BC000F701E084F184EECFD8011C92F601019058
:103BD0000020E9F73197BF016C197D0940E0C6016B
:103BE000C6CF6CE770E2FB01449150E080E80E9490
:103BF000811209CF973009F4BECF983021F481E0CB
:103C00008093F10000CF993009F0FDCE837009F068
:103C1000B2CFE9E2F1E081E031E096E321912223A5
:103C200071F08093E9003093EB00DF0111972C9144
:103C30002093EC009093ED008F5F873079F78EE74B
:103C40008093EA001092EA008F898093D301DBCE43
:103C50008B8D9C8D1092E9001092C1011092C001D1
:103C60009093BF018093BE01898D811192C08E898E
:103C70009D89913A49F4813209F07DCF47E050E0C7
:103C800068E171E080E0B3CF913209F074CF833204
:103C900069F48F89988DB0E0A0E08093140190932F
:103CA0001501A0931601B0931701ADCE803269F4CF
:103CB0008091E80082FFFCCF67E088E191E00E94FC
:103CC000D8128BEF8093E8009ECE823209F09BCE13
:103CD0008F8980931F01EEEFFFE7859194918B3FD1
:103CE0009C4D51F1E0E0F8E08091180190911901AC
:103CF000A0911A01B0911B01803B9440A105B10530
:103D0000F1F480911F0180FD1AC0EE3F8AE0F807B0
:103D100089F587E797E7918380838091600080939E
:103D2000C20188E19BE00FB6F894A89580936000EB
:103D30000FBE9093600067CEEEEFFAE0D5CF8081A2
:103D400091818737974709F05ECEA89580916000F2
:103D50008861809360008091C20180936000EE3F93
:103D60002AE0F20789F08091FE0A9091FF0A918380
:103D7000808349CE808191818737980751F2909353
:103D8000FF0A8093FE0AC5CF1092FF0A1092FE0A26
:103D90003ACE0E94BE11DC0112960D911C910115C4
:103DA000110509F4E8CED801ED91FC910190F08164
:103DB000E02DBE016B5E7F4FC8010995811123CEB6
:103DC000F80100851185EBCF181619060CF41BCEEF
:103DD000D2CEF1E0FF12BECE60E870E204CF0F92C7
:103DE0000FB68F939F93EF93FF938091B5018D5FF3
:103DF0008D3708F08D578093B501E6EBF1E08081B7
:103E00008E4F808391819F4F918382818F4F8283D8
:103E100083818F4F8383EAEBF1E080818F5F808322
:103E200081818F4F818382818F4F828383818F4FE6
:103E300083838FB18F6066991C9B88278F3681F4AE
:103E40008091B401981B963068F0E0E0F8E087E7D5
:103E50008083818388E180936000F0936000FFCFCE
:103E60009093B401FF91EF919F918F910FBE0F90AE
:103E700018951F920F920FB60F9211242F933F9314
:103E80004F935F936F937F938F939F93AF93BF9362
:103E9000EF93FF9380919001882389F080918F01A7
:103EA00081110DC080918E01811109C090918D0109
:103EB000E0918B01F0918C01808189278083809132
:103EC000AF01882329F18091870190918801A09109
:103ED0008901B0918A01892B8A2B8B2BC9F08091A3
:103EE000870190918801A0918901B0918A01019781
:103EF000A109B1098093870190938801A09389015A
:103F0000B0938A01892B8A2B8B2B11F40E94721497
:103F1000FF91EF91BF91AF919F918F917F916F91A1
:103F20005F914F913F912F910F900FBE0F901F9077
:103F300018951F920F920FB60F9211248F939F9393
:103F4000AF93BF93EF93FF9380919301882309F47C
:103F500054C08091830190918401A0918501B0911A
:103F60008601892B8A2B8B2BA1F190918201E09104
:103F70008001F09181018081892780838091830174
:103F800090918401A0918501B091860118161906BF
:103F90001A061B069CF48091830190918401A091E4
:103FA0008501B09186010197A109B1098093830130
:103FB00090938401A0938501B0938601FF91EF91C6
:103FC000BF91AF919F918F910F900FBE0F901F9057
:103FD000189510928F011092930180916F008D7F40
:103FE00080936F0080918201E0918001F0918101C6
:103FF0009081809589238083E1CF80918E0181110A
:10400000DDCF90918201E0918001F091810180816A
:104010008927F1CFEF92FF920F931F93CF93DF93F6
:10402000F82E192FE62E042F81E0860F880F0E94AC
:10403000531283E00E945312CF2DD12FEC0EFD2E90
:10404000F11CCE15DF05B9F007FF13C0FE01849106
:104050000E945312182F80E00E9453128123219650
:104060008111EFCFDF91CF911F910F91FF90EF90D2
:1040700008958881EDCF81E0F5CFFC011182108297
:104080001382128215821482FB0101900020E9F74D
:104090003197AF01461B570B0C94261B1F93CF93F0
:1040A000DF93E4EDF5E01382128288EE93E0A0E066
:1040B000B0E084839583A683B78383E391E0918303
:1040C00080838FEF9FEF958784876FE571E084E3AE
:1040D00096E00E943D20C4E3D6E084E690E09F8312
:1040E0008E831986188685E090E09B878A871C86D8
:1040F0008AE08D876EE671E082E496E00E943D20C2
:1041000088EC90E09D8B8C8B1F8A1E8A8AE090E061
:10411000998F888F1A8E14E61B8F66E771E080E511
:1041200096E00E943D2084EF91E09BA38AA31DA20C
:104130001CA284E190E09FA38EA318A619A782E891
:1041400090E19093250680932406E0E3F6E0138245
:10415000128281E591E091838083E6E2F6E01382AA
:10416000128285E491E09183808388E0818781E0F9
:1041700080871582168214828783DF91CF911F91E9
:104180000895CDB7DEB7AF97DEBFCDBF789483E09B
:1041900084BD83E085BD81E080936E00E1E8F0E0BE
:1041A00083E08083E0E881E08083E1E983E080834D
:1041B000E0E981E08083E1EC87E08083E3EC81E06B
:1041C0008083E0EC82E08083E2EC81E08083EAE7B8
:1041D00087E08083806880831092D3011092C301AE
:1041E0001092C5018091D70081608093D70080EA4A
:1041F0008093D80089B5806189BD89B5826089BD09
:1042000009B400FEFDCF81E090E00E94E5128091AC
:10421000D8008F7C80618093D8008091E000807FFF
:104220008093E0008091E1008E7E8093E1008DE03C
:104230008093E200559A209A81EC80937C0081EF74
:1042400085B987EE84B984E38BB984EF8AB9769A0D
:104250006E9880EF81BB10BA80E58CBD81E08DBD8A
:1042600085E00E945F175F9A85E00E945F175C9867
:10427000E7ECF9E085918EBD00000DB407FEFDCF9F
:10428000E43DC1F75C9A81E88093640081E080930B
:1042900065000E947B170E94621787FF15C05C981B
:1042A00085EA8EBD00000DB407FEFDCF5C9A2E9806
:1042B0002F982D988091640080628093640081E043
:1042C00083BF889513BEFCCF0E94621782FF37C060
:1042D0002D980E94621784788438A1F42D9A88EC76
:1042E0000E945F172F986FEF82E090E00E94FF2BF3
:1042F00084EF91E00E94E5122F9A0E946217847861
:104300008438D9F30E94621784718431A1F42D9A04
:1043100088EC0E945F172E9860E082E090E00E9497
:10432000FF2B84EF91E00E94E5122E9A0E94621703
:1043300084718431D9F388EC0E945F17C5CF2D9A20
:1043400082E090E00E94F72B882309F44CC00E9481
:104350006A1781E090E00E94F72B182F147081FFFC
:104360000CC011112E9841EFE42EFF24FA940E9404
:10437000621786FF3DC02E9A2F9A82E30E945F1734
:104380000E9462178111F9CF80E1809300010E94A1
:104390007A190E946A1785E00E94FF148DE00E943E
:1043A000FF148DEE99E09093AE018093AD01909350
:1043B000AC018093AB010E94721481E08093AF0145
:1043C0003DEE232E39E0332E17E1809197018823AB
:1043D00009F469C01092970180E090E0892BA9F35D
:1043E0000E940000EDCF109294013E983F98B1CF0B
:1043F000112331F024E0E216F10411F42E9A2F98E3
:1044000081E00E94741100E128E547E159E0B7011D
:1044100084E190E00E9485100E947B178FE00E944B
:104420005F173FEFE31AF30A49E1E416F10409F0DC
:104430009ECF112311F02F9A2D9880E991E00E94D0
:10444000E5122D9A81E090E00E94F72B80FF95CF36
:104450008AE090E00E94F72B9FEF980F9E3F08F0B4
:104460008CCF22E330E030939E0120939D0128E31E
:1044700030E03093A00120939F010AE010E0682F04
:1044800080E396E00E946A180F5F1F4FC8010E94E8
:10449000F72B0031110599F70E947B1788EE93E006
:1044A0000E94E5126ACF9091B60180919801592F30
:1044B000581B852F20910001521748F48F5F8217F7
:1044C00008F08ACF81E083BF889513BE85CF81E055
:1044D0008093970190939801E5E9F1E080819181C3
:1044E0000196808391838091B3018F5F883008F0BB
:1044F0000AC58093B3018091AF01811113C08091EF
:104500001301882379F089E39EE09093AE018093B4
:10451000AD019093AC018093AB010E94721481E0D5
:104520008093AF018091B20181112FC04091A7010A
:104530005091A8016091A9017091AA018091A301F5
:104540009091A401A091A501B091A6014817590727
:104550006A077B0710F4DB01CA01880F991FAA1FA5
:10456000BB1F40910E0150910F016091100170919D
:104570001101840F951FA61FB71F80930E01909302
:104580000F01A0931001B09311018091A2018093BB
:10459000A1010E9462178093A201009112010230D2
:1045A00009F0BEC488E00E947017882321F0809132
:1045B000B1018093120190E0E4EDF1E091119FEFE1
:1045C0008FEF91939193919391938150D0F71092A3
:1045D000A00110929F0110929E0110929D0129E06E
:1045E00030E040E850E069E070E090E080E00E9458
:1045F000991708E025E044E35EE061E070E083E0C5
:1046000090E00E9485108AE080932B0680932A0612
:10461000FF24F394F0922C0640910E0150910F016B
:104620006091100170911101CE0101960E94A91BA9
:10463000CE0101960E94C113CE0101960E94A11BDA
:104640002DE047E25EE062E070E085E290E00E94EB
:10465000851084E380932B0680932A06F0922C0623
:104660004091A7015091A8016091A9017091AA0100
:10467000CE0101960E94A91BCE0101960E94C11392
:10468000CE0101960E94A11B25E042E25EE061E0BE
:1046900070E086E490E00E94851042E361E070E003
:1046A0008DE490E00E943D1142E367E070E08DE40C
:1046B00090E00E943D1121E047E061E070E08DE470
:1046C00090E00E94CD1821E047E061E070E08EE7C5
:1046D00090E00E94CD18F0909C018FE52F2D26953B
:1046E0008F1508F420E308E042EF5DE062E070E03F
:1046F0008EE490E00E94851093E69F1508F42DC487
:10470000F6948F2D90E0835B9F4F27E030E0AC0163
:1047100061E070E00E94991780911201811165C1DA
:1047200080E80E947017882339F080910D01811173
:1047300048C483E080930D0180E10E9470178823B4
:1047400039F080910D01833008F43DC410920D01C1
:1047500084E00E947017882379F1E0900D01F12C1C
:10476000A7014F5F5E4F7A01FA010081043120F505
:104770000E94931A80900E0190900F01A09010015A
:10478000B090110186169706A806B906A8F0A501F3
:104790009401261B370B480B590BDA01C901809392
:1047A0000E0190930F01A0931001B09311010F5FC0
:1047B000F70100830E947A19E1ECFCE00491E2EC3D
:1047C000FCE0E49082E0C82E30E020E043EC5CE0C6
:1047D0006BE070E084E090E00E9476150091B201F9
:1047E000802F6AE00E94362F41E0911140E06CE09A
:1047F00070E084E290E00E947E17802F6CE00E94BF
:10480000362F41E0911140E06CE070E086E290E0EC
:104810000E947E17F1E04F2EF1E05F2EA1E1CA2E3B
:10482000D12CBFE0EB2EF12CFCE2F0932B06F093A1
:104830002A06E0922C06F20101912F010111C7C353
:1048400008E02CE14CE95CE0B7018AE090E00E94CE
:1048500085108DEB9CE00E94741A39E0E30EF11C88
:1048600049E0C40ED11C55E3C516D104E9F6E09029
:104870000D0189E0E89E802D1124805F0E94301197
:10488000F12CC7018F5F9E4F7C01FC018081843138
:1048900098F508E025E044E35EE06DE270E085E530
:1048A00090E00E94851085E580932B0680932A0670
:1048B00083E280932C06F7018081882309F4CEC31C
:1048C00087EB9DE00E94741A8DE580932B06809300
:1048D0002A068DE280932C060E94931AAB01BC013C
:1048E000CE0101960E94A91BCE0101960E94C11320
:1048F000CE0101960E94A11B21E230E045E550E087
:104900006BE070E085E590E00E94991721E230E0CD
:104910004EE750E061E270E085E590E00E94991773
:104920008AE580932B0680932A068CE080932C06E0
:104930008FEB9DE00E94741A08E02DE047E25EE0F4
:1049400067E170E08AE590E00E9485108BE6809335
:104950002B0680932A0686E180932C064091A301C2
:104960005091A4016091A5017091A601CE0101961C
:104970000E94A91BCE0101960E94C113CE0101968F
:104980000E94A11B27E042EE5DE069E370E08DE24A
:1049900090E00E94851087E380932B0680932A067F
:1049A00079E3F72EF0922C068BED9DE00E94741AAD
:1049B00027E044ED5DE069E370E08AE590E00E9465
:1049C000851084E680932B0680932A06F0922C06AD
:1049D000E0910D01F0E0EF5FFE4F8081882309F444
:1049E00040C388EC9DE00E94741A809112018130CE
:1049F00009F0E2C180E80E947017882339F08091A5
:104A00009B01811131C382E080939B0180E10E9470
:104A10007017882339F080919B01823008F426C3F7
:104A200010929B0184E00E947017882309F482C0D1
:104A300060919B012EE0269FC0011124AC014C5CCB
:104A4000594F7A01FA0194858585981708F072C04C
:104A500086809780B12CA12C80910E0190910F013E
:104A6000A0911001B091110188159905AA05BB0507
:104A700008F460C088199909AA09BB0980930E013E
:104A800090930F01A0931001B0931101BA01CE01D0
:104A900001960E94871BF701C680D780D886CF82F7
:104AA000808591859A878987828593859C878B8766
:104AB00064856D8785858E8770E090E080E00E9438
:104AC000FC2A9B01AC0160E070E080EC9FE30E9457
:104AD000442D4B015C01B60190E080E00E94FC2A6D
:104AE000A50194010E94392B0E94152DF7017783AF
:104AF0006683CE0101960E94A11BF7016285738532
:104B000080859185860F971F9187808784858F5F29
:104B1000848790E080E00E94FC2A20E030E040ECB6
:104B20005FE30E94392B0E94152DF701738762877E
:104B30000E947A1982E10E94301124E1E22EF12CC8
:104B4000B12CA12C3EE0632E47E0942E59E4852E33
:104B50006BE6762E80919B018A0D9B2D911D8330F3
:104B600091050CF0D7C0689E9001699E300D11240C
:104B7000A9014C5C594F6A01BA01CE0182960E948C
:104B8000871BF6018681978199A788A780859185E3
:104B90009BA78AA7828593859DA78CA784858EA7CE
:104BA00085858FA721E148E7B7016850710985E045
:104BB00090E00E941A1990922B0690922A0689EF93
:104BC0008E0D80932C06CE0182960E94C1138EA575
:104BD0008823A1F189E89CE00E94741A2EA530E098
:104BE00050E040E019A26E01F1E2CF0ED11CCA01E3
:104BF000B9012AE030E040E050E00E94722C605D94
:104C0000F60162936F01211531054105510579F7D0
:104C1000309761F001900020E9F73197AF014C190E
:104C20005D09B60186E296E00E9494139EA58FA5C9
:104C3000981720F084E89CE00E94741A6701FFEF47
:104C4000CF1ADF0A08E02DE047E25EE0B60187E018
:104C500090E00E94851010932B0610932A06E09294
:104C60002C064AA55BA570E060E0CE0101960E948B
:104C7000A91BCE0101960E94C113CE0101960E948C
:104C8000A11B9FA58EA5891708F040C080922B0616
:104C900080922A06E0922C0625E044E35EE0B7010C
:104CA00082E490E00E94851048A559A570E060E07C
:104CB000CE0101960E94A91BCE0101960E94C1134C
:104CC000CE0101960E94A11B2DE047E25EE0B601F5
:104CD0008AE590E00E94851070922B0670922A0659
:104CE000E0922C0682E89CE00E94741A4CA55DA517
:104CF00070E060E0CE0101960E94A91BCE010196F2
:104D00000E94C113CE0101960E94A11BCE01829682
:104D10000E94A11B2FEFA21AB20A32E1E30EF11C8E
:104D200043E0A416B10409F015CFF12CE12C20E0EA
:104D300048E068E370E0C7010E94CD185FEFE51A14
:104D4000F50A80E8E816F10491F708E027E042EE62
:104D50005DE069E370E08DE290E00E94851087E3FA
:104D600080932B0680932A0699E3F92EF0922C0665
:104D700080E99CE00E94741AE0919B019EE0E99F0B
:104D8000F0011124EC5CF94F948585859817A0F407
:104D900027E044ED5DE069E370E08AE590E00E9481
:104DA000851084E680932B0680932A06F0922C06C9
:104DB0008CE89CE00E94741A80911201823009F004
:104DC0009FC080E80E947017882339F080919A0173
:104DD000811150C181E080939A0180E10E94701797
:104DE000882339F080919A01882309F445C11092F3
:104DF0009A0184E00E9470178823D1F000919A01F3
:104E0000011116C080911301FF24F3948F25809324
:104E10001301882309F434C13092AE012092AD0110
:104E20003092AC012092AB010E947214F092AF015B
:104E300080919A019CE0899F802D1124805F0E94BF
:104E400030112BE048E76CE070E085E090E00E94D4
:104E50001A1988E080932B0680932A060EE00093AF
:104E60002C068BED99E00E94741A8AE580932B063C
:104E700080932A0600932C0680911301882309F45D
:104E80000BC188ED99E00E94741AF12CE12C20E00E
:104E900048E068E370E0C7010E94CD18EFEFEE1A1A
:104EA000FE0AF0E8EF16F10491F708E027E042EE81
:104EB0005DE069E370E08DE290E00E94851087E399
:104EC00080932B0680932A0689E3F82EF0922C0615
:104ED00088EE99E00E94741A27E044ED5DE069E3F2
:104EE00070E08AE590E00E94851084E680932B06AE
:104EF00080932A06F0922C0681EE99E00E94741AA3
:104F00000E947B1769CA1092B3018091B2018F5F32
:104F1000843118F48093B201EECA1092B201EBCA48
:104F20000E9462179091B00183FF0AC09F5F909327
:104F3000B001983709F03FCB0093B10182E039CB43
:104F40009150973738F4802F90E00196817099271F
:104F5000809312011092B0012ECBE9E6EF1508F014
:104F6000DBCB96E5E92EF12C20E045E062E070E035
:104F7000C7010E94CD18FFEFEF1AFF0A25E7E216DE
:104F8000F10491F722E030E041E063E070E084E773
:104F900090E00E94F61822E030E042E063E070E02A
:104FA00086E590E00E94F61886E580932B068093B4
:104FB0002A0681E080932C0689EE9DE00E94741AF7
:104FC000ABCB8150B7CB8F5F80930D01C1CB28E075
:104FD0004CE1B7018AE090E00E941A19802F65E049
:104FE0000E94362F882E912CB12CA12CECE06E2E35
:104FF000712C08E024E048E95CE0B601C3010E949E
:105000008510FFEFAF1ABF0A25E0620E711C8A14EB
:105010009B047CF788EB9CE00E94741AF2013197A4
:1050200080811BA21AA21DA21CA21FA21EA24AE0DE
:10503000BE016F5F7F4F90E00E949B28BE016F5FB3
:105040007F4FCE0182960E94471BCE0182960E941E
:10505000C113CE0182960E94A11BFFCB83EB9DE082
:1050600031CC80ED9DE0BFCC8150CECC8F5F809362
:105070009B01D8CC8150AFCE81E080939A01B9CE0C
:1050800080919901081728F4802F0E9447140F5F20
:10509000F7CF1092AF01CCCE84ED99E0F4CE80E54D
:1050A00096E00E94A11B82E496E00E94A11B84E38B
:1050B00096E00C94A11BEF920F931F93CF93DF9375
:1050C000E80134E047FD34E1042E000C550B57FF96
:1050D00003C0519541955109E32E022F242FAE01B3
:1050E0000E94B528CE01DF91CF911F910F91EF90D3
:1050F0000895BB27FA01A62F621771058105910556
:10510000330B30FB66F0AA27660F771F881F991FA5
:10511000AA1FA21710F0A21B63953850A9F7A05D33
:10512000AA3308F0A95DA19336F7B111B1931082AB
:10513000CA010C94EC2ABB27FB015527AA27880F2C
:10514000991FAA1FA41710F0A41B83955051B9F7FB
:10515000A05DAA3308F0A95DA193009779F7B1117A
:10516000B1931192CB010C94EC2AA9E0B0E0EBEBE7
:10517000F8E20C94412C6A01F22EB02E102FFBE3C2
:10518000AF2EA01608F41BE31F5F012F27E0AE012E
:105190004F5F5F4F0E94142ABC018981982F99703C
:1051A000913009F43FC09BE2E1FC04C09E2D917058
:1051B000E0FC3AC05E2D5071E82FE87083FF46C0D6
:1051C00084E0911101C083E0EF2DE81B8F1508F0FA
:1051D000E0E0D6018E2F20E2552351F1992329F0EA
:1051E000D6019C93C60101966C0196012D5F3F4F3D
:1051F000E2FE24C08EE4D6018C9391E411969C9338
:10520000119712968C93D9018E2F90E281111BC0B9
:10521000E20FF32FF11D10828EEF9FEF2996ECE045
:105220000C945D2C9DE2C6CF90E2C4CF2D938150AB
:105230008111FCCFCE0ED11CE0E0D0CF8EE6D6019E
:105240008C9391E6DBCF9D938150E0CF482F447043
:1052500082FF3DC084E0911101C083E08F1510F4FE
:10526000EF2DE81BD6018E2F20E2552309F199235B
:1052700029F0D6019C93C60101966C0196012D5F21
:105280003F4FE2FE1BC089E4D6018C938EE4119659
:105290008C93119786E412968C93D9018E2F90E20D
:1052A000882309F4B5CF9D938150FACF2D93815077
:1052B0008111FCCFCE0ED11CE0E0D9CF89E6D6011A
:1052C0008C938EE611968C93119786E6E4CF9B0122
:1052D00077FF02C030E020E0A1E0B0E0911102C011
:1052E000B0E0A0E0F9013196AE0FBF1F8B2C912CDE
:1052F000BB2009F461C05401EFEFAE1ABE0AAA0D3B
:10530000BB1DFA161B0619F014F04F2D4A1B511144
:1053100088C0E3FC59C07601A42FB0E2A1114FC0B0
:10532000C40ED11C992309F45BC040E0D60111964C
:10533000F60190836D01552309F448C0012F060F33
:105340009A81582F507184FF03C0913309F40150A2
:1053500010160CF047C0093008F008E0EEE2FE2E0F
:105360005B01A01AB10885019194819491082F3FA7
:10537000320729F4D601FC92F60131966F016217CB
:10538000730794F1021713077CF5DB01A21BB30B23
:10539000AA24A394B12CAC0EBD1EAA0DBB1D119660
:1053A0008C9121503109D601119628153905F4F058
:1053B000F60180836D01DBCFB12CA12CA0CFF701CA
:1053C000B1937F01A150AACF9111B0CFD601942FF4
:1053D00050E302C05D9391509111FCCFC40ED11CDB
:1053E00040E0ACCF01E0BACF80E3DBCF62177307B8
:1053F00031F4963388F4953311F4552369F0F601AE
:105400008083FD01842F90E2811108C0A40FB11D9B
:105410001C9290E080E002CF81E3F1CF9193815024
:10542000F3CF911183CF8ACF283008F027E03327BC
:10543000DA01990F311D87FD9160009661057105B4
:1054400039F432602E5F3D9330E32A95E1F70895F9
:105450009F3F30F080387105610509F03C5F3C5F8B
:105460003D93913008F08068911DDF93CF931F9397
:105470000F93FF92EF92192F987F9695E92F9695AB
:105480009695E90FFF27E857FE4F99273327EE241B
:10549000FF24A701E70105900894079428F4360F2C
:1054A000E71EF81E491F511D660F771F881F991FA1
:1054B0000694A1F70590079428F4E70EF81E491FFB
:1054C000561FC11D770F881F991F661F0694A1F7ED
:1054D0000590079428F4F80E491F561FC71FD11DC9
:1054E000880F991F661F771F0694A1F705900794F0
:1054F00020F4490F561FC71FD81F990F661F771F2B
:10550000881F0694A9F784911095177041F0D695DD
:10551000C79557954795F794E7941A95C1F7EEE22A
:10552000F1E06894159015913591659195910590EC
:105530007FE27395E118F10A430B560BC90BD009B2
:10554000C0F7E10CF11E431F561FC91FD01D7EF48A
:10555000703311F48A95E6CFE894015030F0080FCB
:105560000AF40027021708F4202F2395022F7A331C
:1055700028F079E37D932A95E9F710C07D932A9569
:1055800089F6069497956795379517951794E118BE
:10559000F10A430B560BC90BD00998F023957E9165
:1055A00073957A3308F070E37C932013B8F77E91FB
:1055B00070617D9330F0839571E37D9370E32A955C
:1055C000E1F71124EF90FF900F911F91CF91DF91A0
:1055D000992787FD90950895DC01FC01672F719153
:1055E0007723E1F7329704C07C916D9370836291C9
:1055F000AE17BF07C8F30895E89409C097FB3EF4BF
:1056000090958095709561957F4F8F4F9F4F99230F
:10561000A9F0F92F96E9BB279395F695879577958D
:105620006795B795F111F8CFFAF4BB0F11F460FF4D
:105630001BC06F5F7F4F8F4F9F4F16C0882311F0A5
:1056400096E911C0772321F09EE8872F762F05C0B9
:10565000662371F096E8862F70E060E02AF09A9554
:10566000660F771F881FDAF7880F9695879597F949
:1056700008950E944C2B0C94BD2B0E94AF2B38F048
:105680000E94B62B20F0952311F00C94A62B0C94BD
:10569000AC2B11240C94F12B0E94CE2B70F3959F10
:1056A000C1F3950F50E0551F629FF001729FBB2719
:1056B000F00DB11D639FAA27F00DB11DAA1F649FB5
:1056C0006627B00DA11D661F829F2227B00DA11D68
:1056D000621F739FB00DA11D621F839FA00D611DEE
:1056E000221F749F3327A00D611D231F849F600D0F
:1056F000211D822F762F6A2F11249F5750409AF038
:10570000F1F088234AF0EE0FFF1FBB1F661F771FC3
:10571000881F91505040A9F79E3F510580F00C948E
:10572000A62B0C94F12B5F3FE4F3983ED4F38695BF
:1057300077956795B795F795E7959F5FC1F7FE2B2E
:10574000880F911D9695879597F9089597F99F670A
:1057500080E870E060E008959FEF80EC08950024F9
:105760000A941616170618060906089500240A94C6
:1057700012161306140605060895092E0394000C4C
:1057800011F4882352F0BB0F40F4BF2B11F460FFDB
:1057900004C06F5F7F4F8F4F9F4F089557FD905804
:1057A000440F551F59F05F3F71F04795880F97FBE5
:1057B000991F61F09F3F79F087950895121613069F
:1057C0001406551FF2CF4695F1DF08C016161706CE
:1057D0001806991FF1CF8695710561050894089503
:1057E000E894BB2766277727CB0197F90895F999A5
:1057F000FECF92BD81BDF89A992780B50895262FD6
:10580000F999FECF92BD81BDF89A019700B40216B6
:1058100039F01FBA20BD0FB6F894FA9AF99A0FBE64
:105820000895052E97FB1EF400940E94282C57FD26
:1058300007D00E94722C07FC03D04EF40C94282C45
:1058400050954095309521953F4F4F4F5F4F0895AC
:1058500090958095709561957F4F8F4F9F4F0895DC
:105860000E94942CA59F900DB49F900DA49F800D35
:10587000911D112408952F923F924F925F926F9243
:105880007F928F929F92AF92BF92CF92DF92EF92D0
:10589000FF920F931F93CF93DF93CDB7DEB7CA1B51
:1058A000DB0B0FB6F894DEBF0FBECDBF09942A887C
:1058B000398848885F846E847D848C849B84AA8424
:1058C000B984C884DF80EE80FD800C811B81AA81B1
:1058D000B981CE0FD11D0FB6F894DEBF0FBECDBF7C
:1058E000ED010895A1E21A2EAA1BBB1BFD010DC0FC
:1058F000AA1FBB1FEE1FFF1FA217B307E407F50780
:1059000020F0A21BB30BE40BF50B661F771F881F5B
:10591000991F1A9469F760957095809590959B01F1
:10592000AC01BD01CF010895A29FB001B39FC0019A
:10593000A39F700D811D1124911DB29F700D811DBB
:105940001124911D08950E94B72C0C94BD2B0E9428
:10595000B62B58F00E94AF2B40F029F45F3F29F09E
:105960000C94A62B51110C94F12B0C94AC2B0E948F
:10597000CE2B68F39923B1F3552391F3951B550B67
:10598000BB27AA2762177307840738F09F5F5F4F12
:10599000220F331F441FAA1FA9F335D00E2E3AF051
:1059A000E0E832D091505040E695001CCAF72BD069
:1059B000FE2F29D0660F771F881FBB1F26173707BA
:1059C0004807AB07B0E809F0BB0B802DBF01FF27EC
:1059D00093585F4F3AF09E3F510578F00C94A62BF8
:1059E0000C94F12B5F3FE4F3983ED4F386957795C2
:1059F0006795B795F7959F5FC9F7880F911D9695A5
:105A0000879597F90895E1E0660F771F881FBB1F00
:105A1000621773078407BA0720F0621B730B840BAD
:105A2000BA0BEE1F88F7E09508950E94D62B88F0F8
:105A30009F5798F0B92F9927B751B0F0E1F0660F52
:105A4000771F881F991F1AF0BA95C9F714C0B13093
:105A500091F00E94F02BB1E008950C94F02B672F89
:105A6000782F8827B85F39F0B93FCCF386957795C2
:105A70006795B395D9F73EF49095809570956195AB
:105A80007F4F8F4F9F4F0895FA01EE0FFF1F309603
:105A900021053105A1F16115710561F48038BFE37D
:105AA0009B0749F168949038810561F08038BFEF19
:105AB0009B0741F099234AF5FF3FE1053105210598
:105AC00019F1E8940894E795D901AA2329F4AB2F9A
:105AD000BE2FF85FD0F310C0FF5F70F4A695E0F71B
